{
	"contracts/SimpleNFT.sol": {
		"SimpleNFT": {
			"abi": [
				{
					"inputs": [],
					"stateMutability": "nonpayable",
					"type": "constructor"
				},
				{
					"inputs": [
						{
							"internalType": "address",
							"name": "sender",
							"type": "address"
						},
						{
							"internalType": "uint256",
							"name": "tokenId",
							"type": "uint256"
						},
						{
							"internalType": "address",
							"name": "owner",
							"type": "address"
						}
					],
					"name": "ERC721IncorrectOwner",
					"type": "error"
				},
				{
					"inputs": [
						{
							"internalType": "address",
							"name": "operator",
							"type": "address"
						},
						{
							"internalType": "uint256",
							"name": "tokenId",
							"type": "uint256"
						}
					],
					"name": "ERC721InsufficientApproval",
					"type": "error"
				},
				{
					"inputs": [
						{
							"internalType": "address",
							"name": "approver",
							"type": "address"
						}
					],
					"name": "ERC721InvalidApprover",
					"type": "error"
				},
				{
					"inputs": [
						{
							"internalType": "address",
							"name": "operator",
							"type": "address"
						}
					],
					"name": "ERC721InvalidOperator",
					"type": "error"
				},
				{
					"inputs": [
						{
							"internalType": "address",
							"name": "owner",
							"type": "address"
						}
					],
					"name": "ERC721InvalidOwner",
					"type": "error"
				},
				{
					"inputs": [
						{
							"internalType": "address",
							"name": "receiver",
							"type": "address"
						}
					],
					"name": "ERC721InvalidReceiver",
					"type": "error"
				},
				{
					"inputs": [
						{
							"internalType": "address",
							"name": "sender",
							"type": "address"
						}
					],
					"name": "ERC721InvalidSender",
					"type": "error"
				},
				{
					"inputs": [
						{
							"internalType": "uint256",
							"name": "tokenId",
							"type": "uint256"
						}
					],
					"name": "ERC721NonexistentToken",
					"type": "error"
				},
				{
					"inputs": [
						{
							"internalType": "address",
							"name": "owner",
							"type": "address"
						}
					],
					"name": "OwnableInvalidOwner",
					"type": "error"
				},
				{
					"inputs": [
						{
							"internalType": "address",
							"name": "account",
							"type": "address"
						}
					],
					"name": "OwnableUnauthorizedAccount",
					"type": "error"
				},
				{
					"anonymous": false,
					"inputs": [
						{
							"indexed": true,
							"internalType": "address",
							"name": "owner",
							"type": "address"
						},
						{
							"indexed": true,
							"internalType": "address",
							"name": "approved",
							"type": "address"
						},
						{
							"indexed": true,
							"internalType": "uint256",
							"name": "tokenId",
							"type": "uint256"
						}
					],
					"name": "Approval",
					"type": "event"
				},
				{
					"anonymous": false,
					"inputs": [
						{
							"indexed": true,
							"internalType": "address",
							"name": "owner",
							"type": "address"
						},
						{
							"indexed": true,
							"internalType": "address",
							"name": "operator",
							"type": "address"
						},
						{
							"indexed": false,
							"internalType": "bool",
							"name": "approved",
							"type": "bool"
						}
					],
					"name": "ApprovalForAll",
					"type": "event"
				},
				{
					"anonymous": false,
					"inputs": [
						{
							"indexed": false,
							"internalType": "uint256",
							"name": "_fromTokenId",
							"type": "uint256"
						},
						{
							"indexed": false,
							"internalType": "uint256",
							"name": "_toTokenId",
							"type": "uint256"
						}
					],
					"name": "BatchMetadataUpdate",
					"type": "event"
				},
				{
					"anonymous": false,
					"inputs": [
						{
							"indexed": false,
							"internalType": "uint256",
							"name": "_tokenId",
							"type": "uint256"
						}
					],
					"name": "MetadataUpdate",
					"type": "event"
				},
				{
					"anonymous": false,
					"inputs": [
						{
							"indexed": true,
							"internalType": "address",
							"name": "previousOwner",
							"type": "address"
						},
						{
							"indexed": true,
							"internalType": "address",
							"name": "newOwner",
							"type": "address"
						}
					],
					"name": "OwnershipTransferred",
					"type": "event"
				},
				{
					"anonymous": false,
					"inputs": [
						{
							"indexed": false,
							"internalType": "uint256",
							"name": "badgeID",
							"type": "uint256"
						},
						{
							"indexed": false,
							"internalType": "uint256",
							"name": "tokenID",
							"type": "uint256"
						},
						{
							"indexed": false,
							"internalType": "address",
							"name": "recipient",
							"type": "address"
						}
					],
					"name": "TokenMinted",
					"type": "event"
				},
				{
					"anonymous": false,
					"inputs": [
						{
							"indexed": true,
							"internalType": "address",
							"name": "from",
							"type": "address"
						},
						{
							"indexed": true,
							"internalType": "address",
							"name": "to",
							"type": "address"
						},
						{
							"indexed": true,
							"internalType": "uint256",
							"name": "tokenId",
							"type": "uint256"
						}
					],
					"name": "Transfer",
					"type": "event"
				},
				{
					"inputs": [
						{
							"internalType": "address",
							"name": "_address",
							"type": "address"
						}
					],
					"name": "addToWhitelist",
					"outputs": [],
					"stateMutability": "nonpayable",
					"type": "function"
				},
				{
					"inputs": [
						{
							"internalType": "address",
							"name": "to",
							"type": "address"
						},
						{
							"internalType": "uint256",
							"name": "tokenId",
							"type": "uint256"
						}
					],
					"name": "approve",
					"outputs": [],
					"stateMutability": "nonpayable",
					"type": "function"
				},
				{
					"inputs": [
						{
							"internalType": "address",
							"name": "owner",
							"type": "address"
						}
					],
					"name": "balanceOf",
					"outputs": [
						{
							"internalType": "uint256",
							"name": "",
							"type": "uint256"
						}
					],
					"stateMutability": "view",
					"type": "function"
				},
				{
					"inputs": [
						{
							"internalType": "uint256",
							"name": "tokenId",
							"type": "uint256"
						}
					],
					"name": "getApproved",
					"outputs": [
						{
							"internalType": "address",
							"name": "",
							"type": "address"
						}
					],
					"stateMutability": "view",
					"type": "function"
				},
				{
					"inputs": [],
					"name": "getMsgSender",
					"outputs": [
						{
							"internalType": "address",
							"name": "",
							"type": "address"
						}
					],
					"stateMutability": "view",
					"type": "function"
				},
				{
					"inputs": [
						{
							"internalType": "address",
							"name": "owner",
							"type": "address"
						},
						{
							"internalType": "address",
							"name": "operator",
							"type": "address"
						}
					],
					"name": "isApprovedForAll",
					"outputs": [
						{
							"internalType": "bool",
							"name": "",
							"type": "bool"
						}
					],
					"stateMutability": "view",
					"type": "function"
				},
				{
					"inputs": [
						{
							"components": [
								{
									"internalType": "uint256",
									"name": "badgeID",
									"type": "uint256"
								},
								{
									"internalType": "address",
									"name": "recipient",
									"type": "address"
								},
								{
									"internalType": "string",
									"name": "metadataURI",
									"type": "string"
								}
							],
							"internalType": "struct SimpleNFT.BadgeInfo[]",
							"name": "badges",
							"type": "tuple[]"
						}
					],
					"name": "mintNFT",
					"outputs": [
						{
							"components": [
								{
									"internalType": "uint256",
									"name": "badgeID",
									"type": "uint256"
								},
								{
									"internalType": "uint256",
									"name": "tokenID",
									"type": "uint256"
								}
							],
							"internalType": "struct SimpleNFT.BadgeTokenPair[]",
							"name": "",
							"type": "tuple[]"
						}
					],
					"stateMutability": "nonpayable",
					"type": "function"
				},
				{
					"inputs": [],
					"name": "name",
					"outputs": [
						{
							"internalType": "string",
							"name": "",
							"type": "string"
						}
					],
					"stateMutability": "view",
					"type": "function"
				},
				{
					"inputs": [],
					"name": "owner",
					"outputs": [
						{
							"internalType": "address",
							"name": "",
							"type": "address"
						}
					],
					"stateMutability": "view",
					"type": "function"
				},
				{
					"inputs": [
						{
							"internalType": "uint256",
							"name": "tokenId",
							"type": "uint256"
						}
					],
					"name": "ownerOf",
					"outputs": [
						{
							"internalType": "address",
							"name": "",
							"type": "address"
						}
					],
					"stateMutability": "view",
					"type": "function"
				},
				{
					"inputs": [
						{
							"internalType": "address",
							"name": "_address",
							"type": "address"
						}
					],
					"name": "removeFromWhitelist",
					"outputs": [],
					"stateMutability": "nonpayable",
					"type": "function"
				},
				{
					"inputs": [],
					"name": "renounceOwnership",
					"outputs": [],
					"stateMutability": "nonpayable",
					"type": "function"
				},
				{
					"inputs": [
						{
							"internalType": "address",
							"name": "from",
							"type": "address"
						},
						{
							"internalType": "address",
							"name": "to",
							"type": "address"
						},
						{
							"internalType": "uint256",
							"name": "tokenId",
							"type": "uint256"
						}
					],
					"name": "safeTransferFrom",
					"outputs": [],
					"stateMutability": "nonpayable",
					"type": "function"
				},
				{
					"inputs": [
						{
							"internalType": "address",
							"name": "from",
							"type": "address"
						},
						{
							"internalType": "address",
							"name": "to",
							"type": "address"
						},
						{
							"internalType": "uint256",
							"name": "tokenId",
							"type": "uint256"
						},
						{
							"internalType": "bytes",
							"name": "data",
							"type": "bytes"
						}
					],
					"name": "safeTransferFrom",
					"outputs": [],
					"stateMutability": "nonpayable",
					"type": "function"
				},
				{
					"inputs": [
						{
							"internalType": "address",
							"name": "operator",
							"type": "address"
						},
						{
							"internalType": "bool",
							"name": "approved",
							"type": "bool"
						}
					],
					"name": "setApprovalForAll",
					"outputs": [],
					"stateMutability": "nonpayable",
					"type": "function"
				},
				{
					"inputs": [
						{
							"internalType": "bytes4",
							"name": "interfaceId",
							"type": "bytes4"
						}
					],
					"name": "supportsInterface",
					"outputs": [
						{
							"internalType": "bool",
							"name": "",
							"type": "bool"
						}
					],
					"stateMutability": "view",
					"type": "function"
				},
				{
					"inputs": [],
					"name": "symbol",
					"outputs": [
						{
							"internalType": "string",
							"name": "",
							"type": "string"
						}
					],
					"stateMutability": "view",
					"type": "function"
				},
				{
					"inputs": [
						{
							"internalType": "uint256",
							"name": "tokenId",
							"type": "uint256"
						}
					],
					"name": "tokenURI",
					"outputs": [
						{
							"internalType": "string",
							"name": "",
							"type": "string"
						}
					],
					"stateMutability": "view",
					"type": "function"
				},
				{
					"inputs": [
						{
							"internalType": "address",
							"name": "from",
							"type": "address"
						},
						{
							"internalType": "address",
							"name": "to",
							"type": "address"
						},
						{
							"internalType": "uint256",
							"name": "tokenId",
							"type": "uint256"
						}
					],
					"name": "transferFrom",
					"outputs": [],
					"stateMutability": "nonpayable",
					"type": "function"
				},
				{
					"inputs": [
						{
							"internalType": "address",
							"name": "newOwner",
							"type": "address"
						}
					],
					"name": "transferOwnership",
					"outputs": [],
					"stateMutability": "nonpayable",
					"type": "function"
				},
				{
					"inputs": [
						{
							"internalType": "address",
							"name": "",
							"type": "address"
						}
					],
					"name": "whitelist",
					"outputs": [
						{
							"internalType": "bool",
							"name": "",
							"type": "bool"
						}
					],
					"stateMutability": "view",
					"type": "function"
				}
			],
			"devdoc": {
				"errors": {
					"ERC721IncorrectOwner(address,uint256,address)": [
						{
							"details": "Indicates an error related to the ownership over a particular token. Used in transfers.",
							"params": {
								"owner": "Address of the current owner of a token.",
								"sender": "Address whose tokens are being transferred.",
								"tokenId": "Identifier number of a token."
							}
						}
					],
					"ERC721InsufficientApproval(address,uint256)": [
						{
							"details": "Indicates a failure with the `operator`’s approval. Used in transfers.",
							"params": {
								"operator": "Address that may be allowed to operate on tokens without being their owner.",
								"tokenId": "Identifier number of a token."
							}
						}
					],
					"ERC721InvalidApprover(address)": [
						{
							"details": "Indicates a failure with the `approver` of a token to be approved. Used in approvals.",
							"params": {
								"approver": "Address initiating an approval operation."
							}
						}
					],
					"ERC721InvalidOperator(address)": [
						{
							"details": "Indicates a failure with the `operator` to be approved. Used in approvals.",
							"params": {
								"operator": "Address that may be allowed to operate on tokens without being their owner."
							}
						}
					],
					"ERC721InvalidOwner(address)": [
						{
							"details": "Indicates that an address can't be an owner. For example, `address(0)` is a forbidden owner in EIP-20. Used in balance queries.",
							"params": {
								"owner": "Address of the current owner of a token."
							}
						}
					],
					"ERC721InvalidReceiver(address)": [
						{
							"details": "Indicates a failure with the token `receiver`. Used in transfers.",
							"params": {
								"receiver": "Address to which tokens are being transferred."
							}
						}
					],
					"ERC721InvalidSender(address)": [
						{
							"details": "Indicates a failure with the token `sender`. Used in transfers.",
							"params": {
								"sender": "Address whose tokens are being transferred."
							}
						}
					],
					"ERC721NonexistentToken(uint256)": [
						{
							"details": "Indicates a `tokenId` whose `owner` is the zero address.",
							"params": {
								"tokenId": "Identifier number of a token."
							}
						}
					],
					"OwnableInvalidOwner(address)": [
						{
							"details": "The owner is not a valid owner account. (eg. `address(0)`)"
						}
					],
					"OwnableUnauthorizedAccount(address)": [
						{
							"details": "The caller account is not authorized to perform an operation."
						}
					]
				},
				"events": {
					"Approval(address,address,uint256)": {
						"details": "Emitted when `owner` enables `approved` to manage the `tokenId` token."
					},
					"ApprovalForAll(address,address,bool)": {
						"details": "Emitted when `owner` enables or disables (`approved`) `operator` to manage all of its assets."
					},
					"BatchMetadataUpdate(uint256,uint256)": {
						"details": "This event emits when the metadata of a range of tokens is changed. So that the third-party platforms such as NFT market could timely update the images and related attributes of the NFTs."
					},
					"MetadataUpdate(uint256)": {
						"details": "This event emits when the metadata of a token is changed. So that the third-party platforms such as NFT market could timely update the images and related attributes of the NFT."
					},
					"Transfer(address,address,uint256)": {
						"details": "Emitted when `tokenId` token is transferred from `from` to `to`."
					}
				},
				"kind": "dev",
				"methods": {
					"approve(address,uint256)": {
						"details": "See {IERC721-approve}."
					},
					"balanceOf(address)": {
						"details": "See {IERC721-balanceOf}."
					},
					"getApproved(uint256)": {
						"details": "See {IERC721-getApproved}."
					},
					"isApprovedForAll(address,address)": {
						"details": "See {IERC721-isApprovedForAll}."
					},
					"name()": {
						"details": "See {IERC721Metadata-name}."
					},
					"owner()": {
						"details": "Returns the address of the current owner."
					},
					"ownerOf(uint256)": {
						"details": "See {IERC721-ownerOf}."
					},
					"renounceOwnership()": {
						"details": "Leaves the contract without owner. It will not be possible to call `onlyOwner` functions. Can only be called by the current owner. NOTE: Renouncing ownership will leave the contract without an owner, thereby disabling any functionality that is only available to the owner."
					},
					"safeTransferFrom(address,address,uint256)": {
						"details": "See {IERC721-safeTransferFrom}."
					},
					"safeTransferFrom(address,address,uint256,bytes)": {
						"details": "See {IERC721-safeTransferFrom}."
					},
					"setApprovalForAll(address,bool)": {
						"details": "See {IERC721-setApprovalForAll}."
					},
					"supportsInterface(bytes4)": {
						"details": "See {IERC165-supportsInterface}"
					},
					"symbol()": {
						"details": "See {IERC721Metadata-symbol}."
					},
					"tokenURI(uint256)": {
						"details": "See {IERC721Metadata-tokenURI}."
					},
					"transferFrom(address,address,uint256)": {
						"details": "See {IERC721-transferFrom}."
					},
					"transferOwnership(address)": {
						"details": "Transfers ownership of the contract to a new account (`newOwner`). Can only be called by the current owner."
					}
				},
				"version": 1
			},
			"evm": {
				"assembly": "    /* \"contracts/SimpleNFT.sol\":250:2415  contract SimpleNFT is ERC721URIStorage, Ownable {... */\n  mstore(0x40, 0x80)\n    /* \"contracts/SimpleNFT.sol\":1014:1078  constructor() ERC721(\"SimpleNFT\", \"SNFT\") Ownable(msg.sender) {} */\n  callvalue\n  dup1\n  iszero\n  tag_1\n  jumpi\n  0x00\n  dup1\n  revert\ntag_1:\n  pop\n    /* \"contracts/SimpleNFT.sol\":1064:1074  msg.sender */\n  caller\n    /* \"@openzeppelin/contracts/token/ERC721/ERC721.sol\":1381:1494  constructor(string memory name_, string memory symbol_) {... */\n  mload(0x40)\n  dup1\n  0x40\n  add\n  0x40\n  mstore\n  dup1\n  0x09\n  dup2\n  mstore\n  0x20\n  add\n  0x53696d706c654e46540000000000000000000000000000000000000000000000\n  dup2\n  mstore\n  pop\n  mload(0x40)\n  dup1\n  0x40\n  add\n  0x40\n  mstore\n  dup1\n  0x04\n  dup2\n  mstore\n  0x20\n  add\n  0x534e465400000000000000000000000000000000000000000000000000000000\n  dup2\n  mstore\n  pop\n    /* \"@openzeppelin/contracts/token/ERC721/ERC721.sol\":1455:1460  name_ */\n  dup2\n    /* \"@openzeppelin/contracts/token/ERC721/ERC721.sol\":1447:1452  _name */\n  0x00\n    /* \"@openzeppelin/contracts/token/ERC721/ERC721.sol\":1447:1460  _name = name_ */\n  swap1\n  dup2\n  tag_6\n  swap2\n  swap1\n  tag_7\n  jump\t// in\ntag_6:\n  pop\n    /* \"@openzeppelin/contracts/token/ERC721/ERC721.sol\":1480:1487  symbol_ */\n  dup1\n    /* \"@openzeppelin/contracts/token/ERC721/ERC721.sol\":1470:1477  _symbol */\n  0x01\n    /* \"@openzeppelin/contracts/token/ERC721/ERC721.sol\":1470:1487  _symbol = symbol_ */\n  swap1\n  dup2\n  tag_8\n  swap2\n  swap1\n  tag_7\n  jump\t// in\ntag_8:\n  pop\n    /* \"@openzeppelin/contracts/token/ERC721/ERC721.sol\":1381:1494  constructor(string memory name_, string memory symbol_) {... */\n  pop\n  pop\n    /* \"@openzeppelin/contracts/access/Ownable.sol\":1297:1298  0 */\n  0x00\n    /* \"@openzeppelin/contracts/access/Ownable.sol\":1273:1299  initialOwner == address(0) */\n  0xffffffffffffffffffffffffffffffffffffffff\n  and\n    /* \"@openzeppelin/contracts/access/Ownable.sol\":1273:1285  initialOwner */\n  dup2\n    /* \"@openzeppelin/contracts/access/Ownable.sol\":1273:1299  initialOwner == address(0) */\n  0xffffffffffffffffffffffffffffffffffffffff\n  and\n  sub\n    /* \"@openzeppelin/contracts/access/Ownable.sol\":1269:1364  if (initialOwner == address(0)) {... */\n  tag_10\n  jumpi\n    /* \"@openzeppelin/contracts/access/Ownable.sol\":1350:1351  0 */\n  0x00\n    /* \"@openzeppelin/contracts/access/Ownable.sol\":1322:1353  OwnableInvalidOwner(address(0)) */\n  mload(0x40)\n  0x1e4fbdf700000000000000000000000000000000000000000000000000000000\n  dup2\n  mstore\n  0x04\n  add\n  tag_11\n  swap2\n  swap1\n  tag_12\n  jump\t// in\ntag_11:\n  mload(0x40)\n  dup1\n  swap2\n  sub\n  swap1\n  revert\n    /* \"@openzeppelin/contracts/access/Ownable.sol\":1269:1364  if (initialOwner == address(0)) {... */\ntag_10:\n    /* \"@openzeppelin/contracts/access/Ownable.sol\":1373:1405  _transferOwnership(initialOwner) */\n  tag_13\n    /* \"@openzeppelin/contracts/access/Ownable.sol\":1392:1404  initialOwner */\n  dup2\n    /* \"@openzeppelin/contracts/access/Ownable.sol\":1373:1391  _transferOwnership */\n  shl(0x20, tag_14)\n    /* \"@openzeppelin/contracts/access/Ownable.sol\":1373:1405  _transferOwnership(initialOwner) */\n  0x20\n  shr\n  jump\t// in\ntag_13:\n    /* \"@openzeppelin/contracts/access/Ownable.sol\":1225:1412  constructor(address initialOwner) {... */\n  pop\n    /* \"contracts/SimpleNFT.sol\":250:2415  contract SimpleNFT is ERC721URIStorage, Ownable {... */\n  jump(tag_16)\n    /* \"@openzeppelin/contracts/access/Ownable.sol\":2912:3099  function _transferOwnership(address newOwner) internal virtual {... */\ntag_14:\n    /* \"@openzeppelin/contracts/access/Ownable.sol\":2985:3001  address oldOwner */\n  0x00\n    /* \"@openzeppelin/contracts/access/Ownable.sol\":3004:3010  _owner */\n  0x07\n  0x00\n  swap1\n  sload\n  swap1\n  0x0100\n  exp\n  swap1\n  div\n  0xffffffffffffffffffffffffffffffffffffffff\n  and\n    /* \"@openzeppelin/contracts/access/Ownable.sol\":2985:3010  address oldOwner = _owner */\n  swap1\n  pop\n    /* \"@openzeppelin/contracts/access/Ownable.sol\":3029:3037  newOwner */\n  dup2\n    /* \"@openzeppelin/contracts/access/Ownable.sol\":3020:3026  _owner */\n  0x07\n  0x00\n    /* \"@openzeppelin/contracts/access/Ownable.sol\":3020:3037  _owner = newOwner */\n  0x0100\n  exp\n  dup2\n  sload\n  dup2\n  0xffffffffffffffffffffffffffffffffffffffff\n  mul\n  not\n  and\n  swap1\n  dup4\n  0xffffffffffffffffffffffffffffffffffffffff\n  and\n  mul\n  or\n  swap1\n  sstore\n  pop\n    /* \"@openzeppelin/contracts/access/Ownable.sol\":3083:3091  newOwner */\n  dup2\n    /* \"@openzeppelin/contracts/access/Ownable.sol\":3052:3092  OwnershipTransferred(oldOwner, newOwner) */\n  0xffffffffffffffffffffffffffffffffffffffff\n  and\n    /* \"@openzeppelin/contracts/access/Ownable.sol\":3073:3081  oldOwner */\n  dup2\n    /* \"@openzeppelin/contracts/access/Ownable.sol\":3052:3092  OwnershipTransferred(oldOwner, newOwner) */\n  0xffffffffffffffffffffffffffffffffffffffff\n  and\n  0x8be0079c531659141344cd1fd0a4f28419497f9722a3daafe3b4186f6b6457e0\n  mload(0x40)\n  mload(0x40)\n  dup1\n  swap2\n  sub\n  swap1\n  log3\n    /* \"@openzeppelin/contracts/access/Ownable.sol\":2975:3099  {... */\n  pop\n    /* \"@openzeppelin/contracts/access/Ownable.sol\":2912:3099  function _transferOwnership(address newOwner) internal virtual {... */\n  pop\n  jump\t// out\n    /* \"#utility.yul\":7:106   */\ntag_18:\n    /* \"#utility.yul\":59:65   */\n  0x00\n    /* \"#utility.yul\":93:98   */\n  dup2\n    /* \"#utility.yul\":87:99   */\n  mload\n    /* \"#utility.yul\":77:99   */\n  swap1\n  pop\n    /* \"#utility.yul\":7:106   */\n  swap2\n  swap1\n  pop\n  jump\t// out\n    /* \"#utility.yul\":112:292   */\ntag_19:\n    /* \"#utility.yul\":160:237   */\n  0x4e487b7100000000000000000000000000000000000000000000000000000000\n    /* \"#utility.yul\":157:158   */\n  0x00\n    /* \"#utility.yul\":150:238   */\n  mstore\n    /* \"#utility.yul\":257:261   */\n  0x41\n    /* \"#utility.yul\":254:255   */\n  0x04\n    /* \"#utility.yul\":247:262   */\n  mstore\n    /* \"#utility.yul\":281:285   */\n  0x24\n    /* \"#utility.yul\":278:279   */\n  0x00\n    /* \"#utility.yul\":271:286   */\n  revert\n    /* \"#utility.yul\":298:478   */\ntag_20:\n    /* \"#utility.yul\":346:423   */\n  0x4e487b7100000000000000000000000000000000000000000000000000000000\n    /* \"#utility.yul\":343:344   */\n  0x00\n    /* \"#utility.yul\":336:424   */\n  mstore\n    /* \"#utility.yul\":443:447   */\n  0x22\n    /* \"#utility.yul\":440:441   */\n  0x04\n    /* \"#utility.yul\":433:448   */\n  mstore\n    /* \"#utility.yul\":467:471   */\n  0x24\n    /* \"#utility.yul\":464:465   */\n  0x00\n    /* \"#utility.yul\":457:472   */\n  revert\n    /* \"#utility.yul\":484:804   */\ntag_21:\n    /* \"#utility.yul\":528:534   */\n  0x00\n    /* \"#utility.yul\":565:566   */\n  0x02\n    /* \"#utility.yul\":559:563   */\n  dup3\n    /* \"#utility.yul\":555:567   */\n  div\n    /* \"#utility.yul\":545:567   */\n  swap1\n  pop\n    /* \"#utility.yul\":612:613   */\n  0x01\n    /* \"#utility.yul\":606:610   */\n  dup3\n    /* \"#utility.yul\":602:614   */\n  and\n    /* \"#utility.yul\":633:651   */\n  dup1\n    /* \"#utility.yul\":623:704   */\n  tag_46\n  jumpi\n    /* \"#utility.yul\":689:693   */\n  0x7f\n    /* \"#utility.yul\":681:687   */\n  dup3\n    /* \"#utility.yul\":677:694   */\n  and\n    /* \"#utility.yul\":667:694   */\n  swap2\n  pop\n    /* \"#utility.yul\":623:704   */\ntag_46:\n    /* \"#utility.yul\":751:753   */\n  0x20\n    /* \"#utility.yul\":743:749   */\n  dup3\n    /* \"#utility.yul\":740:754   */\n  lt\n    /* \"#utility.yul\":720:738   */\n  dup2\n    /* \"#utility.yul\":717:755   */\n  sub\n    /* \"#utility.yul\":714:798   */\n  tag_47\n  jumpi\n    /* \"#utility.yul\":770:788   */\n  tag_48\n  tag_20\n  jump\t// in\ntag_48:\n    /* \"#utility.yul\":714:798   */\ntag_47:\n    /* \"#utility.yul\":535:804   */\n  pop\n    /* \"#utility.yul\":484:804   */\n  swap2\n  swap1\n  pop\n  jump\t// out\n    /* \"#utility.yul\":810:951   */\ntag_22:\n    /* \"#utility.yul\":859:863   */\n  0x00\n    /* \"#utility.yul\":882:885   */\n  dup2\n    /* \"#utility.yul\":874:885   */\n  swap1\n  pop\n    /* \"#utility.yul\":905:908   */\n  dup2\n    /* \"#utility.yul\":902:903   */\n  0x00\n    /* \"#utility.yul\":895:909   */\n  mstore\n    /* \"#utility.yul\":939:943   */\n  0x20\n    /* \"#utility.yul\":936:937   */\n  0x00\n    /* \"#utility.yul\":926:944   */\n  keccak256\n    /* \"#utility.yul\":918:944   */\n  swap1\n  pop\n    /* \"#utility.yul\":810:951   */\n  swap2\n  swap1\n  pop\n  jump\t// out\n    /* \"#utility.yul\":957:1050   */\ntag_23:\n    /* \"#utility.yul\":994:1000   */\n  0x00\n    /* \"#utility.yul\":1041:1043   */\n  0x20\n    /* \"#utility.yul\":1036:1038   */\n  0x1f\n    /* \"#utility.yul\":1029:1034   */\n  dup4\n    /* \"#utility.yul\":1025:1039   */\n  add\n    /* \"#utility.yul\":1021:1044   */\n  div\n    /* \"#utility.yul\":1011:1044   */\n  swap1\n  pop\n    /* \"#utility.yul\":957:1050   */\n  swap2\n  swap1\n  pop\n  jump\t// out\n    /* \"#utility.yul\":1056:1163   */\ntag_24:\n    /* \"#utility.yul\":1100:1108   */\n  0x00\n    /* \"#utility.yul\":1150:1155   */\n  dup3\n    /* \"#utility.yul\":1144:1148   */\n  dup3\n    /* \"#utility.yul\":1140:1156   */\n  shl\n    /* \"#utility.yul\":1119:1156   */\n  swap1\n  pop\n    /* \"#utility.yul\":1056:1163   */\n  swap3\n  swap2\n  pop\n  pop\n  jump\t// out\n    /* \"#utility.yul\":1169:1562   */\ntag_25:\n    /* \"#utility.yul\":1238:1244   */\n  0x00\n    /* \"#utility.yul\":1288:1289   */\n  0x08\n    /* \"#utility.yul\":1276:1286   */\n  dup4\n    /* \"#utility.yul\":1272:1290   */\n  mul\n    /* \"#utility.yul\":1311:1408   */\n  tag_53\n    /* \"#utility.yul\":1341:1407   */\n  0xffffffffffffffffffffffffffffffffffffffffffffffffffffffffffffffff\n    /* \"#utility.yul\":1330:1339   */\n  dup3\n    /* \"#utility.yul\":1311:1408   */\n  tag_24\n  jump\t// in\ntag_53:\n    /* \"#utility.yul\":1429:1468   */\n  tag_54\n    /* \"#utility.yul\":1459:1467   */\n  dup7\n    /* \"#utility.yul\":1448:1457   */\n  dup4\n    /* \"#utility.yul\":1429:1468   */\n  tag_24\n  jump\t// in\ntag_54:\n    /* \"#utility.yul\":1417:1468   */\n  swap6\n  pop\n    /* \"#utility.yul\":1501:1505   */\n  dup1\n    /* \"#utility.yul\":1497:1506   */\n  not\n    /* \"#utility.yul\":1490:1495   */\n  dup5\n    /* \"#utility.yul\":1486:1507   */\n  and\n    /* \"#utility.yul\":1477:1507   */\n  swap4\n  pop\n    /* \"#utility.yul\":1550:1554   */\n  dup1\n    /* \"#utility.yul\":1540:1548   */\n  dup7\n    /* \"#utility.yul\":1536:1555   */\n  and\n    /* \"#utility.yul\":1529:1534   */\n  dup5\n    /* \"#utility.yul\":1526:1556   */\n  or\n    /* \"#utility.yul\":1516:1556   */\n  swap3\n  pop\n    /* \"#utility.yul\":1245:1562   */\n  pop\n  pop\n    /* \"#utility.yul\":1169:1562   */\n  swap4\n  swap3\n  pop\n  pop\n  pop\n  jump\t// out\n    /* \"#utility.yul\":1568:1645   */\ntag_26:\n    /* \"#utility.yul\":1605:1612   */\n  0x00\n    /* \"#utility.yul\":1634:1639   */\n  dup2\n    /* \"#utility.yul\":1623:1639   */\n  swap1\n  pop\n    /* \"#utility.yul\":1568:1645   */\n  swap2\n  swap1\n  pop\n  jump\t// out\n    /* \"#utility.yul\":1651:1711   */\ntag_27:\n    /* \"#utility.yul\":1679:1682   */\n  0x00\n    /* \"#utility.yul\":1700:1705   */\n  dup2\n    /* \"#utility.yul\":1693:1705   */\n  swap1\n  pop\n    /* \"#utility.yul\":1651:1711   */\n  swap2\n  swap1\n  pop\n  jump\t// out\n    /* \"#utility.yul\":1717:1859   */\ntag_28:\n    /* \"#utility.yul\":1767:1776   */\n  0x00\n    /* \"#utility.yul\":1800:1853   */\n  tag_58\n    /* \"#utility.yul\":1818:1852   */\n  tag_59\n    /* \"#utility.yul\":1827:1851   */\n  tag_60\n    /* \"#utility.yul\":1845:1850   */\n  dup5\n    /* \"#utility.yul\":1827:1851   */\n  tag_26\n  jump\t// in\ntag_60:\n    /* \"#utility.yul\":1818:1852   */\n  tag_27\n  jump\t// in\ntag_59:\n    /* \"#utility.yul\":1800:1853   */\n  tag_26\n  jump\t// in\ntag_58:\n    /* \"#utility.yul\":1787:1853   */\n  swap1\n  pop\n    /* \"#utility.yul\":1717:1859   */\n  swap2\n  swap1\n  pop\n  jump\t// out\n    /* \"#utility.yul\":1865:1940   */\ntag_29:\n    /* \"#utility.yul\":1908:1911   */\n  0x00\n    /* \"#utility.yul\":1929:1934   */\n  dup2\n    /* \"#utility.yul\":1922:1934   */\n  swap1\n  pop\n    /* \"#utility.yul\":1865:1940   */\n  swap2\n  swap1\n  pop\n  jump\t// out\n    /* \"#utility.yul\":1946:2215   */\ntag_30:\n    /* \"#utility.yul\":2056:2095   */\n  tag_63\n    /* \"#utility.yul\":2087:2094   */\n  dup4\n    /* \"#utility.yul\":2056:2095   */\n  tag_28\n  jump\t// in\ntag_63:\n    /* \"#utility.yul\":2117:2208   */\n  tag_64\n    /* \"#utility.yul\":2166:2207   */\n  tag_65\n    /* \"#utility.yul\":2190:2206   */\n  dup3\n    /* \"#utility.yul\":2166:2207   */\n  tag_29\n  jump\t// in\ntag_65:\n    /* \"#utility.yul\":2158:2164   */\n  dup5\n    /* \"#utility.yul\":2151:2155   */\n  dup5\n    /* \"#utility.yul\":2145:2156   */\n  sload\n    /* \"#utility.yul\":2117:2208   */\n  tag_25\n  jump\t// in\ntag_64:\n    /* \"#utility.yul\":2111:2115   */\n  dup3\n    /* \"#utility.yul\":2104:2209   */\n  sstore\n    /* \"#utility.yul\":2022:2215   */\n  pop\n    /* \"#utility.yul\":1946:2215   */\n  pop\n  pop\n  pop\n  jump\t// out\n    /* \"#utility.yul\":2221:2294   */\ntag_31:\n    /* \"#utility.yul\":2266:2269   */\n  0x00\n    /* \"#utility.yul\":2221:2294   */\n  swap1\n  jump\t// out\n    /* \"#utility.yul\":2300:2489   */\ntag_32:\n    /* \"#utility.yul\":2377:2409   */\n  tag_68\n  tag_31\n  jump\t// in\ntag_68:\n    /* \"#utility.yul\":2418:2483   */\n  tag_69\n    /* \"#utility.yul\":2476:2482   */\n  dup2\n    /* \"#utility.yul\":2468:2474   */\n  dup5\n    /* \"#utility.yul\":2462:2466   */\n  dup5\n    /* \"#utility.yul\":2418:2483   */\n  tag_30\n  jump\t// in\ntag_69:\n    /* \"#utility.yul\":2353:2489   */\n  pop\n    /* \"#utility.yul\":2300:2489   */\n  pop\n  pop\n  jump\t// out\n    /* \"#utility.yul\":2495:2681   */\ntag_33:\n    /* \"#utility.yul\":2555:2675   */\ntag_71:\n    /* \"#utility.yul\":2572:2575   */\n  dup2\n    /* \"#utility.yul\":2565:2570   */\n  dup2\n    /* \"#utility.yul\":2562:2576   */\n  lt\n    /* \"#utility.yul\":2555:2675   */\n  iszero\n  tag_73\n  jumpi\n    /* \"#utility.yul\":2626:2665   */\n  tag_74\n    /* \"#utility.yul\":2663:2664   */\n  0x00\n    /* \"#utility.yul\":2656:2661   */\n  dup3\n    /* \"#utility.yul\":2626:2665   */\n  tag_32\n  jump\t// in\ntag_74:\n    /* \"#utility.yul\":2599:2600   */\n  0x01\n    /* \"#utility.yul\":2592:2597   */\n  dup2\n    /* \"#utility.yul\":2588:2601   */\n  add\n    /* \"#utility.yul\":2579:2601   */\n  swap1\n  pop\n    /* \"#utility.yul\":2555:2675   */\n  jump(tag_71)\ntag_73:\n    /* \"#utility.yul\":2495:2681   */\n  pop\n  pop\n  jump\t// out\n    /* \"#utility.yul\":2687:3230   */\ntag_34:\n    /* \"#utility.yul\":2788:2790   */\n  0x1f\n    /* \"#utility.yul\":2783:2786   */\n  dup3\n    /* \"#utility.yul\":2780:2791   */\n  gt\n    /* \"#utility.yul\":2777:3223   */\n  iszero\n  tag_76\n  jumpi\n    /* \"#utility.yul\":2822:2860   */\n  tag_77\n    /* \"#utility.yul\":2854:2859   */\n  dup2\n    /* \"#utility.yul\":2822:2860   */\n  tag_22\n  jump\t// in\ntag_77:\n    /* \"#utility.yul\":2906:2935   */\n  tag_78\n    /* \"#utility.yul\":2924:2934   */\n  dup5\n    /* \"#utility.yul\":2906:2935   */\n  tag_23\n  jump\t// in\ntag_78:\n    /* \"#utility.yul\":2896:2904   */\n  dup2\n    /* \"#utility.yul\":2892:2936   */\n  add\n    /* \"#utility.yul\":3089:3091   */\n  0x20\n    /* \"#utility.yul\":3077:3087   */\n  dup6\n    /* \"#utility.yul\":3074:3092   */\n  lt\n    /* \"#utility.yul\":3071:3120   */\n  iszero\n  tag_79\n  jumpi\n    /* \"#utility.yul\":3110:3118   */\n  dup2\n    /* \"#utility.yul\":3095:3118   */\n  swap1\n  pop\n    /* \"#utility.yul\":3071:3120   */\ntag_79:\n    /* \"#utility.yul\":3133:3213   */\n  tag_80\n    /* \"#utility.yul\":3189:3211   */\n  tag_81\n    /* \"#utility.yul\":3207:3210   */\n  dup6\n    /* \"#utility.yul\":3189:3211   */\n  tag_23\n  jump\t// in\ntag_81:\n    /* \"#utility.yul\":3179:3187   */\n  dup4\n    /* \"#utility.yul\":3175:3212   */\n  add\n    /* \"#utility.yul\":3162:3173   */\n  dup3\n    /* \"#utility.yul\":3133:3213   */\n  tag_33\n  jump\t// in\ntag_80:\n    /* \"#utility.yul\":2792:3223   */\n  pop\n  pop\n    /* \"#utility.yul\":2777:3223   */\ntag_76:\n    /* \"#utility.yul\":2687:3230   */\n  pop\n  pop\n  pop\n  jump\t// out\n    /* \"#utility.yul\":3236:3353   */\ntag_35:\n    /* \"#utility.yul\":3290:3298   */\n  0x00\n    /* \"#utility.yul\":3340:3345   */\n  dup3\n    /* \"#utility.yul\":3334:3338   */\n  dup3\n    /* \"#utility.yul\":3330:3346   */\n  shr\n    /* \"#utility.yul\":3309:3346   */\n  swap1\n  pop\n    /* \"#utility.yul\":3236:3353   */\n  swap3\n  swap2\n  pop\n  pop\n  jump\t// out\n    /* \"#utility.yul\":3359:3528   */\ntag_36:\n    /* \"#utility.yul\":3403:3409   */\n  0x00\n    /* \"#utility.yul\":3436:3487   */\n  tag_84\n    /* \"#utility.yul\":3484:3485   */\n  0x00\n    /* \"#utility.yul\":3480:3486   */\n  not\n    /* \"#utility.yul\":3472:3477   */\n  dup5\n    /* \"#utility.yul\":3469:3470   */\n  0x08\n    /* \"#utility.yul\":3465:3478   */\n  mul\n    /* \"#utility.yul\":3436:3487   */\n  tag_35\n  jump\t// in\ntag_84:\n    /* \"#utility.yul\":3432:3488   */\n  not\n    /* \"#utility.yul\":3517:3521   */\n  dup1\n    /* \"#utility.yul\":3511:3515   */\n  dup4\n    /* \"#utility.yul\":3507:3522   */\n  and\n    /* \"#utility.yul\":3497:3522   */\n  swap2\n  pop\n    /* \"#utility.yul\":3410:3528   */\n  pop\n    /* \"#utility.yul\":3359:3528   */\n  swap3\n  swap2\n  pop\n  pop\n  jump\t// out\n    /* \"#utility.yul\":3533:3828   */\ntag_37:\n    /* \"#utility.yul\":3609:3613   */\n  0x00\n    /* \"#utility.yul\":3755:3784   */\n  tag_86\n    /* \"#utility.yul\":3780:3783   */\n  dup4\n    /* \"#utility.yul\":3774:3778   */\n  dup4\n    /* \"#utility.yul\":3755:3784   */\n  tag_36\n  jump\t// in\ntag_86:\n    /* \"#utility.yul\":3747:3784   */\n  swap2\n  pop\n    /* \"#utility.yul\":3817:3820   */\n  dup3\n    /* \"#utility.yul\":3814:3815   */\n  0x02\n    /* \"#utility.yul\":3810:3821   */\n  mul\n    /* \"#utility.yul\":3804:3808   */\n  dup3\n    /* \"#utility.yul\":3801:3822   */\n  or\n    /* \"#utility.yul\":3793:3822   */\n  swap1\n  pop\n    /* \"#utility.yul\":3533:3828   */\n  swap3\n  swap2\n  pop\n  pop\n  jump\t// out\n    /* \"#utility.yul\":3833:5228   */\ntag_7:\n    /* \"#utility.yul\":3950:3987   */\n  tag_88\n    /* \"#utility.yul\":3983:3986   */\n  dup3\n    /* \"#utility.yul\":3950:3987   */\n  tag_18\n  jump\t// in\ntag_88:\n    /* \"#utility.yul\":4052:4070   */\n  0xffffffffffffffff\n    /* \"#utility.yul\":4044:4050   */\n  dup2\n    /* \"#utility.yul\":4041:4071   */\n  gt\n    /* \"#utility.yul\":4038:4094   */\n  iszero\n  tag_89\n  jumpi\n    /* \"#utility.yul\":4074:4092   */\n  tag_90\n  tag_19\n  jump\t// in\ntag_90:\n    /* \"#utility.yul\":4038:4094   */\ntag_89:\n    /* \"#utility.yul\":4118:4156   */\n  tag_91\n    /* \"#utility.yul\":4150:4154   */\n  dup3\n    /* \"#utility.yul\":4144:4155   */\n  sload\n    /* \"#utility.yul\":4118:4156   */\n  tag_21\n  jump\t// in\ntag_91:\n    /* \"#utility.yul\":4203:4270   */\n  tag_92\n    /* \"#utility.yul\":4263:4269   */\n  dup3\n    /* \"#utility.yul\":4255:4261   */\n  dup3\n    /* \"#utility.yul\":4249:4253   */\n  dup6\n    /* \"#utility.yul\":4203:4270   */\n  tag_34\n  jump\t// in\ntag_92:\n    /* \"#utility.yul\":4297:4298   */\n  0x00\n    /* \"#utility.yul\":4321:4325   */\n  0x20\n    /* \"#utility.yul\":4308:4325   */\n  swap1\n  pop\n    /* \"#utility.yul\":4353:4355   */\n  0x1f\n    /* \"#utility.yul\":4345:4351   */\n  dup4\n    /* \"#utility.yul\":4342:4356   */\n  gt\n    /* \"#utility.yul\":4370:4371   */\n  0x01\n    /* \"#utility.yul\":4365:4983   */\n  dup2\n  eq\n  tag_94\n  jumpi\n    /* \"#utility.yul\":5027:5028   */\n  0x00\n    /* \"#utility.yul\":5044:5050   */\n  dup5\n    /* \"#utility.yul\":5041:5118   */\n  iszero\n  tag_95\n  jumpi\n    /* \"#utility.yul\":5093:5102   */\n  dup3\n    /* \"#utility.yul\":5088:5091   */\n  dup8\n    /* \"#utility.yul\":5084:5103   */\n  add\n    /* \"#utility.yul\":5078:5104   */\n  mload\n    /* \"#utility.yul\":5069:5104   */\n  swap1\n  pop\n    /* \"#utility.yul\":5041:5118   */\ntag_95:\n    /* \"#utility.yul\":5144:5211   */\n  tag_96\n    /* \"#utility.yul\":5204:5210   */\n  dup6\n    /* \"#utility.yul\":5197:5202   */\n  dup3\n    /* \"#utility.yul\":5144:5211   */\n  tag_37\n  jump\t// in\ntag_96:\n    /* \"#utility.yul\":5138:5142   */\n  dup7\n    /* \"#utility.yul\":5131:5212   */\n  sstore\n    /* \"#utility.yul\":5000:5222   */\n  pop\n    /* \"#utility.yul\":4335:5222   */\n  jump(tag_93)\n    /* \"#utility.yul\":4365:4983   */\ntag_94:\n    /* \"#utility.yul\":4417:4421   */\n  0x1f\n    /* \"#utility.yul\":4413:4422   */\n  not\n    /* \"#utility.yul\":4405:4411   */\n  dup5\n    /* \"#utility.yul\":4401:4423   */\n  and\n    /* \"#utility.yul\":4451:4488   */\n  tag_97\n    /* \"#utility.yul\":4483:4487   */\n  dup7\n    /* \"#utility.yul\":4451:4488   */\n  tag_22\n  jump\t// in\ntag_97:\n    /* \"#utility.yul\":4510:4511   */\n  0x00\n    /* \"#utility.yul\":4524:4732   */\ntag_98:\n    /* \"#utility.yul\":4538:4545   */\n  dup3\n    /* \"#utility.yul\":4535:4536   */\n  dup2\n    /* \"#utility.yul\":4532:4546   */\n  lt\n    /* \"#utility.yul\":4524:4732   */\n  iszero\n  tag_100\n  jumpi\n    /* \"#utility.yul\":4617:4626   */\n  dup5\n    /* \"#utility.yul\":4612:4615   */\n  dup10\n    /* \"#utility.yul\":4608:4627   */\n  add\n    /* \"#utility.yul\":4602:4628   */\n  mload\n    /* \"#utility.yul\":4594:4600   */\n  dup3\n    /* \"#utility.yul\":4587:4629   */\n  sstore\n    /* \"#utility.yul\":4668:4669   */\n  0x01\n    /* \"#utility.yul\":4660:4666   */\n  dup3\n    /* \"#utility.yul\":4656:4670   */\n  add\n    /* \"#utility.yul\":4646:4670   */\n  swap2\n  pop\n    /* \"#utility.yul\":4715:4717   */\n  0x20\n    /* \"#utility.yul\":4704:4713   */\n  dup6\n    /* \"#utility.yul\":4700:4718   */\n  add\n    /* \"#utility.yul\":4687:4718   */\n  swap5\n  pop\n    /* \"#utility.yul\":4561:4565   */\n  0x20\n    /* \"#utility.yul\":4558:4559   */\n  dup2\n    /* \"#utility.yul\":4554:4566   */\n  add\n    /* \"#utility.yul\":4549:4566   */\n  swap1\n  pop\n    /* \"#utility.yul\":4524:4732   */\n  jump(tag_98)\ntag_100:\n    /* \"#utility.yul\":4760:4766   */\n  dup7\n    /* \"#utility.yul\":4751:4758   */\n  dup4\n    /* \"#utility.yul\":4748:4767   */\n  lt\n    /* \"#utility.yul\":4745:4924   */\n  iszero\n  tag_101\n  jumpi\n    /* \"#utility.yul\":4818:4827   */\n  dup5\n    /* \"#utility.yul\":4813:4816   */\n  dup10\n    /* \"#utility.yul\":4809:4828   */\n  add\n    /* \"#utility.yul\":4803:4829   */\n  mload\n    /* \"#utility.yul\":4861:4909   */\n  tag_102\n    /* \"#utility.yul\":4903:4907   */\n  0x1f\n    /* \"#utility.yul\":4895:4901   */\n  dup10\n    /* \"#utility.yul\":4891:4908   */\n  and\n    /* \"#utility.yul\":4880:4889   */\n  dup3\n    /* \"#utility.yul\":4861:4909   */\n  tag_36\n  jump\t// in\ntag_102:\n    /* \"#utility.yul\":4853:4859   */\n  dup4\n    /* \"#utility.yul\":4846:4910   */\n  sstore\n    /* \"#utility.yul\":4768:4924   */\n  pop\n    /* \"#utility.yul\":4745:4924   */\ntag_101:\n    /* \"#utility.yul\":4970:4971   */\n  0x01\n    /* \"#utility.yul\":4966:4967   */\n  0x02\n    /* \"#utility.yul\":4958:4964   */\n  dup9\n    /* \"#utility.yul\":4954:4968   */\n  mul\n    /* \"#utility.yul\":4950:4972   */\n  add\n    /* \"#utility.yul\":4944:4948   */\n  dup9\n    /* \"#utility.yul\":4937:4973   */\n  sstore\n    /* \"#utility.yul\":4372:4983   */\n  pop\n  pop\n  pop\n    /* \"#utility.yul\":4335:5222   */\ntag_93:\n  pop\n    /* \"#utility.yul\":3925:5228   */\n  pop\n  pop\n  pop\n    /* \"#utility.yul\":3833:5228   */\n  pop\n  pop\n  jump\t// out\n    /* \"#utility.yul\":5234:5360   */\ntag_38:\n    /* \"#utility.yul\":5271:5278   */\n  0x00\n    /* \"#utility.yul\":5311:5353   */\n  0xffffffffffffffffffffffffffffffffffffffff\n    /* \"#utility.yul\":5304:5309   */\n  dup3\n    /* \"#utility.yul\":5300:5354   */\n  and\n    /* \"#utility.yul\":5289:5354   */\n  swap1\n  pop\n    /* \"#utility.yul\":5234:5360   */\n  swap2\n  swap1\n  pop\n  jump\t// out\n    /* \"#utility.yul\":5366:5462   */\ntag_39:\n    /* \"#utility.yul\":5403:5410   */\n  0x00\n    /* \"#utility.yul\":5432:5456   */\n  tag_105\n    /* \"#utility.yul\":5450:5455   */\n  dup3\n    /* \"#utility.yul\":5432:5456   */\n  tag_38\n  jump\t// in\ntag_105:\n    /* \"#utility.yul\":5421:5456   */\n  swap1\n  pop\n    /* \"#utility.yul\":5366:5462   */\n  swap2\n  swap1\n  pop\n  jump\t// out\n    /* \"#utility.yul\":5468:5586   */\ntag_40:\n    /* \"#utility.yul\":5555:5579   */\n  tag_107\n    /* \"#utility.yul\":5573:5578   */\n  dup2\n    /* \"#utility.yul\":5555:5579   */\n  tag_39\n  jump\t// in\ntag_107:\n    /* \"#utility.yul\":5550:5553   */\n  dup3\n    /* \"#utility.yul\":5543:5580   */\n  mstore\n    /* \"#utility.yul\":5468:5586   */\n  pop\n  pop\n  jump\t// out\n    /* \"#utility.yul\":5592:5814   */\ntag_12:\n    /* \"#utility.yul\":5685:5689   */\n  0x00\n    /* \"#utility.yul\":5723:5725   */\n  0x20\n    /* \"#utility.yul\":5712:5721   */\n  dup3\n    /* \"#utility.yul\":5708:5726   */\n  add\n    /* \"#utility.yul\":5700:5726   */\n  swap1\n  pop\n    /* \"#utility.yul\":5736:5807   */\n  tag_109\n    /* \"#utility.yul\":5804:5805   */\n  0x00\n    /* \"#utility.yul\":5793:5802   */\n  dup4\n    /* \"#utility.yul\":5789:5806   */\n  add\n    /* \"#utility.yul\":5780:5786   */\n  dup5\n    /* \"#utility.yul\":5736:5807   */\n  tag_40\n  jump\t// in\ntag_109:\n    /* \"#utility.yul\":5592:5814   */\n  swap3\n  swap2\n  pop\n  pop\n  jump\t// out\n    /* \"contracts/SimpleNFT.sol\":250:2415  contract SimpleNFT is ERC721URIStorage, Ownable {... */\ntag_16:\n  dataSize(sub_0)\n  dup1\n  dataOffset(sub_0)\n  0x00\n  codecopy\n  0x00\n  return\nstop\n\nsub_0: assembly {\n        /* \"contracts/SimpleNFT.sol\":250:2415  contract SimpleNFT is ERC721URIStorage, Ownable {... */\n      mstore(0x40, 0x80)\n      callvalue\n      dup1\n      iszero\n      tag_1\n      jumpi\n      0x00\n      dup1\n      revert\n    tag_1:\n      pop\n      jumpi(tag_2, lt(calldatasize, 0x04))\n      shr(0xe0, calldataload(0x00))\n      dup1\n      0x7a6ce2e1\n      gt\n      tag_24\n      jumpi\n      dup1\n      0xa22cb465\n      gt\n      tag_25\n      jumpi\n      dup1\n      0xa22cb465\n      eq\n      tag_18\n      jumpi\n      dup1\n      0xb88d4fde\n      eq\n      tag_19\n      jumpi\n      dup1\n      0xc87b56dd\n      eq\n      tag_20\n      jumpi\n      dup1\n      0xe43252d7\n      eq\n      tag_21\n      jumpi\n      dup1\n      0xe985e9c5\n      eq\n      tag_22\n      jumpi\n      dup1\n      0xf2fde38b\n      eq\n      tag_23\n      jumpi\n      jump(tag_2)\n    tag_25:\n      dup1\n      0x7a6ce2e1\n      eq\n      tag_13\n      jumpi\n      dup1\n      0x8ab1d681\n      eq\n      tag_14\n      jumpi\n      dup1\n      0x8da5cb5b\n      eq\n      tag_15\n      jumpi\n      dup1\n      0x95d89b41\n      eq\n      tag_16\n      jumpi\n      dup1\n      0x9b19251a\n      eq\n      tag_17\n      jumpi\n      jump(tag_2)\n    tag_24:\n      dup1\n      0x42842e0e\n      gt\n      tag_26\n      jumpi\n      dup1\n      0x42842e0e\n      eq\n      tag_8\n      jumpi\n      dup1\n      0x5f6c96a0\n      eq\n      tag_9\n      jumpi\n      dup1\n      0x6352211e\n      eq\n      tag_10\n      jumpi\n      dup1\n      0x70a08231\n      eq\n      tag_11\n      jumpi\n      dup1\n      0x715018a6\n      eq\n      tag_12\n      jumpi\n      jump(tag_2)\n    tag_26:\n      dup1\n      0x01ffc9a7\n      eq\n      tag_3\n      jumpi\n      dup1\n      0x06fdde03\n      eq\n      tag_4\n      jumpi\n      dup1\n      0x081812fc\n      eq\n      tag_5\n      jumpi\n      dup1\n      0x095ea7b3\n      eq\n      tag_6\n      jumpi\n      dup1\n      0x23b872dd\n      eq\n      tag_7\n      jumpi\n    tag_2:\n      0x00\n      dup1\n      revert\n        /* \"@openzeppelin/contracts/token/ERC721/extensions/ERC721URIStorage.sol\":937:1144  function supportsInterface(bytes4 interfaceId) public view virtual override(ERC721, IERC165) returns (bool) {... */\n    tag_3:\n      tag_27\n      0x04\n      dup1\n      calldatasize\n      sub\n      dup2\n      add\n      swap1\n      tag_28\n      swap2\n      swap1\n      tag_29\n      jump\t// in\n    tag_28:\n      tag_30\n      jump\t// in\n    tag_27:\n      mload(0x40)\n      tag_31\n      swap2\n      swap1\n      tag_32\n      jump\t// in\n    tag_31:\n      mload(0x40)\n      dup1\n      swap2\n      sub\n      swap1\n      return\n        /* \"@openzeppelin/contracts/token/ERC721/ERC721.sol\":2365:2454  function name() public view virtual returns (string memory) {... */\n    tag_4:\n      tag_33\n      tag_34\n      jump\t// in\n    tag_33:\n      mload(0x40)\n      tag_35\n      swap2\n      swap1\n      tag_36\n      jump\t// in\n    tag_35:\n      mload(0x40)\n      dup1\n      swap2\n      sub\n      swap1\n      return\n        /* \"@openzeppelin/contracts/token/ERC721/ERC721.sol\":3497:3651  function getApproved(uint256 tokenId) public view virtual returns (address) {... */\n    tag_5:\n      tag_37\n      0x04\n      dup1\n      calldatasize\n      sub\n      dup2\n      add\n      swap1\n      tag_38\n      swap2\n      swap1\n      tag_39\n      jump\t// in\n    tag_38:\n      tag_40\n      jump\t// in\n    tag_37:\n      mload(0x40)\n      tag_41\n      swap2\n      swap1\n      tag_42\n      jump\t// in\n    tag_41:\n      mload(0x40)\n      dup1\n      swap2\n      sub\n      swap1\n      return\n        /* \"@openzeppelin/contracts/token/ERC721/ERC721.sol\":3323:3436  function approve(address to, uint256 tokenId) public virtual {... */\n    tag_6:\n      tag_43\n      0x04\n      dup1\n      calldatasize\n      sub\n      dup2\n      add\n      swap1\n      tag_44\n      swap2\n      swap1\n      tag_45\n      jump\t// in\n    tag_44:\n      tag_46\n      jump\t// in\n    tag_43:\n      stop\n        /* \"@openzeppelin/contracts/token/ERC721/ERC721.sol\":4143:4721  function transferFrom(address from, address to, uint256 tokenId) public virtual {... */\n    tag_7:\n      tag_47\n      0x04\n      dup1\n      calldatasize\n      sub\n      dup2\n      add\n      swap1\n      tag_48\n      swap2\n      swap1\n      tag_49\n      jump\t// in\n    tag_48:\n      tag_50\n      jump\t// in\n    tag_47:\n      stop\n        /* \"@openzeppelin/contracts/token/ERC721/ERC721.sol\":4787:4919  function safeTransferFrom(address from, address to, uint256 tokenId) public {... */\n    tag_8:\n      tag_51\n      0x04\n      dup1\n      calldatasize\n      sub\n      dup2\n      add\n      swap1\n      tag_52\n      swap2\n      swap1\n      tag_49\n      jump\t// in\n    tag_52:\n      tag_53\n      jump\t// in\n    tag_51:\n      stop\n        /* \"contracts/SimpleNFT.sol\":1381:2264  function mintNFT(BadgeInfo[] memory badges)... */\n    tag_9:\n      tag_54\n      0x04\n      dup1\n      calldatasize\n      sub\n      dup2\n      add\n      swap1\n      tag_55\n      swap2\n      swap1\n      tag_56\n      jump\t// in\n    tag_55:\n      tag_57\n      jump\t// in\n    tag_54:\n      mload(0x40)\n      tag_58\n      swap2\n      swap1\n      tag_59\n      jump\t// in\n    tag_58:\n      mload(0x40)\n      dup1\n      swap2\n      sub\n      swap1\n      return\n        /* \"@openzeppelin/contracts/token/ERC721/ERC721.sol\":2185:2303  function ownerOf(uint256 tokenId) public view virtual returns (address) {... */\n    tag_10:\n      tag_60\n      0x04\n      dup1\n      calldatasize\n      sub\n      dup2\n      add\n      swap1\n      tag_61\n      swap2\n      swap1\n      tag_39\n      jump\t// in\n    tag_61:\n      tag_62\n      jump\t// in\n    tag_60:\n      mload(0x40)\n      tag_63\n      swap2\n      swap1\n      tag_42\n      jump\t// in\n    tag_63:\n      mload(0x40)\n      dup1\n      swap2\n      sub\n      swap1\n      return\n        /* \"@openzeppelin/contracts/token/ERC721/ERC721.sol\":1920:2128  function balanceOf(address owner) public view virtual returns (uint256) {... */\n    tag_11:\n      tag_64\n      0x04\n      dup1\n      calldatasize\n      sub\n      dup2\n      add\n      swap1\n      tag_65\n      swap2\n      swap1\n      tag_66\n      jump\t// in\n    tag_65:\n      tag_67\n      jump\t// in\n    tag_64:\n      mload(0x40)\n      tag_68\n      swap2\n      swap1\n      tag_69\n      jump\t// in\n    tag_68:\n      mload(0x40)\n      dup1\n      swap2\n      sub\n      swap1\n      return\n        /* \"@openzeppelin/contracts/access/Ownable.sol\":2293:2394  function renounceOwnership() public virtual onlyOwner {... */\n    tag_12:\n      tag_70\n      tag_71\n      jump\t// in\n    tag_70:\n      stop\n        /* \"contracts/SimpleNFT.sol\":2320:2412  function getMsgSender() external view returns (address) {... */\n    tag_13:\n      tag_72\n      tag_73\n      jump\t// in\n    tag_72:\n      mload(0x40)\n      tag_74\n      swap2\n      swap1\n      tag_42\n      jump\t// in\n    tag_74:\n      mload(0x40)\n      dup1\n      swap2\n      sub\n      swap1\n      return\n        /* \"contracts/SimpleNFT.sol\":1191:1294  function removeFromWhitelist(address _address) external  {... */\n    tag_14:\n      tag_75\n      0x04\n      dup1\n      calldatasize\n      sub\n      dup2\n      add\n      swap1\n      tag_76\n      swap2\n      swap1\n      tag_66\n      jump\t// in\n    tag_76:\n      tag_77\n      jump\t// in\n    tag_75:\n      stop\n        /* \"@openzeppelin/contracts/access/Ownable.sol\":1638:1723  function owner() public view virtual returns (address) {... */\n    tag_15:\n      tag_78\n      tag_79\n      jump\t// in\n    tag_78:\n      mload(0x40)\n      tag_80\n      swap2\n      swap1\n      tag_42\n      jump\t// in\n    tag_80:\n      mload(0x40)\n      dup1\n      swap2\n      sub\n      swap1\n      return\n        /* \"@openzeppelin/contracts/token/ERC721/ERC721.sol\":2518:2611  function symbol() public view virtual returns (string memory) {... */\n    tag_16:\n      tag_81\n      tag_82\n      jump\t// in\n    tag_81:\n      mload(0x40)\n      tag_83\n      swap2\n      swap1\n      tag_36\n      jump\t// in\n    tag_83:\n      mload(0x40)\n      dup1\n      swap2\n      sub\n      swap1\n      return\n        /* \"contracts/SimpleNFT.sol\":347:388  mapping(address => bool) public whitelist */\n    tag_17:\n      tag_84\n      0x04\n      dup1\n      calldatasize\n      sub\n      dup2\n      add\n      swap1\n      tag_85\n      swap2\n      swap1\n      tag_66\n      jump\t// in\n    tag_85:\n      tag_86\n      jump\t// in\n    tag_84:\n      mload(0x40)\n      tag_87\n      swap2\n      swap1\n      tag_32\n      jump\t// in\n    tag_87:\n      mload(0x40)\n      dup1\n      swap2\n      sub\n      swap1\n      return\n        /* \"@openzeppelin/contracts/token/ERC721/ERC721.sol\":3718:3862  function setApprovalForAll(address operator, bool approved) public virtual {... */\n    tag_18:\n      tag_88\n      0x04\n      dup1\n      calldatasize\n      sub\n      dup2\n      add\n      swap1\n      tag_89\n      swap2\n      swap1\n      tag_90\n      jump\t// in\n    tag_89:\n      tag_91\n      jump\t// in\n    tag_88:\n      stop\n        /* \"@openzeppelin/contracts/token/ERC721/ERC721.sol\":4985:5193  function safeTransferFrom(address from, address to, uint256 tokenId, bytes memory data) public virtual {... */\n    tag_19:\n      tag_92\n      0x04\n      dup1\n      calldatasize\n      sub\n      dup2\n      add\n      swap1\n      tag_93\n      swap2\n      swap1\n      tag_94\n      jump\t// in\n    tag_93:\n      tag_95\n      jump\t// in\n    tag_92:\n      stop\n        /* \"@openzeppelin/contracts/token/ERC721/extensions/ERC721URIStorage.sol\":1210:1803  function tokenURI(uint256 tokenId) public view virtual override returns (string memory) {... */\n    tag_20:\n      tag_96\n      0x04\n      dup1\n      calldatasize\n      sub\n      dup2\n      add\n      swap1\n      tag_97\n      swap2\n      swap1\n      tag_39\n      jump\t// in\n    tag_97:\n      tag_98\n      jump\t// in\n    tag_96:\n      mload(0x40)\n      tag_99\n      swap2\n      swap1\n      tag_36\n      jump\t// in\n    tag_99:\n      mload(0x40)\n      dup1\n      swap2\n      sub\n      swap1\n      return\n        /* \"contracts/SimpleNFT.sol\":1086:1183  function addToWhitelist(address _address) external  {... */\n    tag_21:\n      tag_100\n      0x04\n      dup1\n      calldatasize\n      sub\n      dup2\n      add\n      swap1\n      tag_101\n      swap2\n      swap1\n      tag_66\n      jump\t// in\n    tag_101:\n      tag_102\n      jump\t// in\n    tag_100:\n      stop\n        /* \"@openzeppelin/contracts/token/ERC721/ERC721.sol\":3928:4081  function isApprovedForAll(address owner, address operator) public view virtual returns (bool) {... */\n    tag_22:\n      tag_103\n      0x04\n      dup1\n      calldatasize\n      sub\n      dup2\n      add\n      swap1\n      tag_104\n      swap2\n      swap1\n      tag_105\n      jump\t// in\n    tag_104:\n      tag_106\n      jump\t// in\n    tag_103:\n      mload(0x40)\n      tag_107\n      swap2\n      swap1\n      tag_32\n      jump\t// in\n    tag_107:\n      mload(0x40)\n      dup1\n      swap2\n      sub\n      swap1\n      return\n        /* \"@openzeppelin/contracts/access/Ownable.sol\":2543:2758  function transferOwnership(address newOwner) public virtual onlyOwner {... */\n    tag_23:\n      tag_108\n      0x04\n      dup1\n      calldatasize\n      sub\n      dup2\n      add\n      swap1\n      tag_109\n      swap2\n      swap1\n      tag_66\n      jump\t// in\n    tag_109:\n      tag_110\n      jump\t// in\n    tag_108:\n      stop\n        /* \"@openzeppelin/contracts/token/ERC721/extensions/ERC721URIStorage.sol\":937:1144  function supportsInterface(bytes4 interfaceId) public view virtual override(ERC721, IERC165) returns (bool) {... */\n    tag_30:\n        /* \"@openzeppelin/contracts/token/ERC721/extensions/ERC721URIStorage.sol\":1039:1043  bool */\n      0x00\n        /* \"@openzeppelin/contracts/token/ERC721/extensions/ERC721URIStorage.sol\":760:770  0x49064906 */\n      0x49064906\n        /* \"@openzeppelin/contracts/token/ERC721/extensions/ERC721URIStorage.sol\":753:771  bytes4(0x49064906) */\n      0xe0\n      shl\n        /* \"@openzeppelin/contracts/token/ERC721/extensions/ERC721URIStorage.sol\":1062:1097  interfaceId == ERC4906_INTERFACE_ID */\n      not(0xffffffffffffffffffffffffffffffffffffffffffffffffffffffff)\n      and\n        /* \"@openzeppelin/contracts/token/ERC721/extensions/ERC721URIStorage.sol\":1062:1073  interfaceId */\n      dup3\n        /* \"@openzeppelin/contracts/token/ERC721/extensions/ERC721URIStorage.sol\":1062:1097  interfaceId == ERC4906_INTERFACE_ID */\n      not(0xffffffffffffffffffffffffffffffffffffffffffffffffffffffff)\n      and\n      eq\n        /* \"@openzeppelin/contracts/token/ERC721/extensions/ERC721URIStorage.sol\":1062:1137  interfaceId == ERC4906_INTERFACE_ID || super.supportsInterface(interfaceId) */\n      dup1\n      tag_112\n      jumpi\n      pop\n        /* \"@openzeppelin/contracts/token/ERC721/extensions/ERC721URIStorage.sol\":1101:1137  super.supportsInterface(interfaceId) */\n      tag_113\n        /* \"@openzeppelin/contracts/token/ERC721/extensions/ERC721URIStorage.sol\":1125:1136  interfaceId */\n      dup3\n        /* \"@openzeppelin/contracts/token/ERC721/extensions/ERC721URIStorage.sol\":1101:1124  super.supportsInterface */\n      tag_114\n        /* \"@openzeppelin/contracts/token/ERC721/extensions/ERC721URIStorage.sol\":1101:1137  super.supportsInterface(interfaceId) */\n      jump\t// in\n    tag_113:\n        /* \"@openzeppelin/contracts/token/ERC721/extensions/ERC721URIStorage.sol\":1062:1137  interfaceId == ERC4906_INTERFACE_ID || super.supportsInterface(interfaceId) */\n    tag_112:\n        /* \"@openzeppelin/contracts/token/ERC721/extensions/ERC721URIStorage.sol\":1055:1137  return interfaceId == ERC4906_INTERFACE_ID || super.supportsInterface(interfaceId) */\n      swap1\n      pop\n        /* \"@openzeppelin/contracts/token/ERC721/extensions/ERC721URIStorage.sol\":937:1144  function supportsInterface(bytes4 interfaceId) public view virtual override(ERC721, IERC165) returns (bool) {... */\n      swap2\n      swap1\n      pop\n      jump\t// out\n        /* \"@openzeppelin/contracts/token/ERC721/ERC721.sol\":2365:2454  function name() public view virtual returns (string memory) {... */\n    tag_34:\n        /* \"@openzeppelin/contracts/token/ERC721/ERC721.sol\":2410:2423  string memory */\n      0x60\n        /* \"@openzeppelin/contracts/token/ERC721/ERC721.sol\":2442:2447  _name */\n      0x00\n        /* \"@openzeppelin/contracts/token/ERC721/ERC721.sol\":2435:2447  return _name */\n      dup1\n      sload\n      tag_116\n      swap1\n      tag_117\n      jump\t// in\n    tag_116:\n      dup1\n      0x1f\n      add\n      0x20\n      dup1\n      swap2\n      div\n      mul\n      0x20\n      add\n      mload(0x40)\n      swap1\n      dup2\n      add\n      0x40\n      mstore\n      dup1\n      swap3\n      swap2\n      swap1\n      dup2\n      dup2\n      mstore\n      0x20\n      add\n      dup3\n      dup1\n      sload\n      tag_118\n      swap1\n      tag_117\n      jump\t// in\n    tag_118:\n      dup1\n      iszero\n      tag_119\n      jumpi\n      dup1\n      0x1f\n      lt\n      tag_120\n      jumpi\n      0x0100\n      dup1\n      dup4\n      sload\n      div\n      mul\n      dup4\n      mstore\n      swap2\n      0x20\n      add\n      swap2\n      jump(tag_119)\n    tag_120:\n      dup3\n      add\n      swap2\n      swap1\n      0x00\n      mstore\n      keccak256(0x00, 0x20)\n      swap1\n    tag_121:\n      dup2\n      sload\n      dup2\n      mstore\n      swap1\n      0x01\n      add\n      swap1\n      0x20\n      add\n      dup1\n      dup4\n      gt\n      tag_121\n      jumpi\n      dup3\n      swap1\n      sub\n      0x1f\n      and\n      dup3\n      add\n      swap2\n    tag_119:\n      pop\n      pop\n      pop\n      pop\n      pop\n      swap1\n      pop\n        /* \"@openzeppelin/contracts/token/ERC721/ERC721.sol\":2365:2454  function name() public view virtual returns (string memory) {... */\n      swap1\n      jump\t// out\n        /* \"@openzeppelin/contracts/token/ERC721/ERC721.sol\":3497:3651  function getApproved(uint256 tokenId) public view virtual returns (address) {... */\n    tag_40:\n        /* \"@openzeppelin/contracts/token/ERC721/ERC721.sol\":3564:3571  address */\n      0x00\n        /* \"@openzeppelin/contracts/token/ERC721/ERC721.sol\":3583:3605  _requireOwned(tokenId) */\n      tag_123\n        /* \"@openzeppelin/contracts/token/ERC721/ERC721.sol\":3597:3604  tokenId */\n      dup3\n        /* \"@openzeppelin/contracts/token/ERC721/ERC721.sol\":3583:3596  _requireOwned */\n      tag_124\n        /* \"@openzeppelin/contracts/token/ERC721/ERC721.sol\":3583:3605  _requireOwned(tokenId) */\n      jump\t// in\n    tag_123:\n      pop\n        /* \"@openzeppelin/contracts/token/ERC721/ERC721.sol\":3623:3644  _getApproved(tokenId) */\n      tag_125\n        /* \"@openzeppelin/contracts/token/ERC721/ERC721.sol\":3636:3643  tokenId */\n      dup3\n        /* \"@openzeppelin/contracts/token/ERC721/ERC721.sol\":3623:3635  _getApproved */\n      tag_126\n        /* \"@openzeppelin/contracts/token/ERC721/ERC721.sol\":3623:3644  _getApproved(tokenId) */\n      jump\t// in\n    tag_125:\n        /* \"@openzeppelin/contracts/token/ERC721/ERC721.sol\":3616:3644  return _getApproved(tokenId) */\n      swap1\n      pop\n        /* \"@openzeppelin/contracts/token/ERC721/ERC721.sol\":3497:3651  function getApproved(uint256 tokenId) public view virtual returns (address) {... */\n      swap2\n      swap1\n      pop\n      jump\t// out\n        /* \"@openzeppelin/contracts/token/ERC721/ERC721.sol\":3323:3436  function approve(address to, uint256 tokenId) public virtual {... */\n    tag_46:\n        /* \"@openzeppelin/contracts/token/ERC721/ERC721.sol\":3394:3429  _approve(to, tokenId, _msgSender()) */\n      tag_128\n        /* \"@openzeppelin/contracts/token/ERC721/ERC721.sol\":3403:3405  to */\n      dup3\n        /* \"@openzeppelin/contracts/token/ERC721/ERC721.sol\":3407:3414  tokenId */\n      dup3\n        /* \"@openzeppelin/contracts/token/ERC721/ERC721.sol\":3416:3428  _msgSender() */\n      tag_129\n        /* \"@openzeppelin/contracts/token/ERC721/ERC721.sol\":3416:3426  _msgSender */\n      tag_130\n        /* \"@openzeppelin/contracts/token/ERC721/ERC721.sol\":3416:3428  _msgSender() */\n      jump\t// in\n    tag_129:\n        /* \"@openzeppelin/contracts/token/ERC721/ERC721.sol\":3394:3402  _approve */\n      tag_131\n        /* \"@openzeppelin/contracts/token/ERC721/ERC721.sol\":3394:3429  _approve(to, tokenId, _msgSender()) */\n      jump\t// in\n    tag_128:\n        /* \"@openzeppelin/contracts/token/ERC721/ERC721.sol\":3323:3436  function approve(address to, uint256 tokenId) public virtual {... */\n      pop\n      pop\n      jump\t// out\n        /* \"@openzeppelin/contracts/token/ERC721/ERC721.sol\":4143:4721  function transferFrom(address from, address to, uint256 tokenId) public virtual {... */\n    tag_50:\n        /* \"@openzeppelin/contracts/token/ERC721/ERC721.sol\":4251:4252  0 */\n      0x00\n        /* \"@openzeppelin/contracts/token/ERC721/ERC721.sol\":4237:4253  to == address(0) */\n      0xffffffffffffffffffffffffffffffffffffffff\n      and\n        /* \"@openzeppelin/contracts/token/ERC721/ERC721.sol\":4237:4239  to */\n      dup3\n        /* \"@openzeppelin/contracts/token/ERC721/ERC721.sol\":4237:4253  to == address(0) */\n      0xffffffffffffffffffffffffffffffffffffffff\n      and\n      sub\n        /* \"@openzeppelin/contracts/token/ERC721/ERC721.sol\":4233:4320  if (to == address(0)) {... */\n      tag_133\n      jumpi\n        /* \"@openzeppelin/contracts/token/ERC721/ERC721.sol\":4306:4307  0 */\n      0x00\n        /* \"@openzeppelin/contracts/token/ERC721/ERC721.sol\":4276:4309  ERC721InvalidReceiver(address(0)) */\n      mload(0x40)\n      0x64a0ae9200000000000000000000000000000000000000000000000000000000\n      dup2\n      mstore\n      0x04\n      add\n      tag_134\n      swap2\n      swap1\n      tag_42\n      jump\t// in\n    tag_134:\n      mload(0x40)\n      dup1\n      swap2\n      sub\n      swap1\n      revert\n        /* \"@openzeppelin/contracts/token/ERC721/ERC721.sol\":4233:4320  if (to == address(0)) {... */\n    tag_133:\n        /* \"@openzeppelin/contracts/token/ERC721/ERC721.sol\":4538:4559  address previousOwner */\n      0x00\n        /* \"@openzeppelin/contracts/token/ERC721/ERC721.sol\":4562:4596  _update(to, tokenId, _msgSender()) */\n      tag_135\n        /* \"@openzeppelin/contracts/token/ERC721/ERC721.sol\":4570:4572  to */\n      dup4\n        /* \"@openzeppelin/contracts/token/ERC721/ERC721.sol\":4574:4581  tokenId */\n      dup4\n        /* \"@openzeppelin/contracts/token/ERC721/ERC721.sol\":4583:4595  _msgSender() */\n      tag_136\n        /* \"@openzeppelin/contracts/token/ERC721/ERC721.sol\":4583:4593  _msgSender */\n      tag_130\n        /* \"@openzeppelin/contracts/token/ERC721/ERC721.sol\":4583:4595  _msgSender() */\n      jump\t// in\n    tag_136:\n        /* \"@openzeppelin/contracts/token/ERC721/ERC721.sol\":4562:4569  _update */\n      tag_137\n        /* \"@openzeppelin/contracts/token/ERC721/ERC721.sol\":4562:4596  _update(to, tokenId, _msgSender()) */\n      jump\t// in\n    tag_135:\n        /* \"@openzeppelin/contracts/token/ERC721/ERC721.sol\":4538:4596  address previousOwner = _update(to, tokenId, _msgSender()) */\n      swap1\n      pop\n        /* \"@openzeppelin/contracts/token/ERC721/ERC721.sol\":4627:4631  from */\n      dup4\n        /* \"@openzeppelin/contracts/token/ERC721/ERC721.sol\":4610:4631  previousOwner != from */\n      0xffffffffffffffffffffffffffffffffffffffff\n      and\n        /* \"@openzeppelin/contracts/token/ERC721/ERC721.sol\":4610:4623  previousOwner */\n      dup2\n        /* \"@openzeppelin/contracts/token/ERC721/ERC721.sol\":4610:4631  previousOwner != from */\n      0xffffffffffffffffffffffffffffffffffffffff\n      and\n      eq\n        /* \"@openzeppelin/contracts/token/ERC721/ERC721.sol\":4606:4715  if (previousOwner != from) {... */\n      tag_138\n      jumpi\n        /* \"@openzeppelin/contracts/token/ERC721/ERC721.sol\":4675:4679  from */\n      dup4\n        /* \"@openzeppelin/contracts/token/ERC721/ERC721.sol\":4681:4688  tokenId */\n      dup3\n        /* \"@openzeppelin/contracts/token/ERC721/ERC721.sol\":4690:4703  previousOwner */\n      dup3\n        /* \"@openzeppelin/contracts/token/ERC721/ERC721.sol\":4654:4704  ERC721IncorrectOwner(from, tokenId, previousOwner) */\n      mload(0x40)\n      0x64283d7b00000000000000000000000000000000000000000000000000000000\n      dup2\n      mstore\n      0x04\n      add\n      tag_139\n      swap4\n      swap3\n      swap2\n      swap1\n      tag_140\n      jump\t// in\n    tag_139:\n      mload(0x40)\n      dup1\n      swap2\n      sub\n      swap1\n      revert\n        /* \"@openzeppelin/contracts/token/ERC721/ERC721.sol\":4606:4715  if (previousOwner != from) {... */\n    tag_138:\n        /* \"@openzeppelin/contracts/token/ERC721/ERC721.sol\":4223:4721  {... */\n      pop\n        /* \"@openzeppelin/contracts/token/ERC721/ERC721.sol\":4143:4721  function transferFrom(address from, address to, uint256 tokenId) public virtual {... */\n      pop\n      pop\n      pop\n      jump\t// out\n        /* \"@openzeppelin/contracts/token/ERC721/ERC721.sol\":4787:4919  function safeTransferFrom(address from, address to, uint256 tokenId) public {... */\n    tag_53:\n        /* \"@openzeppelin/contracts/token/ERC721/ERC721.sol\":4873:4912  safeTransferFrom(from, to, tokenId, \"\") */\n      tag_142\n        /* \"@openzeppelin/contracts/token/ERC721/ERC721.sol\":4890:4894  from */\n      dup4\n        /* \"@openzeppelin/contracts/token/ERC721/ERC721.sol\":4896:4898  to */\n      dup4\n        /* \"@openzeppelin/contracts/token/ERC721/ERC721.sol\":4900:4907  tokenId */\n      dup4\n        /* \"@openzeppelin/contracts/token/ERC721/ERC721.sol\":4873:4912  safeTransferFrom(from, to, tokenId, \"\") */\n      mload(0x40)\n      dup1\n      0x20\n      add\n      0x40\n      mstore\n      dup1\n      0x00\n      dup2\n      mstore\n      pop\n        /* \"@openzeppelin/contracts/token/ERC721/ERC721.sol\":4873:4889  safeTransferFrom */\n      tag_95\n        /* \"@openzeppelin/contracts/token/ERC721/ERC721.sol\":4873:4912  safeTransferFrom(from, to, tokenId, \"\") */\n      jump\t// in\n    tag_142:\n        /* \"@openzeppelin/contracts/token/ERC721/ERC721.sol\":4787:4919  function safeTransferFrom(address from, address to, uint256 tokenId) public {... */\n      pop\n      pop\n      pop\n      jump\t// out\n        /* \"contracts/SimpleNFT.sol\":1381:2264  function mintNFT(BadgeInfo[] memory badges)... */\n    tag_57:\n        /* \"contracts/SimpleNFT.sol\":1460:1483  BadgeTokenPair[] memory */\n      0x60\n        /* \"contracts/SimpleNFT.sol\":1505:1514  whitelist */\n      0x08\n        /* \"contracts/SimpleNFT.sol\":1505:1526  whitelist[msg.sender] */\n      0x00\n        /* \"contracts/SimpleNFT.sol\":1515:1525  msg.sender */\n      caller\n        /* \"contracts/SimpleNFT.sol\":1505:1526  whitelist[msg.sender] */\n      0xffffffffffffffffffffffffffffffffffffffff\n      and\n      0xffffffffffffffffffffffffffffffffffffffff\n      and\n      dup2\n      mstore\n      0x20\n      add\n      swap1\n      dup2\n      mstore\n      0x20\n      add\n      0x00\n      keccak256\n      0x00\n      swap1\n      sload\n      swap1\n      0x0100\n      exp\n      swap1\n      div\n      0xff\n      and\n        /* \"contracts/SimpleNFT.sol\":1497:1574  require(whitelist[msg.sender], \"Neither sender nor recipient is whitelisted\") */\n      tag_144\n      jumpi\n      mload(0x40)\n      0x08c379a000000000000000000000000000000000000000000000000000000000\n      dup2\n      mstore\n      0x04\n      add\n      tag_145\n      swap1\n      tag_146\n      jump\t// in\n    tag_145:\n      mload(0x40)\n      dup1\n      swap2\n      sub\n      swap1\n      revert\n    tag_144:\n        /* \"contracts/SimpleNFT.sol\":1581:1620  BadgeTokenPair[] memory badgeTokenPairs */\n      0x00\n        /* \"contracts/SimpleNFT.sol\":1644:1650  badges */\n      dup3\n        /* \"contracts/SimpleNFT.sol\":1644:1657  badges.length */\n      mload\n        /* \"contracts/SimpleNFT.sol\":1623:1658  new BadgeTokenPair[](badges.length) */\n      0xffffffffffffffff\n      dup2\n      gt\n      iszero\n      tag_147\n      jumpi\n      tag_148\n      tag_149\n      jump\t// in\n    tag_148:\n    tag_147:\n      mload(0x40)\n      swap1\n      dup1\n      dup3\n      mstore\n      dup1\n      0x20\n      mul\n      0x20\n      add\n      dup3\n      add\n      0x40\n      mstore\n      dup1\n      iszero\n      tag_150\n      jumpi\n      dup2\n      0x20\n      add\n    tag_151:\n      tag_152\n      tag_153\n      jump\t// in\n    tag_152:\n      dup2\n      mstore\n      0x20\n      add\n      swap1\n      0x01\n      swap1\n      sub\n      swap1\n      dup2\n      tag_151\n      jumpi\n      swap1\n      pop\n    tag_150:\n      pop\n        /* \"contracts/SimpleNFT.sol\":1581:1658  BadgeTokenPair[] memory badgeTokenPairs = new BadgeTokenPair[](badges.length) */\n      swap1\n      pop\n        /* \"contracts/SimpleNFT.sol\":1670:1676  uint i */\n      0x00\n        /* \"contracts/SimpleNFT.sol\":1665:2168  for (uint i = 0; i < badges.length; i++) {... */\n    tag_154:\n        /* \"contracts/SimpleNFT.sol\":1686:1692  badges */\n      dup4\n        /* \"contracts/SimpleNFT.sol\":1686:1699  badges.length */\n      mload\n        /* \"contracts/SimpleNFT.sol\":1682:1683  i */\n      dup2\n        /* \"contracts/SimpleNFT.sol\":1682:1699  i < badges.length */\n      lt\n        /* \"contracts/SimpleNFT.sol\":1665:2168  for (uint i = 0; i < badges.length; i++) {... */\n      iszero\n      tag_155\n      jumpi\n        /* \"contracts/SimpleNFT.sol\":1717:1732  uint256 tokenId */\n      0x00\n        /* \"contracts/SimpleNFT.sol\":1735:1760  _tokenIdCounter.current() */\n      tag_157\n        /* \"contracts/SimpleNFT.sol\":1735:1750  _tokenIdCounter */\n      0x09\n        /* \"contracts/SimpleNFT.sol\":1735:1758  _tokenIdCounter.current */\n      tag_158\n        /* \"contracts/SimpleNFT.sol\":1735:1760  _tokenIdCounter.current() */\n      jump\t// in\n    tag_157:\n        /* \"contracts/SimpleNFT.sol\":1717:1760  uint256 tokenId = _tokenIdCounter.current() */\n      swap1\n      pop\n        /* \"contracts/SimpleNFT.sol\":1771:1798  _tokenIdCounter.increment() */\n      tag_159\n        /* \"contracts/SimpleNFT.sol\":1771:1786  _tokenIdCounter */\n      0x09\n        /* \"contracts/SimpleNFT.sol\":1771:1796  _tokenIdCounter.increment */\n      tag_160\n        /* \"contracts/SimpleNFT.sol\":1771:1798  _tokenIdCounter.increment() */\n      jump\t// in\n    tag_159:\n        /* \"contracts/SimpleNFT.sol\":1809:1844  _mint(badges[i].recipient, tokenId) */\n      tag_161\n        /* \"contracts/SimpleNFT.sol\":1815:1821  badges */\n      dup6\n        /* \"contracts/SimpleNFT.sol\":1822:1823  i */\n      dup4\n        /* \"contracts/SimpleNFT.sol\":1815:1824  badges[i] */\n      dup2\n      mload\n      dup2\n      lt\n      tag_162\n      jumpi\n      tag_163\n      tag_164\n      jump\t// in\n    tag_163:\n    tag_162:\n      0x20\n      mul\n      0x20\n      add\n      add\n      mload\n        /* \"contracts/SimpleNFT.sol\":1815:1834  badges[i].recipient */\n      0x20\n      add\n      mload\n        /* \"contracts/SimpleNFT.sol\":1836:1843  tokenId */\n      dup3\n        /* \"contracts/SimpleNFT.sol\":1809:1814  _mint */\n      tag_165\n        /* \"contracts/SimpleNFT.sol\":1809:1844  _mint(badges[i].recipient, tokenId) */\n      jump\t// in\n    tag_161:\n        /* \"contracts/SimpleNFT.sol\":1855:1899  _setTokenURI(tokenId, badges[i].metadataURI) */\n      tag_166\n        /* \"contracts/SimpleNFT.sol\":1868:1875  tokenId */\n      dup2\n        /* \"contracts/SimpleNFT.sol\":1877:1883  badges */\n      dup7\n        /* \"contracts/SimpleNFT.sol\":1884:1885  i */\n      dup5\n        /* \"contracts/SimpleNFT.sol\":1877:1886  badges[i] */\n      dup2\n      mload\n      dup2\n      lt\n      tag_167\n      jumpi\n      tag_168\n      tag_164\n      jump\t// in\n    tag_168:\n    tag_167:\n      0x20\n      mul\n      0x20\n      add\n      add\n      mload\n        /* \"contracts/SimpleNFT.sol\":1877:1898  badges[i].metadataURI */\n      0x40\n      add\n      mload\n        /* \"contracts/SimpleNFT.sol\":1855:1867  _setTokenURI */\n      tag_169\n        /* \"contracts/SimpleNFT.sol\":1855:1899  _setTokenURI(tokenId, badges[i].metadataURI) */\n      jump\t// in\n    tag_166:\n        /* \"contracts/SimpleNFT.sol\":1931:2030  BadgeTokenPair({... */\n      mload(0x40)\n      dup1\n      0x40\n      add\n      0x40\n      mstore\n      dup1\n        /* \"contracts/SimpleNFT.sol\":1970:1976  badges */\n      dup7\n        /* \"contracts/SimpleNFT.sol\":1977:1978  i */\n      dup5\n        /* \"contracts/SimpleNFT.sol\":1970:1979  badges[i] */\n      dup2\n      mload\n      dup2\n      lt\n      tag_170\n      jumpi\n      tag_171\n      tag_164\n      jump\t// in\n    tag_171:\n    tag_170:\n      0x20\n      mul\n      0x20\n      add\n      add\n      mload\n        /* \"contracts/SimpleNFT.sol\":1970:1987  badges[i].badgeID */\n      0x00\n      add\n      mload\n        /* \"contracts/SimpleNFT.sol\":1931:2030  BadgeTokenPair({... */\n      dup2\n      mstore\n      0x20\n      add\n        /* \"contracts/SimpleNFT.sol\":2011:2018  tokenId */\n      dup3\n        /* \"contracts/SimpleNFT.sol\":1931:2030  BadgeTokenPair({... */\n      dup2\n      mstore\n      pop\n        /* \"contracts/SimpleNFT.sol\":1910:1925  badgeTokenPairs */\n      dup4\n        /* \"contracts/SimpleNFT.sol\":1926:1927  i */\n      dup4\n        /* \"contracts/SimpleNFT.sol\":1910:1928  badgeTokenPairs[i] */\n      dup2\n      mload\n      dup2\n      lt\n      tag_172\n      jumpi\n      tag_173\n      tag_164\n      jump\t// in\n    tag_173:\n    tag_172:\n      0x20\n      mul\n      0x20\n      add\n      add\n        /* \"contracts/SimpleNFT.sol\":1910:2030  badgeTokenPairs[i] = BadgeTokenPair({... */\n      dup2\n      swap1\n      mstore\n      pop\n        /* \"contracts/SimpleNFT.sol\":2100:2160  TokenMinted(badges[i].badgeID, tokenId, badges[i].recipient) */\n      0xf371d67483809edbc84279729528d26a3e37ce67f1e3a911778dbf88ff927ca2\n        /* \"contracts/SimpleNFT.sol\":2112:2118  badges */\n      dup6\n        /* \"contracts/SimpleNFT.sol\":2119:2120  i */\n      dup4\n        /* \"contracts/SimpleNFT.sol\":2112:2121  badges[i] */\n      dup2\n      mload\n      dup2\n      lt\n      tag_174\n      jumpi\n      tag_175\n      tag_164\n      jump\t// in\n    tag_175:\n    tag_174:\n      0x20\n      mul\n      0x20\n      add\n      add\n      mload\n        /* \"contracts/SimpleNFT.sol\":2112:2129  badges[i].badgeID */\n      0x00\n      add\n      mload\n        /* \"contracts/SimpleNFT.sol\":2131:2138  tokenId */\n      dup3\n        /* \"contracts/SimpleNFT.sol\":2140:2146  badges */\n      dup8\n        /* \"contracts/SimpleNFT.sol\":2147:2148  i */\n      dup6\n        /* \"contracts/SimpleNFT.sol\":2140:2149  badges[i] */\n      dup2\n      mload\n      dup2\n      lt\n      tag_176\n      jumpi\n      tag_177\n      tag_164\n      jump\t// in\n    tag_177:\n    tag_176:\n      0x20\n      mul\n      0x20\n      add\n      add\n      mload\n        /* \"contracts/SimpleNFT.sol\":2140:2159  badges[i].recipient */\n      0x20\n      add\n      mload\n        /* \"contracts/SimpleNFT.sol\":2100:2160  TokenMinted(badges[i].badgeID, tokenId, badges[i].recipient) */\n      mload(0x40)\n      tag_178\n      swap4\n      swap3\n      swap2\n      swap1\n      tag_179\n      jump\t// in\n    tag_178:\n      mload(0x40)\n      dup1\n      swap2\n      sub\n      swap1\n      log1\n        /* \"contracts/SimpleNFT.sol\":1706:2168  {... */\n      pop\n        /* \"contracts/SimpleNFT.sol\":1701:1704  i++ */\n      dup1\n      dup1\n      0x01\n      add\n      swap2\n      pop\n      pop\n        /* \"contracts/SimpleNFT.sol\":1665:2168  for (uint i = 0; i < badges.length; i++) {... */\n      jump(tag_154)\n    tag_155:\n      pop\n        /* \"contracts/SimpleNFT.sol\":2181:2196  badgeTokenPairs */\n      dup1\n        /* \"contracts/SimpleNFT.sol\":2174:2196  return badgeTokenPairs */\n      swap2\n      pop\n      pop\n        /* \"contracts/SimpleNFT.sol\":1381:2264  function mintNFT(BadgeInfo[] memory badges)... */\n      swap2\n      swap1\n      pop\n      jump\t// out\n        /* \"@openzeppelin/contracts/token/ERC721/ERC721.sol\":2185:2303  function ownerOf(uint256 tokenId) public view virtual returns (address) {... */\n    tag_62:\n        /* \"@openzeppelin/contracts/token/ERC721/ERC721.sol\":2248:2255  address */\n      0x00\n        /* \"@openzeppelin/contracts/token/ERC721/ERC721.sol\":2274:2296  _requireOwned(tokenId) */\n      tag_181\n        /* \"@openzeppelin/contracts/token/ERC721/ERC721.sol\":2288:2295  tokenId */\n      dup3\n        /* \"@openzeppelin/contracts/token/ERC721/ERC721.sol\":2274:2287  _requireOwned */\n      tag_124\n        /* \"@openzeppelin/contracts/token/ERC721/ERC721.sol\":2274:2296  _requireOwned(tokenId) */\n      jump\t// in\n    tag_181:\n        /* \"@openzeppelin/contracts/token/ERC721/ERC721.sol\":2267:2296  return _requireOwned(tokenId) */\n      swap1\n      pop\n        /* \"@openzeppelin/contracts/token/ERC721/ERC721.sol\":2185:2303  function ownerOf(uint256 tokenId) public view virtual returns (address) {... */\n      swap2\n      swap1\n      pop\n      jump\t// out\n        /* \"@openzeppelin/contracts/token/ERC721/ERC721.sol\":1920:2128  function balanceOf(address owner) public view virtual returns (uint256) {... */\n    tag_67:\n        /* \"@openzeppelin/contracts/token/ERC721/ERC721.sol\":1983:1990  uint256 */\n      0x00\n        /* \"@openzeppelin/contracts/token/ERC721/ERC721.sol\":2023:2024  0 */\n      dup1\n        /* \"@openzeppelin/contracts/token/ERC721/ERC721.sol\":2006:2025  owner == address(0) */\n      0xffffffffffffffffffffffffffffffffffffffff\n      and\n        /* \"@openzeppelin/contracts/token/ERC721/ERC721.sol\":2006:2011  owner */\n      dup3\n        /* \"@openzeppelin/contracts/token/ERC721/ERC721.sol\":2006:2025  owner == address(0) */\n      0xffffffffffffffffffffffffffffffffffffffff\n      and\n      sub\n        /* \"@openzeppelin/contracts/token/ERC721/ERC721.sol\":2002:2089  if (owner == address(0)) {... */\n      tag_183\n      jumpi\n        /* \"@openzeppelin/contracts/token/ERC721/ERC721.sol\":2075:2076  0 */\n      0x00\n        /* \"@openzeppelin/contracts/token/ERC721/ERC721.sol\":2048:2078  ERC721InvalidOwner(address(0)) */\n      mload(0x40)\n      0x89c62b6400000000000000000000000000000000000000000000000000000000\n      dup2\n      mstore\n      0x04\n      add\n      tag_184\n      swap2\n      swap1\n      tag_42\n      jump\t// in\n    tag_184:\n      mload(0x40)\n      dup1\n      swap2\n      sub\n      swap1\n      revert\n        /* \"@openzeppelin/contracts/token/ERC721/ERC721.sol\":2002:2089  if (owner == address(0)) {... */\n    tag_183:\n        /* \"@openzeppelin/contracts/token/ERC721/ERC721.sol\":2105:2114  _balances */\n      0x03\n        /* \"@openzeppelin/contracts/token/ERC721/ERC721.sol\":2105:2121  _balances[owner] */\n      0x00\n        /* \"@openzeppelin/contracts/token/ERC721/ERC721.sol\":2115:2120  owner */\n      dup4\n        /* \"@openzeppelin/contracts/token/ERC721/ERC721.sol\":2105:2121  _balances[owner] */\n      0xffffffffffffffffffffffffffffffffffffffff\n      and\n      0xffffffffffffffffffffffffffffffffffffffff\n      and\n      dup2\n      mstore\n      0x20\n      add\n      swap1\n      dup2\n      mstore\n      0x20\n      add\n      0x00\n      keccak256\n      sload\n        /* \"@openzeppelin/contracts/token/ERC721/ERC721.sol\":2098:2121  return _balances[owner] */\n      swap1\n      pop\n        /* \"@openzeppelin/contracts/token/ERC721/ERC721.sol\":1920:2128  function balanceOf(address owner) public view virtual returns (uint256) {... */\n      swap2\n      swap1\n      pop\n      jump\t// out\n        /* \"@openzeppelin/contracts/access/Ownable.sol\":2293:2394  function renounceOwnership() public virtual onlyOwner {... */\n    tag_71:\n        /* \"@openzeppelin/contracts/access/Ownable.sol\":1531:1544  _checkOwner() */\n      tag_186\n        /* \"@openzeppelin/contracts/access/Ownable.sol\":1531:1542  _checkOwner */\n      tag_187\n        /* \"@openzeppelin/contracts/access/Ownable.sol\":1531:1544  _checkOwner() */\n      jump\t// in\n    tag_186:\n        /* \"@openzeppelin/contracts/access/Ownable.sol\":2357:2387  _transferOwnership(address(0)) */\n      tag_189\n        /* \"@openzeppelin/contracts/access/Ownable.sol\":2384:2385  0 */\n      0x00\n        /* \"@openzeppelin/contracts/access/Ownable.sol\":2357:2375  _transferOwnership */\n      tag_190\n        /* \"@openzeppelin/contracts/access/Ownable.sol\":2357:2387  _transferOwnership(address(0)) */\n      jump\t// in\n    tag_189:\n        /* \"@openzeppelin/contracts/access/Ownable.sol\":2293:2394  function renounceOwnership() public virtual onlyOwner {... */\n      jump\t// out\n        /* \"contracts/SimpleNFT.sol\":2320:2412  function getMsgSender() external view returns (address) {... */\n    tag_73:\n        /* \"contracts/SimpleNFT.sol\":2367:2374  address */\n      0x00\n        /* \"contracts/SimpleNFT.sol\":2394:2404  msg.sender */\n      caller\n        /* \"contracts/SimpleNFT.sol\":2387:2404  return msg.sender */\n      swap1\n      pop\n        /* \"contracts/SimpleNFT.sol\":2320:2412  function getMsgSender() external view returns (address) {... */\n      swap1\n      jump\t// out\n        /* \"contracts/SimpleNFT.sol\":1191:1294  function removeFromWhitelist(address _address) external  {... */\n    tag_77:\n        /* \"contracts/SimpleNFT.sol\":1281:1286  false */\n      0x00\n        /* \"contracts/SimpleNFT.sol\":1259:1268  whitelist */\n      0x08\n        /* \"contracts/SimpleNFT.sol\":1259:1278  whitelist[_address] */\n      0x00\n        /* \"contracts/SimpleNFT.sol\":1269:1277  _address */\n      dup4\n        /* \"contracts/SimpleNFT.sol\":1259:1278  whitelist[_address] */\n      0xffffffffffffffffffffffffffffffffffffffff\n      and\n      0xffffffffffffffffffffffffffffffffffffffff\n      and\n      dup2\n      mstore\n      0x20\n      add\n      swap1\n      dup2\n      mstore\n      0x20\n      add\n      0x00\n      keccak256\n      0x00\n        /* \"contracts/SimpleNFT.sol\":1259:1286  whitelist[_address] = false */\n      0x0100\n      exp\n      dup2\n      sload\n      dup2\n      0xff\n      mul\n      not\n      and\n      swap1\n      dup4\n      iszero\n      iszero\n      mul\n      or\n      swap1\n      sstore\n      pop\n        /* \"contracts/SimpleNFT.sol\":1191:1294  function removeFromWhitelist(address _address) external  {... */\n      pop\n      jump\t// out\n        /* \"@openzeppelin/contracts/access/Ownable.sol\":1638:1723  function owner() public view virtual returns (address) {... */\n    tag_79:\n        /* \"@openzeppelin/contracts/access/Ownable.sol\":1684:1691  address */\n      0x00\n        /* \"@openzeppelin/contracts/access/Ownable.sol\":1710:1716  _owner */\n      0x07\n      0x00\n      swap1\n      sload\n      swap1\n      0x0100\n      exp\n      swap1\n      div\n      0xffffffffffffffffffffffffffffffffffffffff\n      and\n        /* \"@openzeppelin/contracts/access/Ownable.sol\":1703:1716  return _owner */\n      swap1\n      pop\n        /* \"@openzeppelin/contracts/access/Ownable.sol\":1638:1723  function owner() public view virtual returns (address) {... */\n      swap1\n      jump\t// out\n        /* \"@openzeppelin/contracts/token/ERC721/ERC721.sol\":2518:2611  function symbol() public view virtual returns (string memory) {... */\n    tag_82:\n        /* \"@openzeppelin/contracts/token/ERC721/ERC721.sol\":2565:2578  string memory */\n      0x60\n        /* \"@openzeppelin/contracts/token/ERC721/ERC721.sol\":2597:2604  _symbol */\n      0x01\n        /* \"@openzeppelin/contracts/token/ERC721/ERC721.sol\":2590:2604  return _symbol */\n      dup1\n      sload\n      tag_195\n      swap1\n      tag_117\n      jump\t// in\n    tag_195:\n      dup1\n      0x1f\n      add\n      0x20\n      dup1\n      swap2\n      div\n      mul\n      0x20\n      add\n      mload(0x40)\n      swap1\n      dup2\n      add\n      0x40\n      mstore\n      dup1\n      swap3\n      swap2\n      swap1\n      dup2\n      dup2\n      mstore\n      0x20\n      add\n      dup3\n      dup1\n      sload\n      tag_196\n      swap1\n      tag_117\n      jump\t// in\n    tag_196:\n      dup1\n      iszero\n      tag_197\n      jumpi\n      dup1\n      0x1f\n      lt\n      tag_198\n      jumpi\n      0x0100\n      dup1\n      dup4\n      sload\n      div\n      mul\n      dup4\n      mstore\n      swap2\n      0x20\n      add\n      swap2\n      jump(tag_197)\n    tag_198:\n      dup3\n      add\n      swap2\n      swap1\n      0x00\n      mstore\n      keccak256(0x00, 0x20)\n      swap1\n    tag_199:\n      dup2\n      sload\n      dup2\n      mstore\n      swap1\n      0x01\n      add\n      swap1\n      0x20\n      add\n      dup1\n      dup4\n      gt\n      tag_199\n      jumpi\n      dup3\n      swap1\n      sub\n      0x1f\n      and\n      dup3\n      add\n      swap2\n    tag_197:\n      pop\n      pop\n      pop\n      pop\n      pop\n      swap1\n      pop\n        /* \"@openzeppelin/contracts/token/ERC721/ERC721.sol\":2518:2611  function symbol() public view virtual returns (string memory) {... */\n      swap1\n      jump\t// out\n        /* \"contracts/SimpleNFT.sol\":347:388  mapping(address => bool) public whitelist */\n    tag_86:\n      mstore(0x20, 0x08)\n      dup1\n      0x00\n      mstore\n      keccak256(0x00, 0x40)\n      0x00\n      swap2\n      pop\n      sload\n      swap1\n      0x0100\n      exp\n      swap1\n      div\n      0xff\n      and\n      dup2\n      jump\t// out\n        /* \"@openzeppelin/contracts/token/ERC721/ERC721.sol\":3718:3862  function setApprovalForAll(address operator, bool approved) public virtual {... */\n    tag_91:\n        /* \"@openzeppelin/contracts/token/ERC721/ERC721.sol\":3803:3855  _setApprovalForAll(_msgSender(), operator, approved) */\n      tag_201\n        /* \"@openzeppelin/contracts/token/ERC721/ERC721.sol\":3822:3834  _msgSender() */\n      tag_202\n        /* \"@openzeppelin/contracts/token/ERC721/ERC721.sol\":3822:3832  _msgSender */\n      tag_130\n        /* \"@openzeppelin/contracts/token/ERC721/ERC721.sol\":3822:3834  _msgSender() */\n      jump\t// in\n    tag_202:\n        /* \"@openzeppelin/contracts/token/ERC721/ERC721.sol\":3836:3844  operator */\n      dup4\n        /* \"@openzeppelin/contracts/token/ERC721/ERC721.sol\":3846:3854  approved */\n      dup4\n        /* \"@openzeppelin/contracts/token/ERC721/ERC721.sol\":3803:3821  _setApprovalForAll */\n      tag_203\n        /* \"@openzeppelin/contracts/token/ERC721/ERC721.sol\":3803:3855  _setApprovalForAll(_msgSender(), operator, approved) */\n      jump\t// in\n    tag_201:\n        /* \"@openzeppelin/contracts/token/ERC721/ERC721.sol\":3718:3862  function setApprovalForAll(address operator, bool approved) public virtual {... */\n      pop\n      pop\n      jump\t// out\n        /* \"@openzeppelin/contracts/token/ERC721/ERC721.sol\":4985:5193  function safeTransferFrom(address from, address to, uint256 tokenId, bytes memory data) public virtual {... */\n    tag_95:\n        /* \"@openzeppelin/contracts/token/ERC721/ERC721.sol\":5098:5129  transferFrom(from, to, tokenId) */\n      tag_205\n        /* \"@openzeppelin/contracts/token/ERC721/ERC721.sol\":5111:5115  from */\n      dup5\n        /* \"@openzeppelin/contracts/token/ERC721/ERC721.sol\":5117:5119  to */\n      dup5\n        /* \"@openzeppelin/contracts/token/ERC721/ERC721.sol\":5121:5128  tokenId */\n      dup5\n        /* \"@openzeppelin/contracts/token/ERC721/ERC721.sol\":5098:5110  transferFrom */\n      tag_50\n        /* \"@openzeppelin/contracts/token/ERC721/ERC721.sol\":5098:5129  transferFrom(from, to, tokenId) */\n      jump\t// in\n    tag_205:\n        /* \"@openzeppelin/contracts/token/ERC721/ERC721.sol\":5139:5186  _checkOnERC721Received(from, to, tokenId, data) */\n      tag_206\n        /* \"@openzeppelin/contracts/token/ERC721/ERC721.sol\":5162:5166  from */\n      dup5\n        /* \"@openzeppelin/contracts/token/ERC721/ERC721.sol\":5168:5170  to */\n      dup5\n        /* \"@openzeppelin/contracts/token/ERC721/ERC721.sol\":5172:5179  tokenId */\n      dup5\n        /* \"@openzeppelin/contracts/token/ERC721/ERC721.sol\":5181:5185  data */\n      dup5\n        /* \"@openzeppelin/contracts/token/ERC721/ERC721.sol\":5139:5161  _checkOnERC721Received */\n      tag_207\n        /* \"@openzeppelin/contracts/token/ERC721/ERC721.sol\":5139:5186  _checkOnERC721Received(from, to, tokenId, data) */\n      jump\t// in\n    tag_206:\n        /* \"@openzeppelin/contracts/token/ERC721/ERC721.sol\":4985:5193  function safeTransferFrom(address from, address to, uint256 tokenId, bytes memory data) public virtual {... */\n      pop\n      pop\n      pop\n      pop\n      jump\t// out\n        /* \"@openzeppelin/contracts/token/ERC721/extensions/ERC721URIStorage.sol\":1210:1803  function tokenURI(uint256 tokenId) public view virtual override returns (string memory) {... */\n    tag_98:\n        /* \"@openzeppelin/contracts/token/ERC721/extensions/ERC721URIStorage.sol\":1283:1296  string memory */\n      0x60\n        /* \"@openzeppelin/contracts/token/ERC721/extensions/ERC721URIStorage.sol\":1308:1330  _requireOwned(tokenId) */\n      tag_209\n        /* \"@openzeppelin/contracts/token/ERC721/extensions/ERC721URIStorage.sol\":1322:1329  tokenId */\n      dup3\n        /* \"@openzeppelin/contracts/token/ERC721/extensions/ERC721URIStorage.sol\":1308:1321  _requireOwned */\n      tag_124\n        /* \"@openzeppelin/contracts/token/ERC721/extensions/ERC721URIStorage.sol\":1308:1330  _requireOwned(tokenId) */\n      jump\t// in\n    tag_209:\n      pop\n        /* \"@openzeppelin/contracts/token/ERC721/extensions/ERC721URIStorage.sol\":1341:1364  string memory _tokenURI */\n      0x00\n        /* \"@openzeppelin/contracts/token/ERC721/extensions/ERC721URIStorage.sol\":1367:1377  _tokenURIs */\n      0x06\n        /* \"@openzeppelin/contracts/token/ERC721/extensions/ERC721URIStorage.sol\":1367:1386  _tokenURIs[tokenId] */\n      0x00\n        /* \"@openzeppelin/contracts/token/ERC721/extensions/ERC721URIStorage.sol\":1378:1385  tokenId */\n      dup5\n        /* \"@openzeppelin/contracts/token/ERC721/extensions/ERC721URIStorage.sol\":1367:1386  _tokenURIs[tokenId] */\n      dup2\n      mstore\n      0x20\n      add\n      swap1\n      dup2\n      mstore\n      0x20\n      add\n      0x00\n      keccak256\n        /* \"@openzeppelin/contracts/token/ERC721/extensions/ERC721URIStorage.sol\":1341:1386  string memory _tokenURI = _tokenURIs[tokenId] */\n      dup1\n      sload\n      tag_210\n      swap1\n      tag_117\n      jump\t// in\n    tag_210:\n      dup1\n      0x1f\n      add\n      0x20\n      dup1\n      swap2\n      div\n      mul\n      0x20\n      add\n      mload(0x40)\n      swap1\n      dup2\n      add\n      0x40\n      mstore\n      dup1\n      swap3\n      swap2\n      swap1\n      dup2\n      dup2\n      mstore\n      0x20\n      add\n      dup3\n      dup1\n      sload\n      tag_211\n      swap1\n      tag_117\n      jump\t// in\n    tag_211:\n      dup1\n      iszero\n      tag_212\n      jumpi\n      dup1\n      0x1f\n      lt\n      tag_213\n      jumpi\n      0x0100\n      dup1\n      dup4\n      sload\n      div\n      mul\n      dup4\n      mstore\n      swap2\n      0x20\n      add\n      swap2\n      jump(tag_212)\n    tag_213:\n      dup3\n      add\n      swap2\n      swap1\n      0x00\n      mstore\n      keccak256(0x00, 0x20)\n      swap1\n    tag_214:\n      dup2\n      sload\n      dup2\n      mstore\n      swap1\n      0x01\n      add\n      swap1\n      0x20\n      add\n      dup1\n      dup4\n      gt\n      tag_214\n      jumpi\n      dup3\n      swap1\n      sub\n      0x1f\n      and\n      dup3\n      add\n      swap2\n    tag_212:\n      pop\n      pop\n      pop\n      pop\n      pop\n      swap1\n      pop\n        /* \"@openzeppelin/contracts/token/ERC721/extensions/ERC721URIStorage.sol\":1396:1414  string memory base */\n      0x00\n        /* \"@openzeppelin/contracts/token/ERC721/extensions/ERC721URIStorage.sol\":1417:1427  _baseURI() */\n      tag_215\n        /* \"@openzeppelin/contracts/token/ERC721/extensions/ERC721URIStorage.sol\":1417:1425  _baseURI */\n      tag_216\n        /* \"@openzeppelin/contracts/token/ERC721/extensions/ERC721URIStorage.sol\":1417:1427  _baseURI() */\n      jump\t// in\n    tag_215:\n        /* \"@openzeppelin/contracts/token/ERC721/extensions/ERC721URIStorage.sol\":1396:1427  string memory base = _baseURI() */\n      swap1\n      pop\n        /* \"@openzeppelin/contracts/token/ERC721/extensions/ERC721URIStorage.sol\":1522:1523  0 */\n      0x00\n        /* \"@openzeppelin/contracts/token/ERC721/extensions/ERC721URIStorage.sol\":1506:1510  base */\n      dup2\n        /* \"@openzeppelin/contracts/token/ERC721/extensions/ERC721URIStorage.sol\":1500:1518  bytes(base).length */\n      mload\n        /* \"@openzeppelin/contracts/token/ERC721/extensions/ERC721URIStorage.sol\":1500:1523  bytes(base).length == 0 */\n      sub\n        /* \"@openzeppelin/contracts/token/ERC721/extensions/ERC721URIStorage.sol\":1496:1566  if (bytes(base).length == 0) {... */\n      tag_217\n      jumpi\n        /* \"@openzeppelin/contracts/token/ERC721/extensions/ERC721URIStorage.sol\":1546:1555  _tokenURI */\n      dup2\n        /* \"@openzeppelin/contracts/token/ERC721/extensions/ERC721URIStorage.sol\":1539:1555  return _tokenURI */\n      swap3\n      pop\n      pop\n      pop\n      jump(tag_208)\n        /* \"@openzeppelin/contracts/token/ERC721/extensions/ERC721URIStorage.sol\":1496:1566  if (bytes(base).length == 0) {... */\n    tag_217:\n        /* \"@openzeppelin/contracts/token/ERC721/extensions/ERC721URIStorage.sol\":1691:1692  0 */\n      0x00\n        /* \"@openzeppelin/contracts/token/ERC721/extensions/ERC721URIStorage.sol\":1671:1680  _tokenURI */\n      dup3\n        /* \"@openzeppelin/contracts/token/ERC721/extensions/ERC721URIStorage.sol\":1665:1688  bytes(_tokenURI).length */\n      mload\n        /* \"@openzeppelin/contracts/token/ERC721/extensions/ERC721URIStorage.sol\":1665:1692  bytes(_tokenURI).length > 0 */\n      gt\n        /* \"@openzeppelin/contracts/token/ERC721/extensions/ERC721URIStorage.sol\":1661:1756  if (bytes(_tokenURI).length > 0) {... */\n      iszero\n      tag_218\n      jumpi\n        /* \"@openzeppelin/contracts/token/ERC721/extensions/ERC721URIStorage.sol\":1729:1733  base */\n      dup1\n        /* \"@openzeppelin/contracts/token/ERC721/extensions/ERC721URIStorage.sol\":1735:1744  _tokenURI */\n      dup3\n        /* \"@openzeppelin/contracts/token/ERC721/extensions/ERC721URIStorage.sol\":1715:1745  string.concat(base, _tokenURI) */\n      add(0x20, mload(0x40))\n      tag_219\n      swap3\n      swap2\n      swap1\n      tag_220\n      jump\t// in\n    tag_219:\n      mload(0x40)\n      0x20\n      dup2\n      dup4\n      sub\n      sub\n      dup2\n      mstore\n      swap1\n      0x40\n      mstore\n        /* \"@openzeppelin/contracts/token/ERC721/extensions/ERC721URIStorage.sol\":1708:1745  return string.concat(base, _tokenURI) */\n      swap3\n      pop\n      pop\n      pop\n      jump(tag_208)\n        /* \"@openzeppelin/contracts/token/ERC721/extensions/ERC721URIStorage.sol\":1661:1756  if (bytes(_tokenURI).length > 0) {... */\n    tag_218:\n        /* \"@openzeppelin/contracts/token/ERC721/extensions/ERC721URIStorage.sol\":1773:1796  super.tokenURI(tokenId) */\n      tag_221\n        /* \"@openzeppelin/contracts/token/ERC721/extensions/ERC721URIStorage.sol\":1788:1795  tokenId */\n      dup5\n        /* \"@openzeppelin/contracts/token/ERC721/extensions/ERC721URIStorage.sol\":1773:1787  super.tokenURI */\n      tag_222\n        /* \"@openzeppelin/contracts/token/ERC721/extensions/ERC721URIStorage.sol\":1773:1796  super.tokenURI(tokenId) */\n      jump\t// in\n    tag_221:\n        /* \"@openzeppelin/contracts/token/ERC721/extensions/ERC721URIStorage.sol\":1766:1796  return super.tokenURI(tokenId) */\n      swap3\n      pop\n      pop\n      pop\n        /* \"@openzeppelin/contracts/token/ERC721/extensions/ERC721URIStorage.sol\":1210:1803  function tokenURI(uint256 tokenId) public view virtual override returns (string memory) {... */\n    tag_208:\n      swap2\n      swap1\n      pop\n      jump\t// out\n        /* \"contracts/SimpleNFT.sol\":1086:1183  function addToWhitelist(address _address) external  {... */\n    tag_102:\n        /* \"contracts/SimpleNFT.sol\":1171:1175  true */\n      0x01\n        /* \"contracts/SimpleNFT.sol\":1149:1158  whitelist */\n      0x08\n        /* \"contracts/SimpleNFT.sol\":1149:1168  whitelist[_address] */\n      0x00\n        /* \"contracts/SimpleNFT.sol\":1159:1167  _address */\n      dup4\n        /* \"contracts/SimpleNFT.sol\":1149:1168  whitelist[_address] */\n      0xffffffffffffffffffffffffffffffffffffffff\n      and\n      0xffffffffffffffffffffffffffffffffffffffff\n      and\n      dup2\n      mstore\n      0x20\n      add\n      swap1\n      dup2\n      mstore\n      0x20\n      add\n      0x00\n      keccak256\n      0x00\n        /* \"contracts/SimpleNFT.sol\":1149:1175  whitelist[_address] = true */\n      0x0100\n      exp\n      dup2\n      sload\n      dup2\n      0xff\n      mul\n      not\n      and\n      swap1\n      dup4\n      iszero\n      iszero\n      mul\n      or\n      swap1\n      sstore\n      pop\n        /* \"contracts/SimpleNFT.sol\":1086:1183  function addToWhitelist(address _address) external  {... */\n      pop\n      jump\t// out\n        /* \"@openzeppelin/contracts/token/ERC721/ERC721.sol\":3928:4081  function isApprovedForAll(address owner, address operator) public view virtual returns (bool) {... */\n    tag_106:\n        /* \"@openzeppelin/contracts/token/ERC721/ERC721.sol\":4016:4020  bool */\n      0x00\n        /* \"@openzeppelin/contracts/token/ERC721/ERC721.sol\":4039:4057  _operatorApprovals */\n      0x05\n        /* \"@openzeppelin/contracts/token/ERC721/ERC721.sol\":4039:4064  _operatorApprovals[owner] */\n      0x00\n        /* \"@openzeppelin/contracts/token/ERC721/ERC721.sol\":4058:4063  owner */\n      dup5\n        /* \"@openzeppelin/contracts/token/ERC721/ERC721.sol\":4039:4064  _operatorApprovals[owner] */\n      0xffffffffffffffffffffffffffffffffffffffff\n      and\n      0xffffffffffffffffffffffffffffffffffffffff\n      and\n      dup2\n      mstore\n      0x20\n      add\n      swap1\n      dup2\n      mstore\n      0x20\n      add\n      0x00\n      keccak256\n        /* \"@openzeppelin/contracts/token/ERC721/ERC721.sol\":4039:4074  _operatorApprovals[owner][operator] */\n      0x00\n        /* \"@openzeppelin/contracts/token/ERC721/ERC721.sol\":4065:4073  operator */\n      dup4\n        /* \"@openzeppelin/contracts/token/ERC721/ERC721.sol\":4039:4074  _operatorApprovals[owner][operator] */\n      0xffffffffffffffffffffffffffffffffffffffff\n      and\n      0xffffffffffffffffffffffffffffffffffffffff\n      and\n      dup2\n      mstore\n      0x20\n      add\n      swap1\n      dup2\n      mstore\n      0x20\n      add\n      0x00\n      keccak256\n      0x00\n      swap1\n      sload\n      swap1\n      0x0100\n      exp\n      swap1\n      div\n      0xff\n      and\n        /* \"@openzeppelin/contracts/token/ERC721/ERC721.sol\":4032:4074  return _operatorApprovals[owner][operator] */\n      swap1\n      pop\n        /* \"@openzeppelin/contracts/token/ERC721/ERC721.sol\":3928:4081  function isApprovedForAll(address owner, address operator) public view virtual returns (bool) {... */\n      swap3\n      swap2\n      pop\n      pop\n      jump\t// out\n        /* \"@openzeppelin/contracts/access/Ownable.sol\":2543:2758  function transferOwnership(address newOwner) public virtual onlyOwner {... */\n    tag_110:\n        /* \"@openzeppelin/contracts/access/Ownable.sol\":1531:1544  _checkOwner() */\n      tag_226\n        /* \"@openzeppelin/contracts/access/Ownable.sol\":1531:1542  _checkOwner */\n      tag_187\n        /* \"@openzeppelin/contracts/access/Ownable.sol\":1531:1544  _checkOwner() */\n      jump\t// in\n    tag_226:\n        /* \"@openzeppelin/contracts/access/Ownable.sol\":2647:2648  0 */\n      0x00\n        /* \"@openzeppelin/contracts/access/Ownable.sol\":2627:2649  newOwner == address(0) */\n      0xffffffffffffffffffffffffffffffffffffffff\n      and\n        /* \"@openzeppelin/contracts/access/Ownable.sol\":2627:2635  newOwner */\n      dup2\n        /* \"@openzeppelin/contracts/access/Ownable.sol\":2627:2649  newOwner == address(0) */\n      0xffffffffffffffffffffffffffffffffffffffff\n      and\n      sub\n        /* \"@openzeppelin/contracts/access/Ownable.sol\":2623:2714  if (newOwner == address(0)) {... */\n      tag_228\n      jumpi\n        /* \"@openzeppelin/contracts/access/Ownable.sol\":2700:2701  0 */\n      0x00\n        /* \"@openzeppelin/contracts/access/Ownable.sol\":2672:2703  OwnableInvalidOwner(address(0)) */\n      mload(0x40)\n      0x1e4fbdf700000000000000000000000000000000000000000000000000000000\n      dup2\n      mstore\n      0x04\n      add\n      tag_229\n      swap2\n      swap1\n      tag_42\n      jump\t// in\n    tag_229:\n      mload(0x40)\n      dup1\n      swap2\n      sub\n      swap1\n      revert\n        /* \"@openzeppelin/contracts/access/Ownable.sol\":2623:2714  if (newOwner == address(0)) {... */\n    tag_228:\n        /* \"@openzeppelin/contracts/access/Ownable.sol\":2723:2751  _transferOwnership(newOwner) */\n      tag_230\n        /* \"@openzeppelin/contracts/access/Ownable.sol\":2742:2750  newOwner */\n      dup2\n        /* \"@openzeppelin/contracts/access/Ownable.sol\":2723:2741  _transferOwnership */\n      tag_190\n        /* \"@openzeppelin/contracts/access/Ownable.sol\":2723:2751  _transferOwnership(newOwner) */\n      jump\t// in\n    tag_230:\n        /* \"@openzeppelin/contracts/access/Ownable.sol\":2543:2758  function transferOwnership(address newOwner) public virtual onlyOwner {... */\n      pop\n      jump\t// out\n        /* \"@openzeppelin/contracts/token/ERC721/ERC721.sol\":1561:1861  function supportsInterface(bytes4 interfaceId) public view virtual override(ERC165, IERC165) returns (bool) {... */\n    tag_114:\n        /* \"@openzeppelin/contracts/token/ERC721/ERC721.sol\":1663:1667  bool */\n      0x00\n        /* \"@openzeppelin/contracts/token/ERC721/ERC721.sol\":1713:1738  type(IERC721).interfaceId */\n      0x80ac58cd00000000000000000000000000000000000000000000000000000000\n        /* \"@openzeppelin/contracts/token/ERC721/ERC721.sol\":1698:1738  interfaceId == type(IERC721).interfaceId */\n      not(0xffffffffffffffffffffffffffffffffffffffffffffffffffffffff)\n      and\n        /* \"@openzeppelin/contracts/token/ERC721/ERC721.sol\":1698:1709  interfaceId */\n      dup3\n        /* \"@openzeppelin/contracts/token/ERC721/ERC721.sol\":1698:1738  interfaceId == type(IERC721).interfaceId */\n      not(0xffffffffffffffffffffffffffffffffffffffffffffffffffffffff)\n      and\n      eq\n        /* \"@openzeppelin/contracts/token/ERC721/ERC721.sol\":1698:1802  interfaceId == type(IERC721).interfaceId ||... */\n      dup1\n      tag_232\n      jumpi\n      pop\n        /* \"@openzeppelin/contracts/token/ERC721/ERC721.sol\":1769:1802  type(IERC721Metadata).interfaceId */\n      0x5b5e139f00000000000000000000000000000000000000000000000000000000\n        /* \"@openzeppelin/contracts/token/ERC721/ERC721.sol\":1754:1802  interfaceId == type(IERC721Metadata).interfaceId */\n      not(0xffffffffffffffffffffffffffffffffffffffffffffffffffffffff)\n      and\n        /* \"@openzeppelin/contracts/token/ERC721/ERC721.sol\":1754:1765  interfaceId */\n      dup3\n        /* \"@openzeppelin/contracts/token/ERC721/ERC721.sol\":1754:1802  interfaceId == type(IERC721Metadata).interfaceId */\n      not(0xffffffffffffffffffffffffffffffffffffffffffffffffffffffff)\n      and\n      eq\n        /* \"@openzeppelin/contracts/token/ERC721/ERC721.sol\":1698:1802  interfaceId == type(IERC721).interfaceId ||... */\n    tag_232:\n        /* \"@openzeppelin/contracts/token/ERC721/ERC721.sol\":1698:1854  interfaceId == type(IERC721).interfaceId ||... */\n      dup1\n      tag_233\n      jumpi\n      pop\n        /* \"@openzeppelin/contracts/token/ERC721/ERC721.sol\":1818:1854  super.supportsInterface(interfaceId) */\n      tag_234\n        /* \"@openzeppelin/contracts/token/ERC721/ERC721.sol\":1842:1853  interfaceId */\n      dup3\n        /* \"@openzeppelin/contracts/token/ERC721/ERC721.sol\":1818:1841  super.supportsInterface */\n      tag_235\n        /* \"@openzeppelin/contracts/token/ERC721/ERC721.sol\":1818:1854  super.supportsInterface(interfaceId) */\n      jump\t// in\n    tag_234:\n        /* \"@openzeppelin/contracts/token/ERC721/ERC721.sol\":1698:1854  interfaceId == type(IERC721).interfaceId ||... */\n    tag_233:\n        /* \"@openzeppelin/contracts/token/ERC721/ERC721.sol\":1679:1854  return... */\n      swap1\n      pop\n        /* \"@openzeppelin/contracts/token/ERC721/ERC721.sol\":1561:1861  function supportsInterface(bytes4 interfaceId) public view virtual override(ERC165, IERC165) returns (bool) {... */\n      swap2\n      swap1\n      pop\n      jump\t// out\n        /* \"@openzeppelin/contracts/token/ERC721/ERC721.sol\":16138:16379  function _requireOwned(uint256 tokenId) internal view returns (address) {... */\n    tag_124:\n        /* \"@openzeppelin/contracts/token/ERC721/ERC721.sol\":16201:16208  address */\n      0x00\n        /* \"@openzeppelin/contracts/token/ERC721/ERC721.sol\":16220:16233  address owner */\n      dup1\n        /* \"@openzeppelin/contracts/token/ERC721/ERC721.sol\":16236:16253  _ownerOf(tokenId) */\n      tag_237\n        /* \"@openzeppelin/contracts/token/ERC721/ERC721.sol\":16245:16252  tokenId */\n      dup4\n        /* \"@openzeppelin/contracts/token/ERC721/ERC721.sol\":16236:16244  _ownerOf */\n      tag_238\n        /* \"@openzeppelin/contracts/token/ERC721/ERC721.sol\":16236:16253  _ownerOf(tokenId) */\n      jump\t// in\n    tag_237:\n        /* \"@openzeppelin/contracts/token/ERC721/ERC721.sol\":16220:16253  address owner = _ownerOf(tokenId) */\n      swap1\n      pop\n        /* \"@openzeppelin/contracts/token/ERC721/ERC721.sol\":16284:16285  0 */\n      0x00\n        /* \"@openzeppelin/contracts/token/ERC721/ERC721.sol\":16267:16286  owner == address(0) */\n      0xffffffffffffffffffffffffffffffffffffffff\n      and\n        /* \"@openzeppelin/contracts/token/ERC721/ERC721.sol\":16267:16272  owner */\n      dup2\n        /* \"@openzeppelin/contracts/token/ERC721/ERC721.sol\":16267:16286  owner == address(0) */\n      0xffffffffffffffffffffffffffffffffffffffff\n      and\n      sub\n        /* \"@openzeppelin/contracts/token/ERC721/ERC721.sol\":16263:16351  if (owner == address(0)) {... */\n      tag_239\n      jumpi\n        /* \"@openzeppelin/contracts/token/ERC721/ERC721.sol\":16332:16339  tokenId */\n      dup3\n        /* \"@openzeppelin/contracts/token/ERC721/ERC721.sol\":16309:16340  ERC721NonexistentToken(tokenId) */\n      mload(0x40)\n      0x7e27328900000000000000000000000000000000000000000000000000000000\n      dup2\n      mstore\n      0x04\n      add\n      tag_240\n      swap2\n      swap1\n      tag_69\n      jump\t// in\n    tag_240:\n      mload(0x40)\n      dup1\n      swap2\n      sub\n      swap1\n      revert\n        /* \"@openzeppelin/contracts/token/ERC721/ERC721.sol\":16263:16351  if (owner == address(0)) {... */\n    tag_239:\n        /* \"@openzeppelin/contracts/token/ERC721/ERC721.sol\":16367:16372  owner */\n      dup1\n        /* \"@openzeppelin/contracts/token/ERC721/ERC721.sol\":16360:16372  return owner */\n      swap2\n      pop\n      pop\n        /* \"@openzeppelin/contracts/token/ERC721/ERC721.sol\":16138:16379  function _requireOwned(uint256 tokenId) internal view returns (address) {... */\n      swap2\n      swap1\n      pop\n      jump\t// out\n        /* \"@openzeppelin/contracts/token/ERC721/ERC721.sol\":5938:6065  function _getApproved(uint256 tokenId) internal view virtual returns (address) {... */\n    tag_126:\n        /* \"@openzeppelin/contracts/token/ERC721/ERC721.sol\":6008:6015  address */\n      0x00\n        /* \"@openzeppelin/contracts/token/ERC721/ERC721.sol\":6034:6049  _tokenApprovals */\n      0x04\n        /* \"@openzeppelin/contracts/token/ERC721/ERC721.sol\":6034:6058  _tokenApprovals[tokenId] */\n      0x00\n        /* \"@openzeppelin/contracts/token/ERC721/ERC721.sol\":6050:6057  tokenId */\n      dup4\n        /* \"@openzeppelin/contracts/token/ERC721/ERC721.sol\":6034:6058  _tokenApprovals[tokenId] */\n      dup2\n      mstore\n      0x20\n      add\n      swap1\n      dup2\n      mstore\n      0x20\n      add\n      0x00\n      keccak256\n      0x00\n      swap1\n      sload\n      swap1\n      0x0100\n      exp\n      swap1\n      div\n      0xffffffffffffffffffffffffffffffffffffffff\n      and\n        /* \"@openzeppelin/contracts/token/ERC721/ERC721.sol\":6027:6058  return _tokenApprovals[tokenId] */\n      swap1\n      pop\n        /* \"@openzeppelin/contracts/token/ERC721/ERC721.sol\":5938:6065  function _getApproved(uint256 tokenId) internal view virtual returns (address) {... */\n      swap2\n      swap1\n      pop\n      jump\t// out\n        /* \"@openzeppelin/contracts/utils/Context.sol\":656:752  function _msgSender() internal view virtual returns (address) {... */\n    tag_130:\n        /* \"@openzeppelin/contracts/utils/Context.sol\":709:716  address */\n      0x00\n        /* \"@openzeppelin/contracts/utils/Context.sol\":735:745  msg.sender */\n      caller\n        /* \"@openzeppelin/contracts/utils/Context.sol\":728:745  return msg.sender */\n      swap1\n      pop\n        /* \"@openzeppelin/contracts/utils/Context.sol\":656:752  function _msgSender() internal view virtual returns (address) {... */\n      swap1\n      jump\t// out\n        /* \"@openzeppelin/contracts/token/ERC721/ERC721.sol\":14418:14538  function _approve(address to, uint256 tokenId, address auth) internal {... */\n    tag_131:\n        /* \"@openzeppelin/contracts/token/ERC721/ERC721.sol\":14498:14531  _approve(to, tokenId, auth, true) */\n      tag_244\n        /* \"@openzeppelin/contracts/token/ERC721/ERC721.sol\":14507:14509  to */\n      dup4\n        /* \"@openzeppelin/contracts/token/ERC721/ERC721.sol\":14511:14518  tokenId */\n      dup4\n        /* \"@openzeppelin/contracts/token/ERC721/ERC721.sol\":14520:14524  auth */\n      dup4\n        /* \"@openzeppelin/contracts/token/ERC721/ERC721.sol\":14526:14530  true */\n      0x01\n        /* \"@openzeppelin/contracts/token/ERC721/ERC721.sol\":14498:14506  _approve */\n      tag_245\n        /* \"@openzeppelin/contracts/token/ERC721/ERC721.sol\":14498:14531  _approve(to, tokenId, auth, true) */\n      jump\t// in\n    tag_244:\n        /* \"@openzeppelin/contracts/token/ERC721/ERC721.sol\":14418:14538  function _approve(address to, uint256 tokenId, address auth) internal {... */\n      pop\n      pop\n      pop\n      jump\t// out\n        /* \"@openzeppelin/contracts/token/ERC721/ERC721.sol\":8838:9633  function _update(address to, uint256 tokenId, address auth) internal virtual returns (address) {... */\n    tag_137:\n        /* \"@openzeppelin/contracts/token/ERC721/ERC721.sol\":8924:8931  address */\n      0x00\n        /* \"@openzeppelin/contracts/token/ERC721/ERC721.sol\":8943:8955  address from */\n      dup1\n        /* \"@openzeppelin/contracts/token/ERC721/ERC721.sol\":8958:8975  _ownerOf(tokenId) */\n      tag_247\n        /* \"@openzeppelin/contracts/token/ERC721/ERC721.sol\":8967:8974  tokenId */\n      dup5\n        /* \"@openzeppelin/contracts/token/ERC721/ERC721.sol\":8958:8966  _ownerOf */\n      tag_238\n        /* \"@openzeppelin/contracts/token/ERC721/ERC721.sol\":8958:8975  _ownerOf(tokenId) */\n      jump\t// in\n    tag_247:\n        /* \"@openzeppelin/contracts/token/ERC721/ERC721.sol\":8943:8975  address from = _ownerOf(tokenId) */\n      swap1\n      pop\n        /* \"@openzeppelin/contracts/token/ERC721/ERC721.sol\":9051:9052  0 */\n      0x00\n        /* \"@openzeppelin/contracts/token/ERC721/ERC721.sol\":9035:9053  auth != address(0) */\n      0xffffffffffffffffffffffffffffffffffffffff\n      and\n        /* \"@openzeppelin/contracts/token/ERC721/ERC721.sol\":9035:9039  auth */\n      dup4\n        /* \"@openzeppelin/contracts/token/ERC721/ERC721.sol\":9035:9053  auth != address(0) */\n      0xffffffffffffffffffffffffffffffffffffffff\n      and\n      eq\n        /* \"@openzeppelin/contracts/token/ERC721/ERC721.sol\":9031:9117  if (auth != address(0)) {... */\n      tag_248\n      jumpi\n        /* \"@openzeppelin/contracts/token/ERC721/ERC721.sol\":9069:9106  _checkAuthorized(from, auth, tokenId) */\n      tag_249\n        /* \"@openzeppelin/contracts/token/ERC721/ERC721.sol\":9086:9090  from */\n      dup2\n        /* \"@openzeppelin/contracts/token/ERC721/ERC721.sol\":9092:9096  auth */\n      dup5\n        /* \"@openzeppelin/contracts/token/ERC721/ERC721.sol\":9098:9105  tokenId */\n      dup7\n        /* \"@openzeppelin/contracts/token/ERC721/ERC721.sol\":9069:9085  _checkAuthorized */\n      tag_250\n        /* \"@openzeppelin/contracts/token/ERC721/ERC721.sol\":9069:9106  _checkAuthorized(from, auth, tokenId) */\n      jump\t// in\n    tag_249:\n        /* \"@openzeppelin/contracts/token/ERC721/ERC721.sol\":9031:9117  if (auth != address(0)) {... */\n    tag_248:\n        /* \"@openzeppelin/contracts/token/ERC721/ERC721.sol\":9177:9178  0 */\n      0x00\n        /* \"@openzeppelin/contracts/token/ERC721/ERC721.sol\":9161:9179  from != address(0) */\n      0xffffffffffffffffffffffffffffffffffffffff\n      and\n        /* \"@openzeppelin/contracts/token/ERC721/ERC721.sol\":9161:9165  from */\n      dup2\n        /* \"@openzeppelin/contracts/token/ERC721/ERC721.sol\":9161:9179  from != address(0) */\n      0xffffffffffffffffffffffffffffffffffffffff\n      and\n      eq\n        /* \"@openzeppelin/contracts/token/ERC721/ERC721.sol\":9157:9413  if (from != address(0)) {... */\n      tag_251\n      jumpi\n        /* \"@openzeppelin/contracts/token/ERC721/ERC721.sol\":9277:9325  _approve(address(0), tokenId, address(0), false) */\n      tag_252\n        /* \"@openzeppelin/contracts/token/ERC721/ERC721.sol\":9294:9295  0 */\n      0x00\n        /* \"@openzeppelin/contracts/token/ERC721/ERC721.sol\":9298:9305  tokenId */\n      dup6\n        /* \"@openzeppelin/contracts/token/ERC721/ERC721.sol\":9315:9316  0 */\n      0x00\n        /* \"@openzeppelin/contracts/token/ERC721/ERC721.sol\":9319:9324  false */\n      dup1\n        /* \"@openzeppelin/contracts/token/ERC721/ERC721.sol\":9277:9285  _approve */\n      tag_245\n        /* \"@openzeppelin/contracts/token/ERC721/ERC721.sol\":9277:9325  _approve(address(0), tokenId, address(0), false) */\n      jump\t// in\n    tag_252:\n        /* \"@openzeppelin/contracts/token/ERC721/ERC721.sol\":9387:9388  1 */\n      0x01\n        /* \"@openzeppelin/contracts/token/ERC721/ERC721.sol\":9368:9377  _balances */\n      0x03\n        /* \"@openzeppelin/contracts/token/ERC721/ERC721.sol\":9368:9383  _balances[from] */\n      0x00\n        /* \"@openzeppelin/contracts/token/ERC721/ERC721.sol\":9378:9382  from */\n      dup4\n        /* \"@openzeppelin/contracts/token/ERC721/ERC721.sol\":9368:9383  _balances[from] */\n      0xffffffffffffffffffffffffffffffffffffffff\n      and\n      0xffffffffffffffffffffffffffffffffffffffff\n      and\n      dup2\n      mstore\n      0x20\n      add\n      swap1\n      dup2\n      mstore\n      0x20\n      add\n      0x00\n      keccak256\n      0x00\n        /* \"@openzeppelin/contracts/token/ERC721/ERC721.sol\":9368:9388  _balances[from] -= 1 */\n      dup3\n      dup3\n      sload\n      sub\n      swap3\n      pop\n      pop\n      dup2\n      swap1\n      sstore\n      pop\n        /* \"@openzeppelin/contracts/token/ERC721/ERC721.sol\":9157:9413  if (from != address(0)) {... */\n    tag_251:\n        /* \"@openzeppelin/contracts/token/ERC721/ERC721.sol\":9441:9442  0 */\n      0x00\n        /* \"@openzeppelin/contracts/token/ERC721/ERC721.sol\":9427:9443  to != address(0) */\n      0xffffffffffffffffffffffffffffffffffffffff\n      and\n        /* \"@openzeppelin/contracts/token/ERC721/ERC721.sol\":9427:9429  to */\n      dup6\n        /* \"@openzeppelin/contracts/token/ERC721/ERC721.sol\":9427:9443  to != address(0) */\n      0xffffffffffffffffffffffffffffffffffffffff\n      and\n      eq\n        /* \"@openzeppelin/contracts/token/ERC721/ERC721.sol\":9423:9530  if (to != address(0)) {... */\n      tag_253\n      jumpi\n        /* \"@openzeppelin/contracts/token/ERC721/ERC721.sol\":9504:9505  1 */\n      0x01\n        /* \"@openzeppelin/contracts/token/ERC721/ERC721.sol\":9487:9496  _balances */\n      0x03\n        /* \"@openzeppelin/contracts/token/ERC721/ERC721.sol\":9487:9500  _balances[to] */\n      0x00\n        /* \"@openzeppelin/contracts/token/ERC721/ERC721.sol\":9497:9499  to */\n      dup8\n        /* \"@openzeppelin/contracts/token/ERC721/ERC721.sol\":9487:9500  _balances[to] */\n      0xffffffffffffffffffffffffffffffffffffffff\n      and\n      0xffffffffffffffffffffffffffffffffffffffff\n      and\n      dup2\n      mstore\n      0x20\n      add\n      swap1\n      dup2\n      mstore\n      0x20\n      add\n      0x00\n      keccak256\n      0x00\n        /* \"@openzeppelin/contracts/token/ERC721/ERC721.sol\":9487:9505  _balances[to] += 1 */\n      dup3\n      dup3\n      sload\n      add\n      swap3\n      pop\n      pop\n      dup2\n      swap1\n      sstore\n      pop\n        /* \"@openzeppelin/contracts/token/ERC721/ERC721.sol\":9423:9530  if (to != address(0)) {... */\n    tag_253:\n        /* \"@openzeppelin/contracts/token/ERC721/ERC721.sol\":9559:9561  to */\n      dup5\n        /* \"@openzeppelin/contracts/token/ERC721/ERC721.sol\":9540:9547  _owners */\n      0x02\n        /* \"@openzeppelin/contracts/token/ERC721/ERC721.sol\":9540:9556  _owners[tokenId] */\n      0x00\n        /* \"@openzeppelin/contracts/token/ERC721/ERC721.sol\":9548:9555  tokenId */\n      dup7\n        /* \"@openzeppelin/contracts/token/ERC721/ERC721.sol\":9540:9556  _owners[tokenId] */\n      dup2\n      mstore\n      0x20\n      add\n      swap1\n      dup2\n      mstore\n      0x20\n      add\n      0x00\n      keccak256\n      0x00\n        /* \"@openzeppelin/contracts/token/ERC721/ERC721.sol\":9540:9561  _owners[tokenId] = to */\n      0x0100\n      exp\n      dup2\n      sload\n      dup2\n      0xffffffffffffffffffffffffffffffffffffffff\n      mul\n      not\n      and\n      swap1\n      dup4\n      0xffffffffffffffffffffffffffffffffffffffff\n      and\n      mul\n      or\n      swap1\n      sstore\n      pop\n        /* \"@openzeppelin/contracts/token/ERC721/ERC721.sol\":9596:9603  tokenId */\n      dup4\n        /* \"@openzeppelin/contracts/token/ERC721/ERC721.sol\":9592:9594  to */\n      dup6\n        /* \"@openzeppelin/contracts/token/ERC721/ERC721.sol\":9577:9604  Transfer(from, to, tokenId) */\n      0xffffffffffffffffffffffffffffffffffffffff\n      and\n        /* \"@openzeppelin/contracts/token/ERC721/ERC721.sol\":9586:9590  from */\n      dup3\n        /* \"@openzeppelin/contracts/token/ERC721/ERC721.sol\":9577:9604  Transfer(from, to, tokenId) */\n      0xffffffffffffffffffffffffffffffffffffffff\n      and\n      0xddf252ad1be2c89b69c2b068fc378daa952ba7f163c4a11628f55a4df523b3ef\n      mload(0x40)\n      mload(0x40)\n      dup1\n      swap2\n      sub\n      swap1\n      log4\n        /* \"@openzeppelin/contracts/token/ERC721/ERC721.sol\":9622:9626  from */\n      dup1\n        /* \"@openzeppelin/contracts/token/ERC721/ERC721.sol\":9615:9626  return from */\n      swap2\n      pop\n      pop\n        /* \"@openzeppelin/contracts/token/ERC721/ERC721.sol\":8838:9633  function _update(address to, uint256 tokenId, address auth) internal virtual returns (address) {... */\n      swap4\n      swap3\n      pop\n      pop\n      pop\n      jump\t// out\n        /* \"@openzeppelin/contracts/utils/Counters.sol\":827:939  function current(Counter storage counter) internal view returns (uint256) {... */\n    tag_158:\n        /* \"@openzeppelin/contracts/utils/Counters.sol\":892:899  uint256 */\n      0x00\n        /* \"@openzeppelin/contracts/utils/Counters.sol\":918:925  counter */\n      dup2\n        /* \"@openzeppelin/contracts/utils/Counters.sol\":918:932  counter._value */\n      0x00\n      add\n      sload\n        /* \"@openzeppelin/contracts/utils/Counters.sol\":911:932  return counter._value */\n      swap1\n      pop\n        /* \"@openzeppelin/contracts/utils/Counters.sol\":827:939  function current(Counter storage counter) internal view returns (uint256) {... */\n      swap2\n      swap1\n      pop\n      jump\t// out\n        /* \"@openzeppelin/contracts/utils/Counters.sol\":945:1068  function increment(Counter storage counter) internal {... */\n    tag_160:\n        /* \"@openzeppelin/contracts/utils/Counters.sol\":1050:1051  1 */\n      0x01\n        /* \"@openzeppelin/contracts/utils/Counters.sol\":1032:1039  counter */\n      dup2\n        /* \"@openzeppelin/contracts/utils/Counters.sol\":1032:1046  counter._value */\n      0x00\n      add\n      0x00\n        /* \"@openzeppelin/contracts/utils/Counters.sol\":1032:1051  counter._value += 1 */\n      dup3\n      dup3\n      sload\n      add\n      swap3\n      pop\n      pop\n      dup2\n      swap1\n      sstore\n      pop\n        /* \"@openzeppelin/contracts/utils/Counters.sol\":945:1068  function increment(Counter storage counter) internal {... */\n      pop\n      jump\t// out\n        /* \"@openzeppelin/contracts/token/ERC721/ERC721.sol\":9955:10282  function _mint(address to, uint256 tokenId) internal {... */\n    tag_165:\n        /* \"@openzeppelin/contracts/token/ERC721/ERC721.sol\":10036:10037  0 */\n      0x00\n        /* \"@openzeppelin/contracts/token/ERC721/ERC721.sol\":10022:10038  to == address(0) */\n      0xffffffffffffffffffffffffffffffffffffffff\n      and\n        /* \"@openzeppelin/contracts/token/ERC721/ERC721.sol\":10022:10024  to */\n      dup3\n        /* \"@openzeppelin/contracts/token/ERC721/ERC721.sol\":10022:10038  to == address(0) */\n      0xffffffffffffffffffffffffffffffffffffffff\n      and\n      sub\n        /* \"@openzeppelin/contracts/token/ERC721/ERC721.sol\":10018:10105  if (to == address(0)) {... */\n      tag_257\n      jumpi\n        /* \"@openzeppelin/contracts/token/ERC721/ERC721.sol\":10091:10092  0 */\n      0x00\n        /* \"@openzeppelin/contracts/token/ERC721/ERC721.sol\":10061:10094  ERC721InvalidReceiver(address(0)) */\n      mload(0x40)\n      0x64a0ae9200000000000000000000000000000000000000000000000000000000\n      dup2\n      mstore\n      0x04\n      add\n      tag_258\n      swap2\n      swap1\n      tag_42\n      jump\t// in\n    tag_258:\n      mload(0x40)\n      dup1\n      swap2\n      sub\n      swap1\n      revert\n        /* \"@openzeppelin/contracts/token/ERC721/ERC721.sol\":10018:10105  if (to == address(0)) {... */\n    tag_257:\n        /* \"@openzeppelin/contracts/token/ERC721/ERC721.sol\":10114:10135  address previousOwner */\n      0x00\n        /* \"@openzeppelin/contracts/token/ERC721/ERC721.sol\":10138:10170  _update(to, tokenId, address(0)) */\n      tag_259\n        /* \"@openzeppelin/contracts/token/ERC721/ERC721.sol\":10146:10148  to */\n      dup4\n        /* \"@openzeppelin/contracts/token/ERC721/ERC721.sol\":10150:10157  tokenId */\n      dup4\n        /* \"@openzeppelin/contracts/token/ERC721/ERC721.sol\":10167:10168  0 */\n      0x00\n        /* \"@openzeppelin/contracts/token/ERC721/ERC721.sol\":10138:10145  _update */\n      tag_137\n        /* \"@openzeppelin/contracts/token/ERC721/ERC721.sol\":10138:10170  _update(to, tokenId, address(0)) */\n      jump\t// in\n    tag_259:\n        /* \"@openzeppelin/contracts/token/ERC721/ERC721.sol\":10114:10170  address previousOwner = _update(to, tokenId, address(0)) */\n      swap1\n      pop\n        /* \"@openzeppelin/contracts/token/ERC721/ERC721.sol\":10209:10210  0 */\n      0x00\n        /* \"@openzeppelin/contracts/token/ERC721/ERC721.sol\":10184:10211  previousOwner != address(0) */\n      0xffffffffffffffffffffffffffffffffffffffff\n      and\n        /* \"@openzeppelin/contracts/token/ERC721/ERC721.sol\":10184:10197  previousOwner */\n      dup2\n        /* \"@openzeppelin/contracts/token/ERC721/ERC721.sol\":10184:10211  previousOwner != address(0) */\n      0xffffffffffffffffffffffffffffffffffffffff\n      and\n      eq\n        /* \"@openzeppelin/contracts/token/ERC721/ERC721.sol\":10180:10276  if (previousOwner != address(0)) {... */\n      tag_260\n      jumpi\n        /* \"@openzeppelin/contracts/token/ERC721/ERC721.sol\":10262:10263  0 */\n      0x00\n        /* \"@openzeppelin/contracts/token/ERC721/ERC721.sol\":10234:10265  ERC721InvalidSender(address(0)) */\n      mload(0x40)\n      0x73c6ac6e00000000000000000000000000000000000000000000000000000000\n      dup2\n      mstore\n      0x04\n      add\n      tag_261\n      swap2\n      swap1\n      tag_42\n      jump\t// in\n    tag_261:\n      mload(0x40)\n      dup1\n      swap2\n      sub\n      swap1\n      revert\n        /* \"@openzeppelin/contracts/token/ERC721/ERC721.sol\":10180:10276  if (previousOwner != address(0)) {... */\n    tag_260:\n        /* \"@openzeppelin/contracts/token/ERC721/ERC721.sol\":10008:10282  {... */\n      pop\n        /* \"@openzeppelin/contracts/token/ERC721/ERC721.sol\":9955:10282  function _mint(address to, uint256 tokenId) internal {... */\n      pop\n      pop\n      jump\t// out\n        /* \"@openzeppelin/contracts/token/ERC721/extensions/ERC721URIStorage.sol\":1922:2089  function _setTokenURI(uint256 tokenId, string memory _tokenURI) internal virtual {... */\n    tag_169:\n        /* \"@openzeppelin/contracts/token/ERC721/extensions/ERC721URIStorage.sol\":2035:2044  _tokenURI */\n      dup1\n        /* \"@openzeppelin/contracts/token/ERC721/extensions/ERC721URIStorage.sol\":2013:2023  _tokenURIs */\n      0x06\n        /* \"@openzeppelin/contracts/token/ERC721/extensions/ERC721URIStorage.sol\":2013:2032  _tokenURIs[tokenId] */\n      0x00\n        /* \"@openzeppelin/contracts/token/ERC721/extensions/ERC721URIStorage.sol\":2024:2031  tokenId */\n      dup5\n        /* \"@openzeppelin/contracts/token/ERC721/extensions/ERC721URIStorage.sol\":2013:2032  _tokenURIs[tokenId] */\n      dup2\n      mstore\n      0x20\n      add\n      swap1\n      dup2\n      mstore\n      0x20\n      add\n      0x00\n      keccak256\n        /* \"@openzeppelin/contracts/token/ERC721/extensions/ERC721URIStorage.sol\":2013:2044  _tokenURIs[tokenId] = _tokenURI */\n      swap1\n      dup2\n      tag_263\n      swap2\n      swap1\n      tag_264\n      jump\t// in\n    tag_263:\n      pop\n        /* \"@openzeppelin/contracts/token/ERC721/extensions/ERC721URIStorage.sol\":2059:2082  MetadataUpdate(tokenId) */\n      0xf8e1a15aba9398e019f0b49df1a4fde98ee17ae345cb5f6b5e2c27f5033e8ce7\n        /* \"@openzeppelin/contracts/token/ERC721/extensions/ERC721URIStorage.sol\":2074:2081  tokenId */\n      dup3\n        /* \"@openzeppelin/contracts/token/ERC721/extensions/ERC721URIStorage.sol\":2059:2082  MetadataUpdate(tokenId) */\n      mload(0x40)\n      tag_265\n      swap2\n      swap1\n      tag_69\n      jump\t// in\n    tag_265:\n      mload(0x40)\n      dup1\n      swap2\n      sub\n      swap1\n      log1\n        /* \"@openzeppelin/contracts/token/ERC721/extensions/ERC721URIStorage.sol\":1922:2089  function _setTokenURI(uint256 tokenId, string memory _tokenURI) internal virtual {... */\n      pop\n      pop\n      jump\t// out\n        /* \"@openzeppelin/contracts/access/Ownable.sol\":1796:1958  function _checkOwner() internal view virtual {... */\n    tag_187:\n        /* \"@openzeppelin/contracts/access/Ownable.sol\":1866:1878  _msgSender() */\n      tag_267\n        /* \"@openzeppelin/contracts/access/Ownable.sol\":1866:1876  _msgSender */\n      tag_130\n        /* \"@openzeppelin/contracts/access/Ownable.sol\":1866:1878  _msgSender() */\n      jump\t// in\n    tag_267:\n        /* \"@openzeppelin/contracts/access/Ownable.sol\":1855:1878  owner() != _msgSender() */\n      0xffffffffffffffffffffffffffffffffffffffff\n      and\n        /* \"@openzeppelin/contracts/access/Ownable.sol\":1855:1862  owner() */\n      tag_268\n        /* \"@openzeppelin/contracts/access/Ownable.sol\":1855:1860  owner */\n      tag_79\n        /* \"@openzeppelin/contracts/access/Ownable.sol\":1855:1862  owner() */\n      jump\t// in\n    tag_268:\n        /* \"@openzeppelin/contracts/access/Ownable.sol\":1855:1878  owner() != _msgSender() */\n      0xffffffffffffffffffffffffffffffffffffffff\n      and\n      eq\n        /* \"@openzeppelin/contracts/access/Ownable.sol\":1851:1952  if (owner() != _msgSender()) {... */\n      tag_269\n      jumpi\n        /* \"@openzeppelin/contracts/access/Ownable.sol\":1928:1940  _msgSender() */\n      tag_270\n        /* \"@openzeppelin/contracts/access/Ownable.sol\":1928:1938  _msgSender */\n      tag_130\n        /* \"@openzeppelin/contracts/access/Ownable.sol\":1928:1940  _msgSender() */\n      jump\t// in\n    tag_270:\n        /* \"@openzeppelin/contracts/access/Ownable.sol\":1901:1941  OwnableUnauthorizedAccount(_msgSender()) */\n      mload(0x40)\n      0x118cdaa700000000000000000000000000000000000000000000000000000000\n      dup2\n      mstore\n      0x04\n      add\n      tag_271\n      swap2\n      swap1\n      tag_42\n      jump\t// in\n    tag_271:\n      mload(0x40)\n      dup1\n      swap2\n      sub\n      swap1\n      revert\n        /* \"@openzeppelin/contracts/access/Ownable.sol\":1851:1952  if (owner() != _msgSender()) {... */\n    tag_269:\n        /* \"@openzeppelin/contracts/access/Ownable.sol\":1796:1958  function _checkOwner() internal view virtual {... */\n      jump\t// out\n        /* \"@openzeppelin/contracts/access/Ownable.sol\":2912:3099  function _transferOwnership(address newOwner) internal virtual {... */\n    tag_190:\n        /* \"@openzeppelin/contracts/access/Ownable.sol\":2985:3001  address oldOwner */\n      0x00\n        /* \"@openzeppelin/contracts/access/Ownable.sol\":3004:3010  _owner */\n      0x07\n      0x00\n      swap1\n      sload\n      swap1\n      0x0100\n      exp\n      swap1\n      div\n      0xffffffffffffffffffffffffffffffffffffffff\n      and\n        /* \"@openzeppelin/contracts/access/Ownable.sol\":2985:3010  address oldOwner = _owner */\n      swap1\n      pop\n        /* \"@openzeppelin/contracts/access/Ownable.sol\":3029:3037  newOwner */\n      dup2\n        /* \"@openzeppelin/contracts/access/Ownable.sol\":3020:3026  _owner */\n      0x07\n      0x00\n        /* \"@openzeppelin/contracts/access/Ownable.sol\":3020:3037  _owner = newOwner */\n      0x0100\n      exp\n      dup2\n      sload\n      dup2\n      0xffffffffffffffffffffffffffffffffffffffff\n      mul\n      not\n      and\n      swap1\n      dup4\n      0xffffffffffffffffffffffffffffffffffffffff\n      and\n      mul\n      or\n      swap1\n      sstore\n      pop\n        /* \"@openzeppelin/contracts/access/Ownable.sol\":3083:3091  newOwner */\n      dup2\n        /* \"@openzeppelin/contracts/access/Ownable.sol\":3052:3092  OwnershipTransferred(oldOwner, newOwner) */\n      0xffffffffffffffffffffffffffffffffffffffff\n      and\n        /* \"@openzeppelin/contracts/access/Ownable.sol\":3073:3081  oldOwner */\n      dup2\n        /* \"@openzeppelin/contracts/access/Ownable.sol\":3052:3092  OwnershipTransferred(oldOwner, newOwner) */\n      0xffffffffffffffffffffffffffffffffffffffff\n      and\n      0x8be0079c531659141344cd1fd0a4f28419497f9722a3daafe3b4186f6b6457e0\n      mload(0x40)\n      mload(0x40)\n      dup1\n      swap2\n      sub\n      swap1\n      log3\n        /* \"@openzeppelin/contracts/access/Ownable.sol\":2975:3099  {... */\n      pop\n        /* \"@openzeppelin/contracts/access/Ownable.sol\":2912:3099  function _transferOwnership(address newOwner) internal virtual {... */\n      pop\n      jump\t// out\n        /* \"@openzeppelin/contracts/token/ERC721/ERC721.sol\":15591:15903  function _setApprovalForAll(address owner, address operator, bool approved) internal virtual {... */\n    tag_203:\n        /* \"@openzeppelin/contracts/token/ERC721/ERC721.sol\":15718:15719  0 */\n      0x00\n        /* \"@openzeppelin/contracts/token/ERC721/ERC721.sol\":15698:15720  operator == address(0) */\n      0xffffffffffffffffffffffffffffffffffffffff\n      and\n        /* \"@openzeppelin/contracts/token/ERC721/ERC721.sol\":15698:15706  operator */\n      dup3\n        /* \"@openzeppelin/contracts/token/ERC721/ERC721.sol\":15698:15720  operator == address(0) */\n      0xffffffffffffffffffffffffffffffffffffffff\n      and\n      sub\n        /* \"@openzeppelin/contracts/token/ERC721/ERC721.sol\":15694:15785  if (operator == address(0)) {... */\n      tag_274\n      jumpi\n        /* \"@openzeppelin/contracts/token/ERC721/ERC721.sol\":15765:15773  operator */\n      dup2\n        /* \"@openzeppelin/contracts/token/ERC721/ERC721.sol\":15743:15774  ERC721InvalidOperator(operator) */\n      mload(0x40)\n      0x5b08ba1800000000000000000000000000000000000000000000000000000000\n      dup2\n      mstore\n      0x04\n      add\n      tag_275\n      swap2\n      swap1\n      tag_42\n      jump\t// in\n    tag_275:\n      mload(0x40)\n      dup1\n      swap2\n      sub\n      swap1\n      revert\n        /* \"@openzeppelin/contracts/token/ERC721/ERC721.sol\":15694:15785  if (operator == address(0)) {... */\n    tag_274:\n        /* \"@openzeppelin/contracts/token/ERC721/ERC721.sol\":15832:15840  approved */\n      dup1\n        /* \"@openzeppelin/contracts/token/ERC721/ERC721.sol\":15794:15812  _operatorApprovals */\n      0x05\n        /* \"@openzeppelin/contracts/token/ERC721/ERC721.sol\":15794:15819  _operatorApprovals[owner] */\n      0x00\n        /* \"@openzeppelin/contracts/token/ERC721/ERC721.sol\":15813:15818  owner */\n      dup6\n        /* \"@openzeppelin/contracts/token/ERC721/ERC721.sol\":15794:15819  _operatorApprovals[owner] */\n      0xffffffffffffffffffffffffffffffffffffffff\n      and\n      0xffffffffffffffffffffffffffffffffffffffff\n      and\n      dup2\n      mstore\n      0x20\n      add\n      swap1\n      dup2\n      mstore\n      0x20\n      add\n      0x00\n      keccak256\n        /* \"@openzeppelin/contracts/token/ERC721/ERC721.sol\":15794:15829  _operatorApprovals[owner][operator] */\n      0x00\n        /* \"@openzeppelin/contracts/token/ERC721/ERC721.sol\":15820:15828  operator */\n      dup5\n        /* \"@openzeppelin/contracts/token/ERC721/ERC721.sol\":15794:15829  _operatorApprovals[owner][operator] */\n      0xffffffffffffffffffffffffffffffffffffffff\n      and\n      0xffffffffffffffffffffffffffffffffffffffff\n      and\n      dup2\n      mstore\n      0x20\n      add\n      swap1\n      dup2\n      mstore\n      0x20\n      add\n      0x00\n      keccak256\n      0x00\n        /* \"@openzeppelin/contracts/token/ERC721/ERC721.sol\":15794:15840  _operatorApprovals[owner][operator] = approved */\n      0x0100\n      exp\n      dup2\n      sload\n      dup2\n      0xff\n      mul\n      not\n      and\n      swap1\n      dup4\n      iszero\n      iszero\n      mul\n      or\n      swap1\n      sstore\n      pop\n        /* \"@openzeppelin/contracts/token/ERC721/ERC721.sol\":15877:15885  operator */\n      dup2\n        /* \"@openzeppelin/contracts/token/ERC721/ERC721.sol\":15855:15896  ApprovalForAll(owner, operator, approved) */\n      0xffffffffffffffffffffffffffffffffffffffff\n      and\n        /* \"@openzeppelin/contracts/token/ERC721/ERC721.sol\":15870:15875  owner */\n      dup4\n        /* \"@openzeppelin/contracts/token/ERC721/ERC721.sol\":15855:15896  ApprovalForAll(owner, operator, approved) */\n      0xffffffffffffffffffffffffffffffffffffffff\n      and\n      0x17307eab39ab6107e8899845ad3d59bd9653f200f220920489ca2b5937696c31\n        /* \"@openzeppelin/contracts/token/ERC721/ERC721.sol\":15887:15895  approved */\n      dup4\n        /* \"@openzeppelin/contracts/token/ERC721/ERC721.sol\":15855:15896  ApprovalForAll(owner, operator, approved) */\n      mload(0x40)\n      tag_276\n      swap2\n      swap1\n      tag_32\n      jump\t// in\n    tag_276:\n      mload(0x40)\n      dup1\n      swap2\n      sub\n      swap1\n      log3\n        /* \"@openzeppelin/contracts/token/ERC721/ERC721.sol\":15591:15903  function _setApprovalForAll(address owner, address operator, bool approved) internal virtual {... */\n      pop\n      pop\n      pop\n      jump\t// out\n        /* \"@openzeppelin/contracts/token/ERC721/ERC721.sol\":16918:17700  function _checkOnERC721Received(address from, address to, uint256 tokenId, bytes memory data) private {... */\n    tag_207:\n        /* \"@openzeppelin/contracts/token/ERC721/ERC721.sol\":17051:17052  0 */\n      0x00\n        /* \"@openzeppelin/contracts/token/ERC721/ERC721.sol\":17034:17036  to */\n      dup4\n        /* \"@openzeppelin/contracts/token/ERC721/ERC721.sol\":17034:17048  to.code.length */\n      0xffffffffffffffffffffffffffffffffffffffff\n      and\n      extcodesize\n        /* \"@openzeppelin/contracts/token/ERC721/ERC721.sol\":17034:17052  to.code.length > 0 */\n      gt\n        /* \"@openzeppelin/contracts/token/ERC721/ERC721.sol\":17030:17694  if (to.code.length > 0) {... */\n      iszero\n      tag_278\n      jumpi\n        /* \"@openzeppelin/contracts/token/ERC721/ERC721.sol\":17088:17090  to */\n      dup3\n        /* \"@openzeppelin/contracts/token/ERC721/ERC721.sol\":17072:17108  IERC721Receiver(to).onERC721Received */\n      0xffffffffffffffffffffffffffffffffffffffff\n      and\n      0x150b7a02\n        /* \"@openzeppelin/contracts/token/ERC721/ERC721.sol\":17109:17121  _msgSender() */\n      tag_279\n        /* \"@openzeppelin/contracts/token/ERC721/ERC721.sol\":17109:17119  _msgSender */\n      tag_130\n        /* \"@openzeppelin/contracts/token/ERC721/ERC721.sol\":17109:17121  _msgSender() */\n      jump\t// in\n    tag_279:\n        /* \"@openzeppelin/contracts/token/ERC721/ERC721.sol\":17123:17127  from */\n      dup7\n        /* \"@openzeppelin/contracts/token/ERC721/ERC721.sol\":17129:17136  tokenId */\n      dup6\n        /* \"@openzeppelin/contracts/token/ERC721/ERC721.sol\":17138:17142  data */\n      dup6\n        /* \"@openzeppelin/contracts/token/ERC721/ERC721.sol\":17072:17143  IERC721Receiver(to).onERC721Received(_msgSender(), from, tokenId, data) */\n      mload(0x40)\n      dup6\n      0xffffffff\n      and\n      0xe0\n      shl\n      dup2\n      mstore\n      0x04\n      add\n      tag_280\n      swap5\n      swap4\n      swap3\n      swap2\n      swap1\n      tag_281\n      jump\t// in\n    tag_280:\n      0x20\n      mload(0x40)\n      dup1\n      dup4\n      sub\n      dup2\n      0x00\n      dup8\n      gas\n      call\n      swap3\n      pop\n      pop\n      pop\n      dup1\n      iszero\n      tag_282\n      jumpi\n      pop\n      mload(0x40)\n      returndatasize\n      not(0x1f)\n      0x1f\n      dup3\n      add\n      and\n      dup3\n      add\n      dup1\n      0x40\n      mstore\n      pop\n      dup2\n      add\n      swap1\n      tag_283\n      swap2\n      swap1\n      tag_284\n      jump\t// in\n    tag_283:\n      0x01\n    tag_282:\n        /* \"@openzeppelin/contracts/token/ERC721/ERC721.sol\":17068:17684  try IERC721Receiver(to).onERC721Received(_msgSender(), from, tokenId, data) returns (bytes4 retval) {... */\n      tag_285\n      jumpi\n      returndatasize\n      dup1\n      0x00\n      dup2\n      eq\n      tag_290\n      jumpi\n      mload(0x40)\n      swap2\n      pop\n      and(add(returndatasize, 0x3f), not(0x1f))\n      dup3\n      add\n      0x40\n      mstore\n      returndatasize\n      dup3\n      mstore\n      returndatasize\n      0x00\n      0x20\n      dup5\n      add\n      returndatacopy\n      jump(tag_289)\n    tag_290:\n      0x60\n      swap2\n      pop\n    tag_289:\n      pop\n        /* \"@openzeppelin/contracts/token/ERC721/ERC721.sol\":17398:17399  0 */\n      0x00\n        /* \"@openzeppelin/contracts/token/ERC721/ERC721.sol\":17381:17387  reason */\n      dup2\n        /* \"@openzeppelin/contracts/token/ERC721/ERC721.sol\":17381:17394  reason.length */\n      mload\n        /* \"@openzeppelin/contracts/token/ERC721/ERC721.sol\":17381:17399  reason.length == 0 */\n      sub\n        /* \"@openzeppelin/contracts/token/ERC721/ERC721.sol\":17377:17670  if (reason.length == 0) {... */\n      tag_291\n      jumpi\n        /* \"@openzeppelin/contracts/token/ERC721/ERC721.sol\":17452:17454  to */\n      dup4\n        /* \"@openzeppelin/contracts/token/ERC721/ERC721.sol\":17430:17455  ERC721InvalidReceiver(to) */\n      mload(0x40)\n      0x64a0ae9200000000000000000000000000000000000000000000000000000000\n      dup2\n      mstore\n      0x04\n      add\n      tag_292\n      swap2\n      swap1\n      tag_42\n      jump\t// in\n    tag_292:\n      mload(0x40)\n      dup1\n      swap2\n      sub\n      swap1\n      revert\n        /* \"@openzeppelin/contracts/token/ERC721/ERC721.sol\":17377:17670  if (reason.length == 0) {... */\n    tag_291:\n        /* \"@openzeppelin/contracts/token/ERC721/ERC721.sol\":17622:17628  reason */\n      dup1\n        /* \"@openzeppelin/contracts/token/ERC721/ERC721.sol\":17616:17629  mload(reason) */\n      mload\n        /* \"@openzeppelin/contracts/token/ERC721/ERC721.sol\":17607:17613  reason */\n      dup2\n        /* \"@openzeppelin/contracts/token/ERC721/ERC721.sol\":17603:17605  32 */\n      0x20\n        /* \"@openzeppelin/contracts/token/ERC721/ERC721.sol\":17599:17614  add(32, reason) */\n      add\n        /* \"@openzeppelin/contracts/token/ERC721/ERC721.sol\":17592:17630  revert(add(32, reason), mload(reason)) */\n      revert\n        /* \"@openzeppelin/contracts/token/ERC721/ERC721.sol\":17068:17684  try IERC721Receiver(to).onERC721Received(_msgSender(), from, tokenId, data) returns (bytes4 retval) {... */\n    tag_285:\n        /* \"@openzeppelin/contracts/token/ERC721/ERC721.sol\":17200:17241  IERC721Receiver.onERC721Received.selector */\n      shl(0xe0, 0x150b7a02)\n        /* \"@openzeppelin/contracts/token/ERC721/ERC721.sol\":17190:17241  retval != IERC721Receiver.onERC721Received.selector */\n      not(0xffffffffffffffffffffffffffffffffffffffffffffffffffffffff)\n      and\n        /* \"@openzeppelin/contracts/token/ERC721/ERC721.sol\":17190:17196  retval */\n      dup2\n        /* \"@openzeppelin/contracts/token/ERC721/ERC721.sol\":17190:17241  retval != IERC721Receiver.onERC721Received.selector */\n      not(0xffffffffffffffffffffffffffffffffffffffffffffffffffffffff)\n      and\n      eq\n        /* \"@openzeppelin/contracts/token/ERC721/ERC721.sol\":17186:17316  if (retval != IERC721Receiver.onERC721Received.selector) {... */\n      tag_295\n      jumpi\n        /* \"@openzeppelin/contracts/token/ERC721/ERC721.sol\":17294:17296  to */\n      dup4\n        /* \"@openzeppelin/contracts/token/ERC721/ERC721.sol\":17272:17297  ERC721InvalidReceiver(to) */\n      mload(0x40)\n      0x64a0ae9200000000000000000000000000000000000000000000000000000000\n      dup2\n      mstore\n      0x04\n      add\n      tag_296\n      swap2\n      swap1\n      tag_42\n      jump\t// in\n    tag_296:\n      mload(0x40)\n      dup1\n      swap2\n      sub\n      swap1\n      revert\n        /* \"@openzeppelin/contracts/token/ERC721/ERC721.sol\":17186:17316  if (retval != IERC721Receiver.onERC721Received.selector) {... */\n    tag_295:\n        /* \"@openzeppelin/contracts/token/ERC721/ERC721.sol\":17144:17330  returns (bytes4 retval) {... */\n      pop\n        /* \"@openzeppelin/contracts/token/ERC721/ERC721.sol\":17030:17694  if (to.code.length > 0) {... */\n    tag_278:\n        /* \"@openzeppelin/contracts/token/ERC721/ERC721.sol\":16918:17700  function _checkOnERC721Received(address from, address to, uint256 tokenId, bytes memory data) private {... */\n      pop\n      pop\n      pop\n      pop\n      jump\t// out\n        /* \"@openzeppelin/contracts/token/ERC721/ERC721.sol\":3174:3266  function _baseURI() internal view virtual returns (string memory) {... */\n    tag_216:\n        /* \"@openzeppelin/contracts/token/ERC721/ERC721.sol\":3225:3238  string memory */\n      0x60\n        /* \"@openzeppelin/contracts/token/ERC721/ERC721.sol\":3250:3259  return \"\" */\n      mload(0x40)\n      dup1\n      0x20\n      add\n      0x40\n      mstore\n      dup1\n      0x00\n      dup2\n      mstore\n      pop\n      swap1\n      pop\n        /* \"@openzeppelin/contracts/token/ERC721/ERC721.sol\":3174:3266  function _baseURI() internal view virtual returns (string memory) {... */\n      swap1\n      jump\t// out\n        /* \"@openzeppelin/contracts/token/ERC721/ERC721.sol\":2677:2932  function tokenURI(uint256 tokenId) public view virtual returns (string memory) {... */\n    tag_222:\n        /* \"@openzeppelin/contracts/token/ERC721/ERC721.sol\":2741:2754  string memory */\n      0x60\n        /* \"@openzeppelin/contracts/token/ERC721/ERC721.sol\":2766:2788  _requireOwned(tokenId) */\n      tag_299\n        /* \"@openzeppelin/contracts/token/ERC721/ERC721.sol\":2780:2787  tokenId */\n      dup3\n        /* \"@openzeppelin/contracts/token/ERC721/ERC721.sol\":2766:2779  _requireOwned */\n      tag_124\n        /* \"@openzeppelin/contracts/token/ERC721/ERC721.sol\":2766:2788  _requireOwned(tokenId) */\n      jump\t// in\n    tag_299:\n      pop\n        /* \"@openzeppelin/contracts/token/ERC721/ERC721.sol\":2799:2820  string memory baseURI */\n      0x00\n        /* \"@openzeppelin/contracts/token/ERC721/ERC721.sol\":2823:2833  _baseURI() */\n      tag_300\n        /* \"@openzeppelin/contracts/token/ERC721/ERC721.sol\":2823:2831  _baseURI */\n      tag_216\n        /* \"@openzeppelin/contracts/token/ERC721/ERC721.sol\":2823:2833  _baseURI() */\n      jump\t// in\n    tag_300:\n        /* \"@openzeppelin/contracts/token/ERC721/ERC721.sol\":2799:2833  string memory baseURI = _baseURI() */\n      swap1\n      pop\n        /* \"@openzeppelin/contracts/token/ERC721/ERC721.sol\":2874:2875  0 */\n      0x00\n        /* \"@openzeppelin/contracts/token/ERC721/ERC721.sol\":2856:2863  baseURI */\n      dup2\n        /* \"@openzeppelin/contracts/token/ERC721/ERC721.sol\":2850:2871  bytes(baseURI).length */\n      mload\n        /* \"@openzeppelin/contracts/token/ERC721/ERC721.sol\":2850:2875  bytes(baseURI).length > 0 */\n      gt\n        /* \"@openzeppelin/contracts/token/ERC721/ERC721.sol\":2850:2925  bytes(baseURI).length > 0 ? string.concat(baseURI, tokenId.toString()) : \"\" */\n      tag_301\n      jumpi\n      mload(0x40)\n      dup1\n      0x20\n      add\n      0x40\n      mstore\n      dup1\n      0x00\n      dup2\n      mstore\n      pop\n      jump(tag_302)\n    tag_301:\n        /* \"@openzeppelin/contracts/token/ERC721/ERC721.sol\":2892:2899  baseURI */\n      dup1\n        /* \"@openzeppelin/contracts/token/ERC721/ERC721.sol\":2901:2919  tokenId.toString() */\n      tag_303\n        /* \"@openzeppelin/contracts/token/ERC721/ERC721.sol\":2901:2908  tokenId */\n      dup5\n        /* \"@openzeppelin/contracts/token/ERC721/ERC721.sol\":2901:2917  tokenId.toString */\n      tag_304\n        /* \"@openzeppelin/contracts/token/ERC721/ERC721.sol\":2901:2919  tokenId.toString() */\n      jump\t// in\n    tag_303:\n        /* \"@openzeppelin/contracts/token/ERC721/ERC721.sol\":2878:2920  string.concat(baseURI, tokenId.toString()) */\n      add(0x20, mload(0x40))\n      tag_305\n      swap3\n      swap2\n      swap1\n      tag_220\n      jump\t// in\n    tag_305:\n      mload(0x40)\n      0x20\n      dup2\n      dup4\n      sub\n      sub\n      dup2\n      mstore\n      swap1\n      0x40\n      mstore\n        /* \"@openzeppelin/contracts/token/ERC721/ERC721.sol\":2850:2925  bytes(baseURI).length > 0 ? string.concat(baseURI, tokenId.toString()) : \"\" */\n    tag_302:\n        /* \"@openzeppelin/contracts/token/ERC721/ERC721.sol\":2843:2925  return bytes(baseURI).length > 0 ? string.concat(baseURI, tokenId.toString()) : \"\" */\n      swap2\n      pop\n      pop\n        /* \"@openzeppelin/contracts/token/ERC721/ERC721.sol\":2677:2932  function tokenURI(uint256 tokenId) public view virtual returns (string memory) {... */\n      swap2\n      swap1\n      pop\n      jump\t// out\n        /* \"@openzeppelin/contracts/utils/introspection/ERC165.sol\":762:908  function supportsInterface(bytes4 interfaceId) public view virtual returns (bool) {... */\n    tag_235:\n        /* \"@openzeppelin/contracts/utils/introspection/ERC165.sol\":838:842  bool */\n      0x00\n        /* \"@openzeppelin/contracts/utils/introspection/ERC165.sol\":876:901  type(IERC165).interfaceId */\n      0x01ffc9a700000000000000000000000000000000000000000000000000000000\n        /* \"@openzeppelin/contracts/utils/introspection/ERC165.sol\":861:901  interfaceId == type(IERC165).interfaceId */\n      not(0xffffffffffffffffffffffffffffffffffffffffffffffffffffffff)\n      and\n        /* \"@openzeppelin/contracts/utils/introspection/ERC165.sol\":861:872  interfaceId */\n      dup3\n        /* \"@openzeppelin/contracts/utils/introspection/ERC165.sol\":861:901  interfaceId == type(IERC165).interfaceId */\n      not(0xffffffffffffffffffffffffffffffffffffffffffffffffffffffff)\n      and\n      eq\n        /* \"@openzeppelin/contracts/utils/introspection/ERC165.sol\":854:901  return interfaceId == type(IERC165).interfaceId */\n      swap1\n      pop\n        /* \"@openzeppelin/contracts/utils/introspection/ERC165.sol\":762:908  function supportsInterface(bytes4 interfaceId) public view virtual returns (bool) {... */\n      swap2\n      swap1\n      pop\n      jump\t// out\n        /* \"@openzeppelin/contracts/token/ERC721/ERC721.sol\":5707:5822  function _ownerOf(uint256 tokenId) internal view virtual returns (address) {... */\n    tag_238:\n        /* \"@openzeppelin/contracts/token/ERC721/ERC721.sol\":5773:5780  address */\n      0x00\n        /* \"@openzeppelin/contracts/token/ERC721/ERC721.sol\":5799:5806  _owners */\n      0x02\n        /* \"@openzeppelin/contracts/token/ERC721/ERC721.sol\":5799:5815  _owners[tokenId] */\n      0x00\n        /* \"@openzeppelin/contracts/token/ERC721/ERC721.sol\":5807:5814  tokenId */\n      dup4\n        /* \"@openzeppelin/contracts/token/ERC721/ERC721.sol\":5799:5815  _owners[tokenId] */\n      dup2\n      mstore\n      0x20\n      add\n      swap1\n      dup2\n      mstore\n      0x20\n      add\n      0x00\n      keccak256\n      0x00\n      swap1\n      sload\n      swap1\n      0x0100\n      exp\n      swap1\n      div\n      0xffffffffffffffffffffffffffffffffffffffff\n      and\n        /* \"@openzeppelin/contracts/token/ERC721/ERC721.sol\":5792:5815  return _owners[tokenId] */\n      swap1\n      pop\n        /* \"@openzeppelin/contracts/token/ERC721/ERC721.sol\":5707:5822  function _ownerOf(uint256 tokenId) internal view virtual returns (address) {... */\n      swap2\n      swap1\n      pop\n      jump\t// out\n        /* \"@openzeppelin/contracts/token/ERC721/ERC721.sol\":14720:15382  function _approve(address to, uint256 tokenId, address auth, bool emitEvent) internal virtual {... */\n    tag_245:\n        /* \"@openzeppelin/contracts/token/ERC721/ERC721.sol\":14880:14889  emitEvent */\n      dup1\n        /* \"@openzeppelin/contracts/token/ERC721/ERC721.sol\":14880:14911  emitEvent || auth != address(0) */\n      dup1\n      tag_309\n      jumpi\n      pop\n        /* \"@openzeppelin/contracts/token/ERC721/ERC721.sol\":14909:14910  0 */\n      0x00\n        /* \"@openzeppelin/contracts/token/ERC721/ERC721.sol\":14893:14911  auth != address(0) */\n      0xffffffffffffffffffffffffffffffffffffffff\n      and\n        /* \"@openzeppelin/contracts/token/ERC721/ERC721.sol\":14893:14897  auth */\n      dup3\n        /* \"@openzeppelin/contracts/token/ERC721/ERC721.sol\":14893:14911  auth != address(0) */\n      0xffffffffffffffffffffffffffffffffffffffff\n      and\n      eq\n      iszero\n        /* \"@openzeppelin/contracts/token/ERC721/ERC721.sol\":14880:14911  emitEvent || auth != address(0) */\n    tag_309:\n        /* \"@openzeppelin/contracts/token/ERC721/ERC721.sol\":14876:15336  if (emitEvent || auth != address(0)) {... */\n      iszero\n      tag_310\n      jumpi\n        /* \"@openzeppelin/contracts/token/ERC721/ERC721.sol\":14927:14940  address owner */\n      0x00\n        /* \"@openzeppelin/contracts/token/ERC721/ERC721.sol\":14943:14965  _requireOwned(tokenId) */\n      tag_311\n        /* \"@openzeppelin/contracts/token/ERC721/ERC721.sol\":14957:14964  tokenId */\n      dup5\n        /* \"@openzeppelin/contracts/token/ERC721/ERC721.sol\":14943:14956  _requireOwned */\n      tag_124\n        /* \"@openzeppelin/contracts/token/ERC721/ERC721.sol\":14943:14965  _requireOwned(tokenId) */\n      jump\t// in\n    tag_311:\n        /* \"@openzeppelin/contracts/token/ERC721/ERC721.sol\":14927:14965  address owner = _requireOwned(tokenId) */\n      swap1\n      pop\n        /* \"@openzeppelin/contracts/token/ERC721/ERC721.sol\":15109:15110  0 */\n      0x00\n        /* \"@openzeppelin/contracts/token/ERC721/ERC721.sol\":15093:15111  auth != address(0) */\n      0xffffffffffffffffffffffffffffffffffffffff\n      and\n        /* \"@openzeppelin/contracts/token/ERC721/ERC721.sol\":15093:15097  auth */\n      dup4\n        /* \"@openzeppelin/contracts/token/ERC721/ERC721.sol\":15093:15111  auth != address(0) */\n      0xffffffffffffffffffffffffffffffffffffffff\n      and\n      eq\n      iszero\n        /* \"@openzeppelin/contracts/token/ERC721/ERC721.sol\":15093:15128  auth != address(0) && owner != auth */\n      dup1\n      iszero\n      tag_312\n      jumpi\n      pop\n        /* \"@openzeppelin/contracts/token/ERC721/ERC721.sol\":15124:15128  auth */\n      dup3\n        /* \"@openzeppelin/contracts/token/ERC721/ERC721.sol\":15115:15128  owner != auth */\n      0xffffffffffffffffffffffffffffffffffffffff\n      and\n        /* \"@openzeppelin/contracts/token/ERC721/ERC721.sol\":15115:15120  owner */\n      dup2\n        /* \"@openzeppelin/contracts/token/ERC721/ERC721.sol\":15115:15128  owner != auth */\n      0xffffffffffffffffffffffffffffffffffffffff\n      and\n      eq\n      iszero\n        /* \"@openzeppelin/contracts/token/ERC721/ERC721.sol\":15093:15128  auth != address(0) && owner != auth */\n    tag_312:\n        /* \"@openzeppelin/contracts/token/ERC721/ERC721.sol\":15093:15162  auth != address(0) && owner != auth && !isApprovedForAll(owner, auth) */\n      dup1\n      iszero\n      tag_313\n      jumpi\n      pop\n        /* \"@openzeppelin/contracts/token/ERC721/ERC721.sol\":15133:15162  isApprovedForAll(owner, auth) */\n      tag_314\n        /* \"@openzeppelin/contracts/token/ERC721/ERC721.sol\":15150:15155  owner */\n      dup2\n        /* \"@openzeppelin/contracts/token/ERC721/ERC721.sol\":15157:15161  auth */\n      dup5\n        /* \"@openzeppelin/contracts/token/ERC721/ERC721.sol\":15133:15149  isApprovedForAll */\n      tag_106\n        /* \"@openzeppelin/contracts/token/ERC721/ERC721.sol\":15133:15162  isApprovedForAll(owner, auth) */\n      jump\t// in\n    tag_314:\n        /* \"@openzeppelin/contracts/token/ERC721/ERC721.sol\":15132:15162  !isApprovedForAll(owner, auth) */\n      iszero\n        /* \"@openzeppelin/contracts/token/ERC721/ERC721.sol\":15093:15162  auth != address(0) && owner != auth && !isApprovedForAll(owner, auth) */\n    tag_313:\n        /* \"@openzeppelin/contracts/token/ERC721/ERC721.sol\":15089:15231  if (auth != address(0) && owner != auth && !isApprovedForAll(owner, auth)) {... */\n      iszero\n      tag_315\n      jumpi\n        /* \"@openzeppelin/contracts/token/ERC721/ERC721.sol\":15211:15215  auth */\n      dup3\n        /* \"@openzeppelin/contracts/token/ERC721/ERC721.sol\":15189:15216  ERC721InvalidApprover(auth) */\n      mload(0x40)\n      0xa9fbf51f00000000000000000000000000000000000000000000000000000000\n      dup2\n      mstore\n      0x04\n      add\n      tag_316\n      swap2\n      swap1\n      tag_42\n      jump\t// in\n    tag_316:\n      mload(0x40)\n      dup1\n      swap2\n      sub\n      swap1\n      revert\n        /* \"@openzeppelin/contracts/token/ERC721/ERC721.sol\":15089:15231  if (auth != address(0) && owner != auth && !isApprovedForAll(owner, auth)) {... */\n    tag_315:\n        /* \"@openzeppelin/contracts/token/ERC721/ERC721.sol\":15249:15258  emitEvent */\n      dup2\n        /* \"@openzeppelin/contracts/token/ERC721/ERC721.sol\":15245:15326  if (emitEvent) {... */\n      iszero\n      tag_317\n      jumpi\n        /* \"@openzeppelin/contracts/token/ERC721/ERC721.sol\":15303:15310  tokenId */\n      dup4\n        /* \"@openzeppelin/contracts/token/ERC721/ERC721.sol\":15299:15301  to */\n      dup6\n        /* \"@openzeppelin/contracts/token/ERC721/ERC721.sol\":15283:15311  Approval(owner, to, tokenId) */\n      0xffffffffffffffffffffffffffffffffffffffff\n      and\n        /* \"@openzeppelin/contracts/token/ERC721/ERC721.sol\":15292:15297  owner */\n      dup3\n        /* \"@openzeppelin/contracts/token/ERC721/ERC721.sol\":15283:15311  Approval(owner, to, tokenId) */\n      0xffffffffffffffffffffffffffffffffffffffff\n      and\n      0x8c5be1e5ebec7d5bd14f71427d1e84f3dd0314c0f7b2291e5b200ac8c7c3b925\n      mload(0x40)\n      mload(0x40)\n      dup1\n      swap2\n      sub\n      swap1\n      log4\n        /* \"@openzeppelin/contracts/token/ERC721/ERC721.sol\":15245:15326  if (emitEvent) {... */\n    tag_317:\n        /* \"@openzeppelin/contracts/token/ERC721/ERC721.sol\":14913:15336  {... */\n      pop\n        /* \"@openzeppelin/contracts/token/ERC721/ERC721.sol\":14876:15336  if (emitEvent || auth != address(0)) {... */\n    tag_310:\n        /* \"@openzeppelin/contracts/token/ERC721/ERC721.sol\":15373:15375  to */\n      dup4\n        /* \"@openzeppelin/contracts/token/ERC721/ERC721.sol\":15346:15361  _tokenApprovals */\n      0x04\n        /* \"@openzeppelin/contracts/token/ERC721/ERC721.sol\":15346:15370  _tokenApprovals[tokenId] */\n      0x00\n        /* \"@openzeppelin/contracts/token/ERC721/ERC721.sol\":15362:15369  tokenId */\n      dup6\n        /* \"@openzeppelin/contracts/token/ERC721/ERC721.sol\":15346:15370  _tokenApprovals[tokenId] */\n      dup2\n      mstore\n      0x20\n      add\n      swap1\n      dup2\n      mstore\n      0x20\n      add\n      0x00\n      keccak256\n      0x00\n        /* \"@openzeppelin/contracts/token/ERC721/ERC721.sol\":15346:15375  _tokenApprovals[tokenId] = to */\n      0x0100\n      exp\n      dup2\n      sload\n      dup2\n      0xffffffffffffffffffffffffffffffffffffffff\n      mul\n      not\n      and\n      swap1\n      dup4\n      0xffffffffffffffffffffffffffffffffffffffff\n      and\n      mul\n      or\n      swap1\n      sstore\n      pop\n        /* \"@openzeppelin/contracts/token/ERC721/ERC721.sol\":14720:15382  function _approve(address to, uint256 tokenId, address auth, bool emitEvent) internal virtual {... */\n      pop\n      pop\n      pop\n      pop\n      jump\t// out\n        /* \"@openzeppelin/contracts/token/ERC721/ERC721.sol\":7082:7450  function _checkAuthorized(address owner, address spender, uint256 tokenId) internal view virtual {... */\n    tag_250:\n        /* \"@openzeppelin/contracts/token/ERC721/ERC721.sol\":7194:7232  _isAuthorized(owner, spender, tokenId) */\n      tag_319\n        /* \"@openzeppelin/contracts/token/ERC721/ERC721.sol\":7208:7213  owner */\n      dup4\n        /* \"@openzeppelin/contracts/token/ERC721/ERC721.sol\":7215:7222  spender */\n      dup4\n        /* \"@openzeppelin/contracts/token/ERC721/ERC721.sol\":7224:7231  tokenId */\n      dup4\n        /* \"@openzeppelin/contracts/token/ERC721/ERC721.sol\":7194:7207  _isAuthorized */\n      tag_320\n        /* \"@openzeppelin/contracts/token/ERC721/ERC721.sol\":7194:7232  _isAuthorized(owner, spender, tokenId) */\n      jump\t// in\n    tag_319:\n        /* \"@openzeppelin/contracts/token/ERC721/ERC721.sol\":7189:7444  if (!_isAuthorized(owner, spender, tokenId)) {... */\n      tag_321\n      jumpi\n        /* \"@openzeppelin/contracts/token/ERC721/ERC721.sol\":7269:7270  0 */\n      0x00\n        /* \"@openzeppelin/contracts/token/ERC721/ERC721.sol\":7252:7271  owner == address(0) */\n      0xffffffffffffffffffffffffffffffffffffffff\n      and\n        /* \"@openzeppelin/contracts/token/ERC721/ERC721.sol\":7252:7257  owner */\n      dup4\n        /* \"@openzeppelin/contracts/token/ERC721/ERC721.sol\":7252:7271  owner == address(0) */\n      0xffffffffffffffffffffffffffffffffffffffff\n      and\n      sub\n        /* \"@openzeppelin/contracts/token/ERC721/ERC721.sol\":7248:7434  if (owner == address(0)) {... */\n      tag_322\n      jumpi\n        /* \"@openzeppelin/contracts/token/ERC721/ERC721.sol\":7321:7328  tokenId */\n      dup1\n        /* \"@openzeppelin/contracts/token/ERC721/ERC721.sol\":7298:7329  ERC721NonexistentToken(tokenId) */\n      mload(0x40)\n      0x7e27328900000000000000000000000000000000000000000000000000000000\n      dup2\n      mstore\n      0x04\n      add\n      tag_323\n      swap2\n      swap1\n      tag_69\n      jump\t// in\n    tag_323:\n      mload(0x40)\n      dup1\n      swap2\n      sub\n      swap1\n      revert\n        /* \"@openzeppelin/contracts/token/ERC721/ERC721.sol\":7248:7434  if (owner == address(0)) {... */\n    tag_322:\n        /* \"@openzeppelin/contracts/token/ERC721/ERC721.sol\":7402:7409  spender */\n      dup2\n        /* \"@openzeppelin/contracts/token/ERC721/ERC721.sol\":7411:7418  tokenId */\n      dup2\n        /* \"@openzeppelin/contracts/token/ERC721/ERC721.sol\":7375:7419  ERC721InsufficientApproval(spender, tokenId) */\n      mload(0x40)\n      0x177e802f00000000000000000000000000000000000000000000000000000000\n      dup2\n      mstore\n      0x04\n      add\n      tag_325\n      swap3\n      swap2\n      swap1\n      tag_326\n      jump\t// in\n    tag_325:\n      mload(0x40)\n      dup1\n      swap2\n      sub\n      swap1\n      revert\n        /* \"@openzeppelin/contracts/token/ERC721/ERC721.sol\":7189:7444  if (!_isAuthorized(owner, spender, tokenId)) {... */\n    tag_321:\n        /* \"@openzeppelin/contracts/token/ERC721/ERC721.sol\":7082:7450  function _checkAuthorized(address owner, address spender, uint256 tokenId) internal view virtual {... */\n      pop\n      pop\n      pop\n      jump\t// out\n        /* \"@openzeppelin/contracts/utils/Strings.sol\":637:1335  function toString(uint256 value) internal pure returns (string memory) {... */\n    tag_304:\n        /* \"@openzeppelin/contracts/utils/Strings.sol\":693:706  string memory */\n      0x60\n        /* \"@openzeppelin/contracts/utils/Strings.sol\":742:756  uint256 length */\n      0x00\n        /* \"@openzeppelin/contracts/utils/Strings.sol\":779:780  1 */\n      0x01\n        /* \"@openzeppelin/contracts/utils/Strings.sol\":759:776  Math.log10(value) */\n      tag_328\n        /* \"@openzeppelin/contracts/utils/Strings.sol\":770:775  value */\n      dup5\n        /* \"@openzeppelin/contracts/utils/Strings.sol\":759:769  Math.log10 */\n      tag_329\n        /* \"@openzeppelin/contracts/utils/Strings.sol\":759:776  Math.log10(value) */\n      jump\t// in\n    tag_328:\n        /* \"@openzeppelin/contracts/utils/Strings.sol\":759:780  Math.log10(value) + 1 */\n      add\n        /* \"@openzeppelin/contracts/utils/Strings.sol\":742:780  uint256 length = Math.log10(value) + 1 */\n      swap1\n      pop\n        /* \"@openzeppelin/contracts/utils/Strings.sol\":794:814  string memory buffer */\n      0x00\n        /* \"@openzeppelin/contracts/utils/Strings.sol\":828:834  length */\n      dup2\n        /* \"@openzeppelin/contracts/utils/Strings.sol\":817:835  new string(length) */\n      0xffffffffffffffff\n      dup2\n      gt\n      iszero\n      tag_330\n      jumpi\n      tag_331\n      tag_149\n      jump\t// in\n    tag_331:\n    tag_330:\n      mload(0x40)\n      swap1\n      dup1\n      dup3\n      mstore\n      dup1\n      0x1f\n      add\n      not(0x1f)\n      and\n      0x20\n      add\n      dup3\n      add\n      0x40\n      mstore\n      dup1\n      iszero\n      tag_332\n      jumpi\n      dup2\n      0x20\n      add\n      0x01\n      dup3\n      mul\n      dup1\n      calldatasize\n      dup4\n      calldatacopy\n      dup1\n      dup3\n      add\n      swap2\n      pop\n      pop\n      swap1\n      pop\n    tag_332:\n      pop\n        /* \"@openzeppelin/contracts/utils/Strings.sol\":794:835  string memory buffer = new string(length) */\n      swap1\n      pop\n        /* \"@openzeppelin/contracts/utils/Strings.sol\":849:860  uint256 ptr */\n      0x00\n        /* \"@openzeppelin/contracts/utils/Strings.sol\":975:981  length */\n      dup3\n        /* \"@openzeppelin/contracts/utils/Strings.sol\":971:973  32 */\n      0x20\n        /* \"@openzeppelin/contracts/utils/Strings.sol\":967:982  add(32, length) */\n      add\n        /* \"@openzeppelin/contracts/utils/Strings.sol\":959:965  buffer */\n      dup3\n        /* \"@openzeppelin/contracts/utils/Strings.sol\":955:983  add(buffer, add(32, length)) */\n      add\n        /* \"@openzeppelin/contracts/utils/Strings.sol\":948:983  ptr := add(buffer, add(32, length)) */\n      swap1\n      pop\n        /* \"@openzeppelin/contracts/utils/Strings.sol\":1010:1292  while (true) {... */\n    tag_333:\n        /* \"@openzeppelin/contracts/utils/Strings.sol\":1017:1021  true */\n      0x01\n        /* \"@openzeppelin/contracts/utils/Strings.sol\":1010:1292  while (true) {... */\n      iszero\n      tag_334\n      jumpi\n        /* \"@openzeppelin/contracts/utils/Strings.sol\":1041:1046  ptr-- */\n      dup1\n      dup1\n      0x01\n      swap1\n      sub\n      swap2\n      pop\n      pop\n        /* \"@openzeppelin/contracts/utils/Strings.sol\":1180:1190  HEX_DIGITS */\n      0x3031323334353637383961626364656600000000000000000000000000000000\n        /* \"@openzeppelin/contracts/utils/Strings.sol\":1175:1177  10 */\n      0x0a\n        /* \"@openzeppelin/contracts/utils/Strings.sol\":1168:1173  value */\n      dup7\n        /* \"@openzeppelin/contracts/utils/Strings.sol\":1164:1178  mod(value, 10) */\n      mod\n        /* \"@openzeppelin/contracts/utils/Strings.sol\":1159:1191  byte(mod(value, 10), HEX_DIGITS) */\n      byte\n        /* \"@openzeppelin/contracts/utils/Strings.sol\":1154:1157  ptr */\n      dup2\n        /* \"@openzeppelin/contracts/utils/Strings.sol\":1146:1192  mstore8(ptr, byte(mod(value, 10), HEX_DIGITS)) */\n      mstore8\n        /* \"@openzeppelin/contracts/utils/Strings.sol\":1236:1238  10 */\n      0x0a\n        /* \"@openzeppelin/contracts/utils/Strings.sol\":1227:1238  value /= 10 */\n      dup6\n      dup2\n      tag_335\n      jumpi\n      tag_336\n      tag_337\n      jump\t// in\n    tag_336:\n    tag_335:\n      div\n      swap5\n      pop\n        /* \"@openzeppelin/contracts/utils/Strings.sol\":1269:1270  0 */\n      0x00\n        /* \"@openzeppelin/contracts/utils/Strings.sol\":1260:1265  value */\n      dup6\n        /* \"@openzeppelin/contracts/utils/Strings.sol\":1260:1270  value == 0 */\n      sub\n        /* \"@openzeppelin/contracts/utils/Strings.sol\":1010:1292  while (true) {... */\n      tag_333\n        /* \"@openzeppelin/contracts/utils/Strings.sol\":1256:1277  if (value == 0) break */\n      jumpi\n        /* \"@openzeppelin/contracts/utils/Strings.sol\":1010:1292  while (true) {... */\n    tag_334:\n        /* \"@openzeppelin/contracts/utils/Strings.sol\":1312:1318  buffer */\n      dup2\n        /* \"@openzeppelin/contracts/utils/Strings.sol\":1305:1318  return buffer */\n      swap4\n      pop\n      pop\n      pop\n      pop\n        /* \"@openzeppelin/contracts/utils/Strings.sol\":637:1335  function toString(uint256 value) internal pure returns (string memory) {... */\n      swap2\n      swap1\n      pop\n      jump\t// out\n        /* \"@openzeppelin/contracts/token/ERC721/ERC721.sol\":6376:6648  function _isAuthorized(address owner, address spender, uint256 tokenId) internal view virtual returns (bool) {... */\n    tag_320:\n        /* \"@openzeppelin/contracts/token/ERC721/ERC721.sol\":6479:6483  bool */\n      0x00\n        /* \"@openzeppelin/contracts/token/ERC721/ERC721.sol\":6533:6534  0 */\n      dup1\n        /* \"@openzeppelin/contracts/token/ERC721/ERC721.sol\":6514:6535  spender != address(0) */\n      0xffffffffffffffffffffffffffffffffffffffff\n      and\n        /* \"@openzeppelin/contracts/token/ERC721/ERC721.sol\":6514:6521  spender */\n      dup4\n        /* \"@openzeppelin/contracts/token/ERC721/ERC721.sol\":6514:6535  spender != address(0) */\n      0xffffffffffffffffffffffffffffffffffffffff\n      and\n      eq\n      iszero\n        /* \"@openzeppelin/contracts/token/ERC721/ERC721.sol\":6514:6641  spender != address(0) &&... */\n      dup1\n      iszero\n      tag_340\n      jumpi\n      pop\n        /* \"@openzeppelin/contracts/token/ERC721/ERC721.sol\":6561:6568  spender */\n      dup3\n        /* \"@openzeppelin/contracts/token/ERC721/ERC721.sol\":6552:6568  owner == spender */\n      0xffffffffffffffffffffffffffffffffffffffff\n      and\n        /* \"@openzeppelin/contracts/token/ERC721/ERC721.sol\":6552:6557  owner */\n      dup5\n        /* \"@openzeppelin/contracts/token/ERC721/ERC721.sol\":6552:6568  owner == spender */\n      0xffffffffffffffffffffffffffffffffffffffff\n      and\n      eq\n        /* \"@openzeppelin/contracts/token/ERC721/ERC721.sol\":6552:6604  owner == spender || isApprovedForAll(owner, spender) */\n      dup1\n      tag_341\n      jumpi\n      pop\n        /* \"@openzeppelin/contracts/token/ERC721/ERC721.sol\":6572:6604  isApprovedForAll(owner, spender) */\n      tag_342\n        /* \"@openzeppelin/contracts/token/ERC721/ERC721.sol\":6589:6594  owner */\n      dup5\n        /* \"@openzeppelin/contracts/token/ERC721/ERC721.sol\":6596:6603  spender */\n      dup5\n        /* \"@openzeppelin/contracts/token/ERC721/ERC721.sol\":6572:6588  isApprovedForAll */\n      tag_106\n        /* \"@openzeppelin/contracts/token/ERC721/ERC721.sol\":6572:6604  isApprovedForAll(owner, spender) */\n      jump\t// in\n    tag_342:\n        /* \"@openzeppelin/contracts/token/ERC721/ERC721.sol\":6552:6604  owner == spender || isApprovedForAll(owner, spender) */\n    tag_341:\n        /* \"@openzeppelin/contracts/token/ERC721/ERC721.sol\":6552:6640  owner == spender || isApprovedForAll(owner, spender) || _getApproved(tokenId) == spender */\n      dup1\n      tag_343\n      jumpi\n      pop\n        /* \"@openzeppelin/contracts/token/ERC721/ERC721.sol\":6633:6640  spender */\n      dup3\n        /* \"@openzeppelin/contracts/token/ERC721/ERC721.sol\":6608:6640  _getApproved(tokenId) == spender */\n      0xffffffffffffffffffffffffffffffffffffffff\n      and\n        /* \"@openzeppelin/contracts/token/ERC721/ERC721.sol\":6608:6629  _getApproved(tokenId) */\n      tag_344\n        /* \"@openzeppelin/contracts/token/ERC721/ERC721.sol\":6621:6628  tokenId */\n      dup4\n        /* \"@openzeppelin/contracts/token/ERC721/ERC721.sol\":6608:6620  _getApproved */\n      tag_126\n        /* \"@openzeppelin/contracts/token/ERC721/ERC721.sol\":6608:6629  _getApproved(tokenId) */\n      jump\t// in\n    tag_344:\n        /* \"@openzeppelin/contracts/token/ERC721/ERC721.sol\":6608:6640  _getApproved(tokenId) == spender */\n      0xffffffffffffffffffffffffffffffffffffffff\n      and\n      eq\n        /* \"@openzeppelin/contracts/token/ERC721/ERC721.sol\":6552:6640  owner == spender || isApprovedForAll(owner, spender) || _getApproved(tokenId) == spender */\n    tag_343:\n        /* \"@openzeppelin/contracts/token/ERC721/ERC721.sol\":6514:6641  spender != address(0) &&... */\n    tag_340:\n        /* \"@openzeppelin/contracts/token/ERC721/ERC721.sol\":6495:6641  return... */\n      swap1\n      pop\n        /* \"@openzeppelin/contracts/token/ERC721/ERC721.sol\":6376:6648  function _isAuthorized(address owner, address spender, uint256 tokenId) internal view virtual returns (bool) {... */\n      swap4\n      swap3\n      pop\n      pop\n      pop\n      jump\t// out\n        /* \"@openzeppelin/contracts/utils/math/Math.sol\":12214:13130  function log10(uint256 value) internal pure returns (uint256) {... */\n    tag_329:\n        /* \"@openzeppelin/contracts/utils/math/Math.sol\":12267:12274  uint256 */\n      0x00\n        /* \"@openzeppelin/contracts/utils/math/Math.sol\":12286:12300  uint256 result */\n      dup1\n        /* \"@openzeppelin/contracts/utils/math/Math.sol\":12303:12304  0 */\n      0x00\n        /* \"@openzeppelin/contracts/utils/math/Math.sol\":12286:12304  uint256 result = 0 */\n      swap1\n      pop\n        /* \"@openzeppelin/contracts/utils/math/Math.sol\":12351:12359  10 ** 64 */\n      0x184f03e93ff9f4daa797ed6e38ed64bf6a1f010000000000000000\n        /* \"@openzeppelin/contracts/utils/math/Math.sol\":12342:12347  value */\n      dup4\n        /* \"@openzeppelin/contracts/utils/math/Math.sol\":12342:12359  value >= 10 ** 64 */\n      lt\n        /* \"@openzeppelin/contracts/utils/math/Math.sol\":12338:12441  if (value >= 10 ** 64) {... */\n      tag_346\n      jumpi\n        /* \"@openzeppelin/contracts/utils/math/Math.sol\":12388:12396  10 ** 64 */\n      0x184f03e93ff9f4daa797ed6e38ed64bf6a1f010000000000000000\n        /* \"@openzeppelin/contracts/utils/math/Math.sol\":12379:12396  value /= 10 ** 64 */\n      dup4\n      dup2\n      tag_347\n      jumpi\n      tag_348\n      tag_337\n      jump\t// in\n    tag_348:\n    tag_347:\n      div\n      swap3\n      pop\n        /* \"@openzeppelin/contracts/utils/math/Math.sol\":12424:12426  64 */\n      0x40\n        /* \"@openzeppelin/contracts/utils/math/Math.sol\":12414:12426  result += 64 */\n      dup2\n      add\n      swap1\n      pop\n        /* \"@openzeppelin/contracts/utils/math/Math.sol\":12338:12441  if (value >= 10 ** 64) {... */\n    tag_346:\n        /* \"@openzeppelin/contracts/utils/math/Math.sol\":12467:12475  10 ** 32 */\n      0x04ee2d6d415b85acef8100000000\n        /* \"@openzeppelin/contracts/utils/math/Math.sol\":12458:12463  value */\n      dup4\n        /* \"@openzeppelin/contracts/utils/math/Math.sol\":12458:12475  value >= 10 ** 32 */\n      lt\n        /* \"@openzeppelin/contracts/utils/math/Math.sol\":12454:12557  if (value >= 10 ** 32) {... */\n      tag_349\n      jumpi\n        /* \"@openzeppelin/contracts/utils/math/Math.sol\":12504:12512  10 ** 32 */\n      0x04ee2d6d415b85acef8100000000\n        /* \"@openzeppelin/contracts/utils/math/Math.sol\":12495:12512  value /= 10 ** 32 */\n      dup4\n      dup2\n      tag_350\n      jumpi\n      tag_351\n      tag_337\n      jump\t// in\n    tag_351:\n    tag_350:\n      div\n      swap3\n      pop\n        /* \"@openzeppelin/contracts/utils/math/Math.sol\":12540:12542  32 */\n      0x20\n        /* \"@openzeppelin/contracts/utils/math/Math.sol\":12530:12542  result += 32 */\n      dup2\n      add\n      swap1\n      pop\n        /* \"@openzeppelin/contracts/utils/math/Math.sol\":12454:12557  if (value >= 10 ** 32) {... */\n    tag_349:\n        /* \"@openzeppelin/contracts/utils/math/Math.sol\":12583:12591  10 ** 16 */\n      0x2386f26fc10000\n        /* \"@openzeppelin/contracts/utils/math/Math.sol\":12574:12579  value */\n      dup4\n        /* \"@openzeppelin/contracts/utils/math/Math.sol\":12574:12591  value >= 10 ** 16 */\n      lt\n        /* \"@openzeppelin/contracts/utils/math/Math.sol\":12570:12673  if (value >= 10 ** 16) {... */\n      tag_352\n      jumpi\n        /* \"@openzeppelin/contracts/utils/math/Math.sol\":12620:12628  10 ** 16 */\n      0x2386f26fc10000\n        /* \"@openzeppelin/contracts/utils/math/Math.sol\":12611:12628  value /= 10 ** 16 */\n      dup4\n      dup2\n      tag_353\n      jumpi\n      tag_354\n      tag_337\n      jump\t// in\n    tag_354:\n    tag_353:\n      div\n      swap3\n      pop\n        /* \"@openzeppelin/contracts/utils/math/Math.sol\":12656:12658  16 */\n      0x10\n        /* \"@openzeppelin/contracts/utils/math/Math.sol\":12646:12658  result += 16 */\n      dup2\n      add\n      swap1\n      pop\n        /* \"@openzeppelin/contracts/utils/math/Math.sol\":12570:12673  if (value >= 10 ** 16) {... */\n    tag_352:\n        /* \"@openzeppelin/contracts/utils/math/Math.sol\":12699:12706  10 ** 8 */\n      0x05f5e100\n        /* \"@openzeppelin/contracts/utils/math/Math.sol\":12690:12695  value */\n      dup4\n        /* \"@openzeppelin/contracts/utils/math/Math.sol\":12690:12706  value >= 10 ** 8 */\n      lt\n        /* \"@openzeppelin/contracts/utils/math/Math.sol\":12686:12786  if (value >= 10 ** 8) {... */\n      tag_355\n      jumpi\n        /* \"@openzeppelin/contracts/utils/math/Math.sol\":12735:12742  10 ** 8 */\n      0x05f5e100\n        /* \"@openzeppelin/contracts/utils/math/Math.sol\":12726:12742  value /= 10 ** 8 */\n      dup4\n      dup2\n      tag_356\n      jumpi\n      tag_357\n      tag_337\n      jump\t// in\n    tag_357:\n    tag_356:\n      div\n      swap3\n      pop\n        /* \"@openzeppelin/contracts/utils/math/Math.sol\":12770:12771  8 */\n      0x08\n        /* \"@openzeppelin/contracts/utils/math/Math.sol\":12760:12771  result += 8 */\n      dup2\n      add\n      swap1\n      pop\n        /* \"@openzeppelin/contracts/utils/math/Math.sol\":12686:12786  if (value >= 10 ** 8) {... */\n    tag_355:\n        /* \"@openzeppelin/contracts/utils/math/Math.sol\":12812:12819  10 ** 4 */\n      0x2710\n        /* \"@openzeppelin/contracts/utils/math/Math.sol\":12803:12808  value */\n      dup4\n        /* \"@openzeppelin/contracts/utils/math/Math.sol\":12803:12819  value >= 10 ** 4 */\n      lt\n        /* \"@openzeppelin/contracts/utils/math/Math.sol\":12799:12899  if (value >= 10 ** 4) {... */\n      tag_358\n      jumpi\n        /* \"@openzeppelin/contracts/utils/math/Math.sol\":12848:12855  10 ** 4 */\n      0x2710\n        /* \"@openzeppelin/contracts/utils/math/Math.sol\":12839:12855  value /= 10 ** 4 */\n      dup4\n      dup2\n      tag_359\n      jumpi\n      tag_360\n      tag_337\n      jump\t// in\n    tag_360:\n    tag_359:\n      div\n      swap3\n      pop\n        /* \"@openzeppelin/contracts/utils/math/Math.sol\":12883:12884  4 */\n      0x04\n        /* \"@openzeppelin/contracts/utils/math/Math.sol\":12873:12884  result += 4 */\n      dup2\n      add\n      swap1\n      pop\n        /* \"@openzeppelin/contracts/utils/math/Math.sol\":12799:12899  if (value >= 10 ** 4) {... */\n    tag_358:\n        /* \"@openzeppelin/contracts/utils/math/Math.sol\":12925:12932  10 ** 2 */\n      0x64\n        /* \"@openzeppelin/contracts/utils/math/Math.sol\":12916:12921  value */\n      dup4\n        /* \"@openzeppelin/contracts/utils/math/Math.sol\":12916:12932  value >= 10 ** 2 */\n      lt\n        /* \"@openzeppelin/contracts/utils/math/Math.sol\":12912:13012  if (value >= 10 ** 2) {... */\n      tag_361\n      jumpi\n        /* \"@openzeppelin/contracts/utils/math/Math.sol\":12961:12968  10 ** 2 */\n      0x64\n        /* \"@openzeppelin/contracts/utils/math/Math.sol\":12952:12968  value /= 10 ** 2 */\n      dup4\n      dup2\n      tag_362\n      jumpi\n      tag_363\n      tag_337\n      jump\t// in\n    tag_363:\n    tag_362:\n      div\n      swap3\n      pop\n        /* \"@openzeppelin/contracts/utils/math/Math.sol\":12996:12997  2 */\n      0x02\n        /* \"@openzeppelin/contracts/utils/math/Math.sol\":12986:12997  result += 2 */\n      dup2\n      add\n      swap1\n      pop\n        /* \"@openzeppelin/contracts/utils/math/Math.sol\":12912:13012  if (value >= 10 ** 2) {... */\n    tag_361:\n        /* \"@openzeppelin/contracts/utils/math/Math.sol\":13038:13045  10 ** 1 */\n      0x0a\n        /* \"@openzeppelin/contracts/utils/math/Math.sol\":13029:13034  value */\n      dup4\n        /* \"@openzeppelin/contracts/utils/math/Math.sol\":13029:13045  value >= 10 ** 1 */\n      lt\n        /* \"@openzeppelin/contracts/utils/math/Math.sol\":13025:13091  if (value >= 10 ** 1) {... */\n      tag_364\n      jumpi\n        /* \"@openzeppelin/contracts/utils/math/Math.sol\":13075:13076  1 */\n      0x01\n        /* \"@openzeppelin/contracts/utils/math/Math.sol\":13065:13076  result += 1 */\n      dup2\n      add\n      swap1\n      pop\n        /* \"@openzeppelin/contracts/utils/math/Math.sol\":13025:13091  if (value >= 10 ** 1) {... */\n    tag_364:\n        /* \"@openzeppelin/contracts/utils/math/Math.sol\":13117:13123  result */\n      dup1\n        /* \"@openzeppelin/contracts/utils/math/Math.sol\":13110:13123  return result */\n      swap2\n      pop\n      pop\n        /* \"@openzeppelin/contracts/utils/math/Math.sol\":12214:13130  function log10(uint256 value) internal pure returns (uint256) {... */\n      swap2\n      swap1\n      pop\n      jump\t// out\n    tag_153:\n      mload(0x40)\n      dup1\n      0x40\n      add\n      0x40\n      mstore\n      dup1\n      0x00\n      dup2\n      mstore\n      0x20\n      add\n      0x00\n      dup2\n      mstore\n      pop\n      swap1\n      jump\t// out\n        /* \"#utility.yul\":7:82   */\n    tag_365:\n        /* \"#utility.yul\":40:46   */\n      0x00\n        /* \"#utility.yul\":73:75   */\n      0x40\n        /* \"#utility.yul\":67:76   */\n      mload\n        /* \"#utility.yul\":57:76   */\n      swap1\n      pop\n        /* \"#utility.yul\":7:82   */\n      swap1\n      jump\t// out\n        /* \"#utility.yul\":88:205   */\n    tag_366:\n        /* \"#utility.yul\":197:198   */\n      0x00\n        /* \"#utility.yul\":194:195   */\n      dup1\n        /* \"#utility.yul\":187:199   */\n      revert\n        /* \"#utility.yul\":211:328   */\n    tag_367:\n        /* \"#utility.yul\":320:321   */\n      0x00\n        /* \"#utility.yul\":317:318   */\n      dup1\n        /* \"#utility.yul\":310:322   */\n      revert\n        /* \"#utility.yul\":334:483   */\n    tag_368:\n        /* \"#utility.yul\":370:377   */\n      0x00\n        /* \"#utility.yul\":410:476   */\n      0xffffffff00000000000000000000000000000000000000000000000000000000\n        /* \"#utility.yul\":403:408   */\n      dup3\n        /* \"#utility.yul\":399:477   */\n      and\n        /* \"#utility.yul\":388:477   */\n      swap1\n      pop\n        /* \"#utility.yul\":334:483   */\n      swap2\n      swap1\n      pop\n      jump\t// out\n        /* \"#utility.yul\":489:609   */\n    tag_369:\n        /* \"#utility.yul\":561:584   */\n      tag_445\n        /* \"#utility.yul\":578:583   */\n      dup2\n        /* \"#utility.yul\":561:584   */\n      tag_368\n      jump\t// in\n    tag_445:\n        /* \"#utility.yul\":554:559   */\n      dup2\n        /* \"#utility.yul\":551:585   */\n      eq\n        /* \"#utility.yul\":541:603   */\n      tag_446\n      jumpi\n        /* \"#utility.yul\":599:600   */\n      0x00\n        /* \"#utility.yul\":596:597   */\n      dup1\n        /* \"#utility.yul\":589:601   */\n      revert\n        /* \"#utility.yul\":541:603   */\n    tag_446:\n        /* \"#utility.yul\":489:609   */\n      pop\n      jump\t// out\n        /* \"#utility.yul\":615:752   */\n    tag_370:\n        /* \"#utility.yul\":660:665   */\n      0x00\n        /* \"#utility.yul\":698:704   */\n      dup2\n        /* \"#utility.yul\":685:705   */\n      calldataload\n        /* \"#utility.yul\":676:705   */\n      swap1\n      pop\n        /* \"#utility.yul\":714:746   */\n      tag_448\n        /* \"#utility.yul\":740:745   */\n      dup2\n        /* \"#utility.yul\":714:746   */\n      tag_369\n      jump\t// in\n    tag_448:\n        /* \"#utility.yul\":615:752   */\n      swap3\n      swap2\n      pop\n      pop\n      jump\t// out\n        /* \"#utility.yul\":758:1085   */\n    tag_29:\n        /* \"#utility.yul\":816:822   */\n      0x00\n        /* \"#utility.yul\":865:867   */\n      0x20\n        /* \"#utility.yul\":853:862   */\n      dup3\n        /* \"#utility.yul\":844:851   */\n      dup5\n        /* \"#utility.yul\":840:863   */\n      sub\n        /* \"#utility.yul\":836:868   */\n      slt\n        /* \"#utility.yul\":833:952   */\n      iszero\n      tag_450\n      jumpi\n        /* \"#utility.yul\":871:950   */\n      tag_451\n      tag_366\n      jump\t// in\n    tag_451:\n        /* \"#utility.yul\":833:952   */\n    tag_450:\n        /* \"#utility.yul\":991:992   */\n      0x00\n        /* \"#utility.yul\":1016:1068   */\n      tag_452\n        /* \"#utility.yul\":1060:1067   */\n      dup5\n        /* \"#utility.yul\":1051:1057   */\n      dup3\n        /* \"#utility.yul\":1040:1049   */\n      dup6\n        /* \"#utility.yul\":1036:1058   */\n      add\n        /* \"#utility.yul\":1016:1068   */\n      tag_370\n      jump\t// in\n    tag_452:\n        /* \"#utility.yul\":1006:1068   */\n      swap2\n      pop\n        /* \"#utility.yul\":962:1078   */\n      pop\n        /* \"#utility.yul\":758:1085   */\n      swap3\n      swap2\n      pop\n      pop\n      jump\t// out\n        /* \"#utility.yul\":1091:1181   */\n    tag_371:\n        /* \"#utility.yul\":1125:1132   */\n      0x00\n        /* \"#utility.yul\":1168:1173   */\n      dup2\n        /* \"#utility.yul\":1161:1174   */\n      iszero\n        /* \"#utility.yul\":1154:1175   */\n      iszero\n        /* \"#utility.yul\":1143:1175   */\n      swap1\n      pop\n        /* \"#utility.yul\":1091:1181   */\n      swap2\n      swap1\n      pop\n      jump\t// out\n        /* \"#utility.yul\":1187:1296   */\n    tag_372:\n        /* \"#utility.yul\":1268:1289   */\n      tag_455\n        /* \"#utility.yul\":1283:1288   */\n      dup2\n        /* \"#utility.yul\":1268:1289   */\n      tag_371\n      jump\t// in\n    tag_455:\n        /* \"#utility.yul\":1263:1266   */\n      dup3\n        /* \"#utility.yul\":1256:1290   */\n      mstore\n        /* \"#utility.yul\":1187:1296   */\n      pop\n      pop\n      jump\t// out\n        /* \"#utility.yul\":1302:1512   */\n    tag_32:\n        /* \"#utility.yul\":1389:1393   */\n      0x00\n        /* \"#utility.yul\":1427:1429   */\n      0x20\n        /* \"#utility.yul\":1416:1425   */\n      dup3\n        /* \"#utility.yul\":1412:1430   */\n      add\n        /* \"#utility.yul\":1404:1430   */\n      swap1\n      pop\n        /* \"#utility.yul\":1440:1505   */\n      tag_457\n        /* \"#utility.yul\":1502:1503   */\n      0x00\n        /* \"#utility.yul\":1491:1500   */\n      dup4\n        /* \"#utility.yul\":1487:1504   */\n      add\n        /* \"#utility.yul\":1478:1484   */\n      dup5\n        /* \"#utility.yul\":1440:1505   */\n      tag_372\n      jump\t// in\n    tag_457:\n        /* \"#utility.yul\":1302:1512   */\n      swap3\n      swap2\n      pop\n      pop\n      jump\t// out\n        /* \"#utility.yul\":1518:1617   */\n    tag_373:\n        /* \"#utility.yul\":1570:1576   */\n      0x00\n        /* \"#utility.yul\":1604:1609   */\n      dup2\n        /* \"#utility.yul\":1598:1610   */\n      mload\n        /* \"#utility.yul\":1588:1610   */\n      swap1\n      pop\n        /* \"#utility.yul\":1518:1617   */\n      swap2\n      swap1\n      pop\n      jump\t// out\n        /* \"#utility.yul\":1623:1792   */\n    tag_374:\n        /* \"#utility.yul\":1707:1718   */\n      0x00\n        /* \"#utility.yul\":1741:1747   */\n      dup3\n        /* \"#utility.yul\":1736:1739   */\n      dup3\n        /* \"#utility.yul\":1729:1748   */\n      mstore\n        /* \"#utility.yul\":1781:1785   */\n      0x20\n        /* \"#utility.yul\":1776:1779   */\n      dup3\n        /* \"#utility.yul\":1772:1786   */\n      add\n        /* \"#utility.yul\":1757:1786   */\n      swap1\n      pop\n        /* \"#utility.yul\":1623:1792   */\n      swap3\n      swap2\n      pop\n      pop\n      jump\t// out\n        /* \"#utility.yul\":1798:2044   */\n    tag_375:\n        /* \"#utility.yul\":1879:1880   */\n      0x00\n        /* \"#utility.yul\":1889:2002   */\n    tag_461:\n        /* \"#utility.yul\":1903:1909   */\n      dup4\n        /* \"#utility.yul\":1900:1901   */\n      dup2\n        /* \"#utility.yul\":1897:1910   */\n      lt\n        /* \"#utility.yul\":1889:2002   */\n      iszero\n      tag_463\n      jumpi\n        /* \"#utility.yul\":1988:1989   */\n      dup1\n        /* \"#utility.yul\":1983:1986   */\n      dup3\n        /* \"#utility.yul\":1979:1990   */\n      add\n        /* \"#utility.yul\":1973:1991   */\n      mload\n        /* \"#utility.yul\":1969:1970   */\n      dup2\n        /* \"#utility.yul\":1964:1967   */\n      dup5\n        /* \"#utility.yul\":1960:1971   */\n      add\n        /* \"#utility.yul\":1953:1992   */\n      mstore\n        /* \"#utility.yul\":1925:1927   */\n      0x20\n        /* \"#utility.yul\":1922:1923   */\n      dup2\n        /* \"#utility.yul\":1918:1928   */\n      add\n        /* \"#utility.yul\":1913:1928   */\n      swap1\n      pop\n        /* \"#utility.yul\":1889:2002   */\n      jump(tag_461)\n    tag_463:\n        /* \"#utility.yul\":2036:2037   */\n      0x00\n        /* \"#utility.yul\":2027:2033   */\n      dup5\n        /* \"#utility.yul\":2022:2025   */\n      dup5\n        /* \"#utility.yul\":2018:2034   */\n      add\n        /* \"#utility.yul\":2011:2038   */\n      mstore\n        /* \"#utility.yul\":1860:2044   */\n      pop\n        /* \"#utility.yul\":1798:2044   */\n      pop\n      pop\n      pop\n      jump\t// out\n        /* \"#utility.yul\":2050:2152   */\n    tag_376:\n        /* \"#utility.yul\":2091:2097   */\n      0x00\n        /* \"#utility.yul\":2142:2144   */\n      0x1f\n        /* \"#utility.yul\":2138:2145   */\n      not\n        /* \"#utility.yul\":2133:2135   */\n      0x1f\n        /* \"#utility.yul\":2126:2131   */\n      dup4\n        /* \"#utility.yul\":2122:2136   */\n      add\n        /* \"#utility.yul\":2118:2146   */\n      and\n        /* \"#utility.yul\":2108:2146   */\n      swap1\n      pop\n        /* \"#utility.yul\":2050:2152   */\n      swap2\n      swap1\n      pop\n      jump\t// out\n        /* \"#utility.yul\":2158:2535   */\n    tag_377:\n        /* \"#utility.yul\":2246:2249   */\n      0x00\n        /* \"#utility.yul\":2274:2313   */\n      tag_466\n        /* \"#utility.yul\":2307:2312   */\n      dup3\n        /* \"#utility.yul\":2274:2313   */\n      tag_373\n      jump\t// in\n    tag_466:\n        /* \"#utility.yul\":2329:2400   */\n      tag_467\n        /* \"#utility.yul\":2393:2399   */\n      dup2\n        /* \"#utility.yul\":2388:2391   */\n      dup6\n        /* \"#utility.yul\":2329:2400   */\n      tag_374\n      jump\t// in\n    tag_467:\n        /* \"#utility.yul\":2322:2400   */\n      swap4\n      pop\n        /* \"#utility.yul\":2409:2474   */\n      tag_468\n        /* \"#utility.yul\":2467:2473   */\n      dup2\n        /* \"#utility.yul\":2462:2465   */\n      dup6\n        /* \"#utility.yul\":2455:2459   */\n      0x20\n        /* \"#utility.yul\":2448:2453   */\n      dup7\n        /* \"#utility.yul\":2444:2460   */\n      add\n        /* \"#utility.yul\":2409:2474   */\n      tag_375\n      jump\t// in\n    tag_468:\n        /* \"#utility.yul\":2499:2528   */\n      tag_469\n        /* \"#utility.yul\":2521:2527   */\n      dup2\n        /* \"#utility.yul\":2499:2528   */\n      tag_376\n      jump\t// in\n    tag_469:\n        /* \"#utility.yul\":2494:2497   */\n      dup5\n        /* \"#utility.yul\":2490:2529   */\n      add\n        /* \"#utility.yul\":2483:2529   */\n      swap2\n      pop\n        /* \"#utility.yul\":2250:2535   */\n      pop\n        /* \"#utility.yul\":2158:2535   */\n      swap3\n      swap2\n      pop\n      pop\n      jump\t// out\n        /* \"#utility.yul\":2541:2854   */\n    tag_36:\n        /* \"#utility.yul\":2654:2658   */\n      0x00\n        /* \"#utility.yul\":2692:2694   */\n      0x20\n        /* \"#utility.yul\":2681:2690   */\n      dup3\n        /* \"#utility.yul\":2677:2695   */\n      add\n        /* \"#utility.yul\":2669:2695   */\n      swap1\n      pop\n        /* \"#utility.yul\":2741:2750   */\n      dup2\n        /* \"#utility.yul\":2735:2739   */\n      dup2\n        /* \"#utility.yul\":2731:2751   */\n      sub\n        /* \"#utility.yul\":2727:2728   */\n      0x00\n        /* \"#utility.yul\":2716:2725   */\n      dup4\n        /* \"#utility.yul\":2712:2729   */\n      add\n        /* \"#utility.yul\":2705:2752   */\n      mstore\n        /* \"#utility.yul\":2769:2847   */\n      tag_471\n        /* \"#utility.yul\":2842:2846   */\n      dup2\n        /* \"#utility.yul\":2833:2839   */\n      dup5\n        /* \"#utility.yul\":2769:2847   */\n      tag_377\n      jump\t// in\n    tag_471:\n        /* \"#utility.yul\":2761:2847   */\n      swap1\n      pop\n        /* \"#utility.yul\":2541:2854   */\n      swap3\n      swap2\n      pop\n      pop\n      jump\t// out\n        /* \"#utility.yul\":2860:2937   */\n    tag_378:\n        /* \"#utility.yul\":2897:2904   */\n      0x00\n        /* \"#utility.yul\":2926:2931   */\n      dup2\n        /* \"#utility.yul\":2915:2931   */\n      swap1\n      pop\n        /* \"#utility.yul\":2860:2937   */\n      swap2\n      swap1\n      pop\n      jump\t// out\n        /* \"#utility.yul\":2943:3065   */\n    tag_379:\n        /* \"#utility.yul\":3016:3040   */\n      tag_474\n        /* \"#utility.yul\":3034:3039   */\n      dup2\n        /* \"#utility.yul\":3016:3040   */\n      tag_378\n      jump\t// in\n    tag_474:\n        /* \"#utility.yul\":3009:3014   */\n      dup2\n        /* \"#utility.yul\":3006:3041   */\n      eq\n        /* \"#utility.yul\":2996:3059   */\n      tag_475\n      jumpi\n        /* \"#utility.yul\":3055:3056   */\n      0x00\n        /* \"#utility.yul\":3052:3053   */\n      dup1\n        /* \"#utility.yul\":3045:3057   */\n      revert\n        /* \"#utility.yul\":2996:3059   */\n    tag_475:\n        /* \"#utility.yul\":2943:3065   */\n      pop\n      jump\t// out\n        /* \"#utility.yul\":3071:3210   */\n    tag_380:\n        /* \"#utility.yul\":3117:3122   */\n      0x00\n        /* \"#utility.yul\":3155:3161   */\n      dup2\n        /* \"#utility.yul\":3142:3162   */\n      calldataload\n        /* \"#utility.yul\":3133:3162   */\n      swap1\n      pop\n        /* \"#utility.yul\":3171:3204   */\n      tag_477\n        /* \"#utility.yul\":3198:3203   */\n      dup2\n        /* \"#utility.yul\":3171:3204   */\n      tag_379\n      jump\t// in\n    tag_477:\n        /* \"#utility.yul\":3071:3210   */\n      swap3\n      swap2\n      pop\n      pop\n      jump\t// out\n        /* \"#utility.yul\":3216:3545   */\n    tag_39:\n        /* \"#utility.yul\":3275:3281   */\n      0x00\n        /* \"#utility.yul\":3324:3326   */\n      0x20\n        /* \"#utility.yul\":3312:3321   */\n      dup3\n        /* \"#utility.yul\":3303:3310   */\n      dup5\n        /* \"#utility.yul\":3299:3322   */\n      sub\n        /* \"#utility.yul\":3295:3327   */\n      slt\n        /* \"#utility.yul\":3292:3411   */\n      iszero\n      tag_479\n      jumpi\n        /* \"#utility.yul\":3330:3409   */\n      tag_480\n      tag_366\n      jump\t// in\n    tag_480:\n        /* \"#utility.yul\":3292:3411   */\n    tag_479:\n        /* \"#utility.yul\":3450:3451   */\n      0x00\n        /* \"#utility.yul\":3475:3528   */\n      tag_481\n        /* \"#utility.yul\":3520:3527   */\n      dup5\n        /* \"#utility.yul\":3511:3517   */\n      dup3\n        /* \"#utility.yul\":3500:3509   */\n      dup6\n        /* \"#utility.yul\":3496:3518   */\n      add\n        /* \"#utility.yul\":3475:3528   */\n      tag_380\n      jump\t// in\n    tag_481:\n        /* \"#utility.yul\":3465:3528   */\n      swap2\n      pop\n        /* \"#utility.yul\":3421:3538   */\n      pop\n        /* \"#utility.yul\":3216:3545   */\n      swap3\n      swap2\n      pop\n      pop\n      jump\t// out\n        /* \"#utility.yul\":3551:3677   */\n    tag_381:\n        /* \"#utility.yul\":3588:3595   */\n      0x00\n        /* \"#utility.yul\":3628:3670   */\n      0xffffffffffffffffffffffffffffffffffffffff\n        /* \"#utility.yul\":3621:3626   */\n      dup3\n        /* \"#utility.yul\":3617:3671   */\n      and\n        /* \"#utility.yul\":3606:3671   */\n      swap1\n      pop\n        /* \"#utility.yul\":3551:3677   */\n      swap2\n      swap1\n      pop\n      jump\t// out\n        /* \"#utility.yul\":3683:3779   */\n    tag_382:\n        /* \"#utility.yul\":3720:3727   */\n      0x00\n        /* \"#utility.yul\":3749:3773   */\n      tag_484\n        /* \"#utility.yul\":3767:3772   */\n      dup3\n        /* \"#utility.yul\":3749:3773   */\n      tag_381\n      jump\t// in\n    tag_484:\n        /* \"#utility.yul\":3738:3773   */\n      swap1\n      pop\n        /* \"#utility.yul\":3683:3779   */\n      swap2\n      swap1\n      pop\n      jump\t// out\n        /* \"#utility.yul\":3785:3903   */\n    tag_383:\n        /* \"#utility.yul\":3872:3896   */\n      tag_486\n        /* \"#utility.yul\":3890:3895   */\n      dup2\n        /* \"#utility.yul\":3872:3896   */\n      tag_382\n      jump\t// in\n    tag_486:\n        /* \"#utility.yul\":3867:3870   */\n      dup3\n        /* \"#utility.yul\":3860:3897   */\n      mstore\n        /* \"#utility.yul\":3785:3903   */\n      pop\n      pop\n      jump\t// out\n        /* \"#utility.yul\":3909:4131   */\n    tag_42:\n        /* \"#utility.yul\":4002:4006   */\n      0x00\n        /* \"#utility.yul\":4040:4042   */\n      0x20\n        /* \"#utility.yul\":4029:4038   */\n      dup3\n        /* \"#utility.yul\":4025:4043   */\n      add\n        /* \"#utility.yul\":4017:4043   */\n      swap1\n      pop\n        /* \"#utility.yul\":4053:4124   */\n      tag_488\n        /* \"#utility.yul\":4121:4122   */\n      0x00\n        /* \"#utility.yul\":4110:4119   */\n      dup4\n        /* \"#utility.yul\":4106:4123   */\n      add\n        /* \"#utility.yul\":4097:4103   */\n      dup5\n        /* \"#utility.yul\":4053:4124   */\n      tag_383\n      jump\t// in\n    tag_488:\n        /* \"#utility.yul\":3909:4131   */\n      swap3\n      swap2\n      pop\n      pop\n      jump\t// out\n        /* \"#utility.yul\":4137:4259   */\n    tag_384:\n        /* \"#utility.yul\":4210:4234   */\n      tag_490\n        /* \"#utility.yul\":4228:4233   */\n      dup2\n        /* \"#utility.yul\":4210:4234   */\n      tag_382\n      jump\t// in\n    tag_490:\n        /* \"#utility.yul\":4203:4208   */\n      dup2\n        /* \"#utility.yul\":4200:4235   */\n      eq\n        /* \"#utility.yul\":4190:4253   */\n      tag_491\n      jumpi\n        /* \"#utility.yul\":4249:4250   */\n      0x00\n        /* \"#utility.yul\":4246:4247   */\n      dup1\n        /* \"#utility.yul\":4239:4251   */\n      revert\n        /* \"#utility.yul\":4190:4253   */\n    tag_491:\n        /* \"#utility.yul\":4137:4259   */\n      pop\n      jump\t// out\n        /* \"#utility.yul\":4265:4404   */\n    tag_385:\n        /* \"#utility.yul\":4311:4316   */\n      0x00\n        /* \"#utility.yul\":4349:4355   */\n      dup2\n        /* \"#utility.yul\":4336:4356   */\n      calldataload\n        /* \"#utility.yul\":4327:4356   */\n      swap1\n      pop\n        /* \"#utility.yul\":4365:4398   */\n      tag_493\n        /* \"#utility.yul\":4392:4397   */\n      dup2\n        /* \"#utility.yul\":4365:4398   */\n      tag_384\n      jump\t// in\n    tag_493:\n        /* \"#utility.yul\":4265:4404   */\n      swap3\n      swap2\n      pop\n      pop\n      jump\t// out\n        /* \"#utility.yul\":4410:4884   */\n    tag_45:\n        /* \"#utility.yul\":4478:4484   */\n      0x00\n        /* \"#utility.yul\":4486:4492   */\n      dup1\n        /* \"#utility.yul\":4535:4537   */\n      0x40\n        /* \"#utility.yul\":4523:4532   */\n      dup4\n        /* \"#utility.yul\":4514:4521   */\n      dup6\n        /* \"#utility.yul\":4510:4533   */\n      sub\n        /* \"#utility.yul\":4506:4538   */\n      slt\n        /* \"#utility.yul\":4503:4622   */\n      iszero\n      tag_495\n      jumpi\n        /* \"#utility.yul\":4541:4620   */\n      tag_496\n      tag_366\n      jump\t// in\n    tag_496:\n        /* \"#utility.yul\":4503:4622   */\n    tag_495:\n        /* \"#utility.yul\":4661:4662   */\n      0x00\n        /* \"#utility.yul\":4686:4739   */\n      tag_497\n        /* \"#utility.yul\":4731:4738   */\n      dup6\n        /* \"#utility.yul\":4722:4728   */\n      dup3\n        /* \"#utility.yul\":4711:4720   */\n      dup7\n        /* \"#utility.yul\":4707:4729   */\n      add\n        /* \"#utility.yul\":4686:4739   */\n      tag_385\n      jump\t// in\n    tag_497:\n        /* \"#utility.yul\":4676:4739   */\n      swap3\n      pop\n        /* \"#utility.yul\":4632:4749   */\n      pop\n        /* \"#utility.yul\":4788:4790   */\n      0x20\n        /* \"#utility.yul\":4814:4867   */\n      tag_498\n        /* \"#utility.yul\":4859:4866   */\n      dup6\n        /* \"#utility.yul\":4850:4856   */\n      dup3\n        /* \"#utility.yul\":4839:4848   */\n      dup7\n        /* \"#utility.yul\":4835:4857   */\n      add\n        /* \"#utility.yul\":4814:4867   */\n      tag_380\n      jump\t// in\n    tag_498:\n        /* \"#utility.yul\":4804:4867   */\n      swap2\n      pop\n        /* \"#utility.yul\":4759:4877   */\n      pop\n        /* \"#utility.yul\":4410:4884   */\n      swap3\n      pop\n      swap3\n      swap1\n      pop\n      jump\t// out\n        /* \"#utility.yul\":4890:5509   */\n    tag_49:\n        /* \"#utility.yul\":4967:4973   */\n      0x00\n        /* \"#utility.yul\":4975:4981   */\n      dup1\n        /* \"#utility.yul\":4983:4989   */\n      0x00\n        /* \"#utility.yul\":5032:5034   */\n      0x60\n        /* \"#utility.yul\":5020:5029   */\n      dup5\n        /* \"#utility.yul\":5011:5018   */\n      dup7\n        /* \"#utility.yul\":5007:5030   */\n      sub\n        /* \"#utility.yul\":5003:5035   */\n      slt\n        /* \"#utility.yul\":5000:5119   */\n      iszero\n      tag_500\n      jumpi\n        /* \"#utility.yul\":5038:5117   */\n      tag_501\n      tag_366\n      jump\t// in\n    tag_501:\n        /* \"#utility.yul\":5000:5119   */\n    tag_500:\n        /* \"#utility.yul\":5158:5159   */\n      0x00\n        /* \"#utility.yul\":5183:5236   */\n      tag_502\n        /* \"#utility.yul\":5228:5235   */\n      dup7\n        /* \"#utility.yul\":5219:5225   */\n      dup3\n        /* \"#utility.yul\":5208:5217   */\n      dup8\n        /* \"#utility.yul\":5204:5226   */\n      add\n        /* \"#utility.yul\":5183:5236   */\n      tag_385\n      jump\t// in\n    tag_502:\n        /* \"#utility.yul\":5173:5236   */\n      swap4\n      pop\n        /* \"#utility.yul\":5129:5246   */\n      pop\n        /* \"#utility.yul\":5285:5287   */\n      0x20\n        /* \"#utility.yul\":5311:5364   */\n      tag_503\n        /* \"#utility.yul\":5356:5363   */\n      dup7\n        /* \"#utility.yul\":5347:5353   */\n      dup3\n        /* \"#utility.yul\":5336:5345   */\n      dup8\n        /* \"#utility.yul\":5332:5354   */\n      add\n        /* \"#utility.yul\":5311:5364   */\n      tag_385\n      jump\t// in\n    tag_503:\n        /* \"#utility.yul\":5301:5364   */\n      swap3\n      pop\n        /* \"#utility.yul\":5256:5374   */\n      pop\n        /* \"#utility.yul\":5413:5415   */\n      0x40\n        /* \"#utility.yul\":5439:5492   */\n      tag_504\n        /* \"#utility.yul\":5484:5491   */\n      dup7\n        /* \"#utility.yul\":5475:5481   */\n      dup3\n        /* \"#utility.yul\":5464:5473   */\n      dup8\n        /* \"#utility.yul\":5460:5482   */\n      add\n        /* \"#utility.yul\":5439:5492   */\n      tag_380\n      jump\t// in\n    tag_504:\n        /* \"#utility.yul\":5429:5492   */\n      swap2\n      pop\n        /* \"#utility.yul\":5384:5502   */\n      pop\n        /* \"#utility.yul\":4890:5509   */\n      swap3\n      pop\n      swap3\n      pop\n      swap3\n      jump\t// out\n        /* \"#utility.yul\":5515:5632   */\n    tag_386:\n        /* \"#utility.yul\":5624:5625   */\n      0x00\n        /* \"#utility.yul\":5621:5622   */\n      dup1\n        /* \"#utility.yul\":5614:5626   */\n      revert\n        /* \"#utility.yul\":5638:5818   */\n    tag_149:\n        /* \"#utility.yul\":5686:5763   */\n      0x4e487b7100000000000000000000000000000000000000000000000000000000\n        /* \"#utility.yul\":5683:5684   */\n      0x00\n        /* \"#utility.yul\":5676:5764   */\n      mstore\n        /* \"#utility.yul\":5783:5787   */\n      0x41\n        /* \"#utility.yul\":5780:5781   */\n      0x04\n        /* \"#utility.yul\":5773:5788   */\n      mstore\n        /* \"#utility.yul\":5807:5811   */\n      0x24\n        /* \"#utility.yul\":5804:5805   */\n      0x00\n        /* \"#utility.yul\":5797:5812   */\n      revert\n        /* \"#utility.yul\":5824:6105   */\n    tag_387:\n        /* \"#utility.yul\":5907:5934   */\n      tag_508\n        /* \"#utility.yul\":5929:5933   */\n      dup3\n        /* \"#utility.yul\":5907:5934   */\n      tag_376\n      jump\t// in\n    tag_508:\n        /* \"#utility.yul\":5899:5905   */\n      dup2\n        /* \"#utility.yul\":5895:5935   */\n      add\n        /* \"#utility.yul\":6037:6043   */\n      dup2\n        /* \"#utility.yul\":6025:6035   */\n      dup2\n        /* \"#utility.yul\":6022:6044   */\n      lt\n        /* \"#utility.yul\":6001:6019   */\n      0xffffffffffffffff\n        /* \"#utility.yul\":5989:5999   */\n      dup3\n        /* \"#utility.yul\":5986:6020   */\n      gt\n        /* \"#utility.yul\":5983:6045   */\n      or\n        /* \"#utility.yul\":5980:6068   */\n      iszero\n      tag_509\n      jumpi\n        /* \"#utility.yul\":6048:6066   */\n      tag_510\n      tag_149\n      jump\t// in\n    tag_510:\n        /* \"#utility.yul\":5980:6068   */\n    tag_509:\n        /* \"#utility.yul\":6088:6098   */\n      dup1\n        /* \"#utility.yul\":6084:6086   */\n      0x40\n        /* \"#utility.yul\":6077:6099   */\n      mstore\n        /* \"#utility.yul\":5867:6105   */\n      pop\n        /* \"#utility.yul\":5824:6105   */\n      pop\n      pop\n      jump\t// out\n        /* \"#utility.yul\":6111:6240   */\n    tag_388:\n        /* \"#utility.yul\":6145:6151   */\n      0x00\n        /* \"#utility.yul\":6172:6192   */\n      tag_512\n      tag_365\n      jump\t// in\n    tag_512:\n        /* \"#utility.yul\":6162:6192   */\n      swap1\n      pop\n        /* \"#utility.yul\":6201:6234   */\n      tag_513\n        /* \"#utility.yul\":6229:6233   */\n      dup3\n        /* \"#utility.yul\":6221:6227   */\n      dup3\n        /* \"#utility.yul\":6201:6234   */\n      tag_387\n      jump\t// in\n    tag_513:\n        /* \"#utility.yul\":6111:6240   */\n      swap2\n      swap1\n      pop\n      jump\t// out\n        /* \"#utility.yul\":6246:6584   */\n    tag_389:\n        /* \"#utility.yul\":6350:6354   */\n      0x00\n        /* \"#utility.yul\":6440:6458   */\n      0xffffffffffffffff\n        /* \"#utility.yul\":6432:6438   */\n      dup3\n        /* \"#utility.yul\":6429:6459   */\n      gt\n        /* \"#utility.yul\":6426:6482   */\n      iszero\n      tag_515\n      jumpi\n        /* \"#utility.yul\":6462:6480   */\n      tag_516\n      tag_149\n      jump\t// in\n    tag_516:\n        /* \"#utility.yul\":6426:6482   */\n    tag_515:\n        /* \"#utility.yul\":6512:6516   */\n      0x20\n        /* \"#utility.yul\":6504:6510   */\n      dup3\n        /* \"#utility.yul\":6500:6517   */\n      mul\n        /* \"#utility.yul\":6492:6517   */\n      swap1\n      pop\n        /* \"#utility.yul\":6572:6576   */\n      0x20\n        /* \"#utility.yul\":6566:6570   */\n      dup2\n        /* \"#utility.yul\":6562:6577   */\n      add\n        /* \"#utility.yul\":6554:6577   */\n      swap1\n      pop\n        /* \"#utility.yul\":6246:6584   */\n      swap2\n      swap1\n      pop\n      jump\t// out\n        /* \"#utility.yul\":6590:6707   */\n    tag_390:\n        /* \"#utility.yul\":6699:6700   */\n      0x00\n        /* \"#utility.yul\":6696:6697   */\n      dup1\n        /* \"#utility.yul\":6689:6701   */\n      revert\n        /* \"#utility.yul\":6713:6830   */\n    tag_391:\n        /* \"#utility.yul\":6822:6823   */\n      0x00\n        /* \"#utility.yul\":6819:6820   */\n      dup1\n        /* \"#utility.yul\":6812:6824   */\n      revert\n        /* \"#utility.yul\":6836:6953   */\n    tag_392:\n        /* \"#utility.yul\":6945:6946   */\n      0x00\n        /* \"#utility.yul\":6942:6943   */\n      dup1\n        /* \"#utility.yul\":6935:6947   */\n      revert\n        /* \"#utility.yul\":6959:7076   */\n    tag_393:\n        /* \"#utility.yul\":7068:7069   */\n      0x00\n        /* \"#utility.yul\":7065:7066   */\n      dup1\n        /* \"#utility.yul\":7058:7070   */\n      revert\n        /* \"#utility.yul\":7082:7390   */\n    tag_394:\n        /* \"#utility.yul\":7144:7148   */\n      0x00\n        /* \"#utility.yul\":7234:7252   */\n      0xffffffffffffffff\n        /* \"#utility.yul\":7226:7232   */\n      dup3\n        /* \"#utility.yul\":7223:7253   */\n      gt\n        /* \"#utility.yul\":7220:7276   */\n      iszero\n      tag_522\n      jumpi\n        /* \"#utility.yul\":7256:7274   */\n      tag_523\n      tag_149\n      jump\t// in\n    tag_523:\n        /* \"#utility.yul\":7220:7276   */\n    tag_522:\n        /* \"#utility.yul\":7294:7323   */\n      tag_524\n        /* \"#utility.yul\":7316:7322   */\n      dup3\n        /* \"#utility.yul\":7294:7323   */\n      tag_376\n      jump\t// in\n    tag_524:\n        /* \"#utility.yul\":7286:7323   */\n      swap1\n      pop\n        /* \"#utility.yul\":7378:7382   */\n      0x20\n        /* \"#utility.yul\":7372:7376   */\n      dup2\n        /* \"#utility.yul\":7368:7383   */\n      add\n        /* \"#utility.yul\":7360:7383   */\n      swap1\n      pop\n        /* \"#utility.yul\":7082:7390   */\n      swap2\n      swap1\n      pop\n      jump\t// out\n        /* \"#utility.yul\":7396:7542   */\n    tag_395:\n        /* \"#utility.yul\":7493:7499   */\n      dup3\n        /* \"#utility.yul\":7488:7491   */\n      dup2\n        /* \"#utility.yul\":7483:7486   */\n      dup4\n        /* \"#utility.yul\":7470:7500   */\n      calldatacopy\n        /* \"#utility.yul\":7534:7535   */\n      0x00\n        /* \"#utility.yul\":7525:7531   */\n      dup4\n        /* \"#utility.yul\":7520:7523   */\n      dup4\n        /* \"#utility.yul\":7516:7532   */\n      add\n        /* \"#utility.yul\":7509:7536   */\n      mstore\n        /* \"#utility.yul\":7396:7542   */\n      pop\n      pop\n      pop\n      jump\t// out\n        /* \"#utility.yul\":7548:7973   */\n    tag_396:\n        /* \"#utility.yul\":7626:7631   */\n      0x00\n        /* \"#utility.yul\":7651:7717   */\n      tag_527\n        /* \"#utility.yul\":7667:7716   */\n      tag_528\n        /* \"#utility.yul\":7709:7715   */\n      dup5\n        /* \"#utility.yul\":7667:7716   */\n      tag_394\n      jump\t// in\n    tag_528:\n        /* \"#utility.yul\":7651:7717   */\n      tag_388\n      jump\t// in\n    tag_527:\n        /* \"#utility.yul\":7642:7717   */\n      swap1\n      pop\n        /* \"#utility.yul\":7740:7746   */\n      dup3\n        /* \"#utility.yul\":7733:7738   */\n      dup2\n        /* \"#utility.yul\":7726:7747   */\n      mstore\n        /* \"#utility.yul\":7778:7782   */\n      0x20\n        /* \"#utility.yul\":7771:7776   */\n      dup2\n        /* \"#utility.yul\":7767:7783   */\n      add\n        /* \"#utility.yul\":7816:7819   */\n      dup5\n        /* \"#utility.yul\":7807:7813   */\n      dup5\n        /* \"#utility.yul\":7802:7805   */\n      dup5\n        /* \"#utility.yul\":7798:7814   */\n      add\n        /* \"#utility.yul\":7795:7820   */\n      gt\n        /* \"#utility.yul\":7792:7904   */\n      iszero\n      tag_529\n      jumpi\n        /* \"#utility.yul\":7823:7902   */\n      tag_530\n      tag_393\n      jump\t// in\n    tag_530:\n        /* \"#utility.yul\":7792:7904   */\n    tag_529:\n        /* \"#utility.yul\":7913:7967   */\n      tag_531\n        /* \"#utility.yul\":7960:7966   */\n      dup5\n        /* \"#utility.yul\":7955:7958   */\n      dup3\n        /* \"#utility.yul\":7950:7953   */\n      dup6\n        /* \"#utility.yul\":7913:7967   */\n      tag_395\n      jump\t// in\n    tag_531:\n        /* \"#utility.yul\":7632:7973   */\n      pop\n        /* \"#utility.yul\":7548:7973   */\n      swap4\n      swap3\n      pop\n      pop\n      pop\n      jump\t// out\n        /* \"#utility.yul\":7993:8333   */\n    tag_397:\n        /* \"#utility.yul\":8049:8054   */\n      0x00\n        /* \"#utility.yul\":8098:8101   */\n      dup3\n        /* \"#utility.yul\":8091:8095   */\n      0x1f\n        /* \"#utility.yul\":8083:8089   */\n      dup4\n        /* \"#utility.yul\":8079:8096   */\n      add\n        /* \"#utility.yul\":8075:8102   */\n      slt\n        /* \"#utility.yul\":8065:8187   */\n      tag_533\n      jumpi\n        /* \"#utility.yul\":8106:8185   */\n      tag_534\n      tag_386\n      jump\t// in\n    tag_534:\n        /* \"#utility.yul\":8065:8187   */\n    tag_533:\n        /* \"#utility.yul\":8223:8229   */\n      dup2\n        /* \"#utility.yul\":8210:8230   */\n      calldataload\n        /* \"#utility.yul\":8248:8327   */\n      tag_535\n        /* \"#utility.yul\":8323:8326   */\n      dup5\n        /* \"#utility.yul\":8315:8321   */\n      dup3\n        /* \"#utility.yul\":8308:8312   */\n      0x20\n        /* \"#utility.yul\":8300:8306   */\n      dup7\n        /* \"#utility.yul\":8296:8313   */\n      add\n        /* \"#utility.yul\":8248:8327   */\n      tag_396\n      jump\t// in\n    tag_535:\n        /* \"#utility.yul\":8239:8327   */\n      swap2\n      pop\n        /* \"#utility.yul\":8055:8333   */\n      pop\n        /* \"#utility.yul\":7993:8333   */\n      swap3\n      swap2\n      pop\n      pop\n      jump\t// out\n        /* \"#utility.yul\":8373:9295   */\n    tag_398:\n        /* \"#utility.yul\":8449:8454   */\n      0x00\n        /* \"#utility.yul\":8493:8497   */\n      0x60\n        /* \"#utility.yul\":8481:8490   */\n      dup3\n        /* \"#utility.yul\":8476:8479   */\n      dup5\n        /* \"#utility.yul\":8472:8491   */\n      sub\n        /* \"#utility.yul\":8468:8498   */\n      slt\n        /* \"#utility.yul\":8465:8582   */\n      iszero\n      tag_537\n      jumpi\n        /* \"#utility.yul\":8501:8580   */\n      tag_538\n      tag_391\n      jump\t// in\n    tag_538:\n        /* \"#utility.yul\":8465:8582   */\n    tag_537:\n        /* \"#utility.yul\":8600:8621   */\n      tag_539\n        /* \"#utility.yul\":8616:8620   */\n      0x60\n        /* \"#utility.yul\":8600:8621   */\n      tag_388\n      jump\t// in\n    tag_539:\n        /* \"#utility.yul\":8591:8621   */\n      swap1\n      pop\n        /* \"#utility.yul\":8683:8684   */\n      0x00\n        /* \"#utility.yul\":8723:8772   */\n      tag_540\n        /* \"#utility.yul\":8768:8771   */\n      dup5\n        /* \"#utility.yul\":8759:8765   */\n      dup3\n        /* \"#utility.yul\":8748:8757   */\n      dup6\n        /* \"#utility.yul\":8744:8766   */\n      add\n        /* \"#utility.yul\":8723:8772   */\n      tag_380\n      jump\t// in\n    tag_540:\n        /* \"#utility.yul\":8716:8720   */\n      0x00\n        /* \"#utility.yul\":8709:8714   */\n      dup4\n        /* \"#utility.yul\":8705:8721   */\n      add\n        /* \"#utility.yul\":8698:8773   */\n      mstore\n        /* \"#utility.yul\":8631:8784   */\n      pop\n        /* \"#utility.yul\":8848:8850   */\n      0x20\n        /* \"#utility.yul\":8889:8938   */\n      tag_541\n        /* \"#utility.yul\":8934:8937   */\n      dup5\n        /* \"#utility.yul\":8925:8931   */\n      dup3\n        /* \"#utility.yul\":8914:8923   */\n      dup6\n        /* \"#utility.yul\":8910:8932   */\n      add\n        /* \"#utility.yul\":8889:8938   */\n      tag_385\n      jump\t// in\n    tag_541:\n        /* \"#utility.yul\":8882:8886   */\n      0x20\n        /* \"#utility.yul\":8875:8880   */\n      dup4\n        /* \"#utility.yul\":8871:8887   */\n      add\n        /* \"#utility.yul\":8864:8939   */\n      mstore\n        /* \"#utility.yul\":8794:8950   */\n      pop\n        /* \"#utility.yul\":9044:9046   */\n      0x40\n        /* \"#utility.yul\":9033:9042   */\n      dup3\n        /* \"#utility.yul\":9029:9047   */\n      add\n        /* \"#utility.yul\":9016:9048   */\n      calldataload\n        /* \"#utility.yul\":9075:9093   */\n      0xffffffffffffffff\n        /* \"#utility.yul\":9067:9073   */\n      dup2\n        /* \"#utility.yul\":9064:9094   */\n      gt\n        /* \"#utility.yul\":9061:9178   */\n      iszero\n      tag_542\n      jumpi\n        /* \"#utility.yul\":9097:9176   */\n      tag_543\n      tag_392\n      jump\t// in\n    tag_543:\n        /* \"#utility.yul\":9061:9178   */\n    tag_542:\n        /* \"#utility.yul\":9217:9276   */\n      tag_544\n        /* \"#utility.yul\":9272:9275   */\n      dup5\n        /* \"#utility.yul\":9263:9269   */\n      dup3\n        /* \"#utility.yul\":9252:9261   */\n      dup6\n        /* \"#utility.yul\":9248:9270   */\n      add\n        /* \"#utility.yul\":9217:9276   */\n      tag_397\n      jump\t// in\n    tag_544:\n        /* \"#utility.yul\":9210:9214   */\n      0x40\n        /* \"#utility.yul\":9203:9208   */\n      dup4\n        /* \"#utility.yul\":9199:9215   */\n      add\n        /* \"#utility.yul\":9192:9277   */\n      mstore\n        /* \"#utility.yul\":8960:9288   */\n      pop\n        /* \"#utility.yul\":8373:9295   */\n      swap3\n      swap2\n      pop\n      pop\n      jump\t// out\n        /* \"#utility.yul\":9337:10333   */\n    tag_399:\n        /* \"#utility.yul\":9460:9465   */\n      0x00\n        /* \"#utility.yul\":9485:9593   */\n      tag_546\n        /* \"#utility.yul\":9501:9592   */\n      tag_547\n        /* \"#utility.yul\":9585:9591   */\n      dup5\n        /* \"#utility.yul\":9501:9592   */\n      tag_389\n      jump\t// in\n    tag_547:\n        /* \"#utility.yul\":9485:9593   */\n      tag_388\n      jump\t// in\n    tag_546:\n        /* \"#utility.yul\":9476:9593   */\n      swap1\n      pop\n        /* \"#utility.yul\":9613:9618   */\n      dup1\n        /* \"#utility.yul\":9642:9648   */\n      dup4\n        /* \"#utility.yul\":9635:9640   */\n      dup3\n        /* \"#utility.yul\":9628:9649   */\n      mstore\n        /* \"#utility.yul\":9676:9680   */\n      0x20\n        /* \"#utility.yul\":9669:9674   */\n      dup3\n        /* \"#utility.yul\":9665:9681   */\n      add\n        /* \"#utility.yul\":9658:9681   */\n      swap1\n      pop\n        /* \"#utility.yul\":9729:9733   */\n      0x20\n        /* \"#utility.yul\":9721:9727   */\n      dup5\n        /* \"#utility.yul\":9717:9734   */\n      mul\n        /* \"#utility.yul\":9709:9715   */\n      dup4\n        /* \"#utility.yul\":9705:9735   */\n      add\n        /* \"#utility.yul\":9758:9761   */\n      dup6\n        /* \"#utility.yul\":9750:9756   */\n      dup2\n        /* \"#utility.yul\":9747:9762   */\n      gt\n        /* \"#utility.yul\":9744:9866   */\n      iszero\n      tag_548\n      jumpi\n        /* \"#utility.yul\":9777:9856   */\n      tag_549\n      tag_390\n      jump\t// in\n    tag_549:\n        /* \"#utility.yul\":9744:9866   */\n    tag_548:\n        /* \"#utility.yul\":9892:9898   */\n      dup4\n        /* \"#utility.yul\":9875:10327   */\n    tag_550:\n        /* \"#utility.yul\":9909:9915   */\n      dup2\n        /* \"#utility.yul\":9904:9907   */\n      dup2\n        /* \"#utility.yul\":9901:9916   */\n      lt\n        /* \"#utility.yul\":9875:10327   */\n      iszero\n      tag_552\n      jumpi\n        /* \"#utility.yul\":9998:10001   */\n      dup1\n        /* \"#utility.yul\":9985:10002   */\n      calldataload\n        /* \"#utility.yul\":10034:10052   */\n      0xffffffffffffffff\n        /* \"#utility.yul\":10021:10032   */\n      dup2\n        /* \"#utility.yul\":10018:10053   */\n      gt\n        /* \"#utility.yul\":10015:10137   */\n      iszero\n      tag_553\n      jumpi\n        /* \"#utility.yul\":10056:10135   */\n      tag_554\n      tag_386\n      jump\t// in\n    tag_554:\n        /* \"#utility.yul\":10015:10137   */\n    tag_553:\n        /* \"#utility.yul\":10180:10191   */\n      dup1\n        /* \"#utility.yul\":10172:10178   */\n      dup7\n        /* \"#utility.yul\":10168:10192   */\n      add\n        /* \"#utility.yul\":10218:10282   */\n      tag_555\n        /* \"#utility.yul\":10278:10281   */\n      dup10\n        /* \"#utility.yul\":10266:10276   */\n      dup3\n        /* \"#utility.yul\":10218:10282   */\n      tag_398\n      jump\t// in\n    tag_555:\n        /* \"#utility.yul\":10213:10216   */\n      dup6\n        /* \"#utility.yul\":10206:10283   */\n      mstore\n        /* \"#utility.yul\":10312:10316   */\n      0x20\n        /* \"#utility.yul\":10307:10310   */\n      dup6\n        /* \"#utility.yul\":10303:10317   */\n      add\n        /* \"#utility.yul\":10296:10317   */\n      swap5\n      pop\n        /* \"#utility.yul\":9951:10327   */\n      pop\n      pop\n        /* \"#utility.yul\":9935:9939   */\n      0x20\n        /* \"#utility.yul\":9930:9933   */\n      dup2\n        /* \"#utility.yul\":9926:9940   */\n      add\n        /* \"#utility.yul\":9919:9940   */\n      swap1\n      pop\n        /* \"#utility.yul\":9875:10327   */\n      jump(tag_550)\n    tag_552:\n        /* \"#utility.yul\":9879:9900   */\n      pop\n        /* \"#utility.yul\":9466:10333   */\n      pop\n      pop\n        /* \"#utility.yul\":9337:10333   */\n      swap4\n      swap3\n      pop\n      pop\n      pop\n      jump\t// out\n        /* \"#utility.yul\":10375:10799   */\n    tag_400:\n        /* \"#utility.yul\":10473:10478   */\n      0x00\n        /* \"#utility.yul\":10522:10525   */\n      dup3\n        /* \"#utility.yul\":10515:10519   */\n      0x1f\n        /* \"#utility.yul\":10507:10513   */\n      dup4\n        /* \"#utility.yul\":10503:10520   */\n      add\n        /* \"#utility.yul\":10499:10526   */\n      slt\n        /* \"#utility.yul\":10489:10611   */\n      tag_557\n      jumpi\n        /* \"#utility.yul\":10530:10609   */\n      tag_558\n      tag_386\n      jump\t// in\n    tag_558:\n        /* \"#utility.yul\":10489:10611   */\n    tag_557:\n        /* \"#utility.yul\":10647:10653   */\n      dup2\n        /* \"#utility.yul\":10634:10654   */\n      calldataload\n        /* \"#utility.yul\":10672:10793   */\n      tag_559\n        /* \"#utility.yul\":10789:10792   */\n      dup5\n        /* \"#utility.yul\":10781:10787   */\n      dup3\n        /* \"#utility.yul\":10774:10778   */\n      0x20\n        /* \"#utility.yul\":10766:10772   */\n      dup7\n        /* \"#utility.yul\":10762:10779   */\n      add\n        /* \"#utility.yul\":10672:10793   */\n      tag_399\n      jump\t// in\n    tag_559:\n        /* \"#utility.yul\":10663:10793   */\n      swap2\n      pop\n        /* \"#utility.yul\":10479:10799   */\n      pop\n        /* \"#utility.yul\":10375:10799   */\n      swap3\n      swap2\n      pop\n      pop\n      jump\t// out\n        /* \"#utility.yul\":10805:11398   */\n    tag_56:\n        /* \"#utility.yul\":10916:10922   */\n      0x00\n        /* \"#utility.yul\":10965:10967   */\n      0x20\n        /* \"#utility.yul\":10953:10962   */\n      dup3\n        /* \"#utility.yul\":10944:10951   */\n      dup5\n        /* \"#utility.yul\":10940:10963   */\n      sub\n        /* \"#utility.yul\":10936:10968   */\n      slt\n        /* \"#utility.yul\":10933:11052   */\n      iszero\n      tag_561\n      jumpi\n        /* \"#utility.yul\":10971:11050   */\n      tag_562\n      tag_366\n      jump\t// in\n    tag_562:\n        /* \"#utility.yul\":10933:11052   */\n    tag_561:\n        /* \"#utility.yul\":11119:11120   */\n      0x00\n        /* \"#utility.yul\":11108:11117   */\n      dup3\n        /* \"#utility.yul\":11104:11121   */\n      add\n        /* \"#utility.yul\":11091:11122   */\n      calldataload\n        /* \"#utility.yul\":11149:11167   */\n      0xffffffffffffffff\n        /* \"#utility.yul\":11141:11147   */\n      dup2\n        /* \"#utility.yul\":11138:11168   */\n      gt\n        /* \"#utility.yul\":11135:11252   */\n      iszero\n      tag_563\n      jumpi\n        /* \"#utility.yul\":11171:11250   */\n      tag_564\n      tag_367\n      jump\t// in\n    tag_564:\n        /* \"#utility.yul\":11135:11252   */\n    tag_563:\n        /* \"#utility.yul\":11276:11381   */\n      tag_565\n        /* \"#utility.yul\":11373:11380   */\n      dup5\n        /* \"#utility.yul\":11364:11370   */\n      dup3\n        /* \"#utility.yul\":11353:11362   */\n      dup6\n        /* \"#utility.yul\":11349:11371   */\n      add\n        /* \"#utility.yul\":11276:11381   */\n      tag_400\n      jump\t// in\n    tag_565:\n        /* \"#utility.yul\":11266:11381   */\n      swap2\n      pop\n        /* \"#utility.yul\":11062:11391   */\n      pop\n        /* \"#utility.yul\":10805:11398   */\n      swap3\n      swap2\n      pop\n      pop\n      jump\t// out\n        /* \"#utility.yul\":11404:11550   */\n    tag_401:\n        /* \"#utility.yul\":11503:11509   */\n      0x00\n        /* \"#utility.yul\":11537:11542   */\n      dup2\n        /* \"#utility.yul\":11531:11543   */\n      mload\n        /* \"#utility.yul\":11521:11543   */\n      swap1\n      pop\n        /* \"#utility.yul\":11404:11550   */\n      swap2\n      swap1\n      pop\n      jump\t// out\n        /* \"#utility.yul\":11556:11772   */\n    tag_402:\n        /* \"#utility.yul\":11687:11698   */\n      0x00\n        /* \"#utility.yul\":11721:11727   */\n      dup3\n        /* \"#utility.yul\":11716:11719   */\n      dup3\n        /* \"#utility.yul\":11709:11728   */\n      mstore\n        /* \"#utility.yul\":11761:11765   */\n      0x20\n        /* \"#utility.yul\":11756:11759   */\n      dup3\n        /* \"#utility.yul\":11752:11766   */\n      add\n        /* \"#utility.yul\":11737:11766   */\n      swap1\n      pop\n        /* \"#utility.yul\":11556:11772   */\n      swap3\n      swap2\n      pop\n      pop\n      jump\t// out\n        /* \"#utility.yul\":11778:11942   */\n    tag_403:\n        /* \"#utility.yul\":11877:11881   */\n      0x00\n        /* \"#utility.yul\":11900:11903   */\n      dup2\n        /* \"#utility.yul\":11892:11903   */\n      swap1\n      pop\n        /* \"#utility.yul\":11930:11934   */\n      0x20\n        /* \"#utility.yul\":11925:11928   */\n      dup3\n        /* \"#utility.yul\":11921:11935   */\n      add\n        /* \"#utility.yul\":11913:11935   */\n      swap1\n      pop\n        /* \"#utility.yul\":11778:11942   */\n      swap2\n      swap1\n      pop\n      jump\t// out\n        /* \"#utility.yul\":11948:12056   */\n    tag_404:\n        /* \"#utility.yul\":12025:12049   */\n      tag_570\n        /* \"#utility.yul\":12043:12048   */\n      dup2\n        /* \"#utility.yul\":12025:12049   */\n      tag_378\n      jump\t// in\n    tag_570:\n        /* \"#utility.yul\":12020:12023   */\n      dup3\n        /* \"#utility.yul\":12013:12050   */\n      mstore\n        /* \"#utility.yul\":11948:12056   */\n      pop\n      pop\n      jump\t// out\n        /* \"#utility.yul\":12136:12653   */\n    tag_405:\n        /* \"#utility.yul\":12287:12291   */\n      0x40\n        /* \"#utility.yul\":12282:12285   */\n      dup3\n        /* \"#utility.yul\":12278:12292   */\n      add\n        /* \"#utility.yul\":12377:12381   */\n      0x00\n        /* \"#utility.yul\":12370:12375   */\n      dup3\n        /* \"#utility.yul\":12366:12382   */\n      add\n        /* \"#utility.yul\":12360:12383   */\n      mload\n        /* \"#utility.yul\":12396:12459   */\n      tag_572\n        /* \"#utility.yul\":12453:12457   */\n      0x00\n        /* \"#utility.yul\":12448:12451   */\n      dup6\n        /* \"#utility.yul\":12444:12458   */\n      add\n        /* \"#utility.yul\":12430:12442   */\n      dup3\n        /* \"#utility.yul\":12396:12459   */\n      tag_404\n      jump\t// in\n    tag_572:\n        /* \"#utility.yul\":12302:12469   */\n      pop\n        /* \"#utility.yul\":12554:12558   */\n      0x20\n        /* \"#utility.yul\":12547:12552   */\n      dup3\n        /* \"#utility.yul\":12543:12559   */\n      add\n        /* \"#utility.yul\":12537:12560   */\n      mload\n        /* \"#utility.yul\":12573:12636   */\n      tag_573\n        /* \"#utility.yul\":12630:12634   */\n      0x20\n        /* \"#utility.yul\":12625:12628   */\n      dup6\n        /* \"#utility.yul\":12621:12635   */\n      add\n        /* \"#utility.yul\":12607:12619   */\n      dup3\n        /* \"#utility.yul\":12573:12636   */\n      tag_404\n      jump\t// in\n    tag_573:\n        /* \"#utility.yul\":12479:12646   */\n      pop\n        /* \"#utility.yul\":12256:12653   */\n      pop\n        /* \"#utility.yul\":12136:12653   */\n      pop\n      pop\n      jump\t// out\n        /* \"#utility.yul\":12659:12966   */\n    tag_406:\n        /* \"#utility.yul\":12792:12802   */\n      0x00\n        /* \"#utility.yul\":12813:12923   */\n      tag_575\n        /* \"#utility.yul\":12919:12922   */\n      dup4\n        /* \"#utility.yul\":12911:12917   */\n      dup4\n        /* \"#utility.yul\":12813:12923   */\n      tag_405\n      jump\t// in\n    tag_575:\n        /* \"#utility.yul\":12955:12959   */\n      0x40\n        /* \"#utility.yul\":12950:12953   */\n      dup4\n        /* \"#utility.yul\":12946:12960   */\n      add\n        /* \"#utility.yul\":12932:12960   */\n      swap1\n      pop\n        /* \"#utility.yul\":12659:12966   */\n      swap3\n      swap2\n      pop\n      pop\n      jump\t// out\n        /* \"#utility.yul\":12972:13117   */\n    tag_407:\n        /* \"#utility.yul\":13074:13078   */\n      0x00\n        /* \"#utility.yul\":13106:13110   */\n      0x20\n        /* \"#utility.yul\":13101:13104   */\n      dup3\n        /* \"#utility.yul\":13097:13111   */\n      add\n        /* \"#utility.yul\":13089:13111   */\n      swap1\n      pop\n        /* \"#utility.yul\":12972:13117   */\n      swap2\n      swap1\n      pop\n      jump\t// out\n        /* \"#utility.yul\":13201:14189   */\n    tag_408:\n        /* \"#utility.yul\":13384:13387   */\n      0x00\n        /* \"#utility.yul\":13413:13499   */\n      tag_578\n        /* \"#utility.yul\":13493:13498   */\n      dup3\n        /* \"#utility.yul\":13413:13499   */\n      tag_401\n      jump\t// in\n    tag_578:\n        /* \"#utility.yul\":13515:13633   */\n      tag_579\n        /* \"#utility.yul\":13626:13632   */\n      dup2\n        /* \"#utility.yul\":13621:13624   */\n      dup6\n        /* \"#utility.yul\":13515:13633   */\n      tag_402\n      jump\t// in\n    tag_579:\n        /* \"#utility.yul\":13508:13633   */\n      swap4\n      pop\n        /* \"#utility.yul\":13657:13745   */\n      tag_580\n        /* \"#utility.yul\":13739:13744   */\n      dup4\n        /* \"#utility.yul\":13657:13745   */\n      tag_403\n      jump\t// in\n    tag_580:\n        /* \"#utility.yul\":13768:13775   */\n      dup1\n        /* \"#utility.yul\":13799:13800   */\n      0x00\n        /* \"#utility.yul\":13784:14164   */\n    tag_581:\n        /* \"#utility.yul\":13809:13815   */\n      dup4\n        /* \"#utility.yul\":13806:13807   */\n      dup2\n        /* \"#utility.yul\":13803:13816   */\n      lt\n        /* \"#utility.yul\":13784:14164   */\n      iszero\n      tag_583\n      jumpi\n        /* \"#utility.yul\":13885:13891   */\n      dup2\n        /* \"#utility.yul\":13879:13892   */\n      mload\n        /* \"#utility.yul\":13912:14039   */\n      tag_584\n        /* \"#utility.yul\":14035:14038   */\n      dup9\n        /* \"#utility.yul\":14020:14033   */\n      dup3\n        /* \"#utility.yul\":13912:14039   */\n      tag_406\n      jump\t// in\n    tag_584:\n        /* \"#utility.yul\":13905:14039   */\n      swap8\n      pop\n        /* \"#utility.yul\":14062:14154   */\n      tag_585\n        /* \"#utility.yul\":14147:14153   */\n      dup4\n        /* \"#utility.yul\":14062:14154   */\n      tag_407\n      jump\t// in\n    tag_585:\n        /* \"#utility.yul\":14052:14154   */\n      swap3\n      pop\n        /* \"#utility.yul\":13844:14164   */\n      pop\n        /* \"#utility.yul\":13831:13832   */\n      0x01\n        /* \"#utility.yul\":13828:13829   */\n      dup2\n        /* \"#utility.yul\":13824:13833   */\n      add\n        /* \"#utility.yul\":13819:13833   */\n      swap1\n      pop\n        /* \"#utility.yul\":13784:14164   */\n      jump(tag_581)\n    tag_583:\n        /* \"#utility.yul\":13788:13802   */\n      pop\n        /* \"#utility.yul\":14180:14183   */\n      dup6\n        /* \"#utility.yul\":14173:14183   */\n      swap4\n      pop\n        /* \"#utility.yul\":13389:14189   */\n      pop\n      pop\n      pop\n        /* \"#utility.yul\":13201:14189   */\n      swap3\n      swap2\n      pop\n      pop\n      jump\t// out\n        /* \"#utility.yul\":14195:14696   */\n    tag_59:\n        /* \"#utility.yul\":14402:14406   */\n      0x00\n        /* \"#utility.yul\":14440:14442   */\n      0x20\n        /* \"#utility.yul\":14429:14438   */\n      dup3\n        /* \"#utility.yul\":14425:14443   */\n      add\n        /* \"#utility.yul\":14417:14443   */\n      swap1\n      pop\n        /* \"#utility.yul\":14489:14498   */\n      dup2\n        /* \"#utility.yul\":14483:14487   */\n      dup2\n        /* \"#utility.yul\":14479:14499   */\n      sub\n        /* \"#utility.yul\":14475:14476   */\n      0x00\n        /* \"#utility.yul\":14464:14473   */\n      dup4\n        /* \"#utility.yul\":14460:14477   */\n      add\n        /* \"#utility.yul\":14453:14500   */\n      mstore\n        /* \"#utility.yul\":14517:14689   */\n      tag_587\n        /* \"#utility.yul\":14684:14688   */\n      dup2\n        /* \"#utility.yul\":14675:14681   */\n      dup5\n        /* \"#utility.yul\":14517:14689   */\n      tag_408\n      jump\t// in\n    tag_587:\n        /* \"#utility.yul\":14509:14689   */\n      swap1\n      pop\n        /* \"#utility.yul\":14195:14696   */\n      swap3\n      swap2\n      pop\n      pop\n      jump\t// out\n        /* \"#utility.yul\":14702:15031   */\n    tag_66:\n        /* \"#utility.yul\":14761:14767   */\n      0x00\n        /* \"#utility.yul\":14810:14812   */\n      0x20\n        /* \"#utility.yul\":14798:14807   */\n      dup3\n        /* \"#utility.yul\":14789:14796   */\n      dup5\n        /* \"#utility.yul\":14785:14808   */\n      sub\n        /* \"#utility.yul\":14781:14813   */\n      slt\n        /* \"#utility.yul\":14778:14897   */\n      iszero\n      tag_589\n      jumpi\n        /* \"#utility.yul\":14816:14895   */\n      tag_590\n      tag_366\n      jump\t// in\n    tag_590:\n        /* \"#utility.yul\":14778:14897   */\n    tag_589:\n        /* \"#utility.yul\":14936:14937   */\n      0x00\n        /* \"#utility.yul\":14961:15014   */\n      tag_591\n        /* \"#utility.yul\":15006:15013   */\n      dup5\n        /* \"#utility.yul\":14997:15003   */\n      dup3\n        /* \"#utility.yul\":14986:14995   */\n      dup6\n        /* \"#utility.yul\":14982:15004   */\n      add\n        /* \"#utility.yul\":14961:15014   */\n      tag_385\n      jump\t// in\n    tag_591:\n        /* \"#utility.yul\":14951:15014   */\n      swap2\n      pop\n        /* \"#utility.yul\":14907:15024   */\n      pop\n        /* \"#utility.yul\":14702:15031   */\n      swap3\n      swap2\n      pop\n      pop\n      jump\t// out\n        /* \"#utility.yul\":15037:15155   */\n    tag_409:\n        /* \"#utility.yul\":15124:15148   */\n      tag_593\n        /* \"#utility.yul\":15142:15147   */\n      dup2\n        /* \"#utility.yul\":15124:15148   */\n      tag_378\n      jump\t// in\n    tag_593:\n        /* \"#utility.yul\":15119:15122   */\n      dup3\n        /* \"#utility.yul\":15112:15149   */\n      mstore\n        /* \"#utility.yul\":15037:15155   */\n      pop\n      pop\n      jump\t// out\n        /* \"#utility.yul\":15161:15383   */\n    tag_69:\n        /* \"#utility.yul\":15254:15258   */\n      0x00\n        /* \"#utility.yul\":15292:15294   */\n      0x20\n        /* \"#utility.yul\":15281:15290   */\n      dup3\n        /* \"#utility.yul\":15277:15295   */\n      add\n        /* \"#utility.yul\":15269:15295   */\n      swap1\n      pop\n        /* \"#utility.yul\":15305:15376   */\n      tag_595\n        /* \"#utility.yul\":15373:15374   */\n      0x00\n        /* \"#utility.yul\":15362:15371   */\n      dup4\n        /* \"#utility.yul\":15358:15375   */\n      add\n        /* \"#utility.yul\":15349:15355   */\n      dup5\n        /* \"#utility.yul\":15305:15376   */\n      tag_409\n      jump\t// in\n    tag_595:\n        /* \"#utility.yul\":15161:15383   */\n      swap3\n      swap2\n      pop\n      pop\n      jump\t// out\n        /* \"#utility.yul\":15389:15505   */\n    tag_410:\n        /* \"#utility.yul\":15459:15480   */\n      tag_597\n        /* \"#utility.yul\":15474:15479   */\n      dup2\n        /* \"#utility.yul\":15459:15480   */\n      tag_371\n      jump\t// in\n    tag_597:\n        /* \"#utility.yul\":15452:15457   */\n      dup2\n        /* \"#utility.yul\":15449:15481   */\n      eq\n        /* \"#utility.yul\":15439:15499   */\n      tag_598\n      jumpi\n        /* \"#utility.yul\":15495:15496   */\n      0x00\n        /* \"#utility.yul\":15492:15493   */\n      dup1\n        /* \"#utility.yul\":15485:15497   */\n      revert\n        /* \"#utility.yul\":15439:15499   */\n    tag_598:\n        /* \"#utility.yul\":15389:15505   */\n      pop\n      jump\t// out\n        /* \"#utility.yul\":15511:15644   */\n    tag_411:\n        /* \"#utility.yul\":15554:15559   */\n      0x00\n        /* \"#utility.yul\":15592:15598   */\n      dup2\n        /* \"#utility.yul\":15579:15599   */\n      calldataload\n        /* \"#utility.yul\":15570:15599   */\n      swap1\n      pop\n        /* \"#utility.yul\":15608:15638   */\n      tag_600\n        /* \"#utility.yul\":15632:15637   */\n      dup2\n        /* \"#utility.yul\":15608:15638   */\n      tag_410\n      jump\t// in\n    tag_600:\n        /* \"#utility.yul\":15511:15644   */\n      swap3\n      swap2\n      pop\n      pop\n      jump\t// out\n        /* \"#utility.yul\":15650:16118   */\n    tag_90:\n        /* \"#utility.yul\":15715:15721   */\n      0x00\n        /* \"#utility.yul\":15723:15729   */\n      dup1\n        /* \"#utility.yul\":15772:15774   */\n      0x40\n        /* \"#utility.yul\":15760:15769   */\n      dup4\n        /* \"#utility.yul\":15751:15758   */\n      dup6\n        /* \"#utility.yul\":15747:15770   */\n      sub\n        /* \"#utility.yul\":15743:15775   */\n      slt\n        /* \"#utility.yul\":15740:15859   */\n      iszero\n      tag_602\n      jumpi\n        /* \"#utility.yul\":15778:15857   */\n      tag_603\n      tag_366\n      jump\t// in\n    tag_603:\n        /* \"#utility.yul\":15740:15859   */\n    tag_602:\n        /* \"#utility.yul\":15898:15899   */\n      0x00\n        /* \"#utility.yul\":15923:15976   */\n      tag_604\n        /* \"#utility.yul\":15968:15975   */\n      dup6\n        /* \"#utility.yul\":15959:15965   */\n      dup3\n        /* \"#utility.yul\":15948:15957   */\n      dup7\n        /* \"#utility.yul\":15944:15966   */\n      add\n        /* \"#utility.yul\":15923:15976   */\n      tag_385\n      jump\t// in\n    tag_604:\n        /* \"#utility.yul\":15913:15976   */\n      swap3\n      pop\n        /* \"#utility.yul\":15869:15986   */\n      pop\n        /* \"#utility.yul\":16025:16027   */\n      0x20\n        /* \"#utility.yul\":16051:16101   */\n      tag_605\n        /* \"#utility.yul\":16093:16100   */\n      dup6\n        /* \"#utility.yul\":16084:16090   */\n      dup3\n        /* \"#utility.yul\":16073:16082   */\n      dup7\n        /* \"#utility.yul\":16069:16091   */\n      add\n        /* \"#utility.yul\":16051:16101   */\n      tag_411\n      jump\t// in\n    tag_605:\n        /* \"#utility.yul\":16041:16101   */\n      swap2\n      pop\n        /* \"#utility.yul\":15996:16111   */\n      pop\n        /* \"#utility.yul\":15650:16118   */\n      swap3\n      pop\n      swap3\n      swap1\n      pop\n      jump\t// out\n        /* \"#utility.yul\":16124:16431   */\n    tag_412:\n        /* \"#utility.yul\":16185:16189   */\n      0x00\n        /* \"#utility.yul\":16275:16293   */\n      0xffffffffffffffff\n        /* \"#utility.yul\":16267:16273   */\n      dup3\n        /* \"#utility.yul\":16264:16294   */\n      gt\n        /* \"#utility.yul\":16261:16317   */\n      iszero\n      tag_607\n      jumpi\n        /* \"#utility.yul\":16297:16315   */\n      tag_608\n      tag_149\n      jump\t// in\n    tag_608:\n        /* \"#utility.yul\":16261:16317   */\n    tag_607:\n        /* \"#utility.yul\":16335:16364   */\n      tag_609\n        /* \"#utility.yul\":16357:16363   */\n      dup3\n        /* \"#utility.yul\":16335:16364   */\n      tag_376\n      jump\t// in\n    tag_609:\n        /* \"#utility.yul\":16327:16364   */\n      swap1\n      pop\n        /* \"#utility.yul\":16419:16423   */\n      0x20\n        /* \"#utility.yul\":16413:16417   */\n      dup2\n        /* \"#utility.yul\":16409:16424   */\n      add\n        /* \"#utility.yul\":16401:16424   */\n      swap1\n      pop\n        /* \"#utility.yul\":16124:16431   */\n      swap2\n      swap1\n      pop\n      jump\t// out\n        /* \"#utility.yul\":16437:16860   */\n    tag_413:\n        /* \"#utility.yul\":16514:16519   */\n      0x00\n        /* \"#utility.yul\":16539:16604   */\n      tag_611\n        /* \"#utility.yul\":16555:16603   */\n      tag_612\n        /* \"#utility.yul\":16596:16602   */\n      dup5\n        /* \"#utility.yul\":16555:16603   */\n      tag_412\n      jump\t// in\n    tag_612:\n        /* \"#utility.yul\":16539:16604   */\n      tag_388\n      jump\t// in\n    tag_611:\n        /* \"#utility.yul\":16530:16604   */\n      swap1\n      pop\n        /* \"#utility.yul\":16627:16633   */\n      dup3\n        /* \"#utility.yul\":16620:16625   */\n      dup2\n        /* \"#utility.yul\":16613:16634   */\n      mstore\n        /* \"#utility.yul\":16665:16669   */\n      0x20\n        /* \"#utility.yul\":16658:16663   */\n      dup2\n        /* \"#utility.yul\":16654:16670   */\n      add\n        /* \"#utility.yul\":16703:16706   */\n      dup5\n        /* \"#utility.yul\":16694:16700   */\n      dup5\n        /* \"#utility.yul\":16689:16692   */\n      dup5\n        /* \"#utility.yul\":16685:16701   */\n      add\n        /* \"#utility.yul\":16682:16707   */\n      gt\n        /* \"#utility.yul\":16679:16791   */\n      iszero\n      tag_613\n      jumpi\n        /* \"#utility.yul\":16710:16789   */\n      tag_614\n      tag_393\n      jump\t// in\n    tag_614:\n        /* \"#utility.yul\":16679:16791   */\n    tag_613:\n        /* \"#utility.yul\":16800:16854   */\n      tag_615\n        /* \"#utility.yul\":16847:16853   */\n      dup5\n        /* \"#utility.yul\":16842:16845   */\n      dup3\n        /* \"#utility.yul\":16837:16840   */\n      dup6\n        /* \"#utility.yul\":16800:16854   */\n      tag_395\n      jump\t// in\n    tag_615:\n        /* \"#utility.yul\":16520:16860   */\n      pop\n        /* \"#utility.yul\":16437:16860   */\n      swap4\n      swap3\n      pop\n      pop\n      pop\n      jump\t// out\n        /* \"#utility.yul\":16879:17217   */\n    tag_414:\n        /* \"#utility.yul\":16934:16939   */\n      0x00\n        /* \"#utility.yul\":16983:16986   */\n      dup3\n        /* \"#utility.yul\":16976:16980   */\n      0x1f\n        /* \"#utility.yul\":16968:16974   */\n      dup4\n        /* \"#utility.yul\":16964:16981   */\n      add\n        /* \"#utility.yul\":16960:16987   */\n      slt\n        /* \"#utility.yul\":16950:17072   */\n      tag_617\n      jumpi\n        /* \"#utility.yul\":16991:17070   */\n      tag_618\n      tag_386\n      jump\t// in\n    tag_618:\n        /* \"#utility.yul\":16950:17072   */\n    tag_617:\n        /* \"#utility.yul\":17108:17114   */\n      dup2\n        /* \"#utility.yul\":17095:17115   */\n      calldataload\n        /* \"#utility.yul\":17133:17211   */\n      tag_619\n        /* \"#utility.yul\":17207:17210   */\n      dup5\n        /* \"#utility.yul\":17199:17205   */\n      dup3\n        /* \"#utility.yul\":17192:17196   */\n      0x20\n        /* \"#utility.yul\":17184:17190   */\n      dup7\n        /* \"#utility.yul\":17180:17197   */\n      add\n        /* \"#utility.yul\":17133:17211   */\n      tag_413\n      jump\t// in\n    tag_619:\n        /* \"#utility.yul\":17124:17211   */\n      swap2\n      pop\n        /* \"#utility.yul\":16940:17217   */\n      pop\n        /* \"#utility.yul\":16879:17217   */\n      swap3\n      swap2\n      pop\n      pop\n      jump\t// out\n        /* \"#utility.yul\":17223:18166   */\n    tag_94:\n        /* \"#utility.yul\":17318:17324   */\n      0x00\n        /* \"#utility.yul\":17326:17332   */\n      dup1\n        /* \"#utility.yul\":17334:17340   */\n      0x00\n        /* \"#utility.yul\":17342:17348   */\n      dup1\n        /* \"#utility.yul\":17391:17394   */\n      0x80\n        /* \"#utility.yul\":17379:17388   */\n      dup6\n        /* \"#utility.yul\":17370:17377   */\n      dup8\n        /* \"#utility.yul\":17366:17389   */\n      sub\n        /* \"#utility.yul\":17362:17395   */\n      slt\n        /* \"#utility.yul\":17359:17479   */\n      iszero\n      tag_621\n      jumpi\n        /* \"#utility.yul\":17398:17477   */\n      tag_622\n      tag_366\n      jump\t// in\n    tag_622:\n        /* \"#utility.yul\":17359:17479   */\n    tag_621:\n        /* \"#utility.yul\":17518:17519   */\n      0x00\n        /* \"#utility.yul\":17543:17596   */\n      tag_623\n        /* \"#utility.yul\":17588:17595   */\n      dup8\n        /* \"#utility.yul\":17579:17585   */\n      dup3\n        /* \"#utility.yul\":17568:17577   */\n      dup9\n        /* \"#utility.yul\":17564:17586   */\n      add\n        /* \"#utility.yul\":17543:17596   */\n      tag_385\n      jump\t// in\n    tag_623:\n        /* \"#utility.yul\":17533:17596   */\n      swap5\n      pop\n        /* \"#utility.yul\":17489:17606   */\n      pop\n        /* \"#utility.yul\":17645:17647   */\n      0x20\n        /* \"#utility.yul\":17671:17724   */\n      tag_624\n        /* \"#utility.yul\":17716:17723   */\n      dup8\n        /* \"#utility.yul\":17707:17713   */\n      dup3\n        /* \"#utility.yul\":17696:17705   */\n      dup9\n        /* \"#utility.yul\":17692:17714   */\n      add\n        /* \"#utility.yul\":17671:17724   */\n      tag_385\n      jump\t// in\n    tag_624:\n        /* \"#utility.yul\":17661:17724   */\n      swap4\n      pop\n        /* \"#utility.yul\":17616:17734   */\n      pop\n        /* \"#utility.yul\":17773:17775   */\n      0x40\n        /* \"#utility.yul\":17799:17852   */\n      tag_625\n        /* \"#utility.yul\":17844:17851   */\n      dup8\n        /* \"#utility.yul\":17835:17841   */\n      dup3\n        /* \"#utility.yul\":17824:17833   */\n      dup9\n        /* \"#utility.yul\":17820:17842   */\n      add\n        /* \"#utility.yul\":17799:17852   */\n      tag_380\n      jump\t// in\n    tag_625:\n        /* \"#utility.yul\":17789:17852   */\n      swap3\n      pop\n        /* \"#utility.yul\":17744:17862   */\n      pop\n        /* \"#utility.yul\":17929:17931   */\n      0x60\n        /* \"#utility.yul\":17918:17927   */\n      dup6\n        /* \"#utility.yul\":17914:17932   */\n      add\n        /* \"#utility.yul\":17901:17933   */\n      calldataload\n        /* \"#utility.yul\":17960:17978   */\n      0xffffffffffffffff\n        /* \"#utility.yul\":17952:17958   */\n      dup2\n        /* \"#utility.yul\":17949:17979   */\n      gt\n        /* \"#utility.yul\":17946:18063   */\n      iszero\n      tag_626\n      jumpi\n        /* \"#utility.yul\":17982:18061   */\n      tag_627\n      tag_367\n      jump\t// in\n    tag_627:\n        /* \"#utility.yul\":17946:18063   */\n    tag_626:\n        /* \"#utility.yul\":18087:18149   */\n      tag_628\n        /* \"#utility.yul\":18141:18148   */\n      dup8\n        /* \"#utility.yul\":18132:18138   */\n      dup3\n        /* \"#utility.yul\":18121:18130   */\n      dup9\n        /* \"#utility.yul\":18117:18139   */\n      add\n        /* \"#utility.yul\":18087:18149   */\n      tag_414\n      jump\t// in\n    tag_628:\n        /* \"#utility.yul\":18077:18149   */\n      swap2\n      pop\n        /* \"#utility.yul\":17872:18159   */\n      pop\n        /* \"#utility.yul\":17223:18166   */\n      swap3\n      swap6\n      swap2\n      swap5\n      pop\n      swap3\n      pop\n      jump\t// out\n        /* \"#utility.yul\":18172:18646   */\n    tag_105:\n        /* \"#utility.yul\":18240:18246   */\n      0x00\n        /* \"#utility.yul\":18248:18254   */\n      dup1\n        /* \"#utility.yul\":18297:18299   */\n      0x40\n        /* \"#utility.yul\":18285:18294   */\n      dup4\n        /* \"#utility.yul\":18276:18283   */\n      dup6\n        /* \"#utility.yul\":18272:18295   */\n      sub\n        /* \"#utility.yul\":18268:18300   */\n      slt\n        /* \"#utility.yul\":18265:18384   */\n      iszero\n      tag_630\n      jumpi\n        /* \"#utility.yul\":18303:18382   */\n      tag_631\n      tag_366\n      jump\t// in\n    tag_631:\n        /* \"#utility.yul\":18265:18384   */\n    tag_630:\n        /* \"#utility.yul\":18423:18424   */\n      0x00\n        /* \"#utility.yul\":18448:18501   */\n      tag_632\n        /* \"#utility.yul\":18493:18500   */\n      dup6\n        /* \"#utility.yul\":18484:18490   */\n      dup3\n        /* \"#utility.yul\":18473:18482   */\n      dup7\n        /* \"#utility.yul\":18469:18491   */\n      add\n        /* \"#utility.yul\":18448:18501   */\n      tag_385\n      jump\t// in\n    tag_632:\n        /* \"#utility.yul\":18438:18501   */\n      swap3\n      pop\n        /* \"#utility.yul\":18394:18511   */\n      pop\n        /* \"#utility.yul\":18550:18552   */\n      0x20\n        /* \"#utility.yul\":18576:18629   */\n      tag_633\n        /* \"#utility.yul\":18621:18628   */\n      dup6\n        /* \"#utility.yul\":18612:18618   */\n      dup3\n        /* \"#utility.yul\":18601:18610   */\n      dup7\n        /* \"#utility.yul\":18597:18619   */\n      add\n        /* \"#utility.yul\":18576:18629   */\n      tag_385\n      jump\t// in\n    tag_633:\n        /* \"#utility.yul\":18566:18629   */\n      swap2\n      pop\n        /* \"#utility.yul\":18521:18639   */\n      pop\n        /* \"#utility.yul\":18172:18646   */\n      swap3\n      pop\n      swap3\n      swap1\n      pop\n      jump\t// out\n        /* \"#utility.yul\":18652:18832   */\n    tag_415:\n        /* \"#utility.yul\":18700:18777   */\n      0x4e487b7100000000000000000000000000000000000000000000000000000000\n        /* \"#utility.yul\":18697:18698   */\n      0x00\n        /* \"#utility.yul\":18690:18778   */\n      mstore\n        /* \"#utility.yul\":18797:18801   */\n      0x22\n        /* \"#utility.yul\":18794:18795   */\n      0x04\n        /* \"#utility.yul\":18787:18802   */\n      mstore\n        /* \"#utility.yul\":18821:18825   */\n      0x24\n        /* \"#utility.yul\":18818:18819   */\n      0x00\n        /* \"#utility.yul\":18811:18826   */\n      revert\n        /* \"#utility.yul\":18838:19158   */\n    tag_117:\n        /* \"#utility.yul\":18882:18888   */\n      0x00\n        /* \"#utility.yul\":18919:18920   */\n      0x02\n        /* \"#utility.yul\":18913:18917   */\n      dup3\n        /* \"#utility.yul\":18909:18921   */\n      div\n        /* \"#utility.yul\":18899:18921   */\n      swap1\n      pop\n        /* \"#utility.yul\":18966:18967   */\n      0x01\n        /* \"#utility.yul\":18960:18964   */\n      dup3\n        /* \"#utility.yul\":18956:18968   */\n      and\n        /* \"#utility.yul\":18987:19005   */\n      dup1\n        /* \"#utility.yul\":18977:19058   */\n      tag_636\n      jumpi\n        /* \"#utility.yul\":19043:19047   */\n      0x7f\n        /* \"#utility.yul\":19035:19041   */\n      dup3\n        /* \"#utility.yul\":19031:19048   */\n      and\n        /* \"#utility.yul\":19021:19048   */\n      swap2\n      pop\n        /* \"#utility.yul\":18977:19058   */\n    tag_636:\n        /* \"#utility.yul\":19105:19107   */\n      0x20\n        /* \"#utility.yul\":19097:19103   */\n      dup3\n        /* \"#utility.yul\":19094:19108   */\n      lt\n        /* \"#utility.yul\":19074:19092   */\n      dup2\n        /* \"#utility.yul\":19071:19109   */\n      sub\n        /* \"#utility.yul\":19068:19152   */\n      tag_637\n      jumpi\n        /* \"#utility.yul\":19124:19142   */\n      tag_638\n      tag_415\n      jump\t// in\n    tag_638:\n        /* \"#utility.yul\":19068:19152   */\n    tag_637:\n        /* \"#utility.yul\":18889:19158   */\n      pop\n        /* \"#utility.yul\":18838:19158   */\n      swap2\n      swap1\n      pop\n      jump\t// out\n        /* \"#utility.yul\":19164:19606   */\n    tag_140:\n        /* \"#utility.yul\":19313:19317   */\n      0x00\n        /* \"#utility.yul\":19351:19353   */\n      0x60\n        /* \"#utility.yul\":19340:19349   */\n      dup3\n        /* \"#utility.yul\":19336:19354   */\n      add\n        /* \"#utility.yul\":19328:19354   */\n      swap1\n      pop\n        /* \"#utility.yul\":19364:19435   */\n      tag_640\n        /* \"#utility.yul\":19432:19433   */\n      0x00\n        /* \"#utility.yul\":19421:19430   */\n      dup4\n        /* \"#utility.yul\":19417:19434   */\n      add\n        /* \"#utility.yul\":19408:19414   */\n      dup7\n        /* \"#utility.yul\":19364:19435   */\n      tag_383\n      jump\t// in\n    tag_640:\n        /* \"#utility.yul\":19445:19517   */\n      tag_641\n        /* \"#utility.yul\":19513:19515   */\n      0x20\n        /* \"#utility.yul\":19502:19511   */\n      dup4\n        /* \"#utility.yul\":19498:19516   */\n      add\n        /* \"#utility.yul\":19489:19495   */\n      dup6\n        /* \"#utility.yul\":19445:19517   */\n      tag_409\n      jump\t// in\n    tag_641:\n        /* \"#utility.yul\":19527:19599   */\n      tag_642\n        /* \"#utility.yul\":19595:19597   */\n      0x40\n        /* \"#utility.yul\":19584:19593   */\n      dup4\n        /* \"#utility.yul\":19580:19598   */\n      add\n        /* \"#utility.yul\":19571:19577   */\n      dup5\n        /* \"#utility.yul\":19527:19599   */\n      tag_383\n      jump\t// in\n    tag_642:\n        /* \"#utility.yul\":19164:19606   */\n      swap5\n      swap4\n      pop\n      pop\n      pop\n      pop\n      jump\t// out\n        /* \"#utility.yul\":19612:19842   */\n    tag_416:\n        /* \"#utility.yul\":19752:19786   */\n      0x4e6569746865722073656e646572206e6f7220726563697069656e7420697320\n        /* \"#utility.yul\":19748:19749   */\n      0x00\n        /* \"#utility.yul\":19740:19746   */\n      dup3\n        /* \"#utility.yul\":19736:19750   */\n      add\n        /* \"#utility.yul\":19729:19787   */\n      mstore\n        /* \"#utility.yul\":19821:19834   */\n      0x77686974656c6973746564000000000000000000000000000000000000000000\n        /* \"#utility.yul\":19816:19818   */\n      0x20\n        /* \"#utility.yul\":19808:19814   */\n      dup3\n        /* \"#utility.yul\":19804:19819   */\n      add\n        /* \"#utility.yul\":19797:19835   */\n      mstore\n        /* \"#utility.yul\":19612:19842   */\n      pop\n      jump\t// out\n        /* \"#utility.yul\":19848:20214   */\n    tag_417:\n        /* \"#utility.yul\":19990:19993   */\n      0x00\n        /* \"#utility.yul\":20011:20078   */\n      tag_645\n        /* \"#utility.yul\":20075:20077   */\n      0x2b\n        /* \"#utility.yul\":20070:20073   */\n      dup4\n        /* \"#utility.yul\":20011:20078   */\n      tag_374\n      jump\t// in\n    tag_645:\n        /* \"#utility.yul\":20004:20078   */\n      swap2\n      pop\n        /* \"#utility.yul\":20087:20180   */\n      tag_646\n        /* \"#utility.yul\":20176:20179   */\n      dup3\n        /* \"#utility.yul\":20087:20180   */\n      tag_416\n      jump\t// in\n    tag_646:\n        /* \"#utility.yul\":20205:20207   */\n      0x40\n        /* \"#utility.yul\":20200:20203   */\n      dup3\n        /* \"#utility.yul\":20196:20208   */\n      add\n        /* \"#utility.yul\":20189:20208   */\n      swap1\n      pop\n        /* \"#utility.yul\":19848:20214   */\n      swap2\n      swap1\n      pop\n      jump\t// out\n        /* \"#utility.yul\":20220:20639   */\n    tag_146:\n        /* \"#utility.yul\":20386:20390   */\n      0x00\n        /* \"#utility.yul\":20424:20426   */\n      0x20\n        /* \"#utility.yul\":20413:20422   */\n      dup3\n        /* \"#utility.yul\":20409:20427   */\n      add\n        /* \"#utility.yul\":20401:20427   */\n      swap1\n      pop\n        /* \"#utility.yul\":20473:20482   */\n      dup2\n        /* \"#utility.yul\":20467:20471   */\n      dup2\n        /* \"#utility.yul\":20463:20483   */\n      sub\n        /* \"#utility.yul\":20459:20460   */\n      0x00\n        /* \"#utility.yul\":20448:20457   */\n      dup4\n        /* \"#utility.yul\":20444:20461   */\n      add\n        /* \"#utility.yul\":20437:20484   */\n      mstore\n        /* \"#utility.yul\":20501:20632   */\n      tag_648\n        /* \"#utility.yul\":20627:20631   */\n      dup2\n        /* \"#utility.yul\":20501:20632   */\n      tag_417\n      jump\t// in\n    tag_648:\n        /* \"#utility.yul\":20493:20632   */\n      swap1\n      pop\n        /* \"#utility.yul\":20220:20639   */\n      swap2\n      swap1\n      pop\n      jump\t// out\n        /* \"#utility.yul\":20645:20825   */\n    tag_164:\n        /* \"#utility.yul\":20693:20770   */\n      0x4e487b7100000000000000000000000000000000000000000000000000000000\n        /* \"#utility.yul\":20690:20691   */\n      0x00\n        /* \"#utility.yul\":20683:20771   */\n      mstore\n        /* \"#utility.yul\":20790:20794   */\n      0x32\n        /* \"#utility.yul\":20787:20788   */\n      0x04\n        /* \"#utility.yul\":20780:20795   */\n      mstore\n        /* \"#utility.yul\":20814:20818   */\n      0x24\n        /* \"#utility.yul\":20811:20812   */\n      0x00\n        /* \"#utility.yul\":20804:20819   */\n      revert\n        /* \"#utility.yul\":20831:21273   */\n    tag_179:\n        /* \"#utility.yul\":20980:20984   */\n      0x00\n        /* \"#utility.yul\":21018:21020   */\n      0x60\n        /* \"#utility.yul\":21007:21016   */\n      dup3\n        /* \"#utility.yul\":21003:21021   */\n      add\n        /* \"#utility.yul\":20995:21021   */\n      swap1\n      pop\n        /* \"#utility.yul\":21031:21102   */\n      tag_651\n        /* \"#utility.yul\":21099:21100   */\n      0x00\n        /* \"#utility.yul\":21088:21097   */\n      dup4\n        /* \"#utility.yul\":21084:21101   */\n      add\n        /* \"#utility.yul\":21075:21081   */\n      dup7\n        /* \"#utility.yul\":21031:21102   */\n      tag_409\n      jump\t// in\n    tag_651:\n        /* \"#utility.yul\":21112:21184   */\n      tag_652\n        /* \"#utility.yul\":21180:21182   */\n      0x20\n        /* \"#utility.yul\":21169:21178   */\n      dup4\n        /* \"#utility.yul\":21165:21183   */\n      add\n        /* \"#utility.yul\":21156:21162   */\n      dup6\n        /* \"#utility.yul\":21112:21184   */\n      tag_409\n      jump\t// in\n    tag_652:\n        /* \"#utility.yul\":21194:21266   */\n      tag_653\n        /* \"#utility.yul\":21262:21264   */\n      0x40\n        /* \"#utility.yul\":21251:21260   */\n      dup4\n        /* \"#utility.yul\":21247:21265   */\n      add\n        /* \"#utility.yul\":21238:21244   */\n      dup5\n        /* \"#utility.yul\":21194:21266   */\n      tag_383\n      jump\t// in\n    tag_653:\n        /* \"#utility.yul\":20831:21273   */\n      swap5\n      swap4\n      pop\n      pop\n      pop\n      pop\n      jump\t// out\n        /* \"#utility.yul\":21279:21427   */\n    tag_418:\n        /* \"#utility.yul\":21381:21392   */\n      0x00\n        /* \"#utility.yul\":21418:21421   */\n      dup2\n        /* \"#utility.yul\":21403:21421   */\n      swap1\n      pop\n        /* \"#utility.yul\":21279:21427   */\n      swap3\n      swap2\n      pop\n      pop\n      jump\t// out\n        /* \"#utility.yul\":21433:21823   */\n    tag_419:\n        /* \"#utility.yul\":21539:21542   */\n      0x00\n        /* \"#utility.yul\":21567:21606   */\n      tag_656\n        /* \"#utility.yul\":21600:21605   */\n      dup3\n        /* \"#utility.yul\":21567:21606   */\n      tag_373\n      jump\t// in\n    tag_656:\n        /* \"#utility.yul\":21622:21711   */\n      tag_657\n        /* \"#utility.yul\":21704:21710   */\n      dup2\n        /* \"#utility.yul\":21699:21702   */\n      dup6\n        /* \"#utility.yul\":21622:21711   */\n      tag_418\n      jump\t// in\n    tag_657:\n        /* \"#utility.yul\":21615:21711   */\n      swap4\n      pop\n        /* \"#utility.yul\":21720:21785   */\n      tag_658\n        /* \"#utility.yul\":21778:21784   */\n      dup2\n        /* \"#utility.yul\":21773:21776   */\n      dup6\n        /* \"#utility.yul\":21766:21770   */\n      0x20\n        /* \"#utility.yul\":21759:21764   */\n      dup7\n        /* \"#utility.yul\":21755:21771   */\n      add\n        /* \"#utility.yul\":21720:21785   */\n      tag_375\n      jump\t// in\n    tag_658:\n        /* \"#utility.yul\":21810:21816   */\n      dup1\n        /* \"#utility.yul\":21805:21808   */\n      dup5\n        /* \"#utility.yul\":21801:21817   */\n      add\n        /* \"#utility.yul\":21794:21817   */\n      swap2\n      pop\n        /* \"#utility.yul\":21543:21823   */\n      pop\n        /* \"#utility.yul\":21433:21823   */\n      swap3\n      swap2\n      pop\n      pop\n      jump\t// out\n        /* \"#utility.yul\":21829:22264   */\n    tag_220:\n        /* \"#utility.yul\":22009:22012   */\n      0x00\n        /* \"#utility.yul\":22031:22126   */\n      tag_660\n        /* \"#utility.yul\":22122:22125   */\n      dup3\n        /* \"#utility.yul\":22113:22119   */\n      dup6\n        /* \"#utility.yul\":22031:22126   */\n      tag_419\n      jump\t// in\n    tag_660:\n        /* \"#utility.yul\":22024:22126   */\n      swap2\n      pop\n        /* \"#utility.yul\":22143:22238   */\n      tag_661\n        /* \"#utility.yul\":22234:22237   */\n      dup3\n        /* \"#utility.yul\":22225:22231   */\n      dup5\n        /* \"#utility.yul\":22143:22238   */\n      tag_419\n      jump\t// in\n    tag_661:\n        /* \"#utility.yul\":22136:22238   */\n      swap2\n      pop\n        /* \"#utility.yul\":22255:22258   */\n      dup2\n        /* \"#utility.yul\":22248:22258   */\n      swap1\n      pop\n        /* \"#utility.yul\":21829:22264   */\n      swap4\n      swap3\n      pop\n      pop\n      pop\n      jump\t// out\n        /* \"#utility.yul\":22270:22411   */\n    tag_420:\n        /* \"#utility.yul\":22319:22323   */\n      0x00\n        /* \"#utility.yul\":22342:22345   */\n      dup2\n        /* \"#utility.yul\":22334:22345   */\n      swap1\n      pop\n        /* \"#utility.yul\":22365:22368   */\n      dup2\n        /* \"#utility.yul\":22362:22363   */\n      0x00\n        /* \"#utility.yul\":22355:22369   */\n      mstore\n        /* \"#utility.yul\":22399:22403   */\n      0x20\n        /* \"#utility.yul\":22396:22397   */\n      0x00\n        /* \"#utility.yul\":22386:22404   */\n      keccak256\n        /* \"#utility.yul\":22378:22404   */\n      swap1\n      pop\n        /* \"#utility.yul\":22270:22411   */\n      swap2\n      swap1\n      pop\n      jump\t// out\n        /* \"#utility.yul\":22417:22510   */\n    tag_421:\n        /* \"#utility.yul\":22454:22460   */\n      0x00\n        /* \"#utility.yul\":22501:22503   */\n      0x20\n        /* \"#utility.yul\":22496:22498   */\n      0x1f\n        /* \"#utility.yul\":22489:22494   */\n      dup4\n        /* \"#utility.yul\":22485:22499   */\n      add\n        /* \"#utility.yul\":22481:22504   */\n      div\n        /* \"#utility.yul\":22471:22504   */\n      swap1\n      pop\n        /* \"#utility.yul\":22417:22510   */\n      swap2\n      swap1\n      pop\n      jump\t// out\n        /* \"#utility.yul\":22516:22623   */\n    tag_422:\n        /* \"#utility.yul\":22560:22568   */\n      0x00\n        /* \"#utility.yul\":22610:22615   */\n      dup3\n        /* \"#utility.yul\":22604:22608   */\n      dup3\n        /* \"#utility.yul\":22600:22616   */\n      shl\n        /* \"#utility.yul\":22579:22616   */\n      swap1\n      pop\n        /* \"#utility.yul\":22516:22623   */\n      swap3\n      swap2\n      pop\n      pop\n      jump\t// out\n        /* \"#utility.yul\":22629:23022   */\n    tag_423:\n        /* \"#utility.yul\":22698:22704   */\n      0x00\n        /* \"#utility.yul\":22748:22749   */\n      0x08\n        /* \"#utility.yul\":22736:22746   */\n      dup4\n        /* \"#utility.yul\":22732:22750   */\n      mul\n        /* \"#utility.yul\":22771:22868   */\n      tag_666\n        /* \"#utility.yul\":22801:22867   */\n      0xffffffffffffffffffffffffffffffffffffffffffffffffffffffffffffffff\n        /* \"#utility.yul\":22790:22799   */\n      dup3\n        /* \"#utility.yul\":22771:22868   */\n      tag_422\n      jump\t// in\n    tag_666:\n        /* \"#utility.yul\":22889:22928   */\n      tag_667\n        /* \"#utility.yul\":22919:22927   */\n      dup7\n        /* \"#utility.yul\":22908:22917   */\n      dup4\n        /* \"#utility.yul\":22889:22928   */\n      tag_422\n      jump\t// in\n    tag_667:\n        /* \"#utility.yul\":22877:22928   */\n      swap6\n      pop\n        /* \"#utility.yul\":22961:22965   */\n      dup1\n        /* \"#utility.yul\":22957:22966   */\n      not\n        /* \"#utility.yul\":22950:22955   */\n      dup5\n        /* \"#utility.yul\":22946:22967   */\n      and\n        /* \"#utility.yul\":22937:22967   */\n      swap4\n      pop\n        /* \"#utility.yul\":23010:23014   */\n      dup1\n        /* \"#utility.yul\":23000:23008   */\n      dup7\n        /* \"#utility.yul\":22996:23015   */\n      and\n        /* \"#utility.yul\":22989:22994   */\n      dup5\n        /* \"#utility.yul\":22986:23016   */\n      or\n        /* \"#utility.yul\":22976:23016   */\n      swap3\n      pop\n        /* \"#utility.yul\":22705:23022   */\n      pop\n      pop\n        /* \"#utility.yul\":22629:23022   */\n      swap4\n      swap3\n      pop\n      pop\n      pop\n      jump\t// out\n        /* \"#utility.yul\":23028:23088   */\n    tag_424:\n        /* \"#utility.yul\":23056:23059   */\n      0x00\n        /* \"#utility.yul\":23077:23082   */\n      dup2\n        /* \"#utility.yul\":23070:23082   */\n      swap1\n      pop\n        /* \"#utility.yul\":23028:23088   */\n      swap2\n      swap1\n      pop\n      jump\t// out\n        /* \"#utility.yul\":23094:23236   */\n    tag_425:\n        /* \"#utility.yul\":23144:23153   */\n      0x00\n        /* \"#utility.yul\":23177:23230   */\n      tag_670\n        /* \"#utility.yul\":23195:23229   */\n      tag_671\n        /* \"#utility.yul\":23204:23228   */\n      tag_672\n        /* \"#utility.yul\":23222:23227   */\n      dup5\n        /* \"#utility.yul\":23204:23228   */\n      tag_378\n      jump\t// in\n    tag_672:\n        /* \"#utility.yul\":23195:23229   */\n      tag_424\n      jump\t// in\n    tag_671:\n        /* \"#utility.yul\":23177:23230   */\n      tag_378\n      jump\t// in\n    tag_670:\n        /* \"#utility.yul\":23164:23230   */\n      swap1\n      pop\n        /* \"#utility.yul\":23094:23236   */\n      swap2\n      swap1\n      pop\n      jump\t// out\n        /* \"#utility.yul\":23242:23317   */\n    tag_426:\n        /* \"#utility.yul\":23285:23288   */\n      0x00\n        /* \"#utility.yul\":23306:23311   */\n      dup2\n        /* \"#utility.yul\":23299:23311   */\n      swap1\n      pop\n        /* \"#utility.yul\":23242:23317   */\n      swap2\n      swap1\n      pop\n      jump\t// out\n        /* \"#utility.yul\":23323:23592   */\n    tag_427:\n        /* \"#utility.yul\":23433:23472   */\n      tag_675\n        /* \"#utility.yul\":23464:23471   */\n      dup4\n        /* \"#utility.yul\":23433:23472   */\n      tag_425\n      jump\t// in\n    tag_675:\n        /* \"#utility.yul\":23494:23585   */\n      tag_676\n        /* \"#utility.yul\":23543:23584   */\n      tag_677\n        /* \"#utility.yul\":23567:23583   */\n      dup3\n        /* \"#utility.yul\":23543:23584   */\n      tag_426\n      jump\t// in\n    tag_677:\n        /* \"#utility.yul\":23535:23541   */\n      dup5\n        /* \"#utility.yul\":23528:23532   */\n      dup5\n        /* \"#utility.yul\":23522:23533   */\n      sload\n        /* \"#utility.yul\":23494:23585   */\n      tag_423\n      jump\t// in\n    tag_676:\n        /* \"#utility.yul\":23488:23492   */\n      dup3\n        /* \"#utility.yul\":23481:23586   */\n      sstore\n        /* \"#utility.yul\":23399:23592   */\n      pop\n        /* \"#utility.yul\":23323:23592   */\n      pop\n      pop\n      pop\n      jump\t// out\n        /* \"#utility.yul\":23598:23671   */\n    tag_428:\n        /* \"#utility.yul\":23643:23646   */\n      0x00\n        /* \"#utility.yul\":23598:23671   */\n      swap1\n      jump\t// out\n        /* \"#utility.yul\":23677:23866   */\n    tag_429:\n        /* \"#utility.yul\":23754:23786   */\n      tag_680\n      tag_428\n      jump\t// in\n    tag_680:\n        /* \"#utility.yul\":23795:23860   */\n      tag_681\n        /* \"#utility.yul\":23853:23859   */\n      dup2\n        /* \"#utility.yul\":23845:23851   */\n      dup5\n        /* \"#utility.yul\":23839:23843   */\n      dup5\n        /* \"#utility.yul\":23795:23860   */\n      tag_427\n      jump\t// in\n    tag_681:\n        /* \"#utility.yul\":23730:23866   */\n      pop\n        /* \"#utility.yul\":23677:23866   */\n      pop\n      pop\n      jump\t// out\n        /* \"#utility.yul\":23872:24058   */\n    tag_430:\n        /* \"#utility.yul\":23932:24052   */\n    tag_683:\n        /* \"#utility.yul\":23949:23952   */\n      dup2\n        /* \"#utility.yul\":23942:23947   */\n      dup2\n        /* \"#utility.yul\":23939:23953   */\n      lt\n        /* \"#utility.yul\":23932:24052   */\n      iszero\n      tag_685\n      jumpi\n        /* \"#utility.yul\":24003:24042   */\n      tag_686\n        /* \"#utility.yul\":24040:24041   */\n      0x00\n        /* \"#utility.yul\":24033:24038   */\n      dup3\n        /* \"#utility.yul\":24003:24042   */\n      tag_429\n      jump\t// in\n    tag_686:\n        /* \"#utility.yul\":23976:23977   */\n      0x01\n        /* \"#utility.yul\":23969:23974   */\n      dup2\n        /* \"#utility.yul\":23965:23978   */\n      add\n        /* \"#utility.yul\":23956:23978   */\n      swap1\n      pop\n        /* \"#utility.yul\":23932:24052   */\n      jump(tag_683)\n    tag_685:\n        /* \"#utility.yul\":23872:24058   */\n      pop\n      pop\n      jump\t// out\n        /* \"#utility.yul\":24064:24607   */\n    tag_431:\n        /* \"#utility.yul\":24165:24167   */\n      0x1f\n        /* \"#utility.yul\":24160:24163   */\n      dup3\n        /* \"#utility.yul\":24157:24168   */\n      gt\n        /* \"#utility.yul\":24154:24600   */\n      iszero\n      tag_688\n      jumpi\n        /* \"#utility.yul\":24199:24237   */\n      tag_689\n        /* \"#utility.yul\":24231:24236   */\n      dup2\n        /* \"#utility.yul\":24199:24237   */\n      tag_420\n      jump\t// in\n    tag_689:\n        /* \"#utility.yul\":24283:24312   */\n      tag_690\n        /* \"#utility.yul\":24301:24311   */\n      dup5\n        /* \"#utility.yul\":24283:24312   */\n      tag_421\n      jump\t// in\n    tag_690:\n        /* \"#utility.yul\":24273:24281   */\n      dup2\n        /* \"#utility.yul\":24269:24313   */\n      add\n        /* \"#utility.yul\":24466:24468   */\n      0x20\n        /* \"#utility.yul\":24454:24464   */\n      dup6\n        /* \"#utility.yul\":24451:24469   */\n      lt\n        /* \"#utility.yul\":24448:24497   */\n      iszero\n      tag_691\n      jumpi\n        /* \"#utility.yul\":24487:24495   */\n      dup2\n        /* \"#utility.yul\":24472:24495   */\n      swap1\n      pop\n        /* \"#utility.yul\":24448:24497   */\n    tag_691:\n        /* \"#utility.yul\":24510:24590   */\n      tag_692\n        /* \"#utility.yul\":24566:24588   */\n      tag_693\n        /* \"#utility.yul\":24584:24587   */\n      dup6\n        /* \"#utility.yul\":24566:24588   */\n      tag_421\n      jump\t// in\n    tag_693:\n        /* \"#utility.yul\":24556:24564   */\n      dup4\n        /* \"#utility.yul\":24552:24589   */\n      add\n        /* \"#utility.yul\":24539:24550   */\n      dup3\n        /* \"#utility.yul\":24510:24590   */\n      tag_430\n      jump\t// in\n    tag_692:\n        /* \"#utility.yul\":24169:24600   */\n      pop\n      pop\n        /* \"#utility.yul\":24154:24600   */\n    tag_688:\n        /* \"#utility.yul\":24064:24607   */\n      pop\n      pop\n      pop\n      jump\t// out\n        /* \"#utility.yul\":24613:24730   */\n    tag_432:\n        /* \"#utility.yul\":24667:24675   */\n      0x00\n        /* \"#utility.yul\":24717:24722   */\n      dup3\n        /* \"#utility.yul\":24711:24715   */\n      dup3\n        /* \"#utility.yul\":24707:24723   */\n      shr\n        /* \"#utility.yul\":24686:24723   */\n      swap1\n      pop\n        /* \"#utility.yul\":24613:24730   */\n      swap3\n      swap2\n      pop\n      pop\n      jump\t// out\n        /* \"#utility.yul\":24736:24905   */\n    tag_433:\n        /* \"#utility.yul\":24780:24786   */\n      0x00\n        /* \"#utility.yul\":24813:24864   */\n      tag_696\n        /* \"#utility.yul\":24861:24862   */\n      0x00\n        /* \"#utility.yul\":24857:24863   */\n      not\n        /* \"#utility.yul\":24849:24854   */\n      dup5\n        /* \"#utility.yul\":24846:24847   */\n      0x08\n        /* \"#utility.yul\":24842:24855   */\n      mul\n        /* \"#utility.yul\":24813:24864   */\n      tag_432\n      jump\t// in\n    tag_696:\n        /* \"#utility.yul\":24809:24865   */\n      not\n        /* \"#utility.yul\":24894:24898   */\n      dup1\n        /* \"#utility.yul\":24888:24892   */\n      dup4\n        /* \"#utility.yul\":24884:24899   */\n      and\n        /* \"#utility.yul\":24874:24899   */\n      swap2\n      pop\n        /* \"#utility.yul\":24787:24905   */\n      pop\n        /* \"#utility.yul\":24736:24905   */\n      swap3\n      swap2\n      pop\n      pop\n      jump\t// out\n        /* \"#utility.yul\":24910:25205   */\n    tag_434:\n        /* \"#utility.yul\":24986:24990   */\n      0x00\n        /* \"#utility.yul\":25132:25161   */\n      tag_698\n        /* \"#utility.yul\":25157:25160   */\n      dup4\n        /* \"#utility.yul\":25151:25155   */\n      dup4\n        /* \"#utility.yul\":25132:25161   */\n      tag_433\n      jump\t// in\n    tag_698:\n        /* \"#utility.yul\":25124:25161   */\n      swap2\n      pop\n        /* \"#utility.yul\":25194:25197   */\n      dup3\n        /* \"#utility.yul\":25191:25192   */\n      0x02\n        /* \"#utility.yul\":25187:25198   */\n      mul\n        /* \"#utility.yul\":25181:25185   */\n      dup3\n        /* \"#utility.yul\":25178:25199   */\n      or\n        /* \"#utility.yul\":25170:25199   */\n      swap1\n      pop\n        /* \"#utility.yul\":24910:25205   */\n      swap3\n      swap2\n      pop\n      pop\n      jump\t// out\n        /* \"#utility.yul\":25210:26605   */\n    tag_264:\n        /* \"#utility.yul\":25327:25364   */\n      tag_700\n        /* \"#utility.yul\":25360:25363   */\n      dup3\n        /* \"#utility.yul\":25327:25364   */\n      tag_373\n      jump\t// in\n    tag_700:\n        /* \"#utility.yul\":25429:25447   */\n      0xffffffffffffffff\n        /* \"#utility.yul\":25421:25427   */\n      dup2\n        /* \"#utility.yul\":25418:25448   */\n      gt\n        /* \"#utility.yul\":25415:25471   */\n      iszero\n      tag_701\n      jumpi\n        /* \"#utility.yul\":25451:25469   */\n      tag_702\n      tag_149\n      jump\t// in\n    tag_702:\n        /* \"#utility.yul\":25415:25471   */\n    tag_701:\n        /* \"#utility.yul\":25495:25533   */\n      tag_703\n        /* \"#utility.yul\":25527:25531   */\n      dup3\n        /* \"#utility.yul\":25521:25532   */\n      sload\n        /* \"#utility.yul\":25495:25533   */\n      tag_117\n      jump\t// in\n    tag_703:\n        /* \"#utility.yul\":25580:25647   */\n      tag_704\n        /* \"#utility.yul\":25640:25646   */\n      dup3\n        /* \"#utility.yul\":25632:25638   */\n      dup3\n        /* \"#utility.yul\":25626:25630   */\n      dup6\n        /* \"#utility.yul\":25580:25647   */\n      tag_431\n      jump\t// in\n    tag_704:\n        /* \"#utility.yul\":25674:25675   */\n      0x00\n        /* \"#utility.yul\":25698:25702   */\n      0x20\n        /* \"#utility.yul\":25685:25702   */\n      swap1\n      pop\n        /* \"#utility.yul\":25730:25732   */\n      0x1f\n        /* \"#utility.yul\":25722:25728   */\n      dup4\n        /* \"#utility.yul\":25719:25733   */\n      gt\n        /* \"#utility.yul\":25747:25748   */\n      0x01\n        /* \"#utility.yul\":25742:26360   */\n      dup2\n      eq\n      tag_706\n      jumpi\n        /* \"#utility.yul\":26404:26405   */\n      0x00\n        /* \"#utility.yul\":26421:26427   */\n      dup5\n        /* \"#utility.yul\":26418:26495   */\n      iszero\n      tag_707\n      jumpi\n        /* \"#utility.yul\":26470:26479   */\n      dup3\n        /* \"#utility.yul\":26465:26468   */\n      dup8\n        /* \"#utility.yul\":26461:26480   */\n      add\n        /* \"#utility.yul\":26455:26481   */\n      mload\n        /* \"#utility.yul\":26446:26481   */\n      swap1\n      pop\n        /* \"#utility.yul\":26418:26495   */\n    tag_707:\n        /* \"#utility.yul\":26521:26588   */\n      tag_708\n        /* \"#utility.yul\":26581:26587   */\n      dup6\n        /* \"#utility.yul\":26574:26579   */\n      dup3\n        /* \"#utility.yul\":26521:26588   */\n      tag_434\n      jump\t// in\n    tag_708:\n        /* \"#utility.yul\":26515:26519   */\n      dup7\n        /* \"#utility.yul\":26508:26589   */\n      sstore\n        /* \"#utility.yul\":26377:26599   */\n      pop\n        /* \"#utility.yul\":25712:26599   */\n      jump(tag_705)\n        /* \"#utility.yul\":25742:26360   */\n    tag_706:\n        /* \"#utility.yul\":25794:25798   */\n      0x1f\n        /* \"#utility.yul\":25790:25799   */\n      not\n        /* \"#utility.yul\":25782:25788   */\n      dup5\n        /* \"#utility.yul\":25778:25800   */\n      and\n        /* \"#utility.yul\":25828:25865   */\n      tag_709\n        /* \"#utility.yul\":25860:25864   */\n      dup7\n        /* \"#utility.yul\":25828:25865   */\n      tag_420\n      jump\t// in\n    tag_709:\n        /* \"#utility.yul\":25887:25888   */\n      0x00\n        /* \"#utility.yul\":25901:26109   */\n    tag_710:\n        /* \"#utility.yul\":25915:25922   */\n      dup3\n        /* \"#utility.yul\":25912:25913   */\n      dup2\n        /* \"#utility.yul\":25909:25923   */\n      lt\n        /* \"#utility.yul\":25901:26109   */\n      iszero\n      tag_712\n      jumpi\n        /* \"#utility.yul\":25994:26003   */\n      dup5\n        /* \"#utility.yul\":25989:25992   */\n      dup10\n        /* \"#utility.yul\":25985:26004   */\n      add\n        /* \"#utility.yul\":25979:26005   */\n      mload\n        /* \"#utility.yul\":25971:25977   */\n      dup3\n        /* \"#utility.yul\":25964:26006   */\n      sstore\n        /* \"#utility.yul\":26045:26046   */\n      0x01\n        /* \"#utility.yul\":26037:26043   */\n      dup3\n        /* \"#utility.yul\":26033:26047   */\n      add\n        /* \"#utility.yul\":26023:26047   */\n      swap2\n      pop\n        /* \"#utility.yul\":26092:26094   */\n      0x20\n        /* \"#utility.yul\":26081:26090   */\n      dup6\n        /* \"#utility.yul\":26077:26095   */\n      add\n        /* \"#utility.yul\":26064:26095   */\n      swap5\n      pop\n        /* \"#utility.yul\":25938:25942   */\n      0x20\n        /* \"#utility.yul\":25935:25936   */\n      dup2\n        /* \"#utility.yul\":25931:25943   */\n      add\n        /* \"#utility.yul\":25926:25943   */\n      swap1\n      pop\n        /* \"#utility.yul\":25901:26109   */\n      jump(tag_710)\n    tag_712:\n        /* \"#utility.yul\":26137:26143   */\n      dup7\n        /* \"#utility.yul\":26128:26135   */\n      dup4\n        /* \"#utility.yul\":26125:26144   */\n      lt\n        /* \"#utility.yul\":26122:26301   */\n      iszero\n      tag_713\n      jumpi\n        /* \"#utility.yul\":26195:26204   */\n      dup5\n        /* \"#utility.yul\":26190:26193   */\n      dup10\n        /* \"#utility.yul\":26186:26205   */\n      add\n        /* \"#utility.yul\":26180:26206   */\n      mload\n        /* \"#utility.yul\":26238:26286   */\n      tag_714\n        /* \"#utility.yul\":26280:26284   */\n      0x1f\n        /* \"#utility.yul\":26272:26278   */\n      dup10\n        /* \"#utility.yul\":26268:26285   */\n      and\n        /* \"#utility.yul\":26257:26266   */\n      dup3\n        /* \"#utility.yul\":26238:26286   */\n      tag_433\n      jump\t// in\n    tag_714:\n        /* \"#utility.yul\":26230:26236   */\n      dup4\n        /* \"#utility.yul\":26223:26287   */\n      sstore\n        /* \"#utility.yul\":26145:26301   */\n      pop\n        /* \"#utility.yul\":26122:26301   */\n    tag_713:\n        /* \"#utility.yul\":26347:26348   */\n      0x01\n        /* \"#utility.yul\":26343:26344   */\n      0x02\n        /* \"#utility.yul\":26335:26341   */\n      dup9\n        /* \"#utility.yul\":26331:26345   */\n      mul\n        /* \"#utility.yul\":26327:26349   */\n      add\n        /* \"#utility.yul\":26321:26325   */\n      dup9\n        /* \"#utility.yul\":26314:26350   */\n      sstore\n        /* \"#utility.yul\":25749:26360   */\n      pop\n      pop\n      pop\n        /* \"#utility.yul\":25712:26599   */\n    tag_705:\n      pop\n        /* \"#utility.yul\":25302:26605   */\n      pop\n      pop\n      pop\n        /* \"#utility.yul\":25210:26605   */\n      pop\n      pop\n      jump\t// out\n        /* \"#utility.yul\":26611:26709   */\n    tag_435:\n        /* \"#utility.yul\":26662:26668   */\n      0x00\n        /* \"#utility.yul\":26696:26701   */\n      dup2\n        /* \"#utility.yul\":26690:26702   */\n      mload\n        /* \"#utility.yul\":26680:26702   */\n      swap1\n      pop\n        /* \"#utility.yul\":26611:26709   */\n      swap2\n      swap1\n      pop\n      jump\t// out\n        /* \"#utility.yul\":26715:26883   */\n    tag_436:\n        /* \"#utility.yul\":26798:26809   */\n      0x00\n        /* \"#utility.yul\":26832:26838   */\n      dup3\n        /* \"#utility.yul\":26827:26830   */\n      dup3\n        /* \"#utility.yul\":26820:26839   */\n      mstore\n        /* \"#utility.yul\":26872:26876   */\n      0x20\n        /* \"#utility.yul\":26867:26870   */\n      dup3\n        /* \"#utility.yul\":26863:26877   */\n      add\n        /* \"#utility.yul\":26848:26877   */\n      swap1\n      pop\n        /* \"#utility.yul\":26715:26883   */\n      swap3\n      swap2\n      pop\n      pop\n      jump\t// out\n        /* \"#utility.yul\":26889:27262   */\n    tag_437:\n        /* \"#utility.yul\":26975:26978   */\n      0x00\n        /* \"#utility.yul\":27003:27041   */\n      tag_718\n        /* \"#utility.yul\":27035:27040   */\n      dup3\n        /* \"#utility.yul\":27003:27041   */\n      tag_435\n      jump\t// in\n    tag_718:\n        /* \"#utility.yul\":27057:27127   */\n      tag_719\n        /* \"#utility.yul\":27120:27126   */\n      dup2\n        /* \"#utility.yul\":27115:27118   */\n      dup6\n        /* \"#utility.yul\":27057:27127   */\n      tag_436\n      jump\t// in\n    tag_719:\n        /* \"#utility.yul\":27050:27127   */\n      swap4\n      pop\n        /* \"#utility.yul\":27136:27201   */\n      tag_720\n        /* \"#utility.yul\":27194:27200   */\n      dup2\n        /* \"#utility.yul\":27189:27192   */\n      dup6\n        /* \"#utility.yul\":27182:27186   */\n      0x20\n        /* \"#utility.yul\":27175:27180   */\n      dup7\n        /* \"#utility.yul\":27171:27187   */\n      add\n        /* \"#utility.yul\":27136:27201   */\n      tag_375\n      jump\t// in\n    tag_720:\n        /* \"#utility.yul\":27226:27255   */\n      tag_721\n        /* \"#utility.yul\":27248:27254   */\n      dup2\n        /* \"#utility.yul\":27226:27255   */\n      tag_376\n      jump\t// in\n    tag_721:\n        /* \"#utility.yul\":27221:27224   */\n      dup5\n        /* \"#utility.yul\":27217:27256   */\n      add\n        /* \"#utility.yul\":27210:27256   */\n      swap2\n      pop\n        /* \"#utility.yul\":26979:27262   */\n      pop\n        /* \"#utility.yul\":26889:27262   */\n      swap3\n      swap2\n      pop\n      pop\n      jump\t// out\n        /* \"#utility.yul\":27268:27908   */\n    tag_281:\n        /* \"#utility.yul\":27463:27467   */\n      0x00\n        /* \"#utility.yul\":27501:27504   */\n      0x80\n        /* \"#utility.yul\":27490:27499   */\n      dup3\n        /* \"#utility.yul\":27486:27505   */\n      add\n        /* \"#utility.yul\":27478:27505   */\n      swap1\n      pop\n        /* \"#utility.yul\":27515:27586   */\n      tag_723\n        /* \"#utility.yul\":27583:27584   */\n      0x00\n        /* \"#utility.yul\":27572:27581   */\n      dup4\n        /* \"#utility.yul\":27568:27585   */\n      add\n        /* \"#utility.yul\":27559:27565   */\n      dup8\n        /* \"#utility.yul\":27515:27586   */\n      tag_383\n      jump\t// in\n    tag_723:\n        /* \"#utility.yul\":27596:27668   */\n      tag_724\n        /* \"#utility.yul\":27664:27666   */\n      0x20\n        /* \"#utility.yul\":27653:27662   */\n      dup4\n        /* \"#utility.yul\":27649:27667   */\n      add\n        /* \"#utility.yul\":27640:27646   */\n      dup7\n        /* \"#utility.yul\":27596:27668   */\n      tag_383\n      jump\t// in\n    tag_724:\n        /* \"#utility.yul\":27678:27750   */\n      tag_725\n        /* \"#utility.yul\":27746:27748   */\n      0x40\n        /* \"#utility.yul\":27735:27744   */\n      dup4\n        /* \"#utility.yul\":27731:27749   */\n      add\n        /* \"#utility.yul\":27722:27728   */\n      dup6\n        /* \"#utility.yul\":27678:27750   */\n      tag_409\n      jump\t// in\n    tag_725:\n        /* \"#utility.yul\":27797:27806   */\n      dup2\n        /* \"#utility.yul\":27791:27795   */\n      dup2\n        /* \"#utility.yul\":27787:27807   */\n      sub\n        /* \"#utility.yul\":27782:27784   */\n      0x60\n        /* \"#utility.yul\":27771:27780   */\n      dup4\n        /* \"#utility.yul\":27767:27785   */\n      add\n        /* \"#utility.yul\":27760:27808   */\n      mstore\n        /* \"#utility.yul\":27825:27901   */\n      tag_726\n        /* \"#utility.yul\":27896:27900   */\n      dup2\n        /* \"#utility.yul\":27887:27893   */\n      dup5\n        /* \"#utility.yul\":27825:27901   */\n      tag_437\n      jump\t// in\n    tag_726:\n        /* \"#utility.yul\":27817:27901   */\n      swap1\n      pop\n        /* \"#utility.yul\":27268:27908   */\n      swap6\n      swap5\n      pop\n      pop\n      pop\n      pop\n      pop\n      jump\t// out\n        /* \"#utility.yul\":27914:28055   */\n    tag_438:\n        /* \"#utility.yul\":27970:27975   */\n      0x00\n        /* \"#utility.yul\":28001:28007   */\n      dup2\n        /* \"#utility.yul\":27995:28008   */\n      mload\n        /* \"#utility.yul\":27986:28008   */\n      swap1\n      pop\n        /* \"#utility.yul\":28017:28049   */\n      tag_728\n        /* \"#utility.yul\":28043:28048   */\n      dup2\n        /* \"#utility.yul\":28017:28049   */\n      tag_369\n      jump\t// in\n    tag_728:\n        /* \"#utility.yul\":27914:28055   */\n      swap3\n      swap2\n      pop\n      pop\n      jump\t// out\n        /* \"#utility.yul\":28061:28410   */\n    tag_284:\n        /* \"#utility.yul\":28130:28136   */\n      0x00\n        /* \"#utility.yul\":28179:28181   */\n      0x20\n        /* \"#utility.yul\":28167:28176   */\n      dup3\n        /* \"#utility.yul\":28158:28165   */\n      dup5\n        /* \"#utility.yul\":28154:28177   */\n      sub\n        /* \"#utility.yul\":28150:28182   */\n      slt\n        /* \"#utility.yul\":28147:28266   */\n      iszero\n      tag_730\n      jumpi\n        /* \"#utility.yul\":28185:28264   */\n      tag_731\n      tag_366\n      jump\t// in\n    tag_731:\n        /* \"#utility.yul\":28147:28266   */\n    tag_730:\n        /* \"#utility.yul\":28305:28306   */\n      0x00\n        /* \"#utility.yul\":28330:28393   */\n      tag_732\n        /* \"#utility.yul\":28385:28392   */\n      dup5\n        /* \"#utility.yul\":28376:28382   */\n      dup3\n        /* \"#utility.yul\":28365:28374   */\n      dup6\n        /* \"#utility.yul\":28361:28383   */\n      add\n        /* \"#utility.yul\":28330:28393   */\n      tag_438\n      jump\t// in\n    tag_732:\n        /* \"#utility.yul\":28320:28393   */\n      swap2\n      pop\n        /* \"#utility.yul\":28276:28403   */\n      pop\n        /* \"#utility.yul\":28061:28410   */\n      swap3\n      swap2\n      pop\n      pop\n      jump\t// out\n        /* \"#utility.yul\":28416:28748   */\n    tag_326:\n        /* \"#utility.yul\":28537:28541   */\n      0x00\n        /* \"#utility.yul\":28575:28577   */\n      0x40\n        /* \"#utility.yul\":28564:28573   */\n      dup3\n        /* \"#utility.yul\":28560:28578   */\n      add\n        /* \"#utility.yul\":28552:28578   */\n      swap1\n      pop\n        /* \"#utility.yul\":28588:28659   */\n      tag_734\n        /* \"#utility.yul\":28656:28657   */\n      0x00\n        /* \"#utility.yul\":28645:28654   */\n      dup4\n        /* \"#utility.yul\":28641:28658   */\n      add\n        /* \"#utility.yul\":28632:28638   */\n      dup6\n        /* \"#utility.yul\":28588:28659   */\n      tag_383\n      jump\t// in\n    tag_734:\n        /* \"#utility.yul\":28669:28741   */\n      tag_735\n        /* \"#utility.yul\":28737:28739   */\n      0x20\n        /* \"#utility.yul\":28726:28735   */\n      dup4\n        /* \"#utility.yul\":28722:28740   */\n      add\n        /* \"#utility.yul\":28713:28719   */\n      dup5\n        /* \"#utility.yul\":28669:28741   */\n      tag_409\n      jump\t// in\n    tag_735:\n        /* \"#utility.yul\":28416:28748   */\n      swap4\n      swap3\n      pop\n      pop\n      pop\n      jump\t// out\n        /* \"#utility.yul\":28754:28934   */\n    tag_337:\n        /* \"#utility.yul\":28802:28879   */\n      0x4e487b7100000000000000000000000000000000000000000000000000000000\n        /* \"#utility.yul\":28799:28800   */\n      0x00\n        /* \"#utility.yul\":28792:28880   */\n      mstore\n        /* \"#utility.yul\":28899:28903   */\n      0x12\n        /* \"#utility.yul\":28896:28897   */\n      0x04\n        /* \"#utility.yul\":28889:28904   */\n      mstore\n        /* \"#utility.yul\":28923:28927   */\n      0x24\n        /* \"#utility.yul\":28920:28921   */\n      0x00\n        /* \"#utility.yul\":28913:28928   */\n      revert\n\n    auxdata: 0xa2646970667358221220ad76c30dd6e338fd6cd7ad6bbaa2112efd07103885789eb5bf4b2ce6ac01b3df64736f6c63430008160033\n}\n",
				"bytecode": {
					"linkReferences": {},
					"object": "608060405234801562000010575f80fd5b50336040518060400160405280600981526020017f53696d706c654e465400000000000000000000000000000000000000000000008152506040518060400160405280600481526020017f534e465400000000000000000000000000000000000000000000000000000000815250815f90816200008e919062000455565b508060019081620000a0919062000455565b5050505f73ffffffffffffffffffffffffffffffffffffffff168173ffffffffffffffffffffffffffffffffffffffff160362000116575f6040517f1e4fbdf70000000000000000000000000000000000000000000000000000000081526004016200010d91906200057c565b60405180910390fd5b62000127816200012e60201b60201c565b5062000597565b5f60075f9054906101000a900473ffffffffffffffffffffffffffffffffffffffff1690508160075f6101000a81548173ffffffffffffffffffffffffffffffffffffffff021916908373ffffffffffffffffffffffffffffffffffffffff1602179055508173ffffffffffffffffffffffffffffffffffffffff168173ffffffffffffffffffffffffffffffffffffffff167f8be0079c531659141344cd1fd0a4f28419497f9722a3daafe3b4186f6b6457e060405160405180910390a35050565b5f81519050919050565b7f4e487b71000000000000000000000000000000000000000000000000000000005f52604160045260245ffd5b7f4e487b71000000000000000000000000000000000000000000000000000000005f52602260045260245ffd5b5f60028204905060018216806200026d57607f821691505b60208210810362000283576200028262000228565b5b50919050565b5f819050815f5260205f209050919050565b5f6020601f8301049050919050565b5f82821b905092915050565b5f60088302620002e77fffffffffffffffffffffffffffffffffffffffffffffffffffffffffffffffff82620002aa565b620002f38683620002aa565b95508019841693508086168417925050509392505050565b5f819050919050565b5f819050919050565b5f6200033d6200033762000331846200030b565b62000314565b6200030b565b9050919050565b5f819050919050565b62000358836200031d565b62000370620003678262000344565b848454620002b6565b825550505050565b5f90565b6200038662000378565b620003938184846200034d565b505050565b5b81811015620003ba57620003ae5f826200037c565b60018101905062000399565b5050565b601f8211156200040957620003d38162000289565b620003de846200029b565b81016020851015620003ee578190505b62000406620003fd856200029b565b83018262000398565b50505b505050565b5f82821c905092915050565b5f6200042b5f19846008026200040e565b1980831691505092915050565b5f6200044583836200041a565b9150826002028217905092915050565b6200046082620001f1565b67ffffffffffffffff8111156200047c576200047b620001fb565b5b62000488825462000255565b62000495828285620003be565b5f60209050601f831160018114620004cb575f8415620004b6578287015190505b620004c2858262000438565b86555062000531565b601f198416620004db8662000289565b5f5b828110156200050457848901518255600182019150602085019450602081019050620004dd565b8683101562000524578489015162000520601f8916826200041a565b8355505b6001600288020188555050505b505050505050565b5f73ffffffffffffffffffffffffffffffffffffffff82169050919050565b5f620005648262000539565b9050919050565b620005768162000558565b82525050565b5f602082019050620005915f8301846200056b565b92915050565b612beb80620005a55f395ff3fe608060405234801561000f575f80fd5b5060043610610135575f3560e01c80637a6ce2e1116100b6578063a22cb4651161007a578063a22cb4651461034b578063b88d4fde14610367578063c87b56dd14610383578063e43252d7146103b3578063e985e9c5146103cf578063f2fde38b146103ff57610135565b80637a6ce2e1146102a55780638ab1d681146102c35780638da5cb5b146102df57806395d89b41146102fd5780639b19251a1461031b57610135565b806342842e0e116100fd57806342842e0e146101ef5780635f6c96a01461020b5780636352211e1461023b57806370a082311461026b578063715018a61461029b57610135565b806301ffc9a71461013957806306fdde0314610169578063081812fc14610187578063095ea7b3146101b757806323b872dd146101d3575b5f80fd5b610153600480360381019061014e9190611dd0565b61041b565b6040516101609190611e15565b60405180910390f35b61017161047b565b60405161017e9190611eb8565b60405180910390f35b6101a1600480360381019061019c9190611f0b565b61050a565b6040516101ae9190611f75565b60405180910390f35b6101d160048036038101906101cc9190611fb8565b610525565b005b6101ed60048036038101906101e89190611ff6565b61053b565b005b61020960048036038101906102049190611ff6565b61063a565b005b610225600480360381019061022091906122d9565b610659565b6040516102329190612404565b60405180910390f35b61025560048036038101906102509190611f0b565b61088c565b6040516102629190611f75565b60405180910390f35b61028560048036038101906102809190612424565b61089d565b604051610292919061245e565b60405180910390f35b6102a3610953565b005b6102ad610966565b6040516102ba9190611f75565b60405180910390f35b6102dd60048036038101906102d89190612424565b61096d565b005b6102e76109c4565b6040516102f49190611f75565b60405180910390f35b6103056109ec565b6040516103129190611eb8565b60405180910390f35b61033560048036038101906103309190612424565b610a7c565b6040516103429190611e15565b60405180910390f35b610365600480360381019061036091906124a1565b610a99565b005b610381600480360381019061037c919061257d565b610aaf565b005b61039d60048036038101906103989190611f0b565b610acc565b6040516103aa9190611eb8565b60405180910390f35b6103cd60048036038101906103c89190612424565b610bd7565b005b6103e960048036038101906103e491906125fd565b610c2f565b6040516103f69190611e15565b60405180910390f35b61041960048036038101906104149190612424565b610cbd565b005b5f634906490660e01b7bffffffffffffffffffffffffffffffffffffffffffffffffffffffff1916827bffffffffffffffffffffffffffffffffffffffffffffffffffffffff19161480610474575061047382610d41565b5b9050919050565b60605f805461048990612668565b80601f01602080910402602001604051908101604052809291908181526020018280546104b590612668565b80156105005780601f106104d757610100808354040283529160200191610500565b820191905f5260205f20905b8154815290600101906020018083116104e357829003601f168201915b5050505050905090565b5f61051482610e22565b5061051e82610ea8565b9050919050565b6105378282610532610ee1565b610ee8565b5050565b5f73ffffffffffffffffffffffffffffffffffffffff168273ffffffffffffffffffffffffffffffffffffffff16036105ab575f6040517f64a0ae920000000000000000000000000000000000000000000000000000000081526004016105a29190611f75565b60405180910390fd5b5f6105be83836105b9610ee1565b610efa565b90508373ffffffffffffffffffffffffffffffffffffffff168173ffffffffffffffffffffffffffffffffffffffff1614610634578382826040517f64283d7b00000000000000000000000000000000000000000000000000000000815260040161062b93929190612698565b60405180910390fd5b50505050565b61065483838360405180602001604052805f815250610aaf565b505050565b606060085f3373ffffffffffffffffffffffffffffffffffffffff1673ffffffffffffffffffffffffffffffffffffffff1681526020019081526020015f205f9054906101000a900460ff166106e4576040517f08c379a00000000000000000000000000000000000000000000000000000000081526004016106db9061273d565b60405180910390fd5b5f825167ffffffffffffffff811115610700576106ff61204a565b5b60405190808252806020026020018201604052801561073957816020015b610726611d52565b81526020019060019003908161071e5790505b5090505f5b8351811015610882575f6107526009611105565b905061075e6009611111565b6107868583815181106107745761077361275b565b5b60200260200101516020015182611125565b6107ae8186848151811061079d5761079c61275b565b5b602002602001015160400151611218565b60405180604001604052808684815181106107cc576107cb61275b565b5b60200260200101515f01518152602001828152508383815181106107f3576107f261275b565b5b60200260200101819052507ff371d67483809edbc84279729528d26a3e37ce67f1e3a911778dbf88ff927ca28583815181106108325761083161275b565b5b60200260200101515f0151828785815181106108515761085061275b565b5b60200260200101516020015160405161086c93929190612788565b60405180910390a150808060010191505061073e565b5080915050919050565b5f61089682610e22565b9050919050565b5f8073ffffffffffffffffffffffffffffffffffffffff168273ffffffffffffffffffffffffffffffffffffffff160361090e575f6040517f89c62b640000000000000000000000000000000000000000000000000000000081526004016109059190611f75565b60405180910390fd5b60035f8373ffffffffffffffffffffffffffffffffffffffff1673ffffffffffffffffffffffffffffffffffffffff1681526020019081526020015f20549050919050565b61095b611272565b6109645f6112f9565b565b5f33905090565b5f60085f8373ffffffffffffffffffffffffffffffffffffffff1673ffffffffffffffffffffffffffffffffffffffff1681526020019081526020015f205f6101000a81548160ff02191690831515021790555050565b5f60075f9054906101000a900473ffffffffffffffffffffffffffffffffffffffff16905090565b6060600180546109fb90612668565b80601f0160208091040260200160405190810160405280929190818152602001828054610a2790612668565b8015610a725780601f10610a4957610100808354040283529160200191610a72565b820191905f5260205f20905b815481529060010190602001808311610a5557829003601f168201915b5050505050905090565b6008602052805f5260405f205f915054906101000a900460ff1681565b610aab610aa4610ee1565b83836113bc565b5050565b610aba84848461053b565b610ac684848484611525565b50505050565b6060610ad782610e22565b505f60065f8481526020019081526020015f208054610af590612668565b80601f0160208091040260200160405190810160405280929190818152602001828054610b2190612668565b8015610b6c5780601f10610b4357610100808354040283529160200191610b6c565b820191905f5260205f20905b815481529060010190602001808311610b4f57829003601f168201915b505050505090505f610b7c6116d7565b90505f815103610b90578192505050610bd2565b5f82511115610bc4578082604051602001610bac9291906127f7565b60405160208183030381529060405292505050610bd2565b610bcd846116ed565b925050505b919050565b600160085f8373ffffffffffffffffffffffffffffffffffffffff1673ffffffffffffffffffffffffffffffffffffffff1681526020019081526020015f205f6101000a81548160ff02191690831515021790555050565b5f60055f8473ffffffffffffffffffffffffffffffffffffffff1673ffffffffffffffffffffffffffffffffffffffff1681526020019081526020015f205f8373ffffffffffffffffffffffffffffffffffffffff1673ffffffffffffffffffffffffffffffffffffffff1681526020019081526020015f205f9054906101000a900460ff16905092915050565b610cc5611272565b5f73ffffffffffffffffffffffffffffffffffffffff168173ffffffffffffffffffffffffffffffffffffffff1603610d35575f6040517f1e4fbdf7000000000000000000000000000000000000000000000000000000008152600401610d2c9190611f75565b60405180910390fd5b610d3e816112f9565b50565b5f7f80ac58cd000000000000000000000000000000000000000000000000000000007bffffffffffffffffffffffffffffffffffffffffffffffffffffffff1916827bffffffffffffffffffffffffffffffffffffffffffffffffffffffff19161480610e0b57507f5b5e139f000000000000000000000000000000000000000000000000000000007bffffffffffffffffffffffffffffffffffffffffffffffffffffffff1916827bffffffffffffffffffffffffffffffffffffffffffffffffffffffff1916145b80610e1b5750610e1a82611753565b5b9050919050565b5f80610e2d836117bc565b90505f73ffffffffffffffffffffffffffffffffffffffff168173ffffffffffffffffffffffffffffffffffffffff1603610e9f57826040517f7e273289000000000000000000000000000000000000000000000000000000008152600401610e96919061245e565b60405180910390fd5b80915050919050565b5f60045f8381526020019081526020015f205f9054906101000a900473ffffffffffffffffffffffffffffffffffffffff169050919050565b5f33905090565b610ef583838360016117f5565b505050565b5f80610f05846117bc565b90505f73ffffffffffffffffffffffffffffffffffffffff168373ffffffffffffffffffffffffffffffffffffffff1614610f4657610f458184866119b4565b5b5f73ffffffffffffffffffffffffffffffffffffffff168173ffffffffffffffffffffffffffffffffffffffff1614610fd157610f855f855f806117f5565b600160035f8373ffffffffffffffffffffffffffffffffffffffff1673ffffffffffffffffffffffffffffffffffffffff1681526020019081526020015f205f82825403925050819055505b5f73ffffffffffffffffffffffffffffffffffffffff168573ffffffffffffffffffffffffffffffffffffffff161461105057600160035f8773ffffffffffffffffffffffffffffffffffffffff1673ffffffffffffffffffffffffffffffffffffffff1681526020019081526020015f205f82825401925050819055505b8460025f8681526020019081526020015f205f6101000a81548173ffffffffffffffffffffffffffffffffffffffff021916908373ffffffffffffffffffffffffffffffffffffffff160217905550838573ffffffffffffffffffffffffffffffffffffffff168273ffffffffffffffffffffffffffffffffffffffff167fddf252ad1be2c89b69c2b068fc378daa952ba7f163c4a11628f55a4df523b3ef60405160405180910390a4809150509392505050565b5f815f01549050919050565b6001815f015f828254019250508190555050565b5f73ffffffffffffffffffffffffffffffffffffffff168273ffffffffffffffffffffffffffffffffffffffff1603611195575f6040517f64a0ae9200000000000000000000000000000000000000000000000000000000815260040161118c9190611f75565b60405180910390fd5b5f6111a183835f610efa565b90505f73ffffffffffffffffffffffffffffffffffffffff168173ffffffffffffffffffffffffffffffffffffffff1614611213575f6040517f73c6ac6e00000000000000000000000000000000000000000000000000000000815260040161120a9190611f75565b60405180910390fd5b505050565b8060065f8481526020019081526020015f20908161123691906129b7565b507ff8e1a15aba9398e019f0b49df1a4fde98ee17ae345cb5f6b5e2c27f5033e8ce782604051611266919061245e565b60405180910390a15050565b61127a610ee1565b73ffffffffffffffffffffffffffffffffffffffff166112986109c4565b73ffffffffffffffffffffffffffffffffffffffff16146112f7576112bb610ee1565b6040517f118cdaa70000000000000000000000000000000000000000000000000000000081526004016112ee9190611f75565b60405180910390fd5b565b5f60075f9054906101000a900473ffffffffffffffffffffffffffffffffffffffff1690508160075f6101000a81548173ffffffffffffffffffffffffffffffffffffffff021916908373ffffffffffffffffffffffffffffffffffffffff1602179055508173ffffffffffffffffffffffffffffffffffffffff168173ffffffffffffffffffffffffffffffffffffffff167f8be0079c531659141344cd1fd0a4f28419497f9722a3daafe3b4186f6b6457e060405160405180910390a35050565b5f73ffffffffffffffffffffffffffffffffffffffff168273ffffffffffffffffffffffffffffffffffffffff160361142c57816040517f5b08ba180000000000000000000000000000000000000000000000000000000081526004016114239190611f75565b60405180910390fd5b8060055f8573ffffffffffffffffffffffffffffffffffffffff1673ffffffffffffffffffffffffffffffffffffffff1681526020019081526020015f205f8473ffffffffffffffffffffffffffffffffffffffff1673ffffffffffffffffffffffffffffffffffffffff1681526020019081526020015f205f6101000a81548160ff0219169083151502179055508173ffffffffffffffffffffffffffffffffffffffff168373ffffffffffffffffffffffffffffffffffffffff167f17307eab39ab6107e8899845ad3d59bd9653f200f220920489ca2b5937696c31836040516115189190611e15565b60405180910390a3505050565b5f8373ffffffffffffffffffffffffffffffffffffffff163b11156116d1578273ffffffffffffffffffffffffffffffffffffffff1663150b7a02611568610ee1565b8685856040518563ffffffff1660e01b815260040161158a9493929190612ad8565b6020604051808303815f875af19250505080156115c557506040513d601f19601f820116820180604052508101906115c29190612b36565b60015b611646573d805f81146115f3576040519150601f19603f3d011682016040523d82523d5f602084013e6115f8565b606091505b505f81510361163e57836040517f64a0ae920000000000000000000000000000000000000000000000000000000081526004016116359190611f75565b60405180910390fd5b805181602001fd5b63150b7a0260e01b7bffffffffffffffffffffffffffffffffffffffffffffffffffffffff1916817bffffffffffffffffffffffffffffffffffffffffffffffffffffffff1916146116cf57836040517f64a0ae920000000000000000000000000000000000000000000000000000000081526004016116c69190611f75565b60405180910390fd5b505b50505050565b606060405180602001604052805f815250905090565b60606116f882610e22565b505f6117026116d7565b90505f8151116117205760405180602001604052805f81525061174b565b8061172a84611a77565b60405160200161173b9291906127f7565b6040516020818303038152906040525b915050919050565b5f7f01ffc9a7000000000000000000000000000000000000000000000000000000007bffffffffffffffffffffffffffffffffffffffffffffffffffffffff1916827bffffffffffffffffffffffffffffffffffffffffffffffffffffffff1916149050919050565b5f60025f8381526020019081526020015f205f9054906101000a900473ffffffffffffffffffffffffffffffffffffffff169050919050565b808061182d57505f73ffffffffffffffffffffffffffffffffffffffff168273ffffffffffffffffffffffffffffffffffffffff1614155b1561195f575f61183c84610e22565b90505f73ffffffffffffffffffffffffffffffffffffffff168373ffffffffffffffffffffffffffffffffffffffff16141580156118a657508273ffffffffffffffffffffffffffffffffffffffff168173ffffffffffffffffffffffffffffffffffffffff1614155b80156118b957506118b78184610c2f565b155b156118fb57826040517fa9fbf51f0000000000000000000000000000000000000000000000000000000081526004016118f29190611f75565b60405180910390fd5b811561195d57838573ffffffffffffffffffffffffffffffffffffffff168273ffffffffffffffffffffffffffffffffffffffff167f8c5be1e5ebec7d5bd14f71427d1e84f3dd0314c0f7b2291e5b200ac8c7c3b92560405160405180910390a45b505b8360045f8581526020019081526020015f205f6101000a81548173ffffffffffffffffffffffffffffffffffffffff021916908373ffffffffffffffffffffffffffffffffffffffff16021790555050505050565b6119bf838383611b41565b611a72575f73ffffffffffffffffffffffffffffffffffffffff168373ffffffffffffffffffffffffffffffffffffffff1603611a3357806040517f7e273289000000000000000000000000000000000000000000000000000000008152600401611a2a919061245e565b60405180910390fd5b81816040517f177e802f000000000000000000000000000000000000000000000000000000008152600401611a69929190612b61565b60405180910390fd5b505050565b60605f6001611a8584611c01565b0190505f8167ffffffffffffffff811115611aa357611aa261204a565b5b6040519080825280601f01601f191660200182016040528015611ad55781602001600182028036833780820191505090505b5090505f82602001820190505b600115611b36578080600190039150507f3031323334353637383961626364656600000000000000000000000000000000600a86061a8153600a8581611b2b57611b2a612b88565b5b0494505f8503611ae2575b819350505050919050565b5f8073ffffffffffffffffffffffffffffffffffffffff168373ffffffffffffffffffffffffffffffffffffffff1614158015611bf857508273ffffffffffffffffffffffffffffffffffffffff168473ffffffffffffffffffffffffffffffffffffffff161480611bb95750611bb88484610c2f565b5b80611bf757508273ffffffffffffffffffffffffffffffffffffffff16611bdf83610ea8565b73ffffffffffffffffffffffffffffffffffffffff16145b5b90509392505050565b5f805f90507a184f03e93ff9f4daa797ed6e38ed64bf6a1f0100000000000000008310611c5d577a184f03e93ff9f4daa797ed6e38ed64bf6a1f0100000000000000008381611c5357611c52612b88565b5b0492506040810190505b6d04ee2d6d415b85acef81000000008310611c9a576d04ee2d6d415b85acef81000000008381611c9057611c8f612b88565b5b0492506020810190505b662386f26fc100008310611cc957662386f26fc100008381611cbf57611cbe612b88565b5b0492506010810190505b6305f5e1008310611cf2576305f5e1008381611ce857611ce7612b88565b5b0492506008810190505b6127108310611d17576127108381611d0d57611d0c612b88565b5b0492506004810190505b60648310611d3a5760648381611d3057611d2f612b88565b5b0492506002810190505b600a8310611d49576001810190505b80915050919050565b60405180604001604052805f81526020015f81525090565b5f604051905090565b5f80fd5b5f80fd5b5f7fffffffff0000000000000000000000000000000000000000000000000000000082169050919050565b611daf81611d7b565b8114611db9575f80fd5b50565b5f81359050611dca81611da6565b92915050565b5f60208284031215611de557611de4611d73565b5b5f611df284828501611dbc565b91505092915050565b5f8115159050919050565b611e0f81611dfb565b82525050565b5f602082019050611e285f830184611e06565b92915050565b5f81519050919050565b5f82825260208201905092915050565b5f5b83811015611e65578082015181840152602081019050611e4a565b5f8484015250505050565b5f601f19601f8301169050919050565b5f611e8a82611e2e565b611e948185611e38565b9350611ea4818560208601611e48565b611ead81611e70565b840191505092915050565b5f6020820190508181035f830152611ed08184611e80565b905092915050565b5f819050919050565b611eea81611ed8565b8114611ef4575f80fd5b50565b5f81359050611f0581611ee1565b92915050565b5f60208284031215611f2057611f1f611d73565b5b5f611f2d84828501611ef7565b91505092915050565b5f73ffffffffffffffffffffffffffffffffffffffff82169050919050565b5f611f5f82611f36565b9050919050565b611f6f81611f55565b82525050565b5f602082019050611f885f830184611f66565b92915050565b611f9781611f55565b8114611fa1575f80fd5b50565b5f81359050611fb281611f8e565b92915050565b5f8060408385031215611fce57611fcd611d73565b5b5f611fdb85828601611fa4565b9250506020611fec85828601611ef7565b9150509250929050565b5f805f6060848603121561200d5761200c611d73565b5b5f61201a86828701611fa4565b935050602061202b86828701611fa4565b925050604061203c86828701611ef7565b9150509250925092565b5f80fd5b7f4e487b71000000000000000000000000000000000000000000000000000000005f52604160045260245ffd5b61208082611e70565b810181811067ffffffffffffffff8211171561209f5761209e61204a565b5b80604052505050565b5f6120b1611d6a565b90506120bd8282612077565b919050565b5f67ffffffffffffffff8211156120dc576120db61204a565b5b602082029050602081019050919050565b5f80fd5b5f80fd5b5f80fd5b5f80fd5b5f67ffffffffffffffff8211156121175761211661204a565b5b61212082611e70565b9050602081019050919050565b828183375f83830152505050565b5f61214d612148846120fd565b6120a8565b905082815260208101848484011115612169576121686120f9565b5b61217484828561212d565b509392505050565b5f82601f8301126121905761218f612046565b5b81356121a084826020860161213b565b91505092915050565b5f606082840312156121be576121bd6120f1565b5b6121c860606120a8565b90505f6121d784828501611ef7565b5f8301525060206121ea84828501611fa4565b602083015250604082013567ffffffffffffffff81111561220e5761220d6120f5565b5b61221a8482850161217c565b60408301525092915050565b5f612238612233846120c2565b6120a8565b9050808382526020820190506020840283018581111561225b5761225a6120ed565b5b835b818110156122a257803567ffffffffffffffff8111156122805761227f612046565b5b80860161228d89826121a9565b8552602085019450505060208101905061225d565b5050509392505050565b5f82601f8301126122c0576122bf612046565b5b81356122d0848260208601612226565b91505092915050565b5f602082840312156122ee576122ed611d73565b5b5f82013567ffffffffffffffff81111561230b5761230a611d77565b5b612317848285016122ac565b91505092915050565b5f81519050919050565b5f82825260208201905092915050565b5f819050602082019050919050565b61235281611ed8565b82525050565b604082015f82015161236c5f850182612349565b50602082015161237f6020850182612349565b50505050565b5f6123908383612358565b60408301905092915050565b5f602082019050919050565b5f6123b282612320565b6123bc818561232a565b93506123c78361233a565b805f5b838110156123f75781516123de8882612385565b97506123e98361239c565b9250506001810190506123ca565b5085935050505092915050565b5f6020820190508181035f83015261241c81846123a8565b905092915050565b5f6020828403121561243957612438611d73565b5b5f61244684828501611fa4565b91505092915050565b61245881611ed8565b82525050565b5f6020820190506124715f83018461244f565b92915050565b61248081611dfb565b811461248a575f80fd5b50565b5f8135905061249b81612477565b92915050565b5f80604083850312156124b7576124b6611d73565b5b5f6124c485828601611fa4565b92505060206124d58582860161248d565b9150509250929050565b5f67ffffffffffffffff8211156124f9576124f861204a565b5b61250282611e70565b9050602081019050919050565b5f61252161251c846124df565b6120a8565b90508281526020810184848401111561253d5761253c6120f9565b5b61254884828561212d565b509392505050565b5f82601f83011261256457612563612046565b5b813561257484826020860161250f565b91505092915050565b5f805f806080858703121561259557612594611d73565b5b5f6125a287828801611fa4565b94505060206125b387828801611fa4565b93505060406125c487828801611ef7565b925050606085013567ffffffffffffffff8111156125e5576125e4611d77565b5b6125f187828801612550565b91505092959194509250565b5f806040838503121561261357612612611d73565b5b5f61262085828601611fa4565b925050602061263185828601611fa4565b9150509250929050565b7f4e487b71000000000000000000000000000000000000000000000000000000005f52602260045260245ffd5b5f600282049050600182168061267f57607f821691505b6020821081036126925761269161263b565b5b50919050565b5f6060820190506126ab5f830186611f66565b6126b8602083018561244f565b6126c56040830184611f66565b949350505050565b7f4e6569746865722073656e646572206e6f7220726563697069656e74206973205f8201527f77686974656c6973746564000000000000000000000000000000000000000000602082015250565b5f612727602b83611e38565b9150612732826126cd565b604082019050919050565b5f6020820190508181035f8301526127548161271b565b9050919050565b7f4e487b71000000000000000000000000000000000000000000000000000000005f52603260045260245ffd5b5f60608201905061279b5f83018661244f565b6127a8602083018561244f565b6127b56040830184611f66565b949350505050565b5f81905092915050565b5f6127d182611e2e565b6127db81856127bd565b93506127eb818560208601611e48565b80840191505092915050565b5f61280282856127c7565b915061280e82846127c7565b91508190509392505050565b5f819050815f5260205f209050919050565b5f6020601f8301049050919050565b5f82821b905092915050565b5f600883026128767fffffffffffffffffffffffffffffffffffffffffffffffffffffffffffffffff8261283b565b612880868361283b565b95508019841693508086168417925050509392505050565b5f819050919050565b5f6128bb6128b66128b184611ed8565b612898565b611ed8565b9050919050565b5f819050919050565b6128d4836128a1565b6128e86128e0826128c2565b848454612847565b825550505050565b5f90565b6128fc6128f0565b6129078184846128cb565b505050565b5b8181101561292a5761291f5f826128f4565b60018101905061290d565b5050565b601f82111561296f576129408161281a565b6129498461282c565b81016020851015612958578190505b61296c6129648561282c565b83018261290c565b50505b505050565b5f82821c905092915050565b5f61298f5f1984600802612974565b1980831691505092915050565b5f6129a78383612980565b9150826002028217905092915050565b6129c082611e2e565b67ffffffffffffffff8111156129d9576129d861204a565b5b6129e38254612668565b6129ee82828561292e565b5f60209050601f831160018114612a1f575f8415612a0d578287015190505b612a17858261299c565b865550612a7e565b601f198416612a2d8661281a565b5f5b82811015612a5457848901518255600182019150602085019450602081019050612a2f565b86831015612a715784890151612a6d601f891682612980565b8355505b6001600288020188555050505b505050505050565b5f81519050919050565b5f82825260208201905092915050565b5f612aaa82612a86565b612ab48185612a90565b9350612ac4818560208601611e48565b612acd81611e70565b840191505092915050565b5f608082019050612aeb5f830187611f66565b612af86020830186611f66565b612b05604083018561244f565b8181036060830152612b178184612aa0565b905095945050505050565b5f81519050612b3081611da6565b92915050565b5f60208284031215612b4b57612b4a611d73565b5b5f612b5884828501612b22565b91505092915050565b5f604082019050612b745f830185611f66565b612b81602083018461244f565b9392505050565b7f4e487b71000000000000000000000000000000000000000000000000000000005f52601260045260245ffdfea2646970667358221220ad76c30dd6e338fd6cd7ad6bbaa2112efd07103885789eb5bf4b2ce6ac01b3df64736f6c63430008160033",
					"opcodes": "PUSH1 0x80 PUSH1 0x40 MSTORE CALLVALUE DUP1 ISZERO PUSH3 0x10 JUMPI PUSH0 DUP1 REVERT JUMPDEST POP CALLER PUSH1 0x40 MLOAD DUP1 PUSH1 0x40 ADD PUSH1 0x40 MSTORE DUP1 PUSH1 0x9 DUP2 MSTORE PUSH1 0x20 ADD PUSH32 0x53696D706C654E46540000000000000000000000000000000000000000000000 DUP2 MSTORE POP PUSH1 0x40 MLOAD DUP1 PUSH1 0x40 ADD PUSH1 0x40 MSTORE DUP1 PUSH1 0x4 DUP2 MSTORE PUSH1 0x20 ADD PUSH32 0x534E465400000000000000000000000000000000000000000000000000000000 DUP2 MSTORE POP DUP2 PUSH0 SWAP1 DUP2 PUSH3 0x8E SWAP2 SWAP1 PUSH3 0x455 JUMP JUMPDEST POP DUP1 PUSH1 0x1 SWAP1 DUP2 PUSH3 0xA0 SWAP2 SWAP1 PUSH3 0x455 JUMP JUMPDEST POP POP POP PUSH0 PUSH20 0xFFFFFFFFFFFFFFFFFFFFFFFFFFFFFFFFFFFFFFFF AND DUP2 PUSH20 0xFFFFFFFFFFFFFFFFFFFFFFFFFFFFFFFFFFFFFFFF AND SUB PUSH3 0x116 JUMPI PUSH0 PUSH1 0x40 MLOAD PUSH32 0x1E4FBDF700000000000000000000000000000000000000000000000000000000 DUP2 MSTORE PUSH1 0x4 ADD PUSH3 0x10D SWAP2 SWAP1 PUSH3 0x57C JUMP JUMPDEST PUSH1 0x40 MLOAD DUP1 SWAP2 SUB SWAP1 REVERT JUMPDEST PUSH3 0x127 DUP2 PUSH3 0x12E PUSH1 0x20 SHL PUSH1 0x20 SHR JUMP JUMPDEST POP PUSH3 0x597 JUMP JUMPDEST PUSH0 PUSH1 0x7 PUSH0 SWAP1 SLOAD SWAP1 PUSH2 0x100 EXP SWAP1 DIV PUSH20 0xFFFFFFFFFFFFFFFFFFFFFFFFFFFFFFFFFFFFFFFF AND SWAP1 POP DUP2 PUSH1 0x7 PUSH0 PUSH2 0x100 EXP DUP2 SLOAD DUP2 PUSH20 0xFFFFFFFFFFFFFFFFFFFFFFFFFFFFFFFFFFFFFFFF MUL NOT AND SWAP1 DUP4 PUSH20 0xFFFFFFFFFFFFFFFFFFFFFFFFFFFFFFFFFFFFFFFF AND MUL OR SWAP1 SSTORE POP DUP2 PUSH20 0xFFFFFFFFFFFFFFFFFFFFFFFFFFFFFFFFFFFFFFFF AND DUP2 PUSH20 0xFFFFFFFFFFFFFFFFFFFFFFFFFFFFFFFFFFFFFFFF AND PUSH32 0x8BE0079C531659141344CD1FD0A4F28419497F9722A3DAAFE3B4186F6B6457E0 PUSH1 0x40 MLOAD PUSH1 0x40 MLOAD DUP1 SWAP2 SUB SWAP1 LOG3 POP POP JUMP JUMPDEST PUSH0 DUP2 MLOAD SWAP1 POP SWAP2 SWAP1 POP JUMP JUMPDEST PUSH32 0x4E487B7100000000000000000000000000000000000000000000000000000000 PUSH0 MSTORE PUSH1 0x41 PUSH1 0x4 MSTORE PUSH1 0x24 PUSH0 REVERT JUMPDEST PUSH32 0x4E487B7100000000000000000000000000000000000000000000000000000000 PUSH0 MSTORE PUSH1 0x22 PUSH1 0x4 MSTORE PUSH1 0x24 PUSH0 REVERT JUMPDEST PUSH0 PUSH1 0x2 DUP3 DIV SWAP1 POP PUSH1 0x1 DUP3 AND DUP1 PUSH3 0x26D JUMPI PUSH1 0x7F DUP3 AND SWAP2 POP JUMPDEST PUSH1 0x20 DUP3 LT DUP2 SUB PUSH3 0x283 JUMPI PUSH3 0x282 PUSH3 0x228 JUMP JUMPDEST JUMPDEST POP SWAP2 SWAP1 POP JUMP JUMPDEST PUSH0 DUP2 SWAP1 POP DUP2 PUSH0 MSTORE PUSH1 0x20 PUSH0 KECCAK256 SWAP1 POP SWAP2 SWAP1 POP JUMP JUMPDEST PUSH0 PUSH1 0x20 PUSH1 0x1F DUP4 ADD DIV SWAP1 POP SWAP2 SWAP1 POP JUMP JUMPDEST PUSH0 DUP3 DUP3 SHL SWAP1 POP SWAP3 SWAP2 POP POP JUMP JUMPDEST PUSH0 PUSH1 0x8 DUP4 MUL PUSH3 0x2E7 PUSH32 0xFFFFFFFFFFFFFFFFFFFFFFFFFFFFFFFFFFFFFFFFFFFFFFFFFFFFFFFFFFFFFFFF DUP3 PUSH3 0x2AA JUMP JUMPDEST PUSH3 0x2F3 DUP7 DUP4 PUSH3 0x2AA JUMP JUMPDEST SWAP6 POP DUP1 NOT DUP5 AND SWAP4 POP DUP1 DUP7 AND DUP5 OR SWAP3 POP POP POP SWAP4 SWAP3 POP POP POP JUMP JUMPDEST PUSH0 DUP2 SWAP1 POP SWAP2 SWAP1 POP JUMP JUMPDEST PUSH0 DUP2 SWAP1 POP SWAP2 SWAP1 POP JUMP JUMPDEST PUSH0 PUSH3 0x33D PUSH3 0x337 PUSH3 0x331 DUP5 PUSH3 0x30B JUMP JUMPDEST PUSH3 0x314 JUMP JUMPDEST PUSH3 0x30B JUMP JUMPDEST SWAP1 POP SWAP2 SWAP1 POP JUMP JUMPDEST PUSH0 DUP2 SWAP1 POP SWAP2 SWAP1 POP JUMP JUMPDEST PUSH3 0x358 DUP4 PUSH3 0x31D JUMP JUMPDEST PUSH3 0x370 PUSH3 0x367 DUP3 PUSH3 0x344 JUMP JUMPDEST DUP5 DUP5 SLOAD PUSH3 0x2B6 JUMP JUMPDEST DUP3 SSTORE POP POP POP POP JUMP JUMPDEST PUSH0 SWAP1 JUMP JUMPDEST PUSH3 0x386 PUSH3 0x378 JUMP JUMPDEST PUSH3 0x393 DUP2 DUP5 DUP5 PUSH3 0x34D JUMP JUMPDEST POP POP POP JUMP JUMPDEST JUMPDEST DUP2 DUP2 LT ISZERO PUSH3 0x3BA JUMPI PUSH3 0x3AE PUSH0 DUP3 PUSH3 0x37C JUMP JUMPDEST PUSH1 0x1 DUP2 ADD SWAP1 POP PUSH3 0x399 JUMP JUMPDEST POP POP JUMP JUMPDEST PUSH1 0x1F DUP3 GT ISZERO PUSH3 0x409 JUMPI PUSH3 0x3D3 DUP2 PUSH3 0x289 JUMP JUMPDEST PUSH3 0x3DE DUP5 PUSH3 0x29B JUMP JUMPDEST DUP2 ADD PUSH1 0x20 DUP6 LT ISZERO PUSH3 0x3EE JUMPI DUP2 SWAP1 POP JUMPDEST PUSH3 0x406 PUSH3 0x3FD DUP6 PUSH3 0x29B JUMP JUMPDEST DUP4 ADD DUP3 PUSH3 0x398 JUMP JUMPDEST POP POP JUMPDEST POP POP POP JUMP JUMPDEST PUSH0 DUP3 DUP3 SHR SWAP1 POP SWAP3 SWAP2 POP POP JUMP JUMPDEST PUSH0 PUSH3 0x42B PUSH0 NOT DUP5 PUSH1 0x8 MUL PUSH3 0x40E JUMP JUMPDEST NOT DUP1 DUP4 AND SWAP2 POP POP SWAP3 SWAP2 POP POP JUMP JUMPDEST PUSH0 PUSH3 0x445 DUP4 DUP4 PUSH3 0x41A JUMP JUMPDEST SWAP2 POP DUP3 PUSH1 0x2 MUL DUP3 OR SWAP1 POP SWAP3 SWAP2 POP POP JUMP JUMPDEST PUSH3 0x460 DUP3 PUSH3 0x1F1 JUMP JUMPDEST PUSH8 0xFFFFFFFFFFFFFFFF DUP2 GT ISZERO PUSH3 0x47C JUMPI PUSH3 0x47B PUSH3 0x1FB JUMP JUMPDEST JUMPDEST PUSH3 0x488 DUP3 SLOAD PUSH3 0x255 JUMP JUMPDEST PUSH3 0x495 DUP3 DUP3 DUP6 PUSH3 0x3BE JUMP JUMPDEST PUSH0 PUSH1 0x20 SWAP1 POP PUSH1 0x1F DUP4 GT PUSH1 0x1 DUP2 EQ PUSH3 0x4CB JUMPI PUSH0 DUP5 ISZERO PUSH3 0x4B6 JUMPI DUP3 DUP8 ADD MLOAD SWAP1 POP JUMPDEST PUSH3 0x4C2 DUP6 DUP3 PUSH3 0x438 JUMP JUMPDEST DUP7 SSTORE POP PUSH3 0x531 JUMP JUMPDEST PUSH1 0x1F NOT DUP5 AND PUSH3 0x4DB DUP7 PUSH3 0x289 JUMP JUMPDEST PUSH0 JUMPDEST DUP3 DUP2 LT ISZERO PUSH3 0x504 JUMPI DUP5 DUP10 ADD MLOAD DUP3 SSTORE PUSH1 0x1 DUP3 ADD SWAP2 POP PUSH1 0x20 DUP6 ADD SWAP5 POP PUSH1 0x20 DUP2 ADD SWAP1 POP PUSH3 0x4DD JUMP JUMPDEST DUP7 DUP4 LT ISZERO PUSH3 0x524 JUMPI DUP5 DUP10 ADD MLOAD PUSH3 0x520 PUSH1 0x1F DUP10 AND DUP3 PUSH3 0x41A JUMP JUMPDEST DUP4 SSTORE POP JUMPDEST PUSH1 0x1 PUSH1 0x2 DUP9 MUL ADD DUP9 SSTORE POP POP POP JUMPDEST POP POP POP POP POP POP JUMP JUMPDEST PUSH0 PUSH20 0xFFFFFFFFFFFFFFFFFFFFFFFFFFFFFFFFFFFFFFFF DUP3 AND SWAP1 POP SWAP2 SWAP1 POP JUMP JUMPDEST PUSH0 PUSH3 0x564 DUP3 PUSH3 0x539 JUMP JUMPDEST SWAP1 POP SWAP2 SWAP1 POP JUMP JUMPDEST PUSH3 0x576 DUP2 PUSH3 0x558 JUMP JUMPDEST DUP3 MSTORE POP POP JUMP JUMPDEST PUSH0 PUSH1 0x20 DUP3 ADD SWAP1 POP PUSH3 0x591 PUSH0 DUP4 ADD DUP5 PUSH3 0x56B JUMP JUMPDEST SWAP3 SWAP2 POP POP JUMP JUMPDEST PUSH2 0x2BEB DUP1 PUSH3 0x5A5 PUSH0 CODECOPY PUSH0 RETURN INVALID PUSH1 0x80 PUSH1 0x40 MSTORE CALLVALUE DUP1 ISZERO PUSH2 0xF JUMPI PUSH0 DUP1 REVERT JUMPDEST POP PUSH1 0x4 CALLDATASIZE LT PUSH2 0x135 JUMPI PUSH0 CALLDATALOAD PUSH1 0xE0 SHR DUP1 PUSH4 0x7A6CE2E1 GT PUSH2 0xB6 JUMPI DUP1 PUSH4 0xA22CB465 GT PUSH2 0x7A JUMPI DUP1 PUSH4 0xA22CB465 EQ PUSH2 0x34B JUMPI DUP1 PUSH4 0xB88D4FDE EQ PUSH2 0x367 JUMPI DUP1 PUSH4 0xC87B56DD EQ PUSH2 0x383 JUMPI DUP1 PUSH4 0xE43252D7 EQ PUSH2 0x3B3 JUMPI DUP1 PUSH4 0xE985E9C5 EQ PUSH2 0x3CF JUMPI DUP1 PUSH4 0xF2FDE38B EQ PUSH2 0x3FF JUMPI PUSH2 0x135 JUMP JUMPDEST DUP1 PUSH4 0x7A6CE2E1 EQ PUSH2 0x2A5 JUMPI DUP1 PUSH4 0x8AB1D681 EQ PUSH2 0x2C3 JUMPI DUP1 PUSH4 0x8DA5CB5B EQ PUSH2 0x2DF JUMPI DUP1 PUSH4 0x95D89B41 EQ PUSH2 0x2FD JUMPI DUP1 PUSH4 0x9B19251A EQ PUSH2 0x31B JUMPI PUSH2 0x135 JUMP JUMPDEST DUP1 PUSH4 0x42842E0E GT PUSH2 0xFD JUMPI DUP1 PUSH4 0x42842E0E EQ PUSH2 0x1EF JUMPI DUP1 PUSH4 0x5F6C96A0 EQ PUSH2 0x20B JUMPI DUP1 PUSH4 0x6352211E EQ PUSH2 0x23B JUMPI DUP1 PUSH4 0x70A08231 EQ PUSH2 0x26B JUMPI DUP1 PUSH4 0x715018A6 EQ PUSH2 0x29B JUMPI PUSH2 0x135 JUMP JUMPDEST DUP1 PUSH4 0x1FFC9A7 EQ PUSH2 0x139 JUMPI DUP1 PUSH4 0x6FDDE03 EQ PUSH2 0x169 JUMPI DUP1 PUSH4 0x81812FC EQ PUSH2 0x187 JUMPI DUP1 PUSH4 0x95EA7B3 EQ PUSH2 0x1B7 JUMPI DUP1 PUSH4 0x23B872DD EQ PUSH2 0x1D3 JUMPI JUMPDEST PUSH0 DUP1 REVERT JUMPDEST PUSH2 0x153 PUSH1 0x4 DUP1 CALLDATASIZE SUB DUP2 ADD SWAP1 PUSH2 0x14E SWAP2 SWAP1 PUSH2 0x1DD0 JUMP JUMPDEST PUSH2 0x41B JUMP JUMPDEST PUSH1 0x40 MLOAD PUSH2 0x160 SWAP2 SWAP1 PUSH2 0x1E15 JUMP JUMPDEST PUSH1 0x40 MLOAD DUP1 SWAP2 SUB SWAP1 RETURN JUMPDEST PUSH2 0x171 PUSH2 0x47B JUMP JUMPDEST PUSH1 0x40 MLOAD PUSH2 0x17E SWAP2 SWAP1 PUSH2 0x1EB8 JUMP JUMPDEST PUSH1 0x40 MLOAD DUP1 SWAP2 SUB SWAP1 RETURN JUMPDEST PUSH2 0x1A1 PUSH1 0x4 DUP1 CALLDATASIZE SUB DUP2 ADD SWAP1 PUSH2 0x19C SWAP2 SWAP1 PUSH2 0x1F0B JUMP JUMPDEST PUSH2 0x50A JUMP JUMPDEST PUSH1 0x40 MLOAD PUSH2 0x1AE SWAP2 SWAP1 PUSH2 0x1F75 JUMP JUMPDEST PUSH1 0x40 MLOAD DUP1 SWAP2 SUB SWAP1 RETURN JUMPDEST PUSH2 0x1D1 PUSH1 0x4 DUP1 CALLDATASIZE SUB DUP2 ADD SWAP1 PUSH2 0x1CC SWAP2 SWAP1 PUSH2 0x1FB8 JUMP JUMPDEST PUSH2 0x525 JUMP JUMPDEST STOP JUMPDEST PUSH2 0x1ED PUSH1 0x4 DUP1 CALLDATASIZE SUB DUP2 ADD SWAP1 PUSH2 0x1E8 SWAP2 SWAP1 PUSH2 0x1FF6 JUMP JUMPDEST PUSH2 0x53B JUMP JUMPDEST STOP JUMPDEST PUSH2 0x209 PUSH1 0x4 DUP1 CALLDATASIZE SUB DUP2 ADD SWAP1 PUSH2 0x204 SWAP2 SWAP1 PUSH2 0x1FF6 JUMP JUMPDEST PUSH2 0x63A JUMP JUMPDEST STOP JUMPDEST PUSH2 0x225 PUSH1 0x4 DUP1 CALLDATASIZE SUB DUP2 ADD SWAP1 PUSH2 0x220 SWAP2 SWAP1 PUSH2 0x22D9 JUMP JUMPDEST PUSH2 0x659 JUMP JUMPDEST PUSH1 0x40 MLOAD PUSH2 0x232 SWAP2 SWAP1 PUSH2 0x2404 JUMP JUMPDEST PUSH1 0x40 MLOAD DUP1 SWAP2 SUB SWAP1 RETURN JUMPDEST PUSH2 0x255 PUSH1 0x4 DUP1 CALLDATASIZE SUB DUP2 ADD SWAP1 PUSH2 0x250 SWAP2 SWAP1 PUSH2 0x1F0B JUMP JUMPDEST PUSH2 0x88C JUMP JUMPDEST PUSH1 0x40 MLOAD PUSH2 0x262 SWAP2 SWAP1 PUSH2 0x1F75 JUMP JUMPDEST PUSH1 0x40 MLOAD DUP1 SWAP2 SUB SWAP1 RETURN JUMPDEST PUSH2 0x285 PUSH1 0x4 DUP1 CALLDATASIZE SUB DUP2 ADD SWAP1 PUSH2 0x280 SWAP2 SWAP1 PUSH2 0x2424 JUMP JUMPDEST PUSH2 0x89D JUMP JUMPDEST PUSH1 0x40 MLOAD PUSH2 0x292 SWAP2 SWAP1 PUSH2 0x245E JUMP JUMPDEST PUSH1 0x40 MLOAD DUP1 SWAP2 SUB SWAP1 RETURN JUMPDEST PUSH2 0x2A3 PUSH2 0x953 JUMP JUMPDEST STOP JUMPDEST PUSH2 0x2AD PUSH2 0x966 JUMP JUMPDEST PUSH1 0x40 MLOAD PUSH2 0x2BA SWAP2 SWAP1 PUSH2 0x1F75 JUMP JUMPDEST PUSH1 0x40 MLOAD DUP1 SWAP2 SUB SWAP1 RETURN JUMPDEST PUSH2 0x2DD PUSH1 0x4 DUP1 CALLDATASIZE SUB DUP2 ADD SWAP1 PUSH2 0x2D8 SWAP2 SWAP1 PUSH2 0x2424 JUMP JUMPDEST PUSH2 0x96D JUMP JUMPDEST STOP JUMPDEST PUSH2 0x2E7 PUSH2 0x9C4 JUMP JUMPDEST PUSH1 0x40 MLOAD PUSH2 0x2F4 SWAP2 SWAP1 PUSH2 0x1F75 JUMP JUMPDEST PUSH1 0x40 MLOAD DUP1 SWAP2 SUB SWAP1 RETURN JUMPDEST PUSH2 0x305 PUSH2 0x9EC JUMP JUMPDEST PUSH1 0x40 MLOAD PUSH2 0x312 SWAP2 SWAP1 PUSH2 0x1EB8 JUMP JUMPDEST PUSH1 0x40 MLOAD DUP1 SWAP2 SUB SWAP1 RETURN JUMPDEST PUSH2 0x335 PUSH1 0x4 DUP1 CALLDATASIZE SUB DUP2 ADD SWAP1 PUSH2 0x330 SWAP2 SWAP1 PUSH2 0x2424 JUMP JUMPDEST PUSH2 0xA7C JUMP JUMPDEST PUSH1 0x40 MLOAD PUSH2 0x342 SWAP2 SWAP1 PUSH2 0x1E15 JUMP JUMPDEST PUSH1 0x40 MLOAD DUP1 SWAP2 SUB SWAP1 RETURN JUMPDEST PUSH2 0x365 PUSH1 0x4 DUP1 CALLDATASIZE SUB DUP2 ADD SWAP1 PUSH2 0x360 SWAP2 SWAP1 PUSH2 0x24A1 JUMP JUMPDEST PUSH2 0xA99 JUMP JUMPDEST STOP JUMPDEST PUSH2 0x381 PUSH1 0x4 DUP1 CALLDATASIZE SUB DUP2 ADD SWAP1 PUSH2 0x37C SWAP2 SWAP1 PUSH2 0x257D JUMP JUMPDEST PUSH2 0xAAF JUMP JUMPDEST STOP JUMPDEST PUSH2 0x39D PUSH1 0x4 DUP1 CALLDATASIZE SUB DUP2 ADD SWAP1 PUSH2 0x398 SWAP2 SWAP1 PUSH2 0x1F0B JUMP JUMPDEST PUSH2 0xACC JUMP JUMPDEST PUSH1 0x40 MLOAD PUSH2 0x3AA SWAP2 SWAP1 PUSH2 0x1EB8 JUMP JUMPDEST PUSH1 0x40 MLOAD DUP1 SWAP2 SUB SWAP1 RETURN JUMPDEST PUSH2 0x3CD PUSH1 0x4 DUP1 CALLDATASIZE SUB DUP2 ADD SWAP1 PUSH2 0x3C8 SWAP2 SWAP1 PUSH2 0x2424 JUMP JUMPDEST PUSH2 0xBD7 JUMP JUMPDEST STOP JUMPDEST PUSH2 0x3E9 PUSH1 0x4 DUP1 CALLDATASIZE SUB DUP2 ADD SWAP1 PUSH2 0x3E4 SWAP2 SWAP1 PUSH2 0x25FD JUMP JUMPDEST PUSH2 0xC2F JUMP JUMPDEST PUSH1 0x40 MLOAD PUSH2 0x3F6 SWAP2 SWAP1 PUSH2 0x1E15 JUMP JUMPDEST PUSH1 0x40 MLOAD DUP1 SWAP2 SUB SWAP1 RETURN JUMPDEST PUSH2 0x419 PUSH1 0x4 DUP1 CALLDATASIZE SUB DUP2 ADD SWAP1 PUSH2 0x414 SWAP2 SWAP1 PUSH2 0x2424 JUMP JUMPDEST PUSH2 0xCBD JUMP JUMPDEST STOP JUMPDEST PUSH0 PUSH4 0x49064906 PUSH1 0xE0 SHL PUSH28 0xFFFFFFFFFFFFFFFFFFFFFFFFFFFFFFFFFFFFFFFFFFFFFFFFFFFFFFFF NOT AND DUP3 PUSH28 0xFFFFFFFFFFFFFFFFFFFFFFFFFFFFFFFFFFFFFFFFFFFFFFFFFFFFFFFF NOT AND EQ DUP1 PUSH2 0x474 JUMPI POP PUSH2 0x473 DUP3 PUSH2 0xD41 JUMP JUMPDEST JUMPDEST SWAP1 POP SWAP2 SWAP1 POP JUMP JUMPDEST PUSH1 0x60 PUSH0 DUP1 SLOAD PUSH2 0x489 SWAP1 PUSH2 0x2668 JUMP JUMPDEST DUP1 PUSH1 0x1F ADD PUSH1 0x20 DUP1 SWAP2 DIV MUL PUSH1 0x20 ADD PUSH1 0x40 MLOAD SWAP1 DUP2 ADD PUSH1 0x40 MSTORE DUP1 SWAP3 SWAP2 SWAP1 DUP2 DUP2 MSTORE PUSH1 0x20 ADD DUP3 DUP1 SLOAD PUSH2 0x4B5 SWAP1 PUSH2 0x2668 JUMP JUMPDEST DUP1 ISZERO PUSH2 0x500 JUMPI DUP1 PUSH1 0x1F LT PUSH2 0x4D7 JUMPI PUSH2 0x100 DUP1 DUP4 SLOAD DIV MUL DUP4 MSTORE SWAP2 PUSH1 0x20 ADD SWAP2 PUSH2 0x500 JUMP JUMPDEST DUP3 ADD SWAP2 SWAP1 PUSH0 MSTORE PUSH1 0x20 PUSH0 KECCAK256 SWAP1 JUMPDEST DUP2 SLOAD DUP2 MSTORE SWAP1 PUSH1 0x1 ADD SWAP1 PUSH1 0x20 ADD DUP1 DUP4 GT PUSH2 0x4E3 JUMPI DUP3 SWAP1 SUB PUSH1 0x1F AND DUP3 ADD SWAP2 JUMPDEST POP POP POP POP POP SWAP1 POP SWAP1 JUMP JUMPDEST PUSH0 PUSH2 0x514 DUP3 PUSH2 0xE22 JUMP JUMPDEST POP PUSH2 0x51E DUP3 PUSH2 0xEA8 JUMP JUMPDEST SWAP1 POP SWAP2 SWAP1 POP JUMP JUMPDEST PUSH2 0x537 DUP3 DUP3 PUSH2 0x532 PUSH2 0xEE1 JUMP JUMPDEST PUSH2 0xEE8 JUMP JUMPDEST POP POP JUMP JUMPDEST PUSH0 PUSH20 0xFFFFFFFFFFFFFFFFFFFFFFFFFFFFFFFFFFFFFFFF AND DUP3 PUSH20 0xFFFFFFFFFFFFFFFFFFFFFFFFFFFFFFFFFFFFFFFF AND SUB PUSH2 0x5AB JUMPI PUSH0 PUSH1 0x40 MLOAD PUSH32 0x64A0AE9200000000000000000000000000000000000000000000000000000000 DUP2 MSTORE PUSH1 0x4 ADD PUSH2 0x5A2 SWAP2 SWAP1 PUSH2 0x1F75 JUMP JUMPDEST PUSH1 0x40 MLOAD DUP1 SWAP2 SUB SWAP1 REVERT JUMPDEST PUSH0 PUSH2 0x5BE DUP4 DUP4 PUSH2 0x5B9 PUSH2 0xEE1 JUMP JUMPDEST PUSH2 0xEFA JUMP JUMPDEST SWAP1 POP DUP4 PUSH20 0xFFFFFFFFFFFFFFFFFFFFFFFFFFFFFFFFFFFFFFFF AND DUP2 PUSH20 0xFFFFFFFFFFFFFFFFFFFFFFFFFFFFFFFFFFFFFFFF AND EQ PUSH2 0x634 JUMPI DUP4 DUP3 DUP3 PUSH1 0x40 MLOAD PUSH32 0x64283D7B00000000000000000000000000000000000000000000000000000000 DUP2 MSTORE PUSH1 0x4 ADD PUSH2 0x62B SWAP4 SWAP3 SWAP2 SWAP1 PUSH2 0x2698 JUMP JUMPDEST PUSH1 0x40 MLOAD DUP1 SWAP2 SUB SWAP1 REVERT JUMPDEST POP POP POP POP JUMP JUMPDEST PUSH2 0x654 DUP4 DUP4 DUP4 PUSH1 0x40 MLOAD DUP1 PUSH1 0x20 ADD PUSH1 0x40 MSTORE DUP1 PUSH0 DUP2 MSTORE POP PUSH2 0xAAF JUMP JUMPDEST POP POP POP JUMP JUMPDEST PUSH1 0x60 PUSH1 0x8 PUSH0 CALLER PUSH20 0xFFFFFFFFFFFFFFFFFFFFFFFFFFFFFFFFFFFFFFFF AND PUSH20 0xFFFFFFFFFFFFFFFFFFFFFFFFFFFFFFFFFFFFFFFF AND DUP2 MSTORE PUSH1 0x20 ADD SWAP1 DUP2 MSTORE PUSH1 0x20 ADD PUSH0 KECCAK256 PUSH0 SWAP1 SLOAD SWAP1 PUSH2 0x100 EXP SWAP1 DIV PUSH1 0xFF AND PUSH2 0x6E4 JUMPI PUSH1 0x40 MLOAD PUSH32 0x8C379A000000000000000000000000000000000000000000000000000000000 DUP2 MSTORE PUSH1 0x4 ADD PUSH2 0x6DB SWAP1 PUSH2 0x273D JUMP JUMPDEST PUSH1 0x40 MLOAD DUP1 SWAP2 SUB SWAP1 REVERT JUMPDEST PUSH0 DUP3 MLOAD PUSH8 0xFFFFFFFFFFFFFFFF DUP2 GT ISZERO PUSH2 0x700 JUMPI PUSH2 0x6FF PUSH2 0x204A JUMP JUMPDEST JUMPDEST PUSH1 0x40 MLOAD SWAP1 DUP1 DUP3 MSTORE DUP1 PUSH1 0x20 MUL PUSH1 0x20 ADD DUP3 ADD PUSH1 0x40 MSTORE DUP1 ISZERO PUSH2 0x739 JUMPI DUP2 PUSH1 0x20 ADD JUMPDEST PUSH2 0x726 PUSH2 0x1D52 JUMP JUMPDEST DUP2 MSTORE PUSH1 0x20 ADD SWAP1 PUSH1 0x1 SWAP1 SUB SWAP1 DUP2 PUSH2 0x71E JUMPI SWAP1 POP JUMPDEST POP SWAP1 POP PUSH0 JUMPDEST DUP4 MLOAD DUP2 LT ISZERO PUSH2 0x882 JUMPI PUSH0 PUSH2 0x752 PUSH1 0x9 PUSH2 0x1105 JUMP JUMPDEST SWAP1 POP PUSH2 0x75E PUSH1 0x9 PUSH2 0x1111 JUMP JUMPDEST PUSH2 0x786 DUP6 DUP4 DUP2 MLOAD DUP2 LT PUSH2 0x774 JUMPI PUSH2 0x773 PUSH2 0x275B JUMP JUMPDEST JUMPDEST PUSH1 0x20 MUL PUSH1 0x20 ADD ADD MLOAD PUSH1 0x20 ADD MLOAD DUP3 PUSH2 0x1125 JUMP JUMPDEST PUSH2 0x7AE DUP2 DUP7 DUP5 DUP2 MLOAD DUP2 LT PUSH2 0x79D JUMPI PUSH2 0x79C PUSH2 0x275B JUMP JUMPDEST JUMPDEST PUSH1 0x20 MUL PUSH1 0x20 ADD ADD MLOAD PUSH1 0x40 ADD MLOAD PUSH2 0x1218 JUMP JUMPDEST PUSH1 0x40 MLOAD DUP1 PUSH1 0x40 ADD PUSH1 0x40 MSTORE DUP1 DUP7 DUP5 DUP2 MLOAD DUP2 LT PUSH2 0x7CC JUMPI PUSH2 0x7CB PUSH2 0x275B JUMP JUMPDEST JUMPDEST PUSH1 0x20 MUL PUSH1 0x20 ADD ADD MLOAD PUSH0 ADD MLOAD DUP2 MSTORE PUSH1 0x20 ADD DUP3 DUP2 MSTORE POP DUP4 DUP4 DUP2 MLOAD DUP2 LT PUSH2 0x7F3 JUMPI PUSH2 0x7F2 PUSH2 0x275B JUMP JUMPDEST JUMPDEST PUSH1 0x20 MUL PUSH1 0x20 ADD ADD DUP2 SWAP1 MSTORE POP PUSH32 0xF371D67483809EDBC84279729528D26A3E37CE67F1E3A911778DBF88FF927CA2 DUP6 DUP4 DUP2 MLOAD DUP2 LT PUSH2 0x832 JUMPI PUSH2 0x831 PUSH2 0x275B JUMP JUMPDEST JUMPDEST PUSH1 0x20 MUL PUSH1 0x20 ADD ADD MLOAD PUSH0 ADD MLOAD DUP3 DUP8 DUP6 DUP2 MLOAD DUP2 LT PUSH2 0x851 JUMPI PUSH2 0x850 PUSH2 0x275B JUMP JUMPDEST JUMPDEST PUSH1 0x20 MUL PUSH1 0x20 ADD ADD MLOAD PUSH1 0x20 ADD MLOAD PUSH1 0x40 MLOAD PUSH2 0x86C SWAP4 SWAP3 SWAP2 SWAP1 PUSH2 0x2788 JUMP JUMPDEST PUSH1 0x40 MLOAD DUP1 SWAP2 SUB SWAP1 LOG1 POP DUP1 DUP1 PUSH1 0x1 ADD SWAP2 POP POP PUSH2 0x73E JUMP JUMPDEST POP DUP1 SWAP2 POP POP SWAP2 SWAP1 POP JUMP JUMPDEST PUSH0 PUSH2 0x896 DUP3 PUSH2 0xE22 JUMP JUMPDEST SWAP1 POP SWAP2 SWAP1 POP JUMP JUMPDEST PUSH0 DUP1 PUSH20 0xFFFFFFFFFFFFFFFFFFFFFFFFFFFFFFFFFFFFFFFF AND DUP3 PUSH20 0xFFFFFFFFFFFFFFFFFFFFFFFFFFFFFFFFFFFFFFFF AND SUB PUSH2 0x90E JUMPI PUSH0 PUSH1 0x40 MLOAD PUSH32 0x89C62B6400000000000000000000000000000000000000000000000000000000 DUP2 MSTORE PUSH1 0x4 ADD PUSH2 0x905 SWAP2 SWAP1 PUSH2 0x1F75 JUMP JUMPDEST PUSH1 0x40 MLOAD DUP1 SWAP2 SUB SWAP1 REVERT JUMPDEST PUSH1 0x3 PUSH0 DUP4 PUSH20 0xFFFFFFFFFFFFFFFFFFFFFFFFFFFFFFFFFFFFFFFF AND PUSH20 0xFFFFFFFFFFFFFFFFFFFFFFFFFFFFFFFFFFFFFFFF AND DUP2 MSTORE PUSH1 0x20 ADD SWAP1 DUP2 MSTORE PUSH1 0x20 ADD PUSH0 KECCAK256 SLOAD SWAP1 POP SWAP2 SWAP1 POP JUMP JUMPDEST PUSH2 0x95B PUSH2 0x1272 JUMP JUMPDEST PUSH2 0x964 PUSH0 PUSH2 0x12F9 JUMP JUMPDEST JUMP JUMPDEST PUSH0 CALLER SWAP1 POP SWAP1 JUMP JUMPDEST PUSH0 PUSH1 0x8 PUSH0 DUP4 PUSH20 0xFFFFFFFFFFFFFFFFFFFFFFFFFFFFFFFFFFFFFFFF AND PUSH20 0xFFFFFFFFFFFFFFFFFFFFFFFFFFFFFFFFFFFFFFFF AND DUP2 MSTORE PUSH1 0x20 ADD SWAP1 DUP2 MSTORE PUSH1 0x20 ADD PUSH0 KECCAK256 PUSH0 PUSH2 0x100 EXP DUP2 SLOAD DUP2 PUSH1 0xFF MUL NOT AND SWAP1 DUP4 ISZERO ISZERO MUL OR SWAP1 SSTORE POP POP JUMP JUMPDEST PUSH0 PUSH1 0x7 PUSH0 SWAP1 SLOAD SWAP1 PUSH2 0x100 EXP SWAP1 DIV PUSH20 0xFFFFFFFFFFFFFFFFFFFFFFFFFFFFFFFFFFFFFFFF AND SWAP1 POP SWAP1 JUMP JUMPDEST PUSH1 0x60 PUSH1 0x1 DUP1 SLOAD PUSH2 0x9FB SWAP1 PUSH2 0x2668 JUMP JUMPDEST DUP1 PUSH1 0x1F ADD PUSH1 0x20 DUP1 SWAP2 DIV MUL PUSH1 0x20 ADD PUSH1 0x40 MLOAD SWAP1 DUP2 ADD PUSH1 0x40 MSTORE DUP1 SWAP3 SWAP2 SWAP1 DUP2 DUP2 MSTORE PUSH1 0x20 ADD DUP3 DUP1 SLOAD PUSH2 0xA27 SWAP1 PUSH2 0x2668 JUMP JUMPDEST DUP1 ISZERO PUSH2 0xA72 JUMPI DUP1 PUSH1 0x1F LT PUSH2 0xA49 JUMPI PUSH2 0x100 DUP1 DUP4 SLOAD DIV MUL DUP4 MSTORE SWAP2 PUSH1 0x20 ADD SWAP2 PUSH2 0xA72 JUMP JUMPDEST DUP3 ADD SWAP2 SWAP1 PUSH0 MSTORE PUSH1 0x20 PUSH0 KECCAK256 SWAP1 JUMPDEST DUP2 SLOAD DUP2 MSTORE SWAP1 PUSH1 0x1 ADD SWAP1 PUSH1 0x20 ADD DUP1 DUP4 GT PUSH2 0xA55 JUMPI DUP3 SWAP1 SUB PUSH1 0x1F AND DUP3 ADD SWAP2 JUMPDEST POP POP POP POP POP SWAP1 POP SWAP1 JUMP JUMPDEST PUSH1 0x8 PUSH1 0x20 MSTORE DUP1 PUSH0 MSTORE PUSH1 0x40 PUSH0 KECCAK256 PUSH0 SWAP2 POP SLOAD SWAP1 PUSH2 0x100 EXP SWAP1 DIV PUSH1 0xFF AND DUP2 JUMP JUMPDEST PUSH2 0xAAB PUSH2 0xAA4 PUSH2 0xEE1 JUMP JUMPDEST DUP4 DUP4 PUSH2 0x13BC JUMP JUMPDEST POP POP JUMP JUMPDEST PUSH2 0xABA DUP5 DUP5 DUP5 PUSH2 0x53B JUMP JUMPDEST PUSH2 0xAC6 DUP5 DUP5 DUP5 DUP5 PUSH2 0x1525 JUMP JUMPDEST POP POP POP POP JUMP JUMPDEST PUSH1 0x60 PUSH2 0xAD7 DUP3 PUSH2 0xE22 JUMP JUMPDEST POP PUSH0 PUSH1 0x6 PUSH0 DUP5 DUP2 MSTORE PUSH1 0x20 ADD SWAP1 DUP2 MSTORE PUSH1 0x20 ADD PUSH0 KECCAK256 DUP1 SLOAD PUSH2 0xAF5 SWAP1 PUSH2 0x2668 JUMP JUMPDEST DUP1 PUSH1 0x1F ADD PUSH1 0x20 DUP1 SWAP2 DIV MUL PUSH1 0x20 ADD PUSH1 0x40 MLOAD SWAP1 DUP2 ADD PUSH1 0x40 MSTORE DUP1 SWAP3 SWAP2 SWAP1 DUP2 DUP2 MSTORE PUSH1 0x20 ADD DUP3 DUP1 SLOAD PUSH2 0xB21 SWAP1 PUSH2 0x2668 JUMP JUMPDEST DUP1 ISZERO PUSH2 0xB6C JUMPI DUP1 PUSH1 0x1F LT PUSH2 0xB43 JUMPI PUSH2 0x100 DUP1 DUP4 SLOAD DIV MUL DUP4 MSTORE SWAP2 PUSH1 0x20 ADD SWAP2 PUSH2 0xB6C JUMP JUMPDEST DUP3 ADD SWAP2 SWAP1 PUSH0 MSTORE PUSH1 0x20 PUSH0 KECCAK256 SWAP1 JUMPDEST DUP2 SLOAD DUP2 MSTORE SWAP1 PUSH1 0x1 ADD SWAP1 PUSH1 0x20 ADD DUP1 DUP4 GT PUSH2 0xB4F JUMPI DUP3 SWAP1 SUB PUSH1 0x1F AND DUP3 ADD SWAP2 JUMPDEST POP POP POP POP POP SWAP1 POP PUSH0 PUSH2 0xB7C PUSH2 0x16D7 JUMP JUMPDEST SWAP1 POP PUSH0 DUP2 MLOAD SUB PUSH2 0xB90 JUMPI DUP2 SWAP3 POP POP POP PUSH2 0xBD2 JUMP JUMPDEST PUSH0 DUP3 MLOAD GT ISZERO PUSH2 0xBC4 JUMPI DUP1 DUP3 PUSH1 0x40 MLOAD PUSH1 0x20 ADD PUSH2 0xBAC SWAP3 SWAP2 SWAP1 PUSH2 0x27F7 JUMP JUMPDEST PUSH1 0x40 MLOAD PUSH1 0x20 DUP2 DUP4 SUB SUB DUP2 MSTORE SWAP1 PUSH1 0x40 MSTORE SWAP3 POP POP POP PUSH2 0xBD2 JUMP JUMPDEST PUSH2 0xBCD DUP5 PUSH2 0x16ED JUMP JUMPDEST SWAP3 POP POP POP JUMPDEST SWAP2 SWAP1 POP JUMP JUMPDEST PUSH1 0x1 PUSH1 0x8 PUSH0 DUP4 PUSH20 0xFFFFFFFFFFFFFFFFFFFFFFFFFFFFFFFFFFFFFFFF AND PUSH20 0xFFFFFFFFFFFFFFFFFFFFFFFFFFFFFFFFFFFFFFFF AND DUP2 MSTORE PUSH1 0x20 ADD SWAP1 DUP2 MSTORE PUSH1 0x20 ADD PUSH0 KECCAK256 PUSH0 PUSH2 0x100 EXP DUP2 SLOAD DUP2 PUSH1 0xFF MUL NOT AND SWAP1 DUP4 ISZERO ISZERO MUL OR SWAP1 SSTORE POP POP JUMP JUMPDEST PUSH0 PUSH1 0x5 PUSH0 DUP5 PUSH20 0xFFFFFFFFFFFFFFFFFFFFFFFFFFFFFFFFFFFFFFFF AND PUSH20 0xFFFFFFFFFFFFFFFFFFFFFFFFFFFFFFFFFFFFFFFF AND DUP2 MSTORE PUSH1 0x20 ADD SWAP1 DUP2 MSTORE PUSH1 0x20 ADD PUSH0 KECCAK256 PUSH0 DUP4 PUSH20 0xFFFFFFFFFFFFFFFFFFFFFFFFFFFFFFFFFFFFFFFF AND PUSH20 0xFFFFFFFFFFFFFFFFFFFFFFFFFFFFFFFFFFFFFFFF AND DUP2 MSTORE PUSH1 0x20 ADD SWAP1 DUP2 MSTORE PUSH1 0x20 ADD PUSH0 KECCAK256 PUSH0 SWAP1 SLOAD SWAP1 PUSH2 0x100 EXP SWAP1 DIV PUSH1 0xFF AND SWAP1 POP SWAP3 SWAP2 POP POP JUMP JUMPDEST PUSH2 0xCC5 PUSH2 0x1272 JUMP JUMPDEST PUSH0 PUSH20 0xFFFFFFFFFFFFFFFFFFFFFFFFFFFFFFFFFFFFFFFF AND DUP2 PUSH20 0xFFFFFFFFFFFFFFFFFFFFFFFFFFFFFFFFFFFFFFFF AND SUB PUSH2 0xD35 JUMPI PUSH0 PUSH1 0x40 MLOAD PUSH32 0x1E4FBDF700000000000000000000000000000000000000000000000000000000 DUP2 MSTORE PUSH1 0x4 ADD PUSH2 0xD2C SWAP2 SWAP1 PUSH2 0x1F75 JUMP JUMPDEST PUSH1 0x40 MLOAD DUP1 SWAP2 SUB SWAP1 REVERT JUMPDEST PUSH2 0xD3E DUP2 PUSH2 0x12F9 JUMP JUMPDEST POP JUMP JUMPDEST PUSH0 PUSH32 0x80AC58CD00000000000000000000000000000000000000000000000000000000 PUSH28 0xFFFFFFFFFFFFFFFFFFFFFFFFFFFFFFFFFFFFFFFFFFFFFFFFFFFFFFFF NOT AND DUP3 PUSH28 0xFFFFFFFFFFFFFFFFFFFFFFFFFFFFFFFFFFFFFFFFFFFFFFFFFFFFFFFF NOT AND EQ DUP1 PUSH2 0xE0B JUMPI POP PUSH32 0x5B5E139F00000000000000000000000000000000000000000000000000000000 PUSH28 0xFFFFFFFFFFFFFFFFFFFFFFFFFFFFFFFFFFFFFFFFFFFFFFFFFFFFFFFF NOT AND DUP3 PUSH28 0xFFFFFFFFFFFFFFFFFFFFFFFFFFFFFFFFFFFFFFFFFFFFFFFFFFFFFFFF NOT AND EQ JUMPDEST DUP1 PUSH2 0xE1B JUMPI POP PUSH2 0xE1A DUP3 PUSH2 0x1753 JUMP JUMPDEST JUMPDEST SWAP1 POP SWAP2 SWAP1 POP JUMP JUMPDEST PUSH0 DUP1 PUSH2 0xE2D DUP4 PUSH2 0x17BC JUMP JUMPDEST SWAP1 POP PUSH0 PUSH20 0xFFFFFFFFFFFFFFFFFFFFFFFFFFFFFFFFFFFFFFFF AND DUP2 PUSH20 0xFFFFFFFFFFFFFFFFFFFFFFFFFFFFFFFFFFFFFFFF AND SUB PUSH2 0xE9F JUMPI DUP3 PUSH1 0x40 MLOAD PUSH32 0x7E27328900000000000000000000000000000000000000000000000000000000 DUP2 MSTORE PUSH1 0x4 ADD PUSH2 0xE96 SWAP2 SWAP1 PUSH2 0x245E JUMP JUMPDEST PUSH1 0x40 MLOAD DUP1 SWAP2 SUB SWAP1 REVERT JUMPDEST DUP1 SWAP2 POP POP SWAP2 SWAP1 POP JUMP JUMPDEST PUSH0 PUSH1 0x4 PUSH0 DUP4 DUP2 MSTORE PUSH1 0x20 ADD SWAP1 DUP2 MSTORE PUSH1 0x20 ADD PUSH0 KECCAK256 PUSH0 SWAP1 SLOAD SWAP1 PUSH2 0x100 EXP SWAP1 DIV PUSH20 0xFFFFFFFFFFFFFFFFFFFFFFFFFFFFFFFFFFFFFFFF AND SWAP1 POP SWAP2 SWAP1 POP JUMP JUMPDEST PUSH0 CALLER SWAP1 POP SWAP1 JUMP JUMPDEST PUSH2 0xEF5 DUP4 DUP4 DUP4 PUSH1 0x1 PUSH2 0x17F5 JUMP JUMPDEST POP POP POP JUMP JUMPDEST PUSH0 DUP1 PUSH2 0xF05 DUP5 PUSH2 0x17BC JUMP JUMPDEST SWAP1 POP PUSH0 PUSH20 0xFFFFFFFFFFFFFFFFFFFFFFFFFFFFFFFFFFFFFFFF AND DUP4 PUSH20 0xFFFFFFFFFFFFFFFFFFFFFFFFFFFFFFFFFFFFFFFF AND EQ PUSH2 0xF46 JUMPI PUSH2 0xF45 DUP2 DUP5 DUP7 PUSH2 0x19B4 JUMP JUMPDEST JUMPDEST PUSH0 PUSH20 0xFFFFFFFFFFFFFFFFFFFFFFFFFFFFFFFFFFFFFFFF AND DUP2 PUSH20 0xFFFFFFFFFFFFFFFFFFFFFFFFFFFFFFFFFFFFFFFF AND EQ PUSH2 0xFD1 JUMPI PUSH2 0xF85 PUSH0 DUP6 PUSH0 DUP1 PUSH2 0x17F5 JUMP JUMPDEST PUSH1 0x1 PUSH1 0x3 PUSH0 DUP4 PUSH20 0xFFFFFFFFFFFFFFFFFFFFFFFFFFFFFFFFFFFFFFFF AND PUSH20 0xFFFFFFFFFFFFFFFFFFFFFFFFFFFFFFFFFFFFFFFF AND DUP2 MSTORE PUSH1 0x20 ADD SWAP1 DUP2 MSTORE PUSH1 0x20 ADD PUSH0 KECCAK256 PUSH0 DUP3 DUP3 SLOAD SUB SWAP3 POP POP DUP2 SWAP1 SSTORE POP JUMPDEST PUSH0 PUSH20 0xFFFFFFFFFFFFFFFFFFFFFFFFFFFFFFFFFFFFFFFF AND DUP6 PUSH20 0xFFFFFFFFFFFFFFFFFFFFFFFFFFFFFFFFFFFFFFFF AND EQ PUSH2 0x1050 JUMPI PUSH1 0x1 PUSH1 0x3 PUSH0 DUP8 PUSH20 0xFFFFFFFFFFFFFFFFFFFFFFFFFFFFFFFFFFFFFFFF AND PUSH20 0xFFFFFFFFFFFFFFFFFFFFFFFFFFFFFFFFFFFFFFFF AND DUP2 MSTORE PUSH1 0x20 ADD SWAP1 DUP2 MSTORE PUSH1 0x20 ADD PUSH0 KECCAK256 PUSH0 DUP3 DUP3 SLOAD ADD SWAP3 POP POP DUP2 SWAP1 SSTORE POP JUMPDEST DUP5 PUSH1 0x2 PUSH0 DUP7 DUP2 MSTORE PUSH1 0x20 ADD SWAP1 DUP2 MSTORE PUSH1 0x20 ADD PUSH0 KECCAK256 PUSH0 PUSH2 0x100 EXP DUP2 SLOAD DUP2 PUSH20 0xFFFFFFFFFFFFFFFFFFFFFFFFFFFFFFFFFFFFFFFF MUL NOT AND SWAP1 DUP4 PUSH20 0xFFFFFFFFFFFFFFFFFFFFFFFFFFFFFFFFFFFFFFFF AND MUL OR SWAP1 SSTORE POP DUP4 DUP6 PUSH20 0xFFFFFFFFFFFFFFFFFFFFFFFFFFFFFFFFFFFFFFFF AND DUP3 PUSH20 0xFFFFFFFFFFFFFFFFFFFFFFFFFFFFFFFFFFFFFFFF AND PUSH32 0xDDF252AD1BE2C89B69C2B068FC378DAA952BA7F163C4A11628F55A4DF523B3EF PUSH1 0x40 MLOAD PUSH1 0x40 MLOAD DUP1 SWAP2 SUB SWAP1 LOG4 DUP1 SWAP2 POP POP SWAP4 SWAP3 POP POP POP JUMP JUMPDEST PUSH0 DUP2 PUSH0 ADD SLOAD SWAP1 POP SWAP2 SWAP1 POP JUMP JUMPDEST PUSH1 0x1 DUP2 PUSH0 ADD PUSH0 DUP3 DUP3 SLOAD ADD SWAP3 POP POP DUP2 SWAP1 SSTORE POP POP JUMP JUMPDEST PUSH0 PUSH20 0xFFFFFFFFFFFFFFFFFFFFFFFFFFFFFFFFFFFFFFFF AND DUP3 PUSH20 0xFFFFFFFFFFFFFFFFFFFFFFFFFFFFFFFFFFFFFFFF AND SUB PUSH2 0x1195 JUMPI PUSH0 PUSH1 0x40 MLOAD PUSH32 0x64A0AE9200000000000000000000000000000000000000000000000000000000 DUP2 MSTORE PUSH1 0x4 ADD PUSH2 0x118C SWAP2 SWAP1 PUSH2 0x1F75 JUMP JUMPDEST PUSH1 0x40 MLOAD DUP1 SWAP2 SUB SWAP1 REVERT JUMPDEST PUSH0 PUSH2 0x11A1 DUP4 DUP4 PUSH0 PUSH2 0xEFA JUMP JUMPDEST SWAP1 POP PUSH0 PUSH20 0xFFFFFFFFFFFFFFFFFFFFFFFFFFFFFFFFFFFFFFFF AND DUP2 PUSH20 0xFFFFFFFFFFFFFFFFFFFFFFFFFFFFFFFFFFFFFFFF AND EQ PUSH2 0x1213 JUMPI PUSH0 PUSH1 0x40 MLOAD PUSH32 0x73C6AC6E00000000000000000000000000000000000000000000000000000000 DUP2 MSTORE PUSH1 0x4 ADD PUSH2 0x120A SWAP2 SWAP1 PUSH2 0x1F75 JUMP JUMPDEST PUSH1 0x40 MLOAD DUP1 SWAP2 SUB SWAP1 REVERT JUMPDEST POP POP POP JUMP JUMPDEST DUP1 PUSH1 0x6 PUSH0 DUP5 DUP2 MSTORE PUSH1 0x20 ADD SWAP1 DUP2 MSTORE PUSH1 0x20 ADD PUSH0 KECCAK256 SWAP1 DUP2 PUSH2 0x1236 SWAP2 SWAP1 PUSH2 0x29B7 JUMP JUMPDEST POP PUSH32 0xF8E1A15ABA9398E019F0B49DF1A4FDE98EE17AE345CB5F6B5E2C27F5033E8CE7 DUP3 PUSH1 0x40 MLOAD PUSH2 0x1266 SWAP2 SWAP1 PUSH2 0x245E JUMP JUMPDEST PUSH1 0x40 MLOAD DUP1 SWAP2 SUB SWAP1 LOG1 POP POP JUMP JUMPDEST PUSH2 0x127A PUSH2 0xEE1 JUMP JUMPDEST PUSH20 0xFFFFFFFFFFFFFFFFFFFFFFFFFFFFFFFFFFFFFFFF AND PUSH2 0x1298 PUSH2 0x9C4 JUMP JUMPDEST PUSH20 0xFFFFFFFFFFFFFFFFFFFFFFFFFFFFFFFFFFFFFFFF AND EQ PUSH2 0x12F7 JUMPI PUSH2 0x12BB PUSH2 0xEE1 JUMP JUMPDEST PUSH1 0x40 MLOAD PUSH32 0x118CDAA700000000000000000000000000000000000000000000000000000000 DUP2 MSTORE PUSH1 0x4 ADD PUSH2 0x12EE SWAP2 SWAP1 PUSH2 0x1F75 JUMP JUMPDEST PUSH1 0x40 MLOAD DUP1 SWAP2 SUB SWAP1 REVERT JUMPDEST JUMP JUMPDEST PUSH0 PUSH1 0x7 PUSH0 SWAP1 SLOAD SWAP1 PUSH2 0x100 EXP SWAP1 DIV PUSH20 0xFFFFFFFFFFFFFFFFFFFFFFFFFFFFFFFFFFFFFFFF AND SWAP1 POP DUP2 PUSH1 0x7 PUSH0 PUSH2 0x100 EXP DUP2 SLOAD DUP2 PUSH20 0xFFFFFFFFFFFFFFFFFFFFFFFFFFFFFFFFFFFFFFFF MUL NOT AND SWAP1 DUP4 PUSH20 0xFFFFFFFFFFFFFFFFFFFFFFFFFFFFFFFFFFFFFFFF AND MUL OR SWAP1 SSTORE POP DUP2 PUSH20 0xFFFFFFFFFFFFFFFFFFFFFFFFFFFFFFFFFFFFFFFF AND DUP2 PUSH20 0xFFFFFFFFFFFFFFFFFFFFFFFFFFFFFFFFFFFFFFFF AND PUSH32 0x8BE0079C531659141344CD1FD0A4F28419497F9722A3DAAFE3B4186F6B6457E0 PUSH1 0x40 MLOAD PUSH1 0x40 MLOAD DUP1 SWAP2 SUB SWAP1 LOG3 POP POP JUMP JUMPDEST PUSH0 PUSH20 0xFFFFFFFFFFFFFFFFFFFFFFFFFFFFFFFFFFFFFFFF AND DUP3 PUSH20 0xFFFFFFFFFFFFFFFFFFFFFFFFFFFFFFFFFFFFFFFF AND SUB PUSH2 0x142C JUMPI DUP2 PUSH1 0x40 MLOAD PUSH32 0x5B08BA1800000000000000000000000000000000000000000000000000000000 DUP2 MSTORE PUSH1 0x4 ADD PUSH2 0x1423 SWAP2 SWAP1 PUSH2 0x1F75 JUMP JUMPDEST PUSH1 0x40 MLOAD DUP1 SWAP2 SUB SWAP1 REVERT JUMPDEST DUP1 PUSH1 0x5 PUSH0 DUP6 PUSH20 0xFFFFFFFFFFFFFFFFFFFFFFFFFFFFFFFFFFFFFFFF AND PUSH20 0xFFFFFFFFFFFFFFFFFFFFFFFFFFFFFFFFFFFFFFFF AND DUP2 MSTORE PUSH1 0x20 ADD SWAP1 DUP2 MSTORE PUSH1 0x20 ADD PUSH0 KECCAK256 PUSH0 DUP5 PUSH20 0xFFFFFFFFFFFFFFFFFFFFFFFFFFFFFFFFFFFFFFFF AND PUSH20 0xFFFFFFFFFFFFFFFFFFFFFFFFFFFFFFFFFFFFFFFF AND DUP2 MSTORE PUSH1 0x20 ADD SWAP1 DUP2 MSTORE PUSH1 0x20 ADD PUSH0 KECCAK256 PUSH0 PUSH2 0x100 EXP DUP2 SLOAD DUP2 PUSH1 0xFF MUL NOT AND SWAP1 DUP4 ISZERO ISZERO MUL OR SWAP1 SSTORE POP DUP2 PUSH20 0xFFFFFFFFFFFFFFFFFFFFFFFFFFFFFFFFFFFFFFFF AND DUP4 PUSH20 0xFFFFFFFFFFFFFFFFFFFFFFFFFFFFFFFFFFFFFFFF AND PUSH32 0x17307EAB39AB6107E8899845AD3D59BD9653F200F220920489CA2B5937696C31 DUP4 PUSH1 0x40 MLOAD PUSH2 0x1518 SWAP2 SWAP1 PUSH2 0x1E15 JUMP JUMPDEST PUSH1 0x40 MLOAD DUP1 SWAP2 SUB SWAP1 LOG3 POP POP POP JUMP JUMPDEST PUSH0 DUP4 PUSH20 0xFFFFFFFFFFFFFFFFFFFFFFFFFFFFFFFFFFFFFFFF AND EXTCODESIZE GT ISZERO PUSH2 0x16D1 JUMPI DUP3 PUSH20 0xFFFFFFFFFFFFFFFFFFFFFFFFFFFFFFFFFFFFFFFF AND PUSH4 0x150B7A02 PUSH2 0x1568 PUSH2 0xEE1 JUMP JUMPDEST DUP7 DUP6 DUP6 PUSH1 0x40 MLOAD DUP6 PUSH4 0xFFFFFFFF AND PUSH1 0xE0 SHL DUP2 MSTORE PUSH1 0x4 ADD PUSH2 0x158A SWAP5 SWAP4 SWAP3 SWAP2 SWAP1 PUSH2 0x2AD8 JUMP JUMPDEST PUSH1 0x20 PUSH1 0x40 MLOAD DUP1 DUP4 SUB DUP2 PUSH0 DUP8 GAS CALL SWAP3 POP POP POP DUP1 ISZERO PUSH2 0x15C5 JUMPI POP PUSH1 0x40 MLOAD RETURNDATASIZE PUSH1 0x1F NOT PUSH1 0x1F DUP3 ADD AND DUP3 ADD DUP1 PUSH1 0x40 MSTORE POP DUP2 ADD SWAP1 PUSH2 0x15C2 SWAP2 SWAP1 PUSH2 0x2B36 JUMP JUMPDEST PUSH1 0x1 JUMPDEST PUSH2 0x1646 JUMPI RETURNDATASIZE DUP1 PUSH0 DUP2 EQ PUSH2 0x15F3 JUMPI PUSH1 0x40 MLOAD SWAP2 POP PUSH1 0x1F NOT PUSH1 0x3F RETURNDATASIZE ADD AND DUP3 ADD PUSH1 0x40 MSTORE RETURNDATASIZE DUP3 MSTORE RETURNDATASIZE PUSH0 PUSH1 0x20 DUP5 ADD RETURNDATACOPY PUSH2 0x15F8 JUMP JUMPDEST PUSH1 0x60 SWAP2 POP JUMPDEST POP PUSH0 DUP2 MLOAD SUB PUSH2 0x163E JUMPI DUP4 PUSH1 0x40 MLOAD PUSH32 0x64A0AE9200000000000000000000000000000000000000000000000000000000 DUP2 MSTORE PUSH1 0x4 ADD PUSH2 0x1635 SWAP2 SWAP1 PUSH2 0x1F75 JUMP JUMPDEST PUSH1 0x40 MLOAD DUP1 SWAP2 SUB SWAP1 REVERT JUMPDEST DUP1 MLOAD DUP2 PUSH1 0x20 ADD REVERT JUMPDEST PUSH4 0x150B7A02 PUSH1 0xE0 SHL PUSH28 0xFFFFFFFFFFFFFFFFFFFFFFFFFFFFFFFFFFFFFFFFFFFFFFFFFFFFFFFF NOT AND DUP2 PUSH28 0xFFFFFFFFFFFFFFFFFFFFFFFFFFFFFFFFFFFFFFFFFFFFFFFFFFFFFFFF NOT AND EQ PUSH2 0x16CF JUMPI DUP4 PUSH1 0x40 MLOAD PUSH32 0x64A0AE9200000000000000000000000000000000000000000000000000000000 DUP2 MSTORE PUSH1 0x4 ADD PUSH2 0x16C6 SWAP2 SWAP1 PUSH2 0x1F75 JUMP JUMPDEST PUSH1 0x40 MLOAD DUP1 SWAP2 SUB SWAP1 REVERT JUMPDEST POP JUMPDEST POP POP POP POP JUMP JUMPDEST PUSH1 0x60 PUSH1 0x40 MLOAD DUP1 PUSH1 0x20 ADD PUSH1 0x40 MSTORE DUP1 PUSH0 DUP2 MSTORE POP SWAP1 POP SWAP1 JUMP JUMPDEST PUSH1 0x60 PUSH2 0x16F8 DUP3 PUSH2 0xE22 JUMP JUMPDEST POP PUSH0 PUSH2 0x1702 PUSH2 0x16D7 JUMP JUMPDEST SWAP1 POP PUSH0 DUP2 MLOAD GT PUSH2 0x1720 JUMPI PUSH1 0x40 MLOAD DUP1 PUSH1 0x20 ADD PUSH1 0x40 MSTORE DUP1 PUSH0 DUP2 MSTORE POP PUSH2 0x174B JUMP JUMPDEST DUP1 PUSH2 0x172A DUP5 PUSH2 0x1A77 JUMP JUMPDEST PUSH1 0x40 MLOAD PUSH1 0x20 ADD PUSH2 0x173B SWAP3 SWAP2 SWAP1 PUSH2 0x27F7 JUMP JUMPDEST PUSH1 0x40 MLOAD PUSH1 0x20 DUP2 DUP4 SUB SUB DUP2 MSTORE SWAP1 PUSH1 0x40 MSTORE JUMPDEST SWAP2 POP POP SWAP2 SWAP1 POP JUMP JUMPDEST PUSH0 PUSH32 0x1FFC9A700000000000000000000000000000000000000000000000000000000 PUSH28 0xFFFFFFFFFFFFFFFFFFFFFFFFFFFFFFFFFFFFFFFFFFFFFFFFFFFFFFFF NOT AND DUP3 PUSH28 0xFFFFFFFFFFFFFFFFFFFFFFFFFFFFFFFFFFFFFFFFFFFFFFFFFFFFFFFF NOT AND EQ SWAP1 POP SWAP2 SWAP1 POP JUMP JUMPDEST PUSH0 PUSH1 0x2 PUSH0 DUP4 DUP2 MSTORE PUSH1 0x20 ADD SWAP1 DUP2 MSTORE PUSH1 0x20 ADD PUSH0 KECCAK256 PUSH0 SWAP1 SLOAD SWAP1 PUSH2 0x100 EXP SWAP1 DIV PUSH20 0xFFFFFFFFFFFFFFFFFFFFFFFFFFFFFFFFFFFFFFFF AND SWAP1 POP SWAP2 SWAP1 POP JUMP JUMPDEST DUP1 DUP1 PUSH2 0x182D JUMPI POP PUSH0 PUSH20 0xFFFFFFFFFFFFFFFFFFFFFFFFFFFFFFFFFFFFFFFF AND DUP3 PUSH20 0xFFFFFFFFFFFFFFFFFFFFFFFFFFFFFFFFFFFFFFFF AND EQ ISZERO JUMPDEST ISZERO PUSH2 0x195F JUMPI PUSH0 PUSH2 0x183C DUP5 PUSH2 0xE22 JUMP JUMPDEST SWAP1 POP PUSH0 PUSH20 0xFFFFFFFFFFFFFFFFFFFFFFFFFFFFFFFFFFFFFFFF AND DUP4 PUSH20 0xFFFFFFFFFFFFFFFFFFFFFFFFFFFFFFFFFFFFFFFF AND EQ ISZERO DUP1 ISZERO PUSH2 0x18A6 JUMPI POP DUP3 PUSH20 0xFFFFFFFFFFFFFFFFFFFFFFFFFFFFFFFFFFFFFFFF AND DUP2 PUSH20 0xFFFFFFFFFFFFFFFFFFFFFFFFFFFFFFFFFFFFFFFF AND EQ ISZERO JUMPDEST DUP1 ISZERO PUSH2 0x18B9 JUMPI POP PUSH2 0x18B7 DUP2 DUP5 PUSH2 0xC2F JUMP JUMPDEST ISZERO JUMPDEST ISZERO PUSH2 0x18FB JUMPI DUP3 PUSH1 0x40 MLOAD PUSH32 0xA9FBF51F00000000000000000000000000000000000000000000000000000000 DUP2 MSTORE PUSH1 0x4 ADD PUSH2 0x18F2 SWAP2 SWAP1 PUSH2 0x1F75 JUMP JUMPDEST PUSH1 0x40 MLOAD DUP1 SWAP2 SUB SWAP1 REVERT JUMPDEST DUP2 ISZERO PUSH2 0x195D JUMPI DUP4 DUP6 PUSH20 0xFFFFFFFFFFFFFFFFFFFFFFFFFFFFFFFFFFFFFFFF AND DUP3 PUSH20 0xFFFFFFFFFFFFFFFFFFFFFFFFFFFFFFFFFFFFFFFF AND PUSH32 0x8C5BE1E5EBEC7D5BD14F71427D1E84F3DD0314C0F7B2291E5B200AC8C7C3B925 PUSH1 0x40 MLOAD PUSH1 0x40 MLOAD DUP1 SWAP2 SUB SWAP1 LOG4 JUMPDEST POP JUMPDEST DUP4 PUSH1 0x4 PUSH0 DUP6 DUP2 MSTORE PUSH1 0x20 ADD SWAP1 DUP2 MSTORE PUSH1 0x20 ADD PUSH0 KECCAK256 PUSH0 PUSH2 0x100 EXP DUP2 SLOAD DUP2 PUSH20 0xFFFFFFFFFFFFFFFFFFFFFFFFFFFFFFFFFFFFFFFF MUL NOT AND SWAP1 DUP4 PUSH20 0xFFFFFFFFFFFFFFFFFFFFFFFFFFFFFFFFFFFFFFFF AND MUL OR SWAP1 SSTORE POP POP POP POP POP JUMP JUMPDEST PUSH2 0x19BF DUP4 DUP4 DUP4 PUSH2 0x1B41 JUMP JUMPDEST PUSH2 0x1A72 JUMPI PUSH0 PUSH20 0xFFFFFFFFFFFFFFFFFFFFFFFFFFFFFFFFFFFFFFFF AND DUP4 PUSH20 0xFFFFFFFFFFFFFFFFFFFFFFFFFFFFFFFFFFFFFFFF AND SUB PUSH2 0x1A33 JUMPI DUP1 PUSH1 0x40 MLOAD PUSH32 0x7E27328900000000000000000000000000000000000000000000000000000000 DUP2 MSTORE PUSH1 0x4 ADD PUSH2 0x1A2A SWAP2 SWAP1 PUSH2 0x245E JUMP JUMPDEST PUSH1 0x40 MLOAD DUP1 SWAP2 SUB SWAP1 REVERT JUMPDEST DUP2 DUP2 PUSH1 0x40 MLOAD PUSH32 0x177E802F00000000000000000000000000000000000000000000000000000000 DUP2 MSTORE PUSH1 0x4 ADD PUSH2 0x1A69 SWAP3 SWAP2 SWAP1 PUSH2 0x2B61 JUMP JUMPDEST PUSH1 0x40 MLOAD DUP1 SWAP2 SUB SWAP1 REVERT JUMPDEST POP POP POP JUMP JUMPDEST PUSH1 0x60 PUSH0 PUSH1 0x1 PUSH2 0x1A85 DUP5 PUSH2 0x1C01 JUMP JUMPDEST ADD SWAP1 POP PUSH0 DUP2 PUSH8 0xFFFFFFFFFFFFFFFF DUP2 GT ISZERO PUSH2 0x1AA3 JUMPI PUSH2 0x1AA2 PUSH2 0x204A JUMP JUMPDEST JUMPDEST PUSH1 0x40 MLOAD SWAP1 DUP1 DUP3 MSTORE DUP1 PUSH1 0x1F ADD PUSH1 0x1F NOT AND PUSH1 0x20 ADD DUP3 ADD PUSH1 0x40 MSTORE DUP1 ISZERO PUSH2 0x1AD5 JUMPI DUP2 PUSH1 0x20 ADD PUSH1 0x1 DUP3 MUL DUP1 CALLDATASIZE DUP4 CALLDATACOPY DUP1 DUP3 ADD SWAP2 POP POP SWAP1 POP JUMPDEST POP SWAP1 POP PUSH0 DUP3 PUSH1 0x20 ADD DUP3 ADD SWAP1 POP JUMPDEST PUSH1 0x1 ISZERO PUSH2 0x1B36 JUMPI DUP1 DUP1 PUSH1 0x1 SWAP1 SUB SWAP2 POP POP PUSH32 0x3031323334353637383961626364656600000000000000000000000000000000 PUSH1 0xA DUP7 MOD BYTE DUP2 MSTORE8 PUSH1 0xA DUP6 DUP2 PUSH2 0x1B2B JUMPI PUSH2 0x1B2A PUSH2 0x2B88 JUMP JUMPDEST JUMPDEST DIV SWAP5 POP PUSH0 DUP6 SUB PUSH2 0x1AE2 JUMPI JUMPDEST DUP2 SWAP4 POP POP POP POP SWAP2 SWAP1 POP JUMP JUMPDEST PUSH0 DUP1 PUSH20 0xFFFFFFFFFFFFFFFFFFFFFFFFFFFFFFFFFFFFFFFF AND DUP4 PUSH20 0xFFFFFFFFFFFFFFFFFFFFFFFFFFFFFFFFFFFFFFFF AND EQ ISZERO DUP1 ISZERO PUSH2 0x1BF8 JUMPI POP DUP3 PUSH20 0xFFFFFFFFFFFFFFFFFFFFFFFFFFFFFFFFFFFFFFFF AND DUP5 PUSH20 0xFFFFFFFFFFFFFFFFFFFFFFFFFFFFFFFFFFFFFFFF AND EQ DUP1 PUSH2 0x1BB9 JUMPI POP PUSH2 0x1BB8 DUP5 DUP5 PUSH2 0xC2F JUMP JUMPDEST JUMPDEST DUP1 PUSH2 0x1BF7 JUMPI POP DUP3 PUSH20 0xFFFFFFFFFFFFFFFFFFFFFFFFFFFFFFFFFFFFFFFF AND PUSH2 0x1BDF DUP4 PUSH2 0xEA8 JUMP JUMPDEST PUSH20 0xFFFFFFFFFFFFFFFFFFFFFFFFFFFFFFFFFFFFFFFF AND EQ JUMPDEST JUMPDEST SWAP1 POP SWAP4 SWAP3 POP POP POP JUMP JUMPDEST PUSH0 DUP1 PUSH0 SWAP1 POP PUSH27 0x184F03E93FF9F4DAA797ED6E38ED64BF6A1F010000000000000000 DUP4 LT PUSH2 0x1C5D JUMPI PUSH27 0x184F03E93FF9F4DAA797ED6E38ED64BF6A1F010000000000000000 DUP4 DUP2 PUSH2 0x1C53 JUMPI PUSH2 0x1C52 PUSH2 0x2B88 JUMP JUMPDEST JUMPDEST DIV SWAP3 POP PUSH1 0x40 DUP2 ADD SWAP1 POP JUMPDEST PUSH14 0x4EE2D6D415B85ACEF8100000000 DUP4 LT PUSH2 0x1C9A JUMPI PUSH14 0x4EE2D6D415B85ACEF8100000000 DUP4 DUP2 PUSH2 0x1C90 JUMPI PUSH2 0x1C8F PUSH2 0x2B88 JUMP JUMPDEST JUMPDEST DIV SWAP3 POP PUSH1 0x20 DUP2 ADD SWAP1 POP JUMPDEST PUSH7 0x2386F26FC10000 DUP4 LT PUSH2 0x1CC9 JUMPI PUSH7 0x2386F26FC10000 DUP4 DUP2 PUSH2 0x1CBF JUMPI PUSH2 0x1CBE PUSH2 0x2B88 JUMP JUMPDEST JUMPDEST DIV SWAP3 POP PUSH1 0x10 DUP2 ADD SWAP1 POP JUMPDEST PUSH4 0x5F5E100 DUP4 LT PUSH2 0x1CF2 JUMPI PUSH4 0x5F5E100 DUP4 DUP2 PUSH2 0x1CE8 JUMPI PUSH2 0x1CE7 PUSH2 0x2B88 JUMP JUMPDEST JUMPDEST DIV SWAP3 POP PUSH1 0x8 DUP2 ADD SWAP1 POP JUMPDEST PUSH2 0x2710 DUP4 LT PUSH2 0x1D17 JUMPI PUSH2 0x2710 DUP4 DUP2 PUSH2 0x1D0D JUMPI PUSH2 0x1D0C PUSH2 0x2B88 JUMP JUMPDEST JUMPDEST DIV SWAP3 POP PUSH1 0x4 DUP2 ADD SWAP1 POP JUMPDEST PUSH1 0x64 DUP4 LT PUSH2 0x1D3A JUMPI PUSH1 0x64 DUP4 DUP2 PUSH2 0x1D30 JUMPI PUSH2 0x1D2F PUSH2 0x2B88 JUMP JUMPDEST JUMPDEST DIV SWAP3 POP PUSH1 0x2 DUP2 ADD SWAP1 POP JUMPDEST PUSH1 0xA DUP4 LT PUSH2 0x1D49 JUMPI PUSH1 0x1 DUP2 ADD SWAP1 POP JUMPDEST DUP1 SWAP2 POP POP SWAP2 SWAP1 POP JUMP JUMPDEST PUSH1 0x40 MLOAD DUP1 PUSH1 0x40 ADD PUSH1 0x40 MSTORE DUP1 PUSH0 DUP2 MSTORE PUSH1 0x20 ADD PUSH0 DUP2 MSTORE POP SWAP1 JUMP JUMPDEST PUSH0 PUSH1 0x40 MLOAD SWAP1 POP SWAP1 JUMP JUMPDEST PUSH0 DUP1 REVERT JUMPDEST PUSH0 DUP1 REVERT JUMPDEST PUSH0 PUSH32 0xFFFFFFFF00000000000000000000000000000000000000000000000000000000 DUP3 AND SWAP1 POP SWAP2 SWAP1 POP JUMP JUMPDEST PUSH2 0x1DAF DUP2 PUSH2 0x1D7B JUMP JUMPDEST DUP2 EQ PUSH2 0x1DB9 JUMPI PUSH0 DUP1 REVERT JUMPDEST POP JUMP JUMPDEST PUSH0 DUP2 CALLDATALOAD SWAP1 POP PUSH2 0x1DCA DUP2 PUSH2 0x1DA6 JUMP JUMPDEST SWAP3 SWAP2 POP POP JUMP JUMPDEST PUSH0 PUSH1 0x20 DUP3 DUP5 SUB SLT ISZERO PUSH2 0x1DE5 JUMPI PUSH2 0x1DE4 PUSH2 0x1D73 JUMP JUMPDEST JUMPDEST PUSH0 PUSH2 0x1DF2 DUP5 DUP3 DUP6 ADD PUSH2 0x1DBC JUMP JUMPDEST SWAP2 POP POP SWAP3 SWAP2 POP POP JUMP JUMPDEST PUSH0 DUP2 ISZERO ISZERO SWAP1 POP SWAP2 SWAP1 POP JUMP JUMPDEST PUSH2 0x1E0F DUP2 PUSH2 0x1DFB JUMP JUMPDEST DUP3 MSTORE POP POP JUMP JUMPDEST PUSH0 PUSH1 0x20 DUP3 ADD SWAP1 POP PUSH2 0x1E28 PUSH0 DUP4 ADD DUP5 PUSH2 0x1E06 JUMP JUMPDEST SWAP3 SWAP2 POP POP JUMP JUMPDEST PUSH0 DUP2 MLOAD SWAP1 POP SWAP2 SWAP1 POP JUMP JUMPDEST PUSH0 DUP3 DUP3 MSTORE PUSH1 0x20 DUP3 ADD SWAP1 POP SWAP3 SWAP2 POP POP JUMP JUMPDEST PUSH0 JUMPDEST DUP4 DUP2 LT ISZERO PUSH2 0x1E65 JUMPI DUP1 DUP3 ADD MLOAD DUP2 DUP5 ADD MSTORE PUSH1 0x20 DUP2 ADD SWAP1 POP PUSH2 0x1E4A JUMP JUMPDEST PUSH0 DUP5 DUP5 ADD MSTORE POP POP POP POP JUMP JUMPDEST PUSH0 PUSH1 0x1F NOT PUSH1 0x1F DUP4 ADD AND SWAP1 POP SWAP2 SWAP1 POP JUMP JUMPDEST PUSH0 PUSH2 0x1E8A DUP3 PUSH2 0x1E2E JUMP JUMPDEST PUSH2 0x1E94 DUP2 DUP6 PUSH2 0x1E38 JUMP JUMPDEST SWAP4 POP PUSH2 0x1EA4 DUP2 DUP6 PUSH1 0x20 DUP7 ADD PUSH2 0x1E48 JUMP JUMPDEST PUSH2 0x1EAD DUP2 PUSH2 0x1E70 JUMP JUMPDEST DUP5 ADD SWAP2 POP POP SWAP3 SWAP2 POP POP JUMP JUMPDEST PUSH0 PUSH1 0x20 DUP3 ADD SWAP1 POP DUP2 DUP2 SUB PUSH0 DUP4 ADD MSTORE PUSH2 0x1ED0 DUP2 DUP5 PUSH2 0x1E80 JUMP JUMPDEST SWAP1 POP SWAP3 SWAP2 POP POP JUMP JUMPDEST PUSH0 DUP2 SWAP1 POP SWAP2 SWAP1 POP JUMP JUMPDEST PUSH2 0x1EEA DUP2 PUSH2 0x1ED8 JUMP JUMPDEST DUP2 EQ PUSH2 0x1EF4 JUMPI PUSH0 DUP1 REVERT JUMPDEST POP JUMP JUMPDEST PUSH0 DUP2 CALLDATALOAD SWAP1 POP PUSH2 0x1F05 DUP2 PUSH2 0x1EE1 JUMP JUMPDEST SWAP3 SWAP2 POP POP JUMP JUMPDEST PUSH0 PUSH1 0x20 DUP3 DUP5 SUB SLT ISZERO PUSH2 0x1F20 JUMPI PUSH2 0x1F1F PUSH2 0x1D73 JUMP JUMPDEST JUMPDEST PUSH0 PUSH2 0x1F2D DUP5 DUP3 DUP6 ADD PUSH2 0x1EF7 JUMP JUMPDEST SWAP2 POP POP SWAP3 SWAP2 POP POP JUMP JUMPDEST PUSH0 PUSH20 0xFFFFFFFFFFFFFFFFFFFFFFFFFFFFFFFFFFFFFFFF DUP3 AND SWAP1 POP SWAP2 SWAP1 POP JUMP JUMPDEST PUSH0 PUSH2 0x1F5F DUP3 PUSH2 0x1F36 JUMP JUMPDEST SWAP1 POP SWAP2 SWAP1 POP JUMP JUMPDEST PUSH2 0x1F6F DUP2 PUSH2 0x1F55 JUMP JUMPDEST DUP3 MSTORE POP POP JUMP JUMPDEST PUSH0 PUSH1 0x20 DUP3 ADD SWAP1 POP PUSH2 0x1F88 PUSH0 DUP4 ADD DUP5 PUSH2 0x1F66 JUMP JUMPDEST SWAP3 SWAP2 POP POP JUMP JUMPDEST PUSH2 0x1F97 DUP2 PUSH2 0x1F55 JUMP JUMPDEST DUP2 EQ PUSH2 0x1FA1 JUMPI PUSH0 DUP1 REVERT JUMPDEST POP JUMP JUMPDEST PUSH0 DUP2 CALLDATALOAD SWAP1 POP PUSH2 0x1FB2 DUP2 PUSH2 0x1F8E JUMP JUMPDEST SWAP3 SWAP2 POP POP JUMP JUMPDEST PUSH0 DUP1 PUSH1 0x40 DUP4 DUP6 SUB SLT ISZERO PUSH2 0x1FCE JUMPI PUSH2 0x1FCD PUSH2 0x1D73 JUMP JUMPDEST JUMPDEST PUSH0 PUSH2 0x1FDB DUP6 DUP3 DUP7 ADD PUSH2 0x1FA4 JUMP JUMPDEST SWAP3 POP POP PUSH1 0x20 PUSH2 0x1FEC DUP6 DUP3 DUP7 ADD PUSH2 0x1EF7 JUMP JUMPDEST SWAP2 POP POP SWAP3 POP SWAP3 SWAP1 POP JUMP JUMPDEST PUSH0 DUP1 PUSH0 PUSH1 0x60 DUP5 DUP7 SUB SLT ISZERO PUSH2 0x200D JUMPI PUSH2 0x200C PUSH2 0x1D73 JUMP JUMPDEST JUMPDEST PUSH0 PUSH2 0x201A DUP7 DUP3 DUP8 ADD PUSH2 0x1FA4 JUMP JUMPDEST SWAP4 POP POP PUSH1 0x20 PUSH2 0x202B DUP7 DUP3 DUP8 ADD PUSH2 0x1FA4 JUMP JUMPDEST SWAP3 POP POP PUSH1 0x40 PUSH2 0x203C DUP7 DUP3 DUP8 ADD PUSH2 0x1EF7 JUMP JUMPDEST SWAP2 POP POP SWAP3 POP SWAP3 POP SWAP3 JUMP JUMPDEST PUSH0 DUP1 REVERT JUMPDEST PUSH32 0x4E487B7100000000000000000000000000000000000000000000000000000000 PUSH0 MSTORE PUSH1 0x41 PUSH1 0x4 MSTORE PUSH1 0x24 PUSH0 REVERT JUMPDEST PUSH2 0x2080 DUP3 PUSH2 0x1E70 JUMP JUMPDEST DUP2 ADD DUP2 DUP2 LT PUSH8 0xFFFFFFFFFFFFFFFF DUP3 GT OR ISZERO PUSH2 0x209F JUMPI PUSH2 0x209E PUSH2 0x204A JUMP JUMPDEST JUMPDEST DUP1 PUSH1 0x40 MSTORE POP POP POP JUMP JUMPDEST PUSH0 PUSH2 0x20B1 PUSH2 0x1D6A JUMP JUMPDEST SWAP1 POP PUSH2 0x20BD DUP3 DUP3 PUSH2 0x2077 JUMP JUMPDEST SWAP2 SWAP1 POP JUMP JUMPDEST PUSH0 PUSH8 0xFFFFFFFFFFFFFFFF DUP3 GT ISZERO PUSH2 0x20DC JUMPI PUSH2 0x20DB PUSH2 0x204A JUMP JUMPDEST JUMPDEST PUSH1 0x20 DUP3 MUL SWAP1 POP PUSH1 0x20 DUP2 ADD SWAP1 POP SWAP2 SWAP1 POP JUMP JUMPDEST PUSH0 DUP1 REVERT JUMPDEST PUSH0 DUP1 REVERT JUMPDEST PUSH0 DUP1 REVERT JUMPDEST PUSH0 DUP1 REVERT JUMPDEST PUSH0 PUSH8 0xFFFFFFFFFFFFFFFF DUP3 GT ISZERO PUSH2 0x2117 JUMPI PUSH2 0x2116 PUSH2 0x204A JUMP JUMPDEST JUMPDEST PUSH2 0x2120 DUP3 PUSH2 0x1E70 JUMP JUMPDEST SWAP1 POP PUSH1 0x20 DUP2 ADD SWAP1 POP SWAP2 SWAP1 POP JUMP JUMPDEST DUP3 DUP2 DUP4 CALLDATACOPY PUSH0 DUP4 DUP4 ADD MSTORE POP POP POP JUMP JUMPDEST PUSH0 PUSH2 0x214D PUSH2 0x2148 DUP5 PUSH2 0x20FD JUMP JUMPDEST PUSH2 0x20A8 JUMP JUMPDEST SWAP1 POP DUP3 DUP2 MSTORE PUSH1 0x20 DUP2 ADD DUP5 DUP5 DUP5 ADD GT ISZERO PUSH2 0x2169 JUMPI PUSH2 0x2168 PUSH2 0x20F9 JUMP JUMPDEST JUMPDEST PUSH2 0x2174 DUP5 DUP3 DUP6 PUSH2 0x212D JUMP JUMPDEST POP SWAP4 SWAP3 POP POP POP JUMP JUMPDEST PUSH0 DUP3 PUSH1 0x1F DUP4 ADD SLT PUSH2 0x2190 JUMPI PUSH2 0x218F PUSH2 0x2046 JUMP JUMPDEST JUMPDEST DUP2 CALLDATALOAD PUSH2 0x21A0 DUP5 DUP3 PUSH1 0x20 DUP7 ADD PUSH2 0x213B JUMP JUMPDEST SWAP2 POP POP SWAP3 SWAP2 POP POP JUMP JUMPDEST PUSH0 PUSH1 0x60 DUP3 DUP5 SUB SLT ISZERO PUSH2 0x21BE JUMPI PUSH2 0x21BD PUSH2 0x20F1 JUMP JUMPDEST JUMPDEST PUSH2 0x21C8 PUSH1 0x60 PUSH2 0x20A8 JUMP JUMPDEST SWAP1 POP PUSH0 PUSH2 0x21D7 DUP5 DUP3 DUP6 ADD PUSH2 0x1EF7 JUMP JUMPDEST PUSH0 DUP4 ADD MSTORE POP PUSH1 0x20 PUSH2 0x21EA DUP5 DUP3 DUP6 ADD PUSH2 0x1FA4 JUMP JUMPDEST PUSH1 0x20 DUP4 ADD MSTORE POP PUSH1 0x40 DUP3 ADD CALLDATALOAD PUSH8 0xFFFFFFFFFFFFFFFF DUP2 GT ISZERO PUSH2 0x220E JUMPI PUSH2 0x220D PUSH2 0x20F5 JUMP JUMPDEST JUMPDEST PUSH2 0x221A DUP5 DUP3 DUP6 ADD PUSH2 0x217C JUMP JUMPDEST PUSH1 0x40 DUP4 ADD MSTORE POP SWAP3 SWAP2 POP POP JUMP JUMPDEST PUSH0 PUSH2 0x2238 PUSH2 0x2233 DUP5 PUSH2 0x20C2 JUMP JUMPDEST PUSH2 0x20A8 JUMP JUMPDEST SWAP1 POP DUP1 DUP4 DUP3 MSTORE PUSH1 0x20 DUP3 ADD SWAP1 POP PUSH1 0x20 DUP5 MUL DUP4 ADD DUP6 DUP2 GT ISZERO PUSH2 0x225B JUMPI PUSH2 0x225A PUSH2 0x20ED JUMP JUMPDEST JUMPDEST DUP4 JUMPDEST DUP2 DUP2 LT ISZERO PUSH2 0x22A2 JUMPI DUP1 CALLDATALOAD PUSH8 0xFFFFFFFFFFFFFFFF DUP2 GT ISZERO PUSH2 0x2280 JUMPI PUSH2 0x227F PUSH2 0x2046 JUMP JUMPDEST JUMPDEST DUP1 DUP7 ADD PUSH2 0x228D DUP10 DUP3 PUSH2 0x21A9 JUMP JUMPDEST DUP6 MSTORE PUSH1 0x20 DUP6 ADD SWAP5 POP POP POP PUSH1 0x20 DUP2 ADD SWAP1 POP PUSH2 0x225D JUMP JUMPDEST POP POP POP SWAP4 SWAP3 POP POP POP JUMP JUMPDEST PUSH0 DUP3 PUSH1 0x1F DUP4 ADD SLT PUSH2 0x22C0 JUMPI PUSH2 0x22BF PUSH2 0x2046 JUMP JUMPDEST JUMPDEST DUP2 CALLDATALOAD PUSH2 0x22D0 DUP5 DUP3 PUSH1 0x20 DUP7 ADD PUSH2 0x2226 JUMP JUMPDEST SWAP2 POP POP SWAP3 SWAP2 POP POP JUMP JUMPDEST PUSH0 PUSH1 0x20 DUP3 DUP5 SUB SLT ISZERO PUSH2 0x22EE JUMPI PUSH2 0x22ED PUSH2 0x1D73 JUMP JUMPDEST JUMPDEST PUSH0 DUP3 ADD CALLDATALOAD PUSH8 0xFFFFFFFFFFFFFFFF DUP2 GT ISZERO PUSH2 0x230B JUMPI PUSH2 0x230A PUSH2 0x1D77 JUMP JUMPDEST JUMPDEST PUSH2 0x2317 DUP5 DUP3 DUP6 ADD PUSH2 0x22AC JUMP JUMPDEST SWAP2 POP POP SWAP3 SWAP2 POP POP JUMP JUMPDEST PUSH0 DUP2 MLOAD SWAP1 POP SWAP2 SWAP1 POP JUMP JUMPDEST PUSH0 DUP3 DUP3 MSTORE PUSH1 0x20 DUP3 ADD SWAP1 POP SWAP3 SWAP2 POP POP JUMP JUMPDEST PUSH0 DUP2 SWAP1 POP PUSH1 0x20 DUP3 ADD SWAP1 POP SWAP2 SWAP1 POP JUMP JUMPDEST PUSH2 0x2352 DUP2 PUSH2 0x1ED8 JUMP JUMPDEST DUP3 MSTORE POP POP JUMP JUMPDEST PUSH1 0x40 DUP3 ADD PUSH0 DUP3 ADD MLOAD PUSH2 0x236C PUSH0 DUP6 ADD DUP3 PUSH2 0x2349 JUMP JUMPDEST POP PUSH1 0x20 DUP3 ADD MLOAD PUSH2 0x237F PUSH1 0x20 DUP6 ADD DUP3 PUSH2 0x2349 JUMP JUMPDEST POP POP POP POP JUMP JUMPDEST PUSH0 PUSH2 0x2390 DUP4 DUP4 PUSH2 0x2358 JUMP JUMPDEST PUSH1 0x40 DUP4 ADD SWAP1 POP SWAP3 SWAP2 POP POP JUMP JUMPDEST PUSH0 PUSH1 0x20 DUP3 ADD SWAP1 POP SWAP2 SWAP1 POP JUMP JUMPDEST PUSH0 PUSH2 0x23B2 DUP3 PUSH2 0x2320 JUMP JUMPDEST PUSH2 0x23BC DUP2 DUP6 PUSH2 0x232A JUMP JUMPDEST SWAP4 POP PUSH2 0x23C7 DUP4 PUSH2 0x233A JUMP JUMPDEST DUP1 PUSH0 JUMPDEST DUP4 DUP2 LT ISZERO PUSH2 0x23F7 JUMPI DUP2 MLOAD PUSH2 0x23DE DUP9 DUP3 PUSH2 0x2385 JUMP JUMPDEST SWAP8 POP PUSH2 0x23E9 DUP4 PUSH2 0x239C JUMP JUMPDEST SWAP3 POP POP PUSH1 0x1 DUP2 ADD SWAP1 POP PUSH2 0x23CA JUMP JUMPDEST POP DUP6 SWAP4 POP POP POP POP SWAP3 SWAP2 POP POP JUMP JUMPDEST PUSH0 PUSH1 0x20 DUP3 ADD SWAP1 POP DUP2 DUP2 SUB PUSH0 DUP4 ADD MSTORE PUSH2 0x241C DUP2 DUP5 PUSH2 0x23A8 JUMP JUMPDEST SWAP1 POP SWAP3 SWAP2 POP POP JUMP JUMPDEST PUSH0 PUSH1 0x20 DUP3 DUP5 SUB SLT ISZERO PUSH2 0x2439 JUMPI PUSH2 0x2438 PUSH2 0x1D73 JUMP JUMPDEST JUMPDEST PUSH0 PUSH2 0x2446 DUP5 DUP3 DUP6 ADD PUSH2 0x1FA4 JUMP JUMPDEST SWAP2 POP POP SWAP3 SWAP2 POP POP JUMP JUMPDEST PUSH2 0x2458 DUP2 PUSH2 0x1ED8 JUMP JUMPDEST DUP3 MSTORE POP POP JUMP JUMPDEST PUSH0 PUSH1 0x20 DUP3 ADD SWAP1 POP PUSH2 0x2471 PUSH0 DUP4 ADD DUP5 PUSH2 0x244F JUMP JUMPDEST SWAP3 SWAP2 POP POP JUMP JUMPDEST PUSH2 0x2480 DUP2 PUSH2 0x1DFB JUMP JUMPDEST DUP2 EQ PUSH2 0x248A JUMPI PUSH0 DUP1 REVERT JUMPDEST POP JUMP JUMPDEST PUSH0 DUP2 CALLDATALOAD SWAP1 POP PUSH2 0x249B DUP2 PUSH2 0x2477 JUMP JUMPDEST SWAP3 SWAP2 POP POP JUMP JUMPDEST PUSH0 DUP1 PUSH1 0x40 DUP4 DUP6 SUB SLT ISZERO PUSH2 0x24B7 JUMPI PUSH2 0x24B6 PUSH2 0x1D73 JUMP JUMPDEST JUMPDEST PUSH0 PUSH2 0x24C4 DUP6 DUP3 DUP7 ADD PUSH2 0x1FA4 JUMP JUMPDEST SWAP3 POP POP PUSH1 0x20 PUSH2 0x24D5 DUP6 DUP3 DUP7 ADD PUSH2 0x248D JUMP JUMPDEST SWAP2 POP POP SWAP3 POP SWAP3 SWAP1 POP JUMP JUMPDEST PUSH0 PUSH8 0xFFFFFFFFFFFFFFFF DUP3 GT ISZERO PUSH2 0x24F9 JUMPI PUSH2 0x24F8 PUSH2 0x204A JUMP JUMPDEST JUMPDEST PUSH2 0x2502 DUP3 PUSH2 0x1E70 JUMP JUMPDEST SWAP1 POP PUSH1 0x20 DUP2 ADD SWAP1 POP SWAP2 SWAP1 POP JUMP JUMPDEST PUSH0 PUSH2 0x2521 PUSH2 0x251C DUP5 PUSH2 0x24DF JUMP JUMPDEST PUSH2 0x20A8 JUMP JUMPDEST SWAP1 POP DUP3 DUP2 MSTORE PUSH1 0x20 DUP2 ADD DUP5 DUP5 DUP5 ADD GT ISZERO PUSH2 0x253D JUMPI PUSH2 0x253C PUSH2 0x20F9 JUMP JUMPDEST JUMPDEST PUSH2 0x2548 DUP5 DUP3 DUP6 PUSH2 0x212D JUMP JUMPDEST POP SWAP4 SWAP3 POP POP POP JUMP JUMPDEST PUSH0 DUP3 PUSH1 0x1F DUP4 ADD SLT PUSH2 0x2564 JUMPI PUSH2 0x2563 PUSH2 0x2046 JUMP JUMPDEST JUMPDEST DUP2 CALLDATALOAD PUSH2 0x2574 DUP5 DUP3 PUSH1 0x20 DUP7 ADD PUSH2 0x250F JUMP JUMPDEST SWAP2 POP POP SWAP3 SWAP2 POP POP JUMP JUMPDEST PUSH0 DUP1 PUSH0 DUP1 PUSH1 0x80 DUP6 DUP8 SUB SLT ISZERO PUSH2 0x2595 JUMPI PUSH2 0x2594 PUSH2 0x1D73 JUMP JUMPDEST JUMPDEST PUSH0 PUSH2 0x25A2 DUP8 DUP3 DUP9 ADD PUSH2 0x1FA4 JUMP JUMPDEST SWAP5 POP POP PUSH1 0x20 PUSH2 0x25B3 DUP8 DUP3 DUP9 ADD PUSH2 0x1FA4 JUMP JUMPDEST SWAP4 POP POP PUSH1 0x40 PUSH2 0x25C4 DUP8 DUP3 DUP9 ADD PUSH2 0x1EF7 JUMP JUMPDEST SWAP3 POP POP PUSH1 0x60 DUP6 ADD CALLDATALOAD PUSH8 0xFFFFFFFFFFFFFFFF DUP2 GT ISZERO PUSH2 0x25E5 JUMPI PUSH2 0x25E4 PUSH2 0x1D77 JUMP JUMPDEST JUMPDEST PUSH2 0x25F1 DUP8 DUP3 DUP9 ADD PUSH2 0x2550 JUMP JUMPDEST SWAP2 POP POP SWAP3 SWAP6 SWAP2 SWAP5 POP SWAP3 POP JUMP JUMPDEST PUSH0 DUP1 PUSH1 0x40 DUP4 DUP6 SUB SLT ISZERO PUSH2 0x2613 JUMPI PUSH2 0x2612 PUSH2 0x1D73 JUMP JUMPDEST JUMPDEST PUSH0 PUSH2 0x2620 DUP6 DUP3 DUP7 ADD PUSH2 0x1FA4 JUMP JUMPDEST SWAP3 POP POP PUSH1 0x20 PUSH2 0x2631 DUP6 DUP3 DUP7 ADD PUSH2 0x1FA4 JUMP JUMPDEST SWAP2 POP POP SWAP3 POP SWAP3 SWAP1 POP JUMP JUMPDEST PUSH32 0x4E487B7100000000000000000000000000000000000000000000000000000000 PUSH0 MSTORE PUSH1 0x22 PUSH1 0x4 MSTORE PUSH1 0x24 PUSH0 REVERT JUMPDEST PUSH0 PUSH1 0x2 DUP3 DIV SWAP1 POP PUSH1 0x1 DUP3 AND DUP1 PUSH2 0x267F JUMPI PUSH1 0x7F DUP3 AND SWAP2 POP JUMPDEST PUSH1 0x20 DUP3 LT DUP2 SUB PUSH2 0x2692 JUMPI PUSH2 0x2691 PUSH2 0x263B JUMP JUMPDEST JUMPDEST POP SWAP2 SWAP1 POP JUMP JUMPDEST PUSH0 PUSH1 0x60 DUP3 ADD SWAP1 POP PUSH2 0x26AB PUSH0 DUP4 ADD DUP7 PUSH2 0x1F66 JUMP JUMPDEST PUSH2 0x26B8 PUSH1 0x20 DUP4 ADD DUP6 PUSH2 0x244F JUMP JUMPDEST PUSH2 0x26C5 PUSH1 0x40 DUP4 ADD DUP5 PUSH2 0x1F66 JUMP JUMPDEST SWAP5 SWAP4 POP POP POP POP JUMP JUMPDEST PUSH32 0x4E6569746865722073656E646572206E6F7220726563697069656E7420697320 PUSH0 DUP3 ADD MSTORE PUSH32 0x77686974656C6973746564000000000000000000000000000000000000000000 PUSH1 0x20 DUP3 ADD MSTORE POP JUMP JUMPDEST PUSH0 PUSH2 0x2727 PUSH1 0x2B DUP4 PUSH2 0x1E38 JUMP JUMPDEST SWAP2 POP PUSH2 0x2732 DUP3 PUSH2 0x26CD JUMP JUMPDEST PUSH1 0x40 DUP3 ADD SWAP1 POP SWAP2 SWAP1 POP JUMP JUMPDEST PUSH0 PUSH1 0x20 DUP3 ADD SWAP1 POP DUP2 DUP2 SUB PUSH0 DUP4 ADD MSTORE PUSH2 0x2754 DUP2 PUSH2 0x271B JUMP JUMPDEST SWAP1 POP SWAP2 SWAP1 POP JUMP JUMPDEST PUSH32 0x4E487B7100000000000000000000000000000000000000000000000000000000 PUSH0 MSTORE PUSH1 0x32 PUSH1 0x4 MSTORE PUSH1 0x24 PUSH0 REVERT JUMPDEST PUSH0 PUSH1 0x60 DUP3 ADD SWAP1 POP PUSH2 0x279B PUSH0 DUP4 ADD DUP7 PUSH2 0x244F JUMP JUMPDEST PUSH2 0x27A8 PUSH1 0x20 DUP4 ADD DUP6 PUSH2 0x244F JUMP JUMPDEST PUSH2 0x27B5 PUSH1 0x40 DUP4 ADD DUP5 PUSH2 0x1F66 JUMP JUMPDEST SWAP5 SWAP4 POP POP POP POP JUMP JUMPDEST PUSH0 DUP2 SWAP1 POP SWAP3 SWAP2 POP POP JUMP JUMPDEST PUSH0 PUSH2 0x27D1 DUP3 PUSH2 0x1E2E JUMP JUMPDEST PUSH2 0x27DB DUP2 DUP6 PUSH2 0x27BD JUMP JUMPDEST SWAP4 POP PUSH2 0x27EB DUP2 DUP6 PUSH1 0x20 DUP7 ADD PUSH2 0x1E48 JUMP JUMPDEST DUP1 DUP5 ADD SWAP2 POP POP SWAP3 SWAP2 POP POP JUMP JUMPDEST PUSH0 PUSH2 0x2802 DUP3 DUP6 PUSH2 0x27C7 JUMP JUMPDEST SWAP2 POP PUSH2 0x280E DUP3 DUP5 PUSH2 0x27C7 JUMP JUMPDEST SWAP2 POP DUP2 SWAP1 POP SWAP4 SWAP3 POP POP POP JUMP JUMPDEST PUSH0 DUP2 SWAP1 POP DUP2 PUSH0 MSTORE PUSH1 0x20 PUSH0 KECCAK256 SWAP1 POP SWAP2 SWAP1 POP JUMP JUMPDEST PUSH0 PUSH1 0x20 PUSH1 0x1F DUP4 ADD DIV SWAP1 POP SWAP2 SWAP1 POP JUMP JUMPDEST PUSH0 DUP3 DUP3 SHL SWAP1 POP SWAP3 SWAP2 POP POP JUMP JUMPDEST PUSH0 PUSH1 0x8 DUP4 MUL PUSH2 0x2876 PUSH32 0xFFFFFFFFFFFFFFFFFFFFFFFFFFFFFFFFFFFFFFFFFFFFFFFFFFFFFFFFFFFFFFFF DUP3 PUSH2 0x283B JUMP JUMPDEST PUSH2 0x2880 DUP7 DUP4 PUSH2 0x283B JUMP JUMPDEST SWAP6 POP DUP1 NOT DUP5 AND SWAP4 POP DUP1 DUP7 AND DUP5 OR SWAP3 POP POP POP SWAP4 SWAP3 POP POP POP JUMP JUMPDEST PUSH0 DUP2 SWAP1 POP SWAP2 SWAP1 POP JUMP JUMPDEST PUSH0 PUSH2 0x28BB PUSH2 0x28B6 PUSH2 0x28B1 DUP5 PUSH2 0x1ED8 JUMP JUMPDEST PUSH2 0x2898 JUMP JUMPDEST PUSH2 0x1ED8 JUMP JUMPDEST SWAP1 POP SWAP2 SWAP1 POP JUMP JUMPDEST PUSH0 DUP2 SWAP1 POP SWAP2 SWAP1 POP JUMP JUMPDEST PUSH2 0x28D4 DUP4 PUSH2 0x28A1 JUMP JUMPDEST PUSH2 0x28E8 PUSH2 0x28E0 DUP3 PUSH2 0x28C2 JUMP JUMPDEST DUP5 DUP5 SLOAD PUSH2 0x2847 JUMP JUMPDEST DUP3 SSTORE POP POP POP POP JUMP JUMPDEST PUSH0 SWAP1 JUMP JUMPDEST PUSH2 0x28FC PUSH2 0x28F0 JUMP JUMPDEST PUSH2 0x2907 DUP2 DUP5 DUP5 PUSH2 0x28CB JUMP JUMPDEST POP POP POP JUMP JUMPDEST JUMPDEST DUP2 DUP2 LT ISZERO PUSH2 0x292A JUMPI PUSH2 0x291F PUSH0 DUP3 PUSH2 0x28F4 JUMP JUMPDEST PUSH1 0x1 DUP2 ADD SWAP1 POP PUSH2 0x290D JUMP JUMPDEST POP POP JUMP JUMPDEST PUSH1 0x1F DUP3 GT ISZERO PUSH2 0x296F JUMPI PUSH2 0x2940 DUP2 PUSH2 0x281A JUMP JUMPDEST PUSH2 0x2949 DUP5 PUSH2 0x282C JUMP JUMPDEST DUP2 ADD PUSH1 0x20 DUP6 LT ISZERO PUSH2 0x2958 JUMPI DUP2 SWAP1 POP JUMPDEST PUSH2 0x296C PUSH2 0x2964 DUP6 PUSH2 0x282C JUMP JUMPDEST DUP4 ADD DUP3 PUSH2 0x290C JUMP JUMPDEST POP POP JUMPDEST POP POP POP JUMP JUMPDEST PUSH0 DUP3 DUP3 SHR SWAP1 POP SWAP3 SWAP2 POP POP JUMP JUMPDEST PUSH0 PUSH2 0x298F PUSH0 NOT DUP5 PUSH1 0x8 MUL PUSH2 0x2974 JUMP JUMPDEST NOT DUP1 DUP4 AND SWAP2 POP POP SWAP3 SWAP2 POP POP JUMP JUMPDEST PUSH0 PUSH2 0x29A7 DUP4 DUP4 PUSH2 0x2980 JUMP JUMPDEST SWAP2 POP DUP3 PUSH1 0x2 MUL DUP3 OR SWAP1 POP SWAP3 SWAP2 POP POP JUMP JUMPDEST PUSH2 0x29C0 DUP3 PUSH2 0x1E2E JUMP JUMPDEST PUSH8 0xFFFFFFFFFFFFFFFF DUP2 GT ISZERO PUSH2 0x29D9 JUMPI PUSH2 0x29D8 PUSH2 0x204A JUMP JUMPDEST JUMPDEST PUSH2 0x29E3 DUP3 SLOAD PUSH2 0x2668 JUMP JUMPDEST PUSH2 0x29EE DUP3 DUP3 DUP6 PUSH2 0x292E JUMP JUMPDEST PUSH0 PUSH1 0x20 SWAP1 POP PUSH1 0x1F DUP4 GT PUSH1 0x1 DUP2 EQ PUSH2 0x2A1F JUMPI PUSH0 DUP5 ISZERO PUSH2 0x2A0D JUMPI DUP3 DUP8 ADD MLOAD SWAP1 POP JUMPDEST PUSH2 0x2A17 DUP6 DUP3 PUSH2 0x299C JUMP JUMPDEST DUP7 SSTORE POP PUSH2 0x2A7E JUMP JUMPDEST PUSH1 0x1F NOT DUP5 AND PUSH2 0x2A2D DUP7 PUSH2 0x281A JUMP JUMPDEST PUSH0 JUMPDEST DUP3 DUP2 LT ISZERO PUSH2 0x2A54 JUMPI DUP5 DUP10 ADD MLOAD DUP3 SSTORE PUSH1 0x1 DUP3 ADD SWAP2 POP PUSH1 0x20 DUP6 ADD SWAP5 POP PUSH1 0x20 DUP2 ADD SWAP1 POP PUSH2 0x2A2F JUMP JUMPDEST DUP7 DUP4 LT ISZERO PUSH2 0x2A71 JUMPI DUP5 DUP10 ADD MLOAD PUSH2 0x2A6D PUSH1 0x1F DUP10 AND DUP3 PUSH2 0x2980 JUMP JUMPDEST DUP4 SSTORE POP JUMPDEST PUSH1 0x1 PUSH1 0x2 DUP9 MUL ADD DUP9 SSTORE POP POP POP JUMPDEST POP POP POP POP POP POP JUMP JUMPDEST PUSH0 DUP2 MLOAD SWAP1 POP SWAP2 SWAP1 POP JUMP JUMPDEST PUSH0 DUP3 DUP3 MSTORE PUSH1 0x20 DUP3 ADD SWAP1 POP SWAP3 SWAP2 POP POP JUMP JUMPDEST PUSH0 PUSH2 0x2AAA DUP3 PUSH2 0x2A86 JUMP JUMPDEST PUSH2 0x2AB4 DUP2 DUP6 PUSH2 0x2A90 JUMP JUMPDEST SWAP4 POP PUSH2 0x2AC4 DUP2 DUP6 PUSH1 0x20 DUP7 ADD PUSH2 0x1E48 JUMP JUMPDEST PUSH2 0x2ACD DUP2 PUSH2 0x1E70 JUMP JUMPDEST DUP5 ADD SWAP2 POP POP SWAP3 SWAP2 POP POP JUMP JUMPDEST PUSH0 PUSH1 0x80 DUP3 ADD SWAP1 POP PUSH2 0x2AEB PUSH0 DUP4 ADD DUP8 PUSH2 0x1F66 JUMP JUMPDEST PUSH2 0x2AF8 PUSH1 0x20 DUP4 ADD DUP7 PUSH2 0x1F66 JUMP JUMPDEST PUSH2 0x2B05 PUSH1 0x40 DUP4 ADD DUP6 PUSH2 0x244F JUMP JUMPDEST DUP2 DUP2 SUB PUSH1 0x60 DUP4 ADD MSTORE PUSH2 0x2B17 DUP2 DUP5 PUSH2 0x2AA0 JUMP JUMPDEST SWAP1 POP SWAP6 SWAP5 POP POP POP POP POP JUMP JUMPDEST PUSH0 DUP2 MLOAD SWAP1 POP PUSH2 0x2B30 DUP2 PUSH2 0x1DA6 JUMP JUMPDEST SWAP3 SWAP2 POP POP JUMP JUMPDEST PUSH0 PUSH1 0x20 DUP3 DUP5 SUB SLT ISZERO PUSH2 0x2B4B JUMPI PUSH2 0x2B4A PUSH2 0x1D73 JUMP JUMPDEST JUMPDEST PUSH0 PUSH2 0x2B58 DUP5 DUP3 DUP6 ADD PUSH2 0x2B22 JUMP JUMPDEST SWAP2 POP POP SWAP3 SWAP2 POP POP JUMP JUMPDEST PUSH0 PUSH1 0x40 DUP3 ADD SWAP1 POP PUSH2 0x2B74 PUSH0 DUP4 ADD DUP6 PUSH2 0x1F66 JUMP JUMPDEST PUSH2 0x2B81 PUSH1 0x20 DUP4 ADD DUP5 PUSH2 0x244F JUMP JUMPDEST SWAP4 SWAP3 POP POP POP JUMP JUMPDEST PUSH32 0x4E487B7100000000000000000000000000000000000000000000000000000000 PUSH0 MSTORE PUSH1 0x12 PUSH1 0x4 MSTORE PUSH1 0x24 PUSH0 REVERT INVALID LOG2 PUSH5 0x6970667358 0x22 SLT KECCAK256 0xAD PUSH23 0xC30DD6E338FD6CD7AD6BBAA2112EFD07103885789EB5BF 0x4B 0x2C 0xE6 0xAC ADD 0xB3 0xDF PUSH5 0x736F6C6343 STOP ADDMOD AND STOP CALLER "
				},
				"gasEstimates": {
					"creation": {
						"codeDepositCost": "2248600",
						"executionCost": "infinite",
						"totalCost": "infinite"
					},
					"external": {
						"addToWhitelist(address)": "24891",
						"approve(address,uint256)": "infinite",
						"balanceOf(address)": "infinite",
						"getApproved(uint256)": "infinite",
						"getMsgSender()": "402",
						"isApprovedForAll(address,address)": "infinite",
						"mintNFT((uint256,address,string)[])": "infinite",
						"name()": "infinite",
						"owner()": "2582",
						"ownerOf(uint256)": "infinite",
						"removeFromWhitelist(address)": "24847",
						"renounceOwnership()": "infinite",
						"safeTransferFrom(address,address,uint256)": "infinite",
						"safeTransferFrom(address,address,uint256,bytes)": "infinite",
						"setApprovalForAll(address,bool)": "infinite",
						"supportsInterface(bytes4)": "881",
						"symbol()": "infinite",
						"tokenURI(uint256)": "infinite",
						"transferFrom(address,address,uint256)": "infinite",
						"transferOwnership(address)": "infinite",
						"whitelist(address)": "2944"
					}
				},
				"methodIdentifiers": {
					"addToWhitelist(address)": "e43252d7",
					"approve(address,uint256)": "095ea7b3",
					"balanceOf(address)": "70a08231",
					"getApproved(uint256)": "081812fc",
					"getMsgSender()": "7a6ce2e1",
					"isApprovedForAll(address,address)": "e985e9c5",
					"mintNFT((uint256,address,string)[])": "5f6c96a0",
					"name()": "06fdde03",
					"owner()": "8da5cb5b",
					"ownerOf(uint256)": "6352211e",
					"removeFromWhitelist(address)": "8ab1d681",
					"renounceOwnership()": "715018a6",
					"safeTransferFrom(address,address,uint256)": "42842e0e",
					"safeTransferFrom(address,address,uint256,bytes)": "b88d4fde",
					"setApprovalForAll(address,bool)": "a22cb465",
					"supportsInterface(bytes4)": "01ffc9a7",
					"symbol()": "95d89b41",
					"tokenURI(uint256)": "c87b56dd",
					"transferFrom(address,address,uint256)": "23b872dd",
					"transferOwnership(address)": "f2fde38b",
					"whitelist(address)": "9b19251a"
				}
			},
			"storageLayout": {
				"storage": [
					{
						"astId": 349,
						"contract": "contracts/SimpleNFT.sol:SimpleNFT",
						"label": "_name",
						"offset": 0,
						"slot": "0",
						"type": "t_string_storage"
					},
					{
						"astId": 351,
						"contract": "contracts/SimpleNFT.sol:SimpleNFT",
						"label": "_symbol",
						"offset": 0,
						"slot": "1",
						"type": "t_string_storage"
					},
					{
						"astId": 355,
						"contract": "contracts/SimpleNFT.sol:SimpleNFT",
						"label": "_owners",
						"offset": 0,
						"slot": "2",
						"type": "t_mapping(t_uint256,t_address)"
					},
					{
						"astId": 359,
						"contract": "contracts/SimpleNFT.sol:SimpleNFT",
						"label": "_balances",
						"offset": 0,
						"slot": "3",
						"type": "t_mapping(t_address,t_uint256)"
					},
					{
						"astId": 363,
						"contract": "contracts/SimpleNFT.sol:SimpleNFT",
						"label": "_tokenApprovals",
						"offset": 0,
						"slot": "4",
						"type": "t_mapping(t_uint256,t_address)"
					},
					{
						"astId": 369,
						"contract": "contracts/SimpleNFT.sol:SimpleNFT",
						"label": "_operatorApprovals",
						"offset": 0,
						"slot": "5",
						"type": "t_mapping(t_address,t_mapping(t_address,t_bool))"
					},
					{
						"astId": 1488,
						"contract": "contracts/SimpleNFT.sol:SimpleNFT",
						"label": "_tokenURIs",
						"offset": 0,
						"slot": "6",
						"type": "t_mapping(t_uint256,t_string_storage)"
					},
					{
						"astId": 8,
						"contract": "contracts/SimpleNFT.sol:SimpleNFT",
						"label": "_owner",
						"offset": 0,
						"slot": "7",
						"type": "t_address"
					},
					{
						"astId": 3177,
						"contract": "contracts/SimpleNFT.sol:SimpleNFT",
						"label": "whitelist",
						"offset": 0,
						"slot": "8",
						"type": "t_mapping(t_address,t_bool)"
					},
					{
						"astId": 3180,
						"contract": "contracts/SimpleNFT.sol:SimpleNFT",
						"label": "_tokenIdCounter",
						"offset": 0,
						"slot": "9",
						"type": "t_struct(Counter)1642_storage"
					}
				],
				"types": {
					"t_address": {
						"encoding": "inplace",
						"label": "address",
						"numberOfBytes": "20"
					},
					"t_bool": {
						"encoding": "inplace",
						"label": "bool",
						"numberOfBytes": "1"
					},
					"t_mapping(t_address,t_bool)": {
						"encoding": "mapping",
						"key": "t_address",
						"label": "mapping(address => bool)",
						"numberOfBytes": "32",
						"value": "t_bool"
					},
					"t_mapping(t_address,t_mapping(t_address,t_bool))": {
						"encoding": "mapping",
						"key": "t_address",
						"label": "mapping(address => mapping(address => bool))",
						"numberOfBytes": "32",
						"value": "t_mapping(t_address,t_bool)"
					},
					"t_mapping(t_address,t_uint256)": {
						"encoding": "mapping",
						"key": "t_address",
						"label": "mapping(address => uint256)",
						"numberOfBytes": "32",
						"value": "t_uint256"
					},
					"t_mapping(t_uint256,t_address)": {
						"encoding": "mapping",
						"key": "t_uint256",
						"label": "mapping(uint256 => address)",
						"numberOfBytes": "32",
						"value": "t_address"
					},
					"t_mapping(t_uint256,t_string_storage)": {
						"encoding": "mapping",
						"key": "t_uint256",
						"label": "mapping(uint256 => string)",
						"numberOfBytes": "32",
						"value": "t_string_storage"
					},
					"t_string_storage": {
						"encoding": "bytes",
						"label": "string",
						"numberOfBytes": "32"
					},
					"t_struct(Counter)1642_storage": {
						"encoding": "inplace",
						"label": "struct Counters.Counter",
						"members": [
							{
								"astId": 1641,
								"contract": "contracts/SimpleNFT.sol:SimpleNFT",
								"label": "_value",
								"offset": 0,
								"slot": "0",
								"type": "t_uint256"
							}
						],
						"numberOfBytes": "32"
					},
					"t_uint256": {
						"encoding": "inplace",
						"label": "uint256",
						"numberOfBytes": "32"
					}
				}
			},
			"userdoc": {
				"kind": "user",
				"methods": {},
				"version": 1
			}
		}
	}
}